{
	"ParintinsIngressos.sol": {
		"ParintinsIngressos": {
			"abi": [
				{
					"inputs": [],
					"stateMutability": "nonpayable",
					"type": "constructor"
				},
				{
					"anonymous": false,
					"inputs": [
						{
							"indexed": false,
							"internalType": "uint256",
							"name": "id",
							"type": "uint256"
						},
						{
							"indexed": false,
							"internalType": "string",
							"name": "tipo",
							"type": "string"
						},
						{
							"indexed": false,
							"internalType": "string",
							"name": "area",
							"type": "string"
						},
						{
							"indexed": false,
							"internalType": "string",
							"name": "tipoPreco",
							"type": "string"
						},
						{
							"indexed": false,
							"internalType": "uint8",
							"name": "noite",
							"type": "uint8"
						},
						{
							"indexed": false,
							"internalType": "string",
							"name": "lado",
							"type": "string"
						},
						{
							"indexed": false,
							"internalType": "address",
							"name": "comprador",
							"type": "address"
						},
						{
							"indexed": false,
							"internalType": "bytes32",
							"name": "cpfComprador",
							"type": "bytes32"
						}
					],
					"name": "IngressoVendido",
					"type": "event"
				},
				{
					"inputs": [
						{
							"internalType": "string",
							"name": "_area",
							"type": "string"
						},
						{
							"internalType": "string",
							"name": "_tipoPreco",
							"type": "string"
						},
						{
							"internalType": "uint8",
							"name": "_noite",
							"type": "uint8"
						},
						{
							"internalType": "string",
							"name": "_lado",
							"type": "string"
						},
						{
							"internalType": "bytes32",
							"name": "_cpfComprador",
							"type": "bytes32"
						}
					],
					"name": "comprarAvulso",
					"outputs": [],
					"stateMutability": "payable",
					"type": "function"
				},
				{
					"inputs": [
						{
							"internalType": "string",
							"name": "_area",
							"type": "string"
						},
						{
							"internalType": "string",
							"name": "_tipoPreco",
							"type": "string"
						},
						{
							"internalType": "string",
							"name": "_lado",
							"type": "string"
						},
						{
							"internalType": "bytes32",
							"name": "_cpfComprador",
							"type": "bytes32"
						}
					],
					"name": "comprarPassaporte",
					"outputs": [],
					"stateMutability": "payable",
					"type": "function"
				},
				{
					"inputs": [],
					"name": "ingressoCount",
					"outputs": [
						{
							"internalType": "uint256",
							"name": "",
							"type": "uint256"
						}
					],
					"stateMutability": "view",
					"type": "function"
				},
				{
					"inputs": [
						{
							"internalType": "uint256",
							"name": "",
							"type": "uint256"
						}
					],
					"name": "ingressos",
					"outputs": [
						{
							"internalType": "uint256",
							"name": "id",
							"type": "uint256"
						},
						{
							"internalType": "string",
							"name": "tipo",
							"type": "string"
						},
						{
							"internalType": "string",
							"name": "area",
							"type": "string"
						},
						{
							"internalType": "string",
							"name": "tipoPreco",
							"type": "string"
						},
						{
							"internalType": "uint8",
							"name": "noite",
							"type": "uint8"
						},
						{
							"internalType": "string",
							"name": "lado",
							"type": "string"
						},
						{
							"internalType": "address",
							"name": "comprador",
							"type": "address"
						},
						{
							"internalType": "bytes32",
							"name": "cpfComprador",
							"type": "bytes32"
						}
					],
					"stateMutability": "view",
					"type": "function"
				},
				{
					"inputs": [
						{
							"internalType": "bytes32",
							"name": "",
							"type": "bytes32"
						}
					],
					"name": "ingressosPorCpf",
					"outputs": [
						{
							"internalType": "uint256",
							"name": "",
							"type": "uint256"
						}
					],
					"stateMutability": "view",
					"type": "function"
				},
				{
					"inputs": [],
					"name": "listarIngressos",
					"outputs": [
						{
							"components": [
								{
									"internalType": "uint256",
									"name": "id",
									"type": "uint256"
								},
								{
									"internalType": "string",
									"name": "tipo",
									"type": "string"
								},
								{
									"internalType": "string",
									"name": "area",
									"type": "string"
								},
								{
									"internalType": "string",
									"name": "tipoPreco",
									"type": "string"
								},
								{
									"internalType": "uint8",
									"name": "noite",
									"type": "uint8"
								},
								{
									"internalType": "string",
									"name": "lado",
									"type": "string"
								},
								{
									"internalType": "address",
									"name": "comprador",
									"type": "address"
								},
								{
									"internalType": "bytes32",
									"name": "cpfComprador",
									"type": "bytes32"
								}
							],
							"internalType": "struct ParintinsIngressos.Ingresso[]",
							"name": "",
							"type": "tuple[]"
						}
					],
					"stateMutability": "view",
					"type": "function"
				},
				{
					"inputs": [],
					"name": "listarIngressosDisponiveis",
					"outputs": [
						{
							"internalType": "string[]",
							"name": "tipos",
							"type": "string[]"
						},
						{
							"internalType": "string[]",
							"name": "areas",
							"type": "string[]"
						},
						{
							"internalType": "string[]",
							"name": "tiposPreco",
							"type": "string[]"
						},
						{
							"internalType": "uint256[]",
							"name": "valores",
							"type": "uint256[]"
						}
					],
					"stateMutability": "view",
					"type": "function"
				},
				{
					"inputs": [],
					"name": "owner",
					"outputs": [
						{
							"internalType": "address",
							"name": "",
							"type": "address"
						}
					],
					"stateMutability": "view",
					"type": "function"
				},
				{
					"inputs": [
						{
							"internalType": "string",
							"name": "",
							"type": "string"
						},
						{
							"internalType": "string",
							"name": "",
							"type": "string"
						},
						{
							"internalType": "string",
							"name": "",
							"type": "string"
						}
					],
					"name": "precos",
					"outputs": [
						{
							"internalType": "uint256",
							"name": "",
							"type": "uint256"
						}
					],
					"stateMutability": "view",
					"type": "function"
				},
				{
					"inputs": [],
					"name": "sacar",
					"outputs": [],
					"stateMutability": "nonpayable",
					"type": "function"
				},
				{
					"inputs": [
						{
							"internalType": "string",
							"name": "_tipo",
							"type": "string"
						},
						{
							"internalType": "string",
							"name": "_area",
							"type": "string"
						},
						{
							"internalType": "string",
							"name": "_tipoPreco",
							"type": "string"
						},
						{
							"internalType": "uint256",
							"name": "_valor",
							"type": "uint256"
						}
					],
					"name": "setPreco",
					"outputs": [],
					"stateMutability": "nonpayable",
					"type": "function"
				}
			],
			"devdoc": {
				"kind": "dev",
				"methods": {},
				"version": 1
			},
			"evm": {
				"assembly": "    /* \"ParintinsIngressos.sol\":60:5934  contract ParintinsIngressos {... */\n  mstore(0x40, 0x80)\n    /* \"ParintinsIngressos.sol\":1317:1368  constructor() {... */\n  callvalue\n  dup1\n  iszero\n  tag_1\n  jumpi\n  revert(0x00, 0x00)\ntag_1:\n  pop\n    /* \"ParintinsIngressos.sol\":1350:1360  msg.sender */\n  caller\n    /* \"ParintinsIngressos.sol\":1342:1347  owner */\n  0x00\n  0x00\n    /* \"ParintinsIngressos.sol\":1342:1360  owner = msg.sender */\n  0x0100\n  exp\n  dup2\n  sload\n  dup2\n  0xffffffffffffffffffffffffffffffffffffffff\n  mul\n  not\n  and\n  swap1\n  dup4\n  0xffffffffffffffffffffffffffffffffffffffff\n  and\n  mul\n  or\n  swap1\n  sstore\n  pop\n    /* \"ParintinsIngressos.sol\":60:5934  contract ParintinsIngressos {... */\n  dataSize(sub_0)\n  dup1\n  dataOffset(sub_0)\n  0x00\n  codecopy\n  0x00\n  return\nstop\n\nsub_0: assembly {\n        /* \"ParintinsIngressos.sol\":60:5934  contract ParintinsIngressos {... */\n      mstore(0x40, 0x80)\n      jumpi(tag_1, lt(calldatasize, 0x04))\n      shr(0xe0, calldataload(0x00))\n      dup1\n      0x574ccbc6\n      gt\n      tag_13\n      jumpi\n      dup1\n      0x574ccbc6\n      eq\n      tag_7\n      jumpi\n      dup1\n      0x8da5cb5b\n      eq\n      tag_8\n      jumpi\n      dup1\n      0x931d66da\n      eq\n      tag_9\n      jumpi\n      dup1\n      0xa51068c8\n      eq\n      tag_10\n      jumpi\n      dup1\n      0xab879f7e\n      eq\n      tag_11\n      jumpi\n      dup1\n      0xc36deb0c\n      eq\n      tag_12\n      jumpi\n      jump(tag_1)\n    tag_13:\n      dup1\n      0x2b6e7eb4\n      eq\n      tag_2\n      jumpi\n      dup1\n      0x377633cb\n      eq\n      tag_3\n      jumpi\n      dup1\n      0x38224aa7\n      eq\n      tag_4\n      jumpi\n      dup1\n      0x451a7f1e\n      eq\n      tag_5\n      jumpi\n      dup1\n      0x4d4d2bf2\n      eq\n      tag_6\n      jumpi\n    tag_1:\n      revert(0x00, 0x00)\n        /* \"ParintinsIngressos.sol\":3743:4013  function listarIngressos() public view returns (Ingresso[] memory) {... */\n    tag_2:\n      callvalue\n      dup1\n      iszero\n      tag_14\n      jumpi\n      revert(0x00, 0x00)\n    tag_14:\n      pop\n      tag_15\n      tag_16\n      jump\t// in\n    tag_15:\n      mload(0x40)\n      tag_17\n      swap2\n      swap1\n      tag_18\n      jump\t// in\n    tag_17:\n      mload(0x40)\n      dup1\n      swap2\n      sub\n      swap1\n      return\n        /* \"ParintinsIngressos.sol\":773:848  mapping(string => mapping(string => mapping(string => uint))) public precos */\n    tag_3:\n      callvalue\n      dup1\n      iszero\n      tag_19\n      jumpi\n      revert(0x00, 0x00)\n    tag_19:\n      pop\n      tag_20\n      0x04\n      dup1\n      calldatasize\n      sub\n      dup2\n      add\n      swap1\n      tag_21\n      swap2\n      swap1\n      tag_22\n      jump\t// in\n    tag_21:\n      tag_23\n      jump\t// in\n    tag_20:\n      mload(0x40)\n      tag_24\n      swap2\n      swap1\n      tag_25\n      jump\t// in\n    tag_24:\n      mload(0x40)\n      dup1\n      swap2\n      sub\n      swap1\n      return\n        /* \"ParintinsIngressos.sol\":2681:3701  function comprarAvulso(string memory _area, string memory _tipoPreco, uint8 _noite, string memory _lado, bytes32 _cpfComprador) public payable {... */\n    tag_4:\n      tag_26\n      0x04\n      dup1\n      calldatasize\n      sub\n      dup2\n      add\n      swap1\n      tag_27\n      swap2\n      swap1\n      tag_28\n      jump\t// in\n    tag_27:\n      tag_29\n      jump\t// in\n    tag_26:\n      stop\n        /* \"ParintinsIngressos.sol\":912:959  mapping(bytes32 => uint) public ingressosPorCpf */\n    tag_5:\n      callvalue\n      dup1\n      iszero\n      tag_30\n      jumpi\n      revert(0x00, 0x00)\n    tag_30:\n      pop\n      tag_31\n      0x04\n      dup1\n      calldatasize\n      sub\n      dup2\n      add\n      swap1\n      tag_32\n      swap2\n      swap1\n      tag_33\n      jump\t// in\n    tag_32:\n      tag_34\n      jump\t// in\n    tag_31:\n      mload(0x40)\n      tag_35\n      swap2\n      swap1\n      tag_25\n      jump\t// in\n    tag_35:\n      mload(0x40)\n      dup1\n      swap2\n      sub\n      swap1\n      return\n        /* \"ParintinsIngressos.sol\":1427:1603  function setPreco(string memory _tipo, string memory _area, string memory _tipoPreco, uint _valor) public onlyOwner {... */\n    tag_6:\n      callvalue\n      dup1\n      iszero\n      tag_36\n      jumpi\n      revert(0x00, 0x00)\n    tag_36:\n      pop\n      tag_37\n      0x04\n      dup1\n      calldatasize\n      sub\n      dup2\n      add\n      swap1\n      tag_38\n      swap2\n      swap1\n      tag_39\n      jump\t// in\n    tag_38:\n      tag_40\n      jump\t// in\n    tag_37:\n      stop\n        /* \"ParintinsIngressos.sol\":662:704  mapping(uint => Ingresso) public ingressos */\n    tag_7:\n      callvalue\n      dup1\n      iszero\n      tag_41\n      jumpi\n      revert(0x00, 0x00)\n    tag_41:\n      pop\n      tag_42\n      0x04\n      dup1\n      calldatasize\n      sub\n      dup2\n      add\n      swap1\n      tag_43\n      swap2\n      swap1\n      tag_44\n      jump\t// in\n    tag_43:\n      tag_45\n      jump\t// in\n    tag_42:\n      mload(0x40)\n      tag_46\n      swap9\n      swap8\n      swap7\n      swap6\n      swap5\n      swap4\n      swap3\n      swap2\n      swap1\n      tag_47\n      jump\t// in\n    tag_46:\n      mload(0x40)\n      dup1\n      swap2\n      sub\n      swap1\n      return\n        /* \"ParintinsIngressos.sol\":95:115  address public owner */\n    tag_8:\n      callvalue\n      dup1\n      iszero\n      tag_48\n      jumpi\n      revert(0x00, 0x00)\n    tag_48:\n      pop\n      tag_49\n      tag_50\n      jump\t// in\n    tag_49:\n      mload(0x40)\n      tag_51\n      swap2\n      swap1\n      tag_52\n      jump\t// in\n    tag_51:\n      mload(0x40)\n      dup1\n      swap2\n      sub\n      swap1\n      return\n        /* \"ParintinsIngressos.sol\":4103:5792  function listarIngressosDisponiveis() public view returns (... */\n    tag_9:\n      callvalue\n      dup1\n      iszero\n      tag_53\n      jumpi\n      revert(0x00, 0x00)\n    tag_53:\n      pop\n      tag_54\n      tag_55\n      jump\t// in\n    tag_54:\n      mload(0x40)\n      tag_56\n      swap5\n      swap4\n      swap3\n      swap2\n      swap1\n      tag_57\n      jump\t// in\n    tag_56:\n      mload(0x40)\n      dup1\n      swap2\n      sub\n      swap1\n      return\n        /* \"ParintinsIngressos.sol\":5832:5931  function sacar() public onlyOwner {... */\n    tag_10:\n      callvalue\n      dup1\n      iszero\n      tag_58\n      jumpi\n      revert(0x00, 0x00)\n    tag_58:\n      pop\n      tag_59\n      tag_60\n      jump\t// in\n    tag_59:\n      stop\n        /* \"ParintinsIngressos.sol\":1670:2610  function comprarPassaporte(string memory _area, string memory _tipoPreco, string memory _lado, bytes32 _cpfComprador) public payable {... */\n    tag_11:\n      tag_61\n      0x04\n      dup1\n      calldatasize\n      sub\n      dup2\n      add\n      swap1\n      tag_62\n      swap2\n      swap1\n      tag_63\n      jump\t// in\n    tag_62:\n      tag_64\n      jump\t// in\n    tag_61:\n      stop\n        /* \"ParintinsIngressos.sol\":630:655  uint public ingressoCount */\n    tag_12:\n      callvalue\n      dup1\n      iszero\n      tag_65\n      jumpi\n      revert(0x00, 0x00)\n    tag_65:\n      pop\n      tag_66\n      tag_67\n      jump\t// in\n    tag_66:\n      mload(0x40)\n      tag_68\n      swap2\n      swap1\n      tag_25\n      jump\t// in\n    tag_68:\n      mload(0x40)\n      dup1\n      swap2\n      sub\n      swap1\n      return\n        /* \"ParintinsIngressos.sol\":3743:4013  function listarIngressos() public view returns (Ingresso[] memory) {... */\n    tag_16:\n        /* \"ParintinsIngressos.sol\":3791:3808  Ingresso[] memory */\n      0x60\n        /* \"ParintinsIngressos.sol\":3821:3844  Ingresso[] memory todos */\n      0x00\n        /* \"ParintinsIngressos.sol\":3862:3875  ingressoCount */\n      sload(0x01)\n        /* \"ParintinsIngressos.sol\":3847:3876  new Ingresso[](ingressoCount) */\n      0xffffffffffffffff\n      dup2\n      gt\n      iszero\n      tag_70\n      jumpi\n      tag_71\n      tag_72\n      jump\t// in\n    tag_71:\n    tag_70:\n      mload(0x40)\n      swap1\n      dup1\n      dup3\n      mstore\n      dup1\n      0x20\n      mul\n      0x20\n      add\n      dup3\n      add\n      0x40\n      mstore\n      dup1\n      iszero\n      tag_73\n      jumpi\n      dup2\n      0x20\n      add\n    tag_74:\n      tag_75\n      tag_76\n      jump\t// in\n    tag_75:\n      dup2\n      mstore\n      0x20\n      add\n      swap1\n      0x01\n      swap1\n      sub\n      swap1\n      dup2\n      tag_74\n      jumpi\n      swap1\n      pop\n    tag_73:\n      pop\n        /* \"ParintinsIngressos.sol\":3821:3876  Ingresso[] memory todos = new Ingresso[](ingressoCount) */\n      swap1\n      pop\n        /* \"ParintinsIngressos.sol\":3892:3898  uint i */\n      0x00\n        /* \"ParintinsIngressos.sol\":3901:3902  1 */\n      0x01\n        /* \"ParintinsIngressos.sol\":3892:3902  uint i = 1 */\n      swap1\n      pop\n        /* \"ParintinsIngressos.sol\":3887:3983  for (uint i = 1; i <= ingressoCount; i++) {... */\n    tag_77:\n        /* \"ParintinsIngressos.sol\":3909:3922  ingressoCount */\n      sload(0x01)\n        /* \"ParintinsIngressos.sol\":3904:3905  i */\n      dup2\n        /* \"ParintinsIngressos.sol\":3904:3922  i <= ingressoCount */\n      gt\n        /* \"ParintinsIngressos.sol\":3887:3983  for (uint i = 1; i <= ingressoCount; i++) {... */\n      tag_78\n      jumpi\n        /* \"ParintinsIngressos.sol\":3959:3968  ingressos */\n      0x02\n        /* \"ParintinsIngressos.sol\":3959:3971  ingressos[i] */\n      0x00\n        /* \"ParintinsIngressos.sol\":3969:3970  i */\n      dup3\n        /* \"ParintinsIngressos.sol\":3959:3971  ingressos[i] */\n      dup2\n      mstore\n      0x20\n      add\n      swap1\n      dup2\n      mstore\n      0x20\n      add\n      0x00\n      keccak256\n        /* \"ParintinsIngressos.sol\":3944:3971  todos[i - 1] = ingressos[i] */\n      mload(0x40)\n      dup1\n      0x0100\n      add\n      0x40\n      mstore\n      swap1\n      dup2\n      0x00\n      dup3\n      add\n      sload\n      dup2\n      mstore\n      0x20\n      add\n      0x01\n      dup3\n      add\n      dup1\n      sload\n      tag_80\n      swap1\n      tag_81\n      jump\t// in\n    tag_80:\n      dup1\n      0x1f\n      add\n      0x20\n      dup1\n      swap2\n      div\n      mul\n      0x20\n      add\n      mload(0x40)\n      swap1\n      dup2\n      add\n      0x40\n      mstore\n      dup1\n      swap3\n      swap2\n      swap1\n      dup2\n      dup2\n      mstore\n      0x20\n      add\n      dup3\n      dup1\n      sload\n      tag_82\n      swap1\n      tag_81\n      jump\t// in\n    tag_82:\n      dup1\n      iszero\n      tag_83\n      jumpi\n      dup1\n      0x1f\n      lt\n      tag_84\n      jumpi\n      0x0100\n      dup1\n      dup4\n      sload\n      div\n      mul\n      dup4\n      mstore\n      swap2\n      0x20\n      add\n      swap2\n      jump(tag_83)\n    tag_84:\n      dup3\n      add\n      swap2\n      swap1\n      0x00\n      mstore\n      keccak256(0x00, 0x20)\n      swap1\n    tag_85:\n      dup2\n      sload\n      dup2\n      mstore\n      swap1\n      0x01\n      add\n      swap1\n      0x20\n      add\n      dup1\n      dup4\n      gt\n      tag_85\n      jumpi\n      dup3\n      swap1\n      sub\n      0x1f\n      and\n      dup3\n      add\n      swap2\n    tag_83:\n      pop\n      pop\n      pop\n      pop\n      pop\n      dup2\n      mstore\n      0x20\n      add\n      0x02\n      dup3\n      add\n      dup1\n      sload\n      tag_86\n      swap1\n      tag_81\n      jump\t// in\n    tag_86:\n      dup1\n      0x1f\n      add\n      0x20\n      dup1\n      swap2\n      div\n      mul\n      0x20\n      add\n      mload(0x40)\n      swap1\n      dup2\n      add\n      0x40\n      mstore\n      dup1\n      swap3\n      swap2\n      swap1\n      dup2\n      dup2\n      mstore\n      0x20\n      add\n      dup3\n      dup1\n      sload\n      tag_87\n      swap1\n      tag_81\n      jump\t// in\n    tag_87:\n      dup1\n      iszero\n      tag_88\n      jumpi\n      dup1\n      0x1f\n      lt\n      tag_89\n      jumpi\n      0x0100\n      dup1\n      dup4\n      sload\n      div\n      mul\n      dup4\n      mstore\n      swap2\n      0x20\n      add\n      swap2\n      jump(tag_88)\n    tag_89:\n      dup3\n      add\n      swap2\n      swap1\n      0x00\n      mstore\n      keccak256(0x00, 0x20)\n      swap1\n    tag_90:\n      dup2\n      sload\n      dup2\n      mstore\n      swap1\n      0x01\n      add\n      swap1\n      0x20\n      add\n      dup1\n      dup4\n      gt\n      tag_90\n      jumpi\n      dup3\n      swap1\n      sub\n      0x1f\n      and\n      dup3\n      add\n      swap2\n    tag_88:\n      pop\n      pop\n      pop\n      pop\n      pop\n      dup2\n      mstore\n      0x20\n      add\n      0x03\n      dup3\n      add\n      dup1\n      sload\n      tag_91\n      swap1\n      tag_81\n      jump\t// in\n    tag_91:\n      dup1\n      0x1f\n      add\n      0x20\n      dup1\n      swap2\n      div\n      mul\n      0x20\n      add\n      mload(0x40)\n      swap1\n      dup2\n      add\n      0x40\n      mstore\n      dup1\n      swap3\n      swap2\n      swap1\n      dup2\n      dup2\n      mstore\n      0x20\n      add\n      dup3\n      dup1\n      sload\n      tag_92\n      swap1\n      tag_81\n      jump\t// in\n    tag_92:\n      dup1\n      iszero\n      tag_93\n      jumpi\n      dup1\n      0x1f\n      lt\n      tag_94\n      jumpi\n      0x0100\n      dup1\n      dup4\n      sload\n      div\n      mul\n      dup4\n      mstore\n      swap2\n      0x20\n      add\n      swap2\n      jump(tag_93)\n    tag_94:\n      dup3\n      add\n      swap2\n      swap1\n      0x00\n      mstore\n      keccak256(0x00, 0x20)\n      swap1\n    tag_95:\n      dup2\n      sload\n      dup2\n      mstore\n      swap1\n      0x01\n      add\n      swap1\n      0x20\n      add\n      dup1\n      dup4\n      gt\n      tag_95\n      jumpi\n      dup3\n      swap1\n      sub\n      0x1f\n      and\n      dup3\n      add\n      swap2\n    tag_93:\n      pop\n      pop\n      pop\n      pop\n      pop\n      dup2\n      mstore\n      0x20\n      add\n      0x04\n      dup3\n      add\n      0x00\n      swap1\n      sload\n      swap1\n      0x0100\n      exp\n      swap1\n      div\n      0xff\n      and\n      0xff\n      and\n      0xff\n      and\n      dup2\n      mstore\n      0x20\n      add\n      0x05\n      dup3\n      add\n      dup1\n      sload\n      tag_96\n      swap1\n      tag_81\n      jump\t// in\n    tag_96:\n      dup1\n      0x1f\n      add\n      0x20\n      dup1\n      swap2\n      div\n      mul\n      0x20\n      add\n      mload(0x40)\n      swap1\n      dup2\n      add\n      0x40\n      mstore\n      dup1\n      swap3\n      swap2\n      swap1\n      dup2\n      dup2\n      mstore\n      0x20\n      add\n      dup3\n      dup1\n      sload\n      tag_97\n      swap1\n      tag_81\n      jump\t// in\n    tag_97:\n      dup1\n      iszero\n      tag_98\n      jumpi\n      dup1\n      0x1f\n      lt\n      tag_99\n      jumpi\n      0x0100\n      dup1\n      dup4\n      sload\n      div\n      mul\n      dup4\n      mstore\n      swap2\n      0x20\n      add\n      swap2\n      jump(tag_98)\n    tag_99:\n      dup3\n      add\n      swap2\n      swap1\n      0x00\n      mstore\n      keccak256(0x00, 0x20)\n      swap1\n    tag_100:\n      dup2\n      sload\n      dup2\n      mstore\n      swap1\n      0x01\n      add\n      swap1\n      0x20\n      add\n      dup1\n      dup4\n      gt\n      tag_100\n      jumpi\n      dup3\n      swap1\n      sub\n      0x1f\n      and\n      dup3\n      add\n      swap2\n    tag_98:\n      pop\n      pop\n      pop\n      pop\n      pop\n      dup2\n      mstore\n      0x20\n      add\n      0x06\n      dup3\n      add\n      0x00\n      swap1\n      sload\n      swap1\n      0x0100\n      exp\n      swap1\n      div\n      0xffffffffffffffffffffffffffffffffffffffff\n      and\n      0xffffffffffffffffffffffffffffffffffffffff\n      and\n      0xffffffffffffffffffffffffffffffffffffffff\n      and\n      dup2\n      mstore\n      0x20\n      add\n      0x07\n      dup3\n      add\n      sload\n      dup2\n      mstore\n      pop\n      pop\n        /* \"ParintinsIngressos.sol\":3944:3949  todos */\n      dup3\n        /* \"ParintinsIngressos.sol\":3954:3955  1 */\n      0x01\n        /* \"ParintinsIngressos.sol\":3950:3951  i */\n      dup4\n        /* \"ParintinsIngressos.sol\":3950:3955  i - 1 */\n      tag_101\n      swap2\n      swap1\n      tag_102\n      jump\t// in\n    tag_101:\n        /* \"ParintinsIngressos.sol\":3944:3956  todos[i - 1] */\n      dup2\n      mload\n      dup2\n      lt\n      tag_103\n      jumpi\n      tag_104\n      tag_105\n      jump\t// in\n    tag_104:\n    tag_103:\n      0x20\n      mul\n      0x20\n      add\n      add\n        /* \"ParintinsIngressos.sol\":3944:3971  todos[i - 1] = ingressos[i] */\n      dup2\n      swap1\n      mstore\n      pop\n        /* \"ParintinsIngressos.sol\":3924:3927  i++ */\n      dup1\n      dup1\n      tag_106\n      swap1\n      tag_107\n      jump\t// in\n    tag_106:\n      swap2\n      pop\n      pop\n        /* \"ParintinsIngressos.sol\":3887:3983  for (uint i = 1; i <= ingressoCount; i++) {... */\n      jump(tag_77)\n    tag_78:\n      pop\n        /* \"ParintinsIngressos.sol\":4000:4005  todos */\n      dup1\n        /* \"ParintinsIngressos.sol\":3993:4005  return todos */\n      swap2\n      pop\n      pop\n        /* \"ParintinsIngressos.sol\":3743:4013  function listarIngressos() public view returns (Ingresso[] memory) {... */\n      swap1\n      jump\t// out\n        /* \"ParintinsIngressos.sol\":773:848  mapping(string => mapping(string => mapping(string => uint))) public precos */\n    tag_23:\n      0x03\n      dup4\n      dup1\n      mload\n      0x20\n      dup2\n      add\n      dup3\n      add\n      dup1\n      mload\n      dup5\n      dup3\n      mstore\n      0x20\n      dup4\n      add\n      0x20\n      dup6\n      add\n      keccak256\n      dup2\n      dup4\n      mstore\n      dup1\n      swap6\n      pop\n      pop\n      pop\n      pop\n      pop\n      pop\n      dup3\n      dup1\n      mload\n      0x20\n      dup2\n      add\n      dup3\n      add\n      dup1\n      mload\n      dup5\n      dup3\n      mstore\n      0x20\n      dup4\n      add\n      0x20\n      dup6\n      add\n      keccak256\n      dup2\n      dup4\n      mstore\n      dup1\n      swap6\n      pop\n      pop\n      pop\n      pop\n      pop\n      pop\n      dup2\n      dup1\n      mload\n      0x20\n      dup2\n      add\n      dup3\n      add\n      dup1\n      mload\n      dup5\n      dup3\n      mstore\n      0x20\n      dup4\n      add\n      0x20\n      dup6\n      add\n      keccak256\n      dup2\n      dup4\n      mstore\n      dup1\n      swap6\n      pop\n      pop\n      pop\n      pop\n      pop\n      pop\n      0x00\n      swap3\n      pop\n      swap3\n      pop\n      pop\n      pop\n      sload\n      dup2\n      jump\t// out\n        /* \"ParintinsIngressos.sol\":2681:3701  function comprarAvulso(string memory _area, string memory _tipoPreco, uint8 _noite, string memory _lado, bytes32 _cpfComprador) public payable {... */\n    tag_29:\n        /* \"ParintinsIngressos.sol\":2853:2854  1 */\n      0x01\n        /* \"ParintinsIngressos.sol\":2843:2849  _noite */\n      dup4\n        /* \"ParintinsIngressos.sol\":2843:2854  _noite >= 1 */\n      0xff\n      and\n      lt\n      iszero\n        /* \"ParintinsIngressos.sol\":2843:2869  _noite >= 1 && _noite <= 3 */\n      dup1\n      iszero\n      tag_109\n      jumpi\n      pop\n        /* \"ParintinsIngressos.sol\":2868:2869  3 */\n      0x03\n        /* \"ParintinsIngressos.sol\":2858:2864  _noite */\n      dup4\n        /* \"ParintinsIngressos.sol\":2858:2869  _noite <= 3 */\n      0xff\n      and\n      gt\n      iszero\n        /* \"ParintinsIngressos.sol\":2843:2869  _noite >= 1 && _noite <= 3 */\n    tag_109:\n        /* \"ParintinsIngressos.sol\":2835:2888  require(_noite >= 1 && _noite <= 3, \"Noite invalida\") */\n      tag_110\n      jumpi\n      mload(0x40)\n      0x08c379a000000000000000000000000000000000000000000000000000000000\n      dup2\n      mstore\n      0x04\n      add\n      tag_111\n      swap1\n      tag_112\n      jump\t// in\n    tag_111:\n      mload(0x40)\n      dup1\n      swap2\n      sub\n      swap1\n      revert\n    tag_110:\n        /* \"ParintinsIngressos.sol\":2899:2917  string memory tipo */\n      0x00\n        /* \"ParintinsIngressos.sol\":2899:2928  string memory tipo = \"Avulso\" */\n      mload(0x40)\n      dup1\n      0x40\n      add\n      0x40\n      mstore\n      dup1\n      0x06\n      dup2\n      mstore\n      0x20\n      add\n      0x4176756c736f0000000000000000000000000000000000000000000000000000\n      dup2\n      mstore\n      pop\n      swap1\n      pop\n        /* \"ParintinsIngressos.sol\":2939:2949  uint preco */\n      0x00\n        /* \"ParintinsIngressos.sol\":2952:2958  precos */\n      0x03\n        /* \"ParintinsIngressos.sol\":2959:2963  tipo */\n      dup3\n        /* \"ParintinsIngressos.sol\":2952:2964  precos[tipo] */\n      mload(0x40)\n      tag_113\n      swap2\n      swap1\n      tag_114\n      jump\t// in\n    tag_113:\n      swap1\n      dup2\n      mstore\n      0x20\n      add\n      mload(0x40)\n      dup1\n      swap2\n      sub\n      swap1\n      keccak256\n        /* \"ParintinsIngressos.sol\":2965:2970  _area */\n      dup8\n        /* \"ParintinsIngressos.sol\":2952:2971  precos[tipo][_area] */\n      mload(0x40)\n      tag_115\n      swap2\n      swap1\n      tag_114\n      jump\t// in\n    tag_115:\n      swap1\n      dup2\n      mstore\n      0x20\n      add\n      mload(0x40)\n      dup1\n      swap2\n      sub\n      swap1\n      keccak256\n        /* \"ParintinsIngressos.sol\":2972:2982  _tipoPreco */\n      dup7\n        /* \"ParintinsIngressos.sol\":2952:2983  precos[tipo][_area][_tipoPreco] */\n      mload(0x40)\n      tag_116\n      swap2\n      swap1\n      tag_114\n      jump\t// in\n    tag_116:\n      swap1\n      dup2\n      mstore\n      0x20\n      add\n      mload(0x40)\n      dup1\n      swap2\n      sub\n      swap1\n      keccak256\n      sload\n        /* \"ParintinsIngressos.sol\":2939:2983  uint preco = precos[tipo][_area][_tipoPreco] */\n      swap1\n      pop\n        /* \"ParintinsIngressos.sol\":3010:3011  0 */\n      0x00\n        /* \"ParintinsIngressos.sol\":3002:3007  preco */\n      dup2\n        /* \"ParintinsIngressos.sol\":3002:3011  preco > 0 */\n      gt\n        /* \"ParintinsIngressos.sol\":2994:3037  require(preco > 0, \"Preco nao configurado\") */\n      tag_117\n      jumpi\n      mload(0x40)\n      0x08c379a000000000000000000000000000000000000000000000000000000000\n      dup2\n      mstore\n      0x04\n      add\n      tag_118\n      swap1\n      tag_119\n      jump\t// in\n    tag_118:\n      mload(0x40)\n      dup1\n      swap2\n      sub\n      swap1\n      revert\n    tag_117:\n        /* \"ParintinsIngressos.sol\":3069:3074  preco */\n      dup1\n        /* \"ParintinsIngressos.sol\":3056:3065  msg.value */\n      callvalue\n        /* \"ParintinsIngressos.sol\":3056:3074  msg.value >= preco */\n      lt\n      iszero\n        /* \"ParintinsIngressos.sol\":3048:3097  require(msg.value >= preco, \"Valor insuficiente\") */\n      tag_120\n      jumpi\n      mload(0x40)\n      0x08c379a000000000000000000000000000000000000000000000000000000000\n      dup2\n      mstore\n      0x04\n      add\n      tag_121\n      swap1\n      tag_122\n      jump\t// in\n    tag_121:\n      mload(0x40)\n      dup1\n      swap2\n      sub\n      swap1\n      revert\n    tag_120:\n        /* \"ParintinsIngressos.sol\":3151:3152  2 */\n      0x02\n        /* \"ParintinsIngressos.sol\":3118:3133  ingressosPorCpf */\n      0x04\n        /* \"ParintinsIngressos.sol\":3118:3148  ingressosPorCpf[_cpfComprador] */\n      0x00\n        /* \"ParintinsIngressos.sol\":3134:3147  _cpfComprador */\n      dup6\n        /* \"ParintinsIngressos.sol\":3118:3148  ingressosPorCpf[_cpfComprador] */\n      dup2\n      mstore\n      0x20\n      add\n      swap1\n      dup2\n      mstore\n      0x20\n      add\n      0x00\n      keccak256\n      sload\n        /* \"ParintinsIngressos.sol\":3118:3152  ingressosPorCpf[_cpfComprador] < 2 */\n      lt\n        /* \"ParintinsIngressos.sol\":3110:3195  require(ingressosPorCpf[_cpfComprador] < 2, \"Limite de 2 ingressos por CPF atingido\") */\n      tag_123\n      jumpi\n      mload(0x40)\n      0x08c379a000000000000000000000000000000000000000000000000000000000\n      dup2\n      mstore\n      0x04\n      add\n      tag_124\n      swap1\n      tag_125\n      jump\t// in\n    tag_124:\n      mload(0x40)\n      dup1\n      swap2\n      sub\n      swap1\n      revert\n    tag_123:\n        /* \"ParintinsIngressos.sol\":3208:3221  ingressoCount */\n      0x01\n      0x00\n        /* \"ParintinsIngressos.sol\":3208:3223  ingressoCount++ */\n      dup2\n      sload\n      dup1\n      swap3\n      swap2\n      swap1\n      tag_126\n      swap1\n      tag_107\n      jump\t// in\n    tag_126:\n      swap2\n      swap1\n      pop\n      sstore\n      pop\n        /* \"ParintinsIngressos.sol\":3261:3533  Ingresso({... */\n      mload(0x40)\n      dup1\n      0x0100\n      add\n      0x40\n      mstore\n      dup1\n        /* \"ParintinsIngressos.sol\":3289:3302  ingressoCount */\n      sload(0x01)\n        /* \"ParintinsIngressos.sol\":3261:3533  Ingresso({... */\n      dup2\n      mstore\n      0x20\n      add\n        /* \"ParintinsIngressos.sol\":3323:3327  tipo */\n      dup4\n        /* \"ParintinsIngressos.sol\":3261:3533  Ingresso({... */\n      dup2\n      mstore\n      0x20\n      add\n        /* \"ParintinsIngressos.sol\":3348:3353  _area */\n      dup9\n        /* \"ParintinsIngressos.sol\":3261:3533  Ingresso({... */\n      dup2\n      mstore\n      0x20\n      add\n        /* \"ParintinsIngressos.sol\":3379:3389  _tipoPreco */\n      dup8\n        /* \"ParintinsIngressos.sol\":3261:3533  Ingresso({... */\n      dup2\n      mstore\n      0x20\n      add\n        /* \"ParintinsIngressos.sol\":3411:3417  _noite */\n      dup7\n        /* \"ParintinsIngressos.sol\":3261:3533  Ingresso({... */\n      0xff\n      and\n      dup2\n      mstore\n      0x20\n      add\n        /* \"ParintinsIngressos.sol\":3438:3443  _lado */\n      dup6\n        /* \"ParintinsIngressos.sol\":3261:3533  Ingresso({... */\n      dup2\n      mstore\n      0x20\n      add\n        /* \"ParintinsIngressos.sol\":3469:3479  msg.sender */\n      caller\n        /* \"ParintinsIngressos.sol\":3261:3533  Ingresso({... */\n      0xffffffffffffffffffffffffffffffffffffffff\n      and\n      dup2\n      mstore\n      0x20\n      add\n        /* \"ParintinsIngressos.sol\":3508:3521  _cpfComprador */\n      dup5\n        /* \"ParintinsIngressos.sol\":3261:3533  Ingresso({... */\n      dup2\n      mstore\n      pop\n        /* \"ParintinsIngressos.sol\":3234:3243  ingressos */\n      0x02\n        /* \"ParintinsIngressos.sol\":3234:3258  ingressos[ingressoCount] */\n      0x00\n        /* \"ParintinsIngressos.sol\":3244:3257  ingressoCount */\n      sload(0x01)\n        /* \"ParintinsIngressos.sol\":3234:3258  ingressos[ingressoCount] */\n      dup2\n      mstore\n      0x20\n      add\n      swap1\n      dup2\n      mstore\n      0x20\n      add\n      0x00\n      keccak256\n        /* \"ParintinsIngressos.sol\":3234:3533  ingressos[ingressoCount] = Ingresso({... */\n      0x00\n      dup3\n      add\n      mload\n      dup2\n      0x00\n      add\n      sstore\n      0x20\n      dup3\n      add\n      mload\n      dup2\n      0x01\n      add\n      swap1\n      dup2\n      tag_127\n      swap2\n      swap1\n      tag_128\n      jump\t// in\n    tag_127:\n      pop\n      0x40\n      dup3\n      add\n      mload\n      dup2\n      0x02\n      add\n      swap1\n      dup2\n      tag_129\n      swap2\n      swap1\n      tag_128\n      jump\t// in\n    tag_129:\n      pop\n      0x60\n      dup3\n      add\n      mload\n      dup2\n      0x03\n      add\n      swap1\n      dup2\n      tag_130\n      swap2\n      swap1\n      tag_128\n      jump\t// in\n    tag_130:\n      pop\n      0x80\n      dup3\n      add\n      mload\n      dup2\n      0x04\n      add\n      exp(0x0100, 0x00)\n      dup2\n      sload\n      dup2\n      0xff\n      mul\n      not\n      and\n      swap1\n      dup4\n      0xff\n      and\n      mul\n      or\n      swap1\n      sstore\n      pop\n      0xa0\n      dup3\n      add\n      mload\n      dup2\n      0x05\n      add\n      swap1\n      dup2\n      tag_131\n      swap2\n      swap1\n      tag_128\n      jump\t// in\n    tag_131:\n      pop\n      0xc0\n      dup3\n      add\n      mload\n      dup2\n      0x06\n      add\n      exp(0x0100, 0x00)\n      dup2\n      sload\n      dup2\n      0xffffffffffffffffffffffffffffffffffffffff\n      mul\n      not\n      and\n      swap1\n      dup4\n      0xffffffffffffffffffffffffffffffffffffffff\n      and\n      mul\n      or\n      swap1\n      sstore\n      pop\n      0xe0\n      dup3\n      add\n      mload\n      dup2\n      0x07\n      add\n      sstore\n      swap1\n      pop\n      pop\n        /* \"ParintinsIngressos.sol\":3546:3561  ingressosPorCpf */\n      0x04\n        /* \"ParintinsIngressos.sol\":3546:3576  ingressosPorCpf[_cpfComprador] */\n      0x00\n        /* \"ParintinsIngressos.sol\":3562:3575  _cpfComprador */\n      dup5\n        /* \"ParintinsIngressos.sol\":3546:3576  ingressosPorCpf[_cpfComprador] */\n      dup2\n      mstore\n      0x20\n      add\n      swap1\n      dup2\n      mstore\n      0x20\n      add\n      0x00\n      keccak256\n      0x00\n        /* \"ParintinsIngressos.sol\":3546:3578  ingressosPorCpf[_cpfComprador]++ */\n      dup2\n      sload\n      dup1\n      swap3\n      swap2\n      swap1\n      tag_132\n      swap1\n      tag_107\n      jump\t// in\n    tag_132:\n      swap2\n      swap1\n      pop\n      sstore\n      pop\n        /* \"ParintinsIngressos.sol\":3596:3693  IngressoVendido(ingressoCount, tipo, _area, _tipoPreco, _noite, _lado, msg.sender, _cpfComprador) */\n      0x50a2d2c5907c0982300d5de2585b6f5bb69b85cf6a926336ca938b641aae14e8\n        /* \"ParintinsIngressos.sol\":3612:3625  ingressoCount */\n      sload(0x01)\n        /* \"ParintinsIngressos.sol\":3627:3631  tipo */\n      dup4\n        /* \"ParintinsIngressos.sol\":3633:3638  _area */\n      dup10\n        /* \"ParintinsIngressos.sol\":3640:3650  _tipoPreco */\n      dup10\n        /* \"ParintinsIngressos.sol\":3652:3658  _noite */\n      dup10\n        /* \"ParintinsIngressos.sol\":3660:3665  _lado */\n      dup10\n        /* \"ParintinsIngressos.sol\":3667:3677  msg.sender */\n      caller\n        /* \"ParintinsIngressos.sol\":3679:3692  _cpfComprador */\n      dup11\n        /* \"ParintinsIngressos.sol\":3596:3693  IngressoVendido(ingressoCount, tipo, _area, _tipoPreco, _noite, _lado, msg.sender, _cpfComprador) */\n      mload(0x40)\n      tag_133\n      swap9\n      swap8\n      swap7\n      swap6\n      swap5\n      swap4\n      swap3\n      swap2\n      swap1\n      tag_47\n      jump\t// in\n    tag_133:\n      mload(0x40)\n      dup1\n      swap2\n      sub\n      swap1\n      log1\n        /* \"ParintinsIngressos.sol\":2824:3701  {... */\n      pop\n      pop\n        /* \"ParintinsIngressos.sol\":2681:3701  function comprarAvulso(string memory _area, string memory _tipoPreco, uint8 _noite, string memory _lado, bytes32 _cpfComprador) public payable {... */\n      pop\n      pop\n      pop\n      pop\n      pop\n      jump\t// out\n        /* \"ParintinsIngressos.sol\":912:959  mapping(bytes32 => uint) public ingressosPorCpf */\n    tag_34:\n      mstore(0x20, 0x04)\n      dup1\n      0x00\n      mstore\n      keccak256(0x00, 0x40)\n      0x00\n      swap2\n      pop\n      swap1\n      pop\n      sload\n      dup2\n      jump\t// out\n        /* \"ParintinsIngressos.sol\":1427:1603  function setPreco(string memory _tipo, string memory _area, string memory _tipoPreco, uint _valor) public onlyOwner {... */\n    tag_40:\n        /* \"ParintinsIngressos.sol\":1251:1256  owner */\n      0x00\n      0x00\n      swap1\n      sload\n      swap1\n      0x0100\n      exp\n      swap1\n      div\n      0xffffffffffffffffffffffffffffffffffffffff\n      and\n        /* \"ParintinsIngressos.sol\":1237:1256  msg.sender == owner */\n      0xffffffffffffffffffffffffffffffffffffffff\n      and\n        /* \"ParintinsIngressos.sol\":1237:1247  msg.sender */\n      caller\n        /* \"ParintinsIngressos.sol\":1237:1256  msg.sender == owner */\n      0xffffffffffffffffffffffffffffffffffffffff\n      and\n      eq\n        /* \"ParintinsIngressos.sol\":1229:1289  require(msg.sender == owner, \"Somente o dono pode executar\") */\n      tag_135\n      jumpi\n      mload(0x40)\n      0x08c379a000000000000000000000000000000000000000000000000000000000\n      dup2\n      mstore\n      0x04\n      add\n      tag_136\n      swap1\n      tag_137\n      jump\t// in\n    tag_136:\n      mload(0x40)\n      dup1\n      swap2\n      sub\n      swap1\n      revert\n    tag_135:\n        /* \"ParintinsIngressos.sol\":1589:1595  _valor */\n      dup1\n        /* \"ParintinsIngressos.sol\":1554:1560  precos */\n      0x03\n        /* \"ParintinsIngressos.sol\":1561:1566  _tipo */\n      dup6\n        /* \"ParintinsIngressos.sol\":1554:1567  precos[_tipo] */\n      mload(0x40)\n      tag_139\n      swap2\n      swap1\n      tag_114\n      jump\t// in\n    tag_139:\n      swap1\n      dup2\n      mstore\n      0x20\n      add\n      mload(0x40)\n      dup1\n      swap2\n      sub\n      swap1\n      keccak256\n        /* \"ParintinsIngressos.sol\":1568:1573  _area */\n      dup5\n        /* \"ParintinsIngressos.sol\":1554:1574  precos[_tipo][_area] */\n      mload(0x40)\n      tag_140\n      swap2\n      swap1\n      tag_114\n      jump\t// in\n    tag_140:\n      swap1\n      dup2\n      mstore\n      0x20\n      add\n      mload(0x40)\n      dup1\n      swap2\n      sub\n      swap1\n      keccak256\n        /* \"ParintinsIngressos.sol\":1575:1585  _tipoPreco */\n      dup4\n        /* \"ParintinsIngressos.sol\":1554:1586  precos[_tipo][_area][_tipoPreco] */\n      mload(0x40)\n      tag_141\n      swap2\n      swap1\n      tag_114\n      jump\t// in\n    tag_141:\n      swap1\n      dup2\n      mstore\n      0x20\n      add\n      mload(0x40)\n      dup1\n      swap2\n      sub\n      swap1\n      keccak256\n        /* \"ParintinsIngressos.sol\":1554:1595  precos[_tipo][_area][_tipoPreco] = _valor */\n      dup2\n      swap1\n      sstore\n      pop\n        /* \"ParintinsIngressos.sol\":1427:1603  function setPreco(string memory _tipo, string memory _area, string memory _tipoPreco, uint _valor) public onlyOwner {... */\n      pop\n      pop\n      pop\n      pop\n      jump\t// out\n        /* \"ParintinsIngressos.sol\":662:704  mapping(uint => Ingresso) public ingressos */\n    tag_45:\n      mstore(0x20, 0x02)\n      dup1\n      0x00\n      mstore\n      keccak256(0x00, 0x40)\n      0x00\n      swap2\n      pop\n      swap1\n      pop\n      dup1\n      0x00\n      add\n      sload\n      swap1\n      dup1\n      0x01\n      add\n      dup1\n      sload\n      tag_142\n      swap1\n      tag_81\n      jump\t// in\n    tag_142:\n      dup1\n      0x1f\n      add\n      0x20\n      dup1\n      swap2\n      div\n      mul\n      0x20\n      add\n      mload(0x40)\n      swap1\n      dup2\n      add\n      0x40\n      mstore\n      dup1\n      swap3\n      swap2\n      swap1\n      dup2\n      dup2\n      mstore\n      0x20\n      add\n      dup3\n      dup1\n      sload\n      tag_143\n      swap1\n      tag_81\n      jump\t// in\n    tag_143:\n      dup1\n      iszero\n      tag_144\n      jumpi\n      dup1\n      0x1f\n      lt\n      tag_145\n      jumpi\n      0x0100\n      dup1\n      dup4\n      sload\n      div\n      mul\n      dup4\n      mstore\n      swap2\n      0x20\n      add\n      swap2\n      jump(tag_144)\n    tag_145:\n      dup3\n      add\n      swap2\n      swap1\n      0x00\n      mstore\n      keccak256(0x00, 0x20)\n      swap1\n    tag_146:\n      dup2\n      sload\n      dup2\n      mstore\n      swap1\n      0x01\n      add\n      swap1\n      0x20\n      add\n      dup1\n      dup4\n      gt\n      tag_146\n      jumpi\n      dup3\n      swap1\n      sub\n      0x1f\n      and\n      dup3\n      add\n      swap2\n    tag_144:\n      pop\n      pop\n      pop\n      pop\n      pop\n      swap1\n      dup1\n      0x02\n      add\n      dup1\n      sload\n      tag_147\n      swap1\n      tag_81\n      jump\t// in\n    tag_147:\n      dup1\n      0x1f\n      add\n      0x20\n      dup1\n      swap2\n      div\n      mul\n      0x20\n      add\n      mload(0x40)\n      swap1\n      dup2\n      add\n      0x40\n      mstore\n      dup1\n      swap3\n      swap2\n      swap1\n      dup2\n      dup2\n      mstore\n      0x20\n      add\n      dup3\n      dup1\n      sload\n      tag_148\n      swap1\n      tag_81\n      jump\t// in\n    tag_148:\n      dup1\n      iszero\n      tag_149\n      jumpi\n      dup1\n      0x1f\n      lt\n      tag_150\n      jumpi\n      0x0100\n      dup1\n      dup4\n      sload\n      div\n      mul\n      dup4\n      mstore\n      swap2\n      0x20\n      add\n      swap2\n      jump(tag_149)\n    tag_150:\n      dup3\n      add\n      swap2\n      swap1\n      0x00\n      mstore\n      keccak256(0x00, 0x20)\n      swap1\n    tag_151:\n      dup2\n      sload\n      dup2\n      mstore\n      swap1\n      0x01\n      add\n      swap1\n      0x20\n      add\n      dup1\n      dup4\n      gt\n      tag_151\n      jumpi\n      dup3\n      swap1\n      sub\n      0x1f\n      and\n      dup3\n      add\n      swap2\n    tag_149:\n      pop\n      pop\n      pop\n      pop\n      pop\n      swap1\n      dup1\n      0x03\n      add\n      dup1\n      sload\n      tag_152\n      swap1\n      tag_81\n      jump\t// in\n    tag_152:\n      dup1\n      0x1f\n      add\n      0x20\n      dup1\n      swap2\n      div\n      mul\n      0x20\n      add\n      mload(0x40)\n      swap1\n      dup2\n      add\n      0x40\n      mstore\n      dup1\n      swap3\n      swap2\n      swap1\n      dup2\n      dup2\n      mstore\n      0x20\n      add\n      dup3\n      dup1\n      sload\n      tag_153\n      swap1\n      tag_81\n      jump\t// in\n    tag_153:\n      dup1\n      iszero\n      tag_154\n      jumpi\n      dup1\n      0x1f\n      lt\n      tag_155\n      jumpi\n      0x0100\n      dup1\n      dup4\n      sload\n      div\n      mul\n      dup4\n      mstore\n      swap2\n      0x20\n      add\n      swap2\n      jump(tag_154)\n    tag_155:\n      dup3\n      add\n      swap2\n      swap1\n      0x00\n      mstore\n      keccak256(0x00, 0x20)\n      swap1\n    tag_156:\n      dup2\n      sload\n      dup2\n      mstore\n      swap1\n      0x01\n      add\n      swap1\n      0x20\n      add\n      dup1\n      dup4\n      gt\n      tag_156\n      jumpi\n      dup3\n      swap1\n      sub\n      0x1f\n      and\n      dup3\n      add\n      swap2\n    tag_154:\n      pop\n      pop\n      pop\n      pop\n      pop\n      swap1\n      dup1\n      0x04\n      add\n      0x00\n      swap1\n      sload\n      swap1\n      0x0100\n      exp\n      swap1\n      div\n      0xff\n      and\n      swap1\n      dup1\n      0x05\n      add\n      dup1\n      sload\n      tag_157\n      swap1\n      tag_81\n      jump\t// in\n    tag_157:\n      dup1\n      0x1f\n      add\n      0x20\n      dup1\n      swap2\n      div\n      mul\n      0x20\n      add\n      mload(0x40)\n      swap1\n      dup2\n      add\n      0x40\n      mstore\n      dup1\n      swap3\n      swap2\n      swap1\n      dup2\n      dup2\n      mstore\n      0x20\n      add\n      dup3\n      dup1\n      sload\n      tag_158\n      swap1\n      tag_81\n      jump\t// in\n    tag_158:\n      dup1\n      iszero\n      tag_159\n      jumpi\n      dup1\n      0x1f\n      lt\n      tag_160\n      jumpi\n      0x0100\n      dup1\n      dup4\n      sload\n      div\n      mul\n      dup4\n      mstore\n      swap2\n      0x20\n      add\n      swap2\n      jump(tag_159)\n    tag_160:\n      dup3\n      add\n      swap2\n      swap1\n      0x00\n      mstore\n      keccak256(0x00, 0x20)\n      swap1\n    tag_161:\n      dup2\n      sload\n      dup2\n      mstore\n      swap1\n      0x01\n      add\n      swap1\n      0x20\n      add\n      dup1\n      dup4\n      gt\n      tag_161\n      jumpi\n      dup3\n      swap1\n      sub\n      0x1f\n      and\n      dup3\n      add\n      swap2\n    tag_159:\n      pop\n      pop\n      pop\n      pop\n      pop\n      swap1\n      dup1\n      0x06\n      add\n      0x00\n      swap1\n      sload\n      swap1\n      0x0100\n      exp\n      swap1\n      div\n      0xffffffffffffffffffffffffffffffffffffffff\n      and\n      swap1\n      dup1\n      0x07\n      add\n      sload\n      swap1\n      pop\n      dup9\n      jump\t// out\n        /* \"ParintinsIngressos.sol\":95:115  address public owner */\n    tag_50:\n      0x00\n      0x00\n      swap1\n      sload\n      swap1\n      0x0100\n      exp\n      swap1\n      div\n      0xffffffffffffffffffffffffffffffffffffffff\n      and\n      dup2\n      jump\t// out\n        /* \"ParintinsIngressos.sol\":4103:5792  function listarIngressosDisponiveis() public view returns (... */\n    tag_55:\n        /* \"ParintinsIngressos.sol\":4172:4193  string[] memory tipos */\n      0x60\n        /* \"ParintinsIngressos.sol\":4204:4225  string[] memory areas */\n      dup1\n        /* \"ParintinsIngressos.sol\":4236:4262  string[] memory tiposPreco */\n      0x60\n        /* \"ParintinsIngressos.sol\":4273:4294  uint[] memory valores */\n      dup1\n        /* \"ParintinsIngressos.sol\":4313:4340  string[2] memory tiposFixos */\n      0x00\n        /* \"ParintinsIngressos.sol\":4313:4367  string[2] memory tiposFixos = [\"Passaporte\", \"Avulso\"] */\n      mload(0x40)\n      dup1\n      0x40\n      add\n      0x40\n      mstore\n      dup1\n      mload(0x40)\n      dup1\n      0x40\n      add\n      0x40\n      mstore\n      dup1\n      0x0a\n      dup2\n      mstore\n      0x20\n      add\n      0x5061737361706f72746500000000000000000000000000000000000000000000\n      dup2\n      mstore\n      pop\n      dup2\n      mstore\n      0x20\n      add\n      mload(0x40)\n      dup1\n      0x40\n      add\n      0x40\n      mstore\n      dup1\n      0x06\n      dup2\n      mstore\n      0x20\n      add\n      0x4176756c736f0000000000000000000000000000000000000000000000000000\n      dup2\n      mstore\n      pop\n      dup2\n      mstore\n      pop\n      swap1\n      pop\n        /* \"ParintinsIngressos.sol\":4378:4405  string[4] memory areasFixas */\n      0x00\n        /* \"ParintinsIngressos.sol\":4378:4495  string[4] memory areasFixas = [\"Arquibancada Central\", \"Arquibancada Especial\", \"Cadeira Tipo 01\", \"Cadeira Tipo 02\"] */\n      mload(0x40)\n      dup1\n      0x80\n      add\n      0x40\n      mstore\n      dup1\n      mload(0x40)\n      dup1\n      0x40\n      add\n      0x40\n      mstore\n      dup1\n      0x14\n      dup2\n      mstore\n      0x20\n      add\n      0x417271756962616e636164612043656e7472616c000000000000000000000000\n      dup2\n      mstore\n      pop\n      dup2\n      mstore\n      0x20\n      add\n      mload(0x40)\n      dup1\n      0x40\n      add\n      0x40\n      mstore\n      dup1\n      0x15\n      dup2\n      mstore\n      0x20\n      add\n      0x417271756962616e6361646120457370656369616c0000000000000000000000\n      dup2\n      mstore\n      pop\n      dup2\n      mstore\n      0x20\n      add\n      mload(0x40)\n      dup1\n      0x40\n      add\n      0x40\n      mstore\n      dup1\n      0x0f\n      dup2\n      mstore\n      0x20\n      add\n      0x43616465697261205469706f2030310000000000000000000000000000000000\n      dup2\n      mstore\n      pop\n      dup2\n      mstore\n      0x20\n      add\n      mload(0x40)\n      dup1\n      0x40\n      add\n      0x40\n      mstore\n      dup1\n      0x0f\n      dup2\n      mstore\n      0x20\n      add\n      0x43616465697261205469706f2030320000000000000000000000000000000000\n      dup2\n      mstore\n      pop\n      dup2\n      mstore\n      pop\n      swap1\n      pop\n        /* \"ParintinsIngressos.sol\":4506:4538  string[2] memory tiposPrecoFixos */\n      0x00\n        /* \"ParintinsIngressos.sol\":4506:4560  string[2] memory tiposPrecoFixos = [\"Inteira\", \"Meia\"] */\n      mload(0x40)\n      dup1\n      0x40\n      add\n      0x40\n      mstore\n      dup1\n      mload(0x40)\n      dup1\n      0x40\n      add\n      0x40\n      mstore\n      dup1\n      0x07\n      dup2\n      mstore\n      0x20\n      add\n      0x496e746569726100000000000000000000000000000000000000000000000000\n      dup2\n      mstore\n      pop\n      dup2\n      mstore\n      0x20\n      add\n      mload(0x40)\n      dup1\n      0x40\n      add\n      0x40\n      mstore\n      dup1\n      0x04\n      dup2\n      mstore\n      0x20\n      add\n      0x4d65696100000000000000000000000000000000000000000000000000000000\n      dup2\n      mstore\n      pop\n      dup2\n      mstore\n      pop\n      swap1\n      pop\n        /* \"ParintinsIngressos.sol\":4573:4583  uint count */\n      0x00\n        /* \"ParintinsIngressos.sol\":4586:4587  0 */\n      0x00\n        /* \"ParintinsIngressos.sol\":4573:4587  uint count = 0 */\n      swap1\n      pop\n        /* \"ParintinsIngressos.sol\":4603:4609  uint t */\n      0x00\n        /* \"ParintinsIngressos.sol\":4612:4613  0 */\n      0x00\n        /* \"ParintinsIngressos.sol\":4603:4613  uint t = 0 */\n      swap1\n      pop\n        /* \"ParintinsIngressos.sol\":4598:4964  for (uint t = 0; t < tiposFixos.length; t++) {... */\n    tag_163:\n        /* \"ParintinsIngressos.sol\":4619:4636  tiposFixos.length */\n      0x02\n        /* \"ParintinsIngressos.sol\":4615:4616  t */\n      dup2\n        /* \"ParintinsIngressos.sol\":4615:4636  t < tiposFixos.length */\n      lt\n        /* \"ParintinsIngressos.sol\":4598:4964  for (uint t = 0; t < tiposFixos.length; t++) {... */\n      iszero\n      tag_164\n      jumpi\n        /* \"ParintinsIngressos.sol\":4663:4669  uint a */\n      0x00\n        /* \"ParintinsIngressos.sol\":4672:4673  0 */\n      0x00\n        /* \"ParintinsIngressos.sol\":4663:4673  uint a = 0 */\n      swap1\n      pop\n        /* \"ParintinsIngressos.sol\":4658:4953  for (uint a = 0; a < areasFixas.length; a++) {... */\n    tag_166:\n        /* \"ParintinsIngressos.sol\":4679:4696  areasFixas.length */\n      0x04\n        /* \"ParintinsIngressos.sol\":4675:4676  a */\n      dup2\n        /* \"ParintinsIngressos.sol\":4675:4696  a < areasFixas.length */\n      lt\n        /* \"ParintinsIngressos.sol\":4658:4953  for (uint a = 0; a < areasFixas.length; a++) {... */\n      iszero\n      tag_167\n      jumpi\n        /* \"ParintinsIngressos.sol\":4727:4733  uint p */\n      0x00\n        /* \"ParintinsIngressos.sol\":4736:4737  0 */\n      0x00\n        /* \"ParintinsIngressos.sol\":4727:4737  uint p = 0 */\n      swap1\n      pop\n        /* \"ParintinsIngressos.sol\":4722:4938  for (uint p = 0; p < tiposPrecoFixos.length; p++) {... */\n    tag_169:\n        /* \"ParintinsIngressos.sol\":4743:4765  tiposPrecoFixos.length */\n      0x02\n        /* \"ParintinsIngressos.sol\":4739:4740  p */\n      dup2\n        /* \"ParintinsIngressos.sol\":4739:4765  p < tiposPrecoFixos.length */\n      lt\n        /* \"ParintinsIngressos.sol\":4722:4938  for (uint p = 0; p < tiposPrecoFixos.length; p++) {... */\n      iszero\n      tag_170\n      jumpi\n        /* \"ParintinsIngressos.sol\":4858:4859  0 */\n      0x00\n        /* \"ParintinsIngressos.sol\":4799:4805  precos */\n      0x03\n        /* \"ParintinsIngressos.sol\":4806:4816  tiposFixos */\n      dup9\n        /* \"ParintinsIngressos.sol\":4817:4818  t */\n      dup6\n        /* \"ParintinsIngressos.sol\":4806:4819  tiposFixos[t] */\n      0x02\n      dup2\n      lt\n      tag_172\n      jumpi\n      tag_173\n      tag_105\n      jump\t// in\n    tag_173:\n    tag_172:\n      0x20\n      mul\n      add\n      mload\n        /* \"ParintinsIngressos.sol\":4799:4820  precos[tiposFixos[t]] */\n      mload(0x40)\n      tag_174\n      swap2\n      swap1\n      tag_114\n      jump\t// in\n    tag_174:\n      swap1\n      dup2\n      mstore\n      0x20\n      add\n      mload(0x40)\n      dup1\n      swap2\n      sub\n      swap1\n      keccak256\n        /* \"ParintinsIngressos.sol\":4821:4831  areasFixas */\n      dup8\n        /* \"ParintinsIngressos.sol\":4832:4833  a */\n      dup5\n        /* \"ParintinsIngressos.sol\":4821:4834  areasFixas[a] */\n      0x04\n      dup2\n      lt\n      tag_175\n      jumpi\n      tag_176\n      tag_105\n      jump\t// in\n    tag_176:\n    tag_175:\n      0x20\n      mul\n      add\n      mload\n        /* \"ParintinsIngressos.sol\":4799:4835  precos[tiposFixos[t]][areasFixas[a]] */\n      mload(0x40)\n      tag_177\n      swap2\n      swap1\n      tag_114\n      jump\t// in\n    tag_177:\n      swap1\n      dup2\n      mstore\n      0x20\n      add\n      mload(0x40)\n      dup1\n      swap2\n      sub\n      swap1\n      keccak256\n        /* \"ParintinsIngressos.sol\":4836:4851  tiposPrecoFixos */\n      dup7\n        /* \"ParintinsIngressos.sol\":4852:4853  p */\n      dup4\n        /* \"ParintinsIngressos.sol\":4836:4854  tiposPrecoFixos[p] */\n      0x02\n      dup2\n      lt\n      tag_178\n      jumpi\n      tag_179\n      tag_105\n      jump\t// in\n    tag_179:\n    tag_178:\n      0x20\n      mul\n      add\n      mload\n        /* \"ParintinsIngressos.sol\":4799:4855  precos[tiposFixos[t]][areasFixas[a]][tiposPrecoFixos[p]] */\n      mload(0x40)\n      tag_180\n      swap2\n      swap1\n      tag_114\n      jump\t// in\n    tag_180:\n      swap1\n      dup2\n      mstore\n      0x20\n      add\n      mload(0x40)\n      dup1\n      swap2\n      sub\n      swap1\n      keccak256\n      sload\n        /* \"ParintinsIngressos.sol\":4799:4859  precos[tiposFixos[t]][areasFixas[a]][tiposPrecoFixos[p]] > 0 */\n      gt\n        /* \"ParintinsIngressos.sol\":4795:4919  if (precos[tiposFixos[t]][areasFixas[a]][tiposPrecoFixos[p]] > 0) {... */\n      iszero\n      tag_181\n      jumpi\n        /* \"ParintinsIngressos.sol\":4888:4895  count++ */\n      dup4\n      dup1\n      tag_182\n      swap1\n      tag_107\n      jump\t// in\n    tag_182:\n      swap5\n      pop\n      pop\n        /* \"ParintinsIngressos.sol\":4795:4919  if (precos[tiposFixos[t]][areasFixas[a]][tiposPrecoFixos[p]] > 0) {... */\n    tag_181:\n        /* \"ParintinsIngressos.sol\":4767:4770  p++ */\n      dup1\n      dup1\n      0x01\n      add\n      swap2\n      pop\n      pop\n        /* \"ParintinsIngressos.sol\":4722:4938  for (uint p = 0; p < tiposPrecoFixos.length; p++) {... */\n      jump(tag_169)\n    tag_170:\n      pop\n        /* \"ParintinsIngressos.sol\":4698:4701  a++ */\n      dup1\n      dup1\n      0x01\n      add\n      swap2\n      pop\n      pop\n        /* \"ParintinsIngressos.sol\":4658:4953  for (uint a = 0; a < areasFixas.length; a++) {... */\n      jump(tag_166)\n    tag_167:\n      pop\n        /* \"ParintinsIngressos.sol\":4638:4641  t++ */\n      dup1\n      dup1\n      0x01\n      add\n      swap2\n      pop\n      pop\n        /* \"ParintinsIngressos.sol\":4598:4964  for (uint t = 0; t < tiposFixos.length; t++) {... */\n      jump(tag_163)\n    tag_164:\n      pop\n        /* \"ParintinsIngressos.sol\":4997:5002  count */\n      dup1\n        /* \"ParintinsIngressos.sol\":4984:5003  new string[](count) */\n      0xffffffffffffffff\n      dup2\n      gt\n      iszero\n      tag_183\n      jumpi\n      tag_184\n      tag_72\n      jump\t// in\n    tag_184:\n    tag_183:\n      mload(0x40)\n      swap1\n      dup1\n      dup3\n      mstore\n      dup1\n      0x20\n      mul\n      0x20\n      add\n      dup3\n      add\n      0x40\n      mstore\n      dup1\n      iszero\n      tag_185\n      jumpi\n      dup2\n      0x20\n      add\n    tag_186:\n      0x60\n      dup2\n      mstore\n      0x20\n      add\n      swap1\n      0x01\n      swap1\n      sub\n      swap1\n      dup2\n      tag_186\n      jumpi\n      swap1\n      pop\n    tag_185:\n      pop\n        /* \"ParintinsIngressos.sol\":4976:5003  tipos = new string[](count) */\n      swap8\n      pop\n        /* \"ParintinsIngressos.sol\":5035:5040  count */\n      dup1\n        /* \"ParintinsIngressos.sol\":5022:5041  new string[](count) */\n      0xffffffffffffffff\n      dup2\n      gt\n      iszero\n      tag_187\n      jumpi\n      tag_188\n      tag_72\n      jump\t// in\n    tag_188:\n    tag_187:\n      mload(0x40)\n      swap1\n      dup1\n      dup3\n      mstore\n      dup1\n      0x20\n      mul\n      0x20\n      add\n      dup3\n      add\n      0x40\n      mstore\n      dup1\n      iszero\n      tag_189\n      jumpi\n      dup2\n      0x20\n      add\n    tag_190:\n      0x60\n      dup2\n      mstore\n      0x20\n      add\n      swap1\n      0x01\n      swap1\n      sub\n      swap1\n      dup2\n      tag_190\n      jumpi\n      swap1\n      pop\n    tag_189:\n      pop\n        /* \"ParintinsIngressos.sol\":5014:5041  areas = new string[](count) */\n      swap7\n      pop\n        /* \"ParintinsIngressos.sol\":5078:5083  count */\n      dup1\n        /* \"ParintinsIngressos.sol\":5065:5084  new string[](count) */\n      0xffffffffffffffff\n      dup2\n      gt\n      iszero\n      tag_191\n      jumpi\n      tag_192\n      tag_72\n      jump\t// in\n    tag_192:\n    tag_191:\n      mload(0x40)\n      swap1\n      dup1\n      dup3\n      mstore\n      dup1\n      0x20\n      mul\n      0x20\n      add\n      dup3\n      add\n      0x40\n      mstore\n      dup1\n      iszero\n      tag_193\n      jumpi\n      dup2\n      0x20\n      add\n    tag_194:\n      0x60\n      dup2\n      mstore\n      0x20\n      add\n      swap1\n      0x01\n      swap1\n      sub\n      swap1\n      dup2\n      tag_194\n      jumpi\n      swap1\n      pop\n    tag_193:\n      pop\n        /* \"ParintinsIngressos.sol\":5052:5084  tiposPreco = new string[](count) */\n      swap6\n      pop\n        /* \"ParintinsIngressos.sol\":5116:5121  count */\n      dup1\n        /* \"ParintinsIngressos.sol\":5105:5122  new uint[](count) */\n      0xffffffffffffffff\n      dup2\n      gt\n      iszero\n      tag_195\n      jumpi\n      tag_196\n      tag_72\n      jump\t// in\n    tag_196:\n    tag_195:\n      mload(0x40)\n      swap1\n      dup1\n      dup3\n      mstore\n      dup1\n      0x20\n      mul\n      0x20\n      add\n      dup3\n      add\n      0x40\n      mstore\n      dup1\n      iszero\n      tag_197\n      jumpi\n      dup2\n      0x20\n      add\n      0x20\n      dup3\n      mul\n      dup1\n      calldatasize\n      dup4\n      calldatacopy\n      dup1\n      dup3\n      add\n      swap2\n      pop\n      pop\n      swap1\n      pop\n    tag_197:\n      pop\n        /* \"ParintinsIngressos.sol\":5095:5122  valores = new uint[](count) */\n      swap5\n      pop\n        /* \"ParintinsIngressos.sol\":5135:5145  uint index */\n      0x00\n        /* \"ParintinsIngressos.sol\":5148:5149  0 */\n      0x00\n        /* \"ParintinsIngressos.sol\":5135:5149  uint index = 0 */\n      swap1\n      pop\n        /* \"ParintinsIngressos.sol\":5165:5171  uint t */\n      0x00\n        /* \"ParintinsIngressos.sol\":5174:5175  0 */\n      0x00\n        /* \"ParintinsIngressos.sol\":5165:5175  uint t = 0 */\n      swap1\n      pop\n        /* \"ParintinsIngressos.sol\":5160:5785  for (uint t = 0; t < tiposFixos.length; t++) {... */\n    tag_198:\n        /* \"ParintinsIngressos.sol\":5181:5198  tiposFixos.length */\n      0x02\n        /* \"ParintinsIngressos.sol\":5177:5178  t */\n      dup2\n        /* \"ParintinsIngressos.sol\":5177:5198  t < tiposFixos.length */\n      lt\n        /* \"ParintinsIngressos.sol\":5160:5785  for (uint t = 0; t < tiposFixos.length; t++) {... */\n      iszero\n      tag_199\n      jumpi\n        /* \"ParintinsIngressos.sol\":5225:5231  uint a */\n      0x00\n        /* \"ParintinsIngressos.sol\":5234:5235  0 */\n      0x00\n        /* \"ParintinsIngressos.sol\":5225:5235  uint a = 0 */\n      swap1\n      pop\n        /* \"ParintinsIngressos.sol\":5220:5774  for (uint a = 0; a < areasFixas.length; a++) {... */\n    tag_201:\n        /* \"ParintinsIngressos.sol\":5241:5258  areasFixas.length */\n      0x04\n        /* \"ParintinsIngressos.sol\":5237:5238  a */\n      dup2\n        /* \"ParintinsIngressos.sol\":5237:5258  a < areasFixas.length */\n      lt\n        /* \"ParintinsIngressos.sol\":5220:5774  for (uint a = 0; a < areasFixas.length; a++) {... */\n      iszero\n      tag_202\n      jumpi\n        /* \"ParintinsIngressos.sol\":5289:5295  uint p */\n      0x00\n        /* \"ParintinsIngressos.sol\":5298:5299  0 */\n      0x00\n        /* \"ParintinsIngressos.sol\":5289:5299  uint p = 0 */\n      swap1\n      pop\n        /* \"ParintinsIngressos.sol\":5284:5759  for (uint p = 0; p < tiposPrecoFixos.length; p++) {... */\n    tag_204:\n        /* \"ParintinsIngressos.sol\":5305:5327  tiposPrecoFixos.length */\n      0x02\n        /* \"ParintinsIngressos.sol\":5301:5302  p */\n      dup2\n        /* \"ParintinsIngressos.sol\":5301:5327  p < tiposPrecoFixos.length */\n      lt\n        /* \"ParintinsIngressos.sol\":5284:5759  for (uint p = 0; p < tiposPrecoFixos.length; p++) {... */\n      iszero\n      tag_205\n      jumpi\n        /* \"ParintinsIngressos.sol\":5357:5365  uint val */\n      0x00\n        /* \"ParintinsIngressos.sol\":5368:5374  precos */\n      0x03\n        /* \"ParintinsIngressos.sol\":5375:5385  tiposFixos */\n      dup10\n        /* \"ParintinsIngressos.sol\":5386:5387  t */\n      dup6\n        /* \"ParintinsIngressos.sol\":5375:5388  tiposFixos[t] */\n      0x02\n      dup2\n      lt\n      tag_207\n      jumpi\n      tag_208\n      tag_105\n      jump\t// in\n    tag_208:\n    tag_207:\n      0x20\n      mul\n      add\n      mload\n        /* \"ParintinsIngressos.sol\":5368:5389  precos[tiposFixos[t]] */\n      mload(0x40)\n      tag_209\n      swap2\n      swap1\n      tag_114\n      jump\t// in\n    tag_209:\n      swap1\n      dup2\n      mstore\n      0x20\n      add\n      mload(0x40)\n      dup1\n      swap2\n      sub\n      swap1\n      keccak256\n        /* \"ParintinsIngressos.sol\":5390:5400  areasFixas */\n      dup9\n        /* \"ParintinsIngressos.sol\":5401:5402  a */\n      dup5\n        /* \"ParintinsIngressos.sol\":5390:5403  areasFixas[a] */\n      0x04\n      dup2\n      lt\n      tag_210\n      jumpi\n      tag_211\n      tag_105\n      jump\t// in\n    tag_211:\n    tag_210:\n      0x20\n      mul\n      add\n      mload\n        /* \"ParintinsIngressos.sol\":5368:5404  precos[tiposFixos[t]][areasFixas[a]] */\n      mload(0x40)\n      tag_212\n      swap2\n      swap1\n      tag_114\n      jump\t// in\n    tag_212:\n      swap1\n      dup2\n      mstore\n      0x20\n      add\n      mload(0x40)\n      dup1\n      swap2\n      sub\n      swap1\n      keccak256\n        /* \"ParintinsIngressos.sol\":5405:5420  tiposPrecoFixos */\n      dup8\n        /* \"ParintinsIngressos.sol\":5421:5422  p */\n      dup4\n        /* \"ParintinsIngressos.sol\":5405:5423  tiposPrecoFixos[p] */\n      0x02\n      dup2\n      lt\n      tag_213\n      jumpi\n      tag_214\n      tag_105\n      jump\t// in\n    tag_214:\n    tag_213:\n      0x20\n      mul\n      add\n      mload\n        /* \"ParintinsIngressos.sol\":5368:5424  precos[tiposFixos[t]][areasFixas[a]][tiposPrecoFixos[p]] */\n      mload(0x40)\n      tag_215\n      swap2\n      swap1\n      tag_114\n      jump\t// in\n    tag_215:\n      swap1\n      dup2\n      mstore\n      0x20\n      add\n      mload(0x40)\n      dup1\n      swap2\n      sub\n      swap1\n      keccak256\n      sload\n        /* \"ParintinsIngressos.sol\":5357:5424  uint val = precos[tiposFixos[t]][areasFixas[a]][tiposPrecoFixos[p]] */\n      swap1\n      pop\n        /* \"ParintinsIngressos.sol\":5457:5458  0 */\n      0x00\n        /* \"ParintinsIngressos.sol\":5451:5454  val */\n      dup2\n        /* \"ParintinsIngressos.sol\":5451:5458  val > 0 */\n      gt\n        /* \"ParintinsIngressos.sol\":5447:5740  if (val > 0) {... */\n      iszero\n      tag_216\n      jumpi\n        /* \"ParintinsIngressos.sol\":5502:5512  tiposFixos */\n      dup9\n        /* \"ParintinsIngressos.sol\":5513:5514  t */\n      dup5\n        /* \"ParintinsIngressos.sol\":5502:5515  tiposFixos[t] */\n      0x02\n      dup2\n      lt\n      tag_217\n      jumpi\n      tag_218\n      tag_105\n      jump\t// in\n    tag_218:\n    tag_217:\n      0x20\n      mul\n      add\n      mload\n        /* \"ParintinsIngressos.sol\":5487:5492  tipos */\n      dup14\n        /* \"ParintinsIngressos.sol\":5493:5498  index */\n      dup7\n        /* \"ParintinsIngressos.sol\":5487:5499  tipos[index] */\n      dup2\n      mload\n      dup2\n      lt\n      tag_219\n      jumpi\n      tag_220\n      tag_105\n      jump\t// in\n    tag_220:\n    tag_219:\n      0x20\n      mul\n      0x20\n      add\n      add\n        /* \"ParintinsIngressos.sol\":5487:5515  tipos[index] = tiposFixos[t] */\n      dup2\n      swap1\n      mstore\n      pop\n        /* \"ParintinsIngressos.sol\":5557:5567  areasFixas */\n      dup8\n        /* \"ParintinsIngressos.sol\":5568:5569  a */\n      dup4\n        /* \"ParintinsIngressos.sol\":5557:5570  areasFixas[a] */\n      0x04\n      dup2\n      lt\n      tag_221\n      jumpi\n      tag_222\n      tag_105\n      jump\t// in\n    tag_222:\n    tag_221:\n      0x20\n      mul\n      add\n      mload\n        /* \"ParintinsIngressos.sol\":5542:5547  areas */\n      dup13\n        /* \"ParintinsIngressos.sol\":5548:5553  index */\n      dup7\n        /* \"ParintinsIngressos.sol\":5542:5554  areas[index] */\n      dup2\n      mload\n      dup2\n      lt\n      tag_223\n      jumpi\n      tag_224\n      tag_105\n      jump\t// in\n    tag_224:\n    tag_223:\n      0x20\n      mul\n      0x20\n      add\n      add\n        /* \"ParintinsIngressos.sol\":5542:5570  areas[index] = areasFixas[a] */\n      dup2\n      swap1\n      mstore\n      pop\n        /* \"ParintinsIngressos.sol\":5617:5632  tiposPrecoFixos */\n      dup7\n        /* \"ParintinsIngressos.sol\":5633:5634  p */\n      dup3\n        /* \"ParintinsIngressos.sol\":5617:5635  tiposPrecoFixos[p] */\n      0x02\n      dup2\n      lt\n      tag_225\n      jumpi\n      tag_226\n      tag_105\n      jump\t// in\n    tag_226:\n    tag_225:\n      0x20\n      mul\n      add\n      mload\n        /* \"ParintinsIngressos.sol\":5597:5607  tiposPreco */\n      dup12\n        /* \"ParintinsIngressos.sol\":5608:5613  index */\n      dup7\n        /* \"ParintinsIngressos.sol\":5597:5614  tiposPreco[index] */\n      dup2\n      mload\n      dup2\n      lt\n      tag_227\n      jumpi\n      tag_228\n      tag_105\n      jump\t// in\n    tag_228:\n    tag_227:\n      0x20\n      mul\n      0x20\n      add\n      add\n        /* \"ParintinsIngressos.sol\":5597:5635  tiposPreco[index] = tiposPrecoFixos[p] */\n      dup2\n      swap1\n      mstore\n      pop\n        /* \"ParintinsIngressos.sol\":5679:5682  val */\n      dup1\n        /* \"ParintinsIngressos.sol\":5662:5669  valores */\n      dup11\n        /* \"ParintinsIngressos.sol\":5670:5675  index */\n      dup7\n        /* \"ParintinsIngressos.sol\":5662:5676  valores[index] */\n      dup2\n      mload\n      dup2\n      lt\n      tag_229\n      jumpi\n      tag_230\n      tag_105\n      jump\t// in\n    tag_230:\n    tag_229:\n      0x20\n      mul\n      0x20\n      add\n      add\n        /* \"ParintinsIngressos.sol\":5662:5682  valores[index] = val */\n      dup2\n      dup2\n      mstore\n      pop\n      pop\n        /* \"ParintinsIngressos.sol\":5709:5716  index++ */\n      dup5\n      dup1\n      tag_231\n      swap1\n      tag_107\n      jump\t// in\n    tag_231:\n      swap6\n      pop\n      pop\n        /* \"ParintinsIngressos.sol\":5447:5740  if (val > 0) {... */\n    tag_216:\n        /* \"ParintinsIngressos.sol\":5334:5759  {... */\n      pop\n        /* \"ParintinsIngressos.sol\":5329:5332  p++ */\n      dup1\n      dup1\n      0x01\n      add\n      swap2\n      pop\n      pop\n        /* \"ParintinsIngressos.sol\":5284:5759  for (uint p = 0; p < tiposPrecoFixos.length; p++) {... */\n      jump(tag_204)\n    tag_205:\n      pop\n        /* \"ParintinsIngressos.sol\":5260:5263  a++ */\n      dup1\n      dup1\n      0x01\n      add\n      swap2\n      pop\n      pop\n        /* \"ParintinsIngressos.sol\":5220:5774  for (uint a = 0; a < areasFixas.length; a++) {... */\n      jump(tag_201)\n    tag_202:\n      pop\n        /* \"ParintinsIngressos.sol\":5200:5203  t++ */\n      dup1\n      dup1\n      0x01\n      add\n      swap2\n      pop\n      pop\n        /* \"ParintinsIngressos.sol\":5160:5785  for (uint t = 0; t < tiposFixos.length; t++) {... */\n      jump(tag_198)\n    tag_199:\n      pop\n        /* \"ParintinsIngressos.sol\":4302:5792  {... */\n      pop\n      pop\n      pop\n      pop\n      pop\n        /* \"ParintinsIngressos.sol\":4103:5792  function listarIngressosDisponiveis() public view returns (... */\n      swap1\n      swap2\n      swap3\n      swap4\n      jump\t// out\n        /* \"ParintinsIngressos.sol\":5832:5931  function sacar() public onlyOwner {... */\n    tag_60:\n        /* \"ParintinsIngressos.sol\":1251:1256  owner */\n      0x00\n      0x00\n      swap1\n      sload\n      swap1\n      0x0100\n      exp\n      swap1\n      div\n      0xffffffffffffffffffffffffffffffffffffffff\n      and\n        /* \"ParintinsIngressos.sol\":1237:1256  msg.sender == owner */\n      0xffffffffffffffffffffffffffffffffffffffff\n      and\n        /* \"ParintinsIngressos.sol\":1237:1247  msg.sender */\n      caller\n        /* \"ParintinsIngressos.sol\":1237:1256  msg.sender == owner */\n      0xffffffffffffffffffffffffffffffffffffffff\n      and\n      eq\n        /* \"ParintinsIngressos.sol\":1229:1289  require(msg.sender == owner, \"Somente o dono pode executar\") */\n      tag_233\n      jumpi\n      mload(0x40)\n      0x08c379a000000000000000000000000000000000000000000000000000000000\n      dup2\n      mstore\n      0x04\n      add\n      tag_234\n      swap1\n      tag_137\n      jump\t// in\n    tag_234:\n      mload(0x40)\n      dup1\n      swap2\n      sub\n      swap1\n      revert\n    tag_233:\n        /* \"ParintinsIngressos.sol\":5885:5890  owner */\n      0x00\n      0x00\n      swap1\n      sload\n      swap1\n      0x0100\n      exp\n      swap1\n      div\n      0xffffffffffffffffffffffffffffffffffffffff\n      and\n        /* \"ParintinsIngressos.sol\":5877:5900  payable(owner).transfer */\n      0xffffffffffffffffffffffffffffffffffffffff\n      and\n        /* \"ParintinsIngressos.sol\":5877:5923  payable(owner).transfer(address(this).balance) */\n      0x08fc\n        /* \"ParintinsIngressos.sol\":5901:5922  address(this).balance */\n      selfbalance\n        /* \"ParintinsIngressos.sol\":5877:5923  payable(owner).transfer(address(this).balance) */\n      swap1\n      dup2\n      iszero\n      mul\n      swap1\n      mload(0x40)\n      0x00\n      mload(0x40)\n      dup1\n      dup4\n      sub\n      dup2\n      dup6\n      dup9\n      dup9\n      call\n      swap4\n      pop\n      pop\n      pop\n      pop\n      iszero\n      dup1\n      iszero\n      tag_237\n      jumpi\n      returndatacopy(0x00, 0x00, returndatasize)\n      revert(0x00, returndatasize)\n    tag_237:\n      pop\n        /* \"ParintinsIngressos.sol\":5832:5931  function sacar() public onlyOwner {... */\n      jump\t// out\n        /* \"ParintinsIngressos.sol\":1670:2610  function comprarPassaporte(string memory _area, string memory _tipoPreco, string memory _lado, bytes32 _cpfComprador) public payable {... */\n    tag_64:\n        /* \"ParintinsIngressos.sol\":1814:1832  string memory tipo */\n      0x00\n        /* \"ParintinsIngressos.sol\":1814:1847  string memory tipo = \"Passaporte\" */\n      mload(0x40)\n      dup1\n      0x40\n      add\n      0x40\n      mstore\n      dup1\n      0x0a\n      dup2\n      mstore\n      0x20\n      add\n      0x5061737361706f72746500000000000000000000000000000000000000000000\n      dup2\n      mstore\n      pop\n      swap1\n      pop\n        /* \"ParintinsIngressos.sol\":1858:1868  uint preco */\n      0x00\n        /* \"ParintinsIngressos.sol\":1871:1877  precos */\n      0x03\n        /* \"ParintinsIngressos.sol\":1878:1882  tipo */\n      dup3\n        /* \"ParintinsIngressos.sol\":1871:1883  precos[tipo] */\n      mload(0x40)\n      tag_239\n      swap2\n      swap1\n      tag_114\n      jump\t// in\n    tag_239:\n      swap1\n      dup2\n      mstore\n      0x20\n      add\n      mload(0x40)\n      dup1\n      swap2\n      sub\n      swap1\n      keccak256\n        /* \"ParintinsIngressos.sol\":1884:1889  _area */\n      dup7\n        /* \"ParintinsIngressos.sol\":1871:1890  precos[tipo][_area] */\n      mload(0x40)\n      tag_240\n      swap2\n      swap1\n      tag_114\n      jump\t// in\n    tag_240:\n      swap1\n      dup2\n      mstore\n      0x20\n      add\n      mload(0x40)\n      dup1\n      swap2\n      sub\n      swap1\n      keccak256\n        /* \"ParintinsIngressos.sol\":1891:1901  _tipoPreco */\n      dup6\n        /* \"ParintinsIngressos.sol\":1871:1902  precos[tipo][_area][_tipoPreco] */\n      mload(0x40)\n      tag_241\n      swap2\n      swap1\n      tag_114\n      jump\t// in\n    tag_241:\n      swap1\n      dup2\n      mstore\n      0x20\n      add\n      mload(0x40)\n      dup1\n      swap2\n      sub\n      swap1\n      keccak256\n      sload\n        /* \"ParintinsIngressos.sol\":1858:1902  uint preco = precos[tipo][_area][_tipoPreco] */\n      swap1\n      pop\n        /* \"ParintinsIngressos.sol\":1929:1930  0 */\n      0x00\n        /* \"ParintinsIngressos.sol\":1921:1926  preco */\n      dup2\n        /* \"ParintinsIngressos.sol\":1921:1930  preco > 0 */\n      gt\n        /* \"ParintinsIngressos.sol\":1913:1956  require(preco > 0, \"Preco nao configurado\") */\n      tag_242\n      jumpi\n      mload(0x40)\n      0x08c379a000000000000000000000000000000000000000000000000000000000\n      dup2\n      mstore\n      0x04\n      add\n      tag_243\n      swap1\n      tag_119\n      jump\t// in\n    tag_243:\n      mload(0x40)\n      dup1\n      swap2\n      sub\n      swap1\n      revert\n    tag_242:\n        /* \"ParintinsIngressos.sol\":1988:1993  preco */\n      dup1\n        /* \"ParintinsIngressos.sol\":1975:1984  msg.value */\n      callvalue\n        /* \"ParintinsIngressos.sol\":1975:1993  msg.value >= preco */\n      lt\n      iszero\n        /* \"ParintinsIngressos.sol\":1967:2016  require(msg.value >= preco, \"Valor insuficiente\") */\n      tag_244\n      jumpi\n      mload(0x40)\n      0x08c379a000000000000000000000000000000000000000000000000000000000\n      dup2\n      mstore\n      0x04\n      add\n      tag_245\n      swap1\n      tag_122\n      jump\t// in\n    tag_245:\n      mload(0x40)\n      dup1\n      swap2\n      sub\n      swap1\n      revert\n    tag_244:\n        /* \"ParintinsIngressos.sol\":2070:2071  2 */\n      0x02\n        /* \"ParintinsIngressos.sol\":2037:2052  ingressosPorCpf */\n      0x04\n        /* \"ParintinsIngressos.sol\":2037:2067  ingressosPorCpf[_cpfComprador] */\n      0x00\n        /* \"ParintinsIngressos.sol\":2053:2066  _cpfComprador */\n      dup6\n        /* \"ParintinsIngressos.sol\":2037:2067  ingressosPorCpf[_cpfComprador] */\n      dup2\n      mstore\n      0x20\n      add\n      swap1\n      dup2\n      mstore\n      0x20\n      add\n      0x00\n      keccak256\n      sload\n        /* \"ParintinsIngressos.sol\":2037:2071  ingressosPorCpf[_cpfComprador] < 2 */\n      lt\n        /* \"ParintinsIngressos.sol\":2029:2114  require(ingressosPorCpf[_cpfComprador] < 2, \"Limite de 2 ingressos por CPF atingido\") */\n      tag_246\n      jumpi\n      mload(0x40)\n      0x08c379a000000000000000000000000000000000000000000000000000000000\n      dup2\n      mstore\n      0x04\n      add\n      tag_247\n      swap1\n      tag_125\n      jump\t// in\n    tag_247:\n      mload(0x40)\n      dup1\n      swap2\n      sub\n      swap1\n      revert\n    tag_246:\n        /* \"ParintinsIngressos.sol\":2127:2140  ingressoCount */\n      0x01\n      0x00\n        /* \"ParintinsIngressos.sol\":2127:2142  ingressoCount++ */\n      dup2\n      sload\n      dup1\n      swap3\n      swap2\n      swap1\n      tag_248\n      swap1\n      tag_107\n      jump\t// in\n    tag_248:\n      swap2\n      swap1\n      pop\n      sstore\n      pop\n        /* \"ParintinsIngressos.sol\":2180:2447  Ingresso({... */\n      mload(0x40)\n      dup1\n      0x0100\n      add\n      0x40\n      mstore\n      dup1\n        /* \"ParintinsIngressos.sol\":2208:2221  ingressoCount */\n      sload(0x01)\n        /* \"ParintinsIngressos.sol\":2180:2447  Ingresso({... */\n      dup2\n      mstore\n      0x20\n      add\n        /* \"ParintinsIngressos.sol\":2242:2246  tipo */\n      dup4\n        /* \"ParintinsIngressos.sol\":2180:2447  Ingresso({... */\n      dup2\n      mstore\n      0x20\n      add\n        /* \"ParintinsIngressos.sol\":2267:2272  _area */\n      dup8\n        /* \"ParintinsIngressos.sol\":2180:2447  Ingresso({... */\n      dup2\n      mstore\n      0x20\n      add\n        /* \"ParintinsIngressos.sol\":2298:2308  _tipoPreco */\n      dup7\n        /* \"ParintinsIngressos.sol\":2180:2447  Ingresso({... */\n      dup2\n      mstore\n      0x20\n      add\n        /* \"ParintinsIngressos.sol\":2330:2331  0 */\n      0x00\n        /* \"ParintinsIngressos.sol\":2180:2447  Ingresso({... */\n      0xff\n      and\n      dup2\n      mstore\n      0x20\n      add\n        /* \"ParintinsIngressos.sol\":2352:2357  _lado */\n      dup6\n        /* \"ParintinsIngressos.sol\":2180:2447  Ingresso({... */\n      dup2\n      mstore\n      0x20\n      add\n        /* \"ParintinsIngressos.sol\":2383:2393  msg.sender */\n      caller\n        /* \"ParintinsIngressos.sol\":2180:2447  Ingresso({... */\n      0xffffffffffffffffffffffffffffffffffffffff\n      and\n      dup2\n      mstore\n      0x20\n      add\n        /* \"ParintinsIngressos.sol\":2422:2435  _cpfComprador */\n      dup5\n        /* \"ParintinsIngressos.sol\":2180:2447  Ingresso({... */\n      dup2\n      mstore\n      pop\n        /* \"ParintinsIngressos.sol\":2153:2162  ingressos */\n      0x02\n        /* \"ParintinsIngressos.sol\":2153:2177  ingressos[ingressoCount] */\n      0x00\n        /* \"ParintinsIngressos.sol\":2163:2176  ingressoCount */\n      sload(0x01)\n        /* \"ParintinsIngressos.sol\":2153:2177  ingressos[ingressoCount] */\n      dup2\n      mstore\n      0x20\n      add\n      swap1\n      dup2\n      mstore\n      0x20\n      add\n      0x00\n      keccak256\n        /* \"ParintinsIngressos.sol\":2153:2447  ingressos[ingressoCount] = Ingresso({... */\n      0x00\n      dup3\n      add\n      mload\n      dup2\n      0x00\n      add\n      sstore\n      0x20\n      dup3\n      add\n      mload\n      dup2\n      0x01\n      add\n      swap1\n      dup2\n      tag_249\n      swap2\n      swap1\n      tag_128\n      jump\t// in\n    tag_249:\n      pop\n      0x40\n      dup3\n      add\n      mload\n      dup2\n      0x02\n      add\n      swap1\n      dup2\n      tag_250\n      swap2\n      swap1\n      tag_128\n      jump\t// in\n    tag_250:\n      pop\n      0x60\n      dup3\n      add\n      mload\n      dup2\n      0x03\n      add\n      swap1\n      dup2\n      tag_251\n      swap2\n      swap1\n      tag_128\n      jump\t// in\n    tag_251:\n      pop\n      0x80\n      dup3\n      add\n      mload\n      dup2\n      0x04\n      add\n      exp(0x0100, 0x00)\n      dup2\n      sload\n      dup2\n      0xff\n      mul\n      not\n      and\n      swap1\n      dup4\n      0xff\n      and\n      mul\n      or\n      swap1\n      sstore\n      pop\n      0xa0\n      dup3\n      add\n      mload\n      dup2\n      0x05\n      add\n      swap1\n      dup2\n      tag_252\n      swap2\n      swap1\n      tag_128\n      jump\t// in\n    tag_252:\n      pop\n      0xc0\n      dup3\n      add\n      mload\n      dup2\n      0x06\n      add\n      exp(0x0100, 0x00)\n      dup2\n      sload\n      dup2\n      0xffffffffffffffffffffffffffffffffffffffff\n      mul\n      not\n      and\n      swap1\n      dup4\n      0xffffffffffffffffffffffffffffffffffffffff\n      and\n      mul\n      or\n      swap1\n      sstore\n      pop\n      0xe0\n      dup3\n      add\n      mload\n      dup2\n      0x07\n      add\n      sstore\n      swap1\n      pop\n      pop\n        /* \"ParintinsIngressos.sol\":2460:2475  ingressosPorCpf */\n      0x04\n        /* \"ParintinsIngressos.sol\":2460:2490  ingressosPorCpf[_cpfComprador] */\n      0x00\n        /* \"ParintinsIngressos.sol\":2476:2489  _cpfComprador */\n      dup5\n        /* \"ParintinsIngressos.sol\":2460:2490  ingressosPorCpf[_cpfComprador] */\n      dup2\n      mstore\n      0x20\n      add\n      swap1\n      dup2\n      mstore\n      0x20\n      add\n      0x00\n      keccak256\n      0x00\n        /* \"ParintinsIngressos.sol\":2460:2492  ingressosPorCpf[_cpfComprador]++ */\n      dup2\n      sload\n      dup1\n      swap3\n      swap2\n      swap1\n      tag_253\n      swap1\n      tag_107\n      jump\t// in\n    tag_253:\n      swap2\n      swap1\n      pop\n      sstore\n      pop\n        /* \"ParintinsIngressos.sol\":2510:2602  IngressoVendido(ingressoCount, tipo, _area, _tipoPreco, 0, _lado, msg.sender, _cpfComprador) */\n      0x50a2d2c5907c0982300d5de2585b6f5bb69b85cf6a926336ca938b641aae14e8\n        /* \"ParintinsIngressos.sol\":2526:2539  ingressoCount */\n      sload(0x01)\n        /* \"ParintinsIngressos.sol\":2541:2545  tipo */\n      dup4\n        /* \"ParintinsIngressos.sol\":2547:2552  _area */\n      dup9\n        /* \"ParintinsIngressos.sol\":2554:2564  _tipoPreco */\n      dup9\n        /* \"ParintinsIngressos.sol\":2566:2567  0 */\n      0x00\n        /* \"ParintinsIngressos.sol\":2569:2574  _lado */\n      dup10\n        /* \"ParintinsIngressos.sol\":2576:2586  msg.sender */\n      caller\n        /* \"ParintinsIngressos.sol\":2588:2601  _cpfComprador */\n      dup11\n        /* \"ParintinsIngressos.sol\":2510:2602  IngressoVendido(ingressoCount, tipo, _area, _tipoPreco, 0, _lado, msg.sender, _cpfComprador) */\n      mload(0x40)\n      tag_254\n      swap9\n      swap8\n      swap7\n      swap6\n      swap5\n      swap4\n      swap3\n      swap2\n      swap1\n      tag_255\n      jump\t// in\n    tag_254:\n      mload(0x40)\n      dup1\n      swap2\n      sub\n      swap1\n      log1\n        /* \"ParintinsIngressos.sol\":1803:2610  {... */\n      pop\n      pop\n        /* \"ParintinsIngressos.sol\":1670:2610  function comprarPassaporte(string memory _area, string memory _tipoPreco, string memory _lado, bytes32 _cpfComprador) public payable {... */\n      pop\n      pop\n      pop\n      pop\n      jump\t// out\n        /* \"ParintinsIngressos.sol\":630:655  uint public ingressoCount */\n    tag_67:\n      sload(0x01)\n      dup2\n      jump\t// out\n    tag_76:\n      mload(0x40)\n      dup1\n      0x0100\n      add\n      0x40\n      mstore\n      dup1\n      0x00\n      dup2\n      mstore\n      0x20\n      add\n      0x60\n      dup2\n      mstore\n      0x20\n      add\n      0x60\n      dup2\n      mstore\n      0x20\n      add\n      0x60\n      dup2\n      mstore\n      0x20\n      add\n      and(0xff, 0x00)\n      dup2\n      mstore\n      0x20\n      add\n      0x60\n      dup2\n      mstore\n      0x20\n      add\n      and(0xffffffffffffffffffffffffffffffffffffffff, 0x00)\n      dup2\n      mstore\n      0x20\n      add\n      0x00\n      dup2\n      mstore\n      pop\n      swap1\n      jump\t// out\n        /* \"#utility.yul\":7:145   */\n    tag_256:\n        /* \"#utility.yul\":98:104   */\n      0x00\n        /* \"#utility.yul\":132:137   */\n      dup2\n        /* \"#utility.yul\":126:138   */\n      mload\n        /* \"#utility.yul\":116:138   */\n      swap1\n      pop\n        /* \"#utility.yul\":7:145   */\n      swap2\n      swap1\n      pop\n      jump\t// out\n        /* \"#utility.yul\":151:359   */\n    tag_257:\n        /* \"#utility.yul\":274:285   */\n      0x00\n        /* \"#utility.yul\":308:314   */\n      dup3\n        /* \"#utility.yul\":303:306   */\n      dup3\n        /* \"#utility.yul\":296:315   */\n      mstore\n        /* \"#utility.yul\":348:352   */\n      0x20\n        /* \"#utility.yul\":343:346   */\n      dup3\n        /* \"#utility.yul\":339:353   */\n      add\n        /* \"#utility.yul\":324:353   */\n      swap1\n      pop\n        /* \"#utility.yul\":151:359   */\n      swap3\n      swap2\n      pop\n      pop\n      jump\t// out\n        /* \"#utility.yul\":365:521   */\n    tag_258:\n        /* \"#utility.yul\":456:460   */\n      0x00\n        /* \"#utility.yul\":479:482   */\n      dup2\n        /* \"#utility.yul\":471:482   */\n      swap1\n      pop\n        /* \"#utility.yul\":509:513   */\n      0x20\n        /* \"#utility.yul\":504:507   */\n      dup3\n        /* \"#utility.yul\":500:514   */\n      add\n        /* \"#utility.yul\":492:514   */\n      swap1\n      pop\n        /* \"#utility.yul\":365:521   */\n      swap2\n      swap1\n      pop\n      jump\t// out\n        /* \"#utility.yul\":527:604   */\n    tag_259:\n        /* \"#utility.yul\":564:571   */\n      0x00\n        /* \"#utility.yul\":593:598   */\n      dup2\n        /* \"#utility.yul\":582:598   */\n      swap1\n      pop\n        /* \"#utility.yul\":527:604   */\n      swap2\n      swap1\n      pop\n      jump\t// out\n        /* \"#utility.yul\":610:718   */\n    tag_260:\n        /* \"#utility.yul\":687:711   */\n      tag_350\n        /* \"#utility.yul\":705:710   */\n      dup2\n        /* \"#utility.yul\":687:711   */\n      tag_259\n      jump\t// in\n    tag_350:\n        /* \"#utility.yul\":682:685   */\n      dup3\n        /* \"#utility.yul\":675:712   */\n      mstore\n        /* \"#utility.yul\":610:718   */\n      pop\n      pop\n      jump\t// out\n        /* \"#utility.yul\":724:823   */\n    tag_261:\n        /* \"#utility.yul\":776:782   */\n      0x00\n        /* \"#utility.yul\":810:815   */\n      dup2\n        /* \"#utility.yul\":804:816   */\n      mload\n        /* \"#utility.yul\":794:816   */\n      swap1\n      pop\n        /* \"#utility.yul\":724:823   */\n      swap2\n      swap1\n      pop\n      jump\t// out\n        /* \"#utility.yul\":829:988   */\n    tag_262:\n        /* \"#utility.yul\":903:914   */\n      0x00\n        /* \"#utility.yul\":937:943   */\n      dup3\n        /* \"#utility.yul\":932:935   */\n      dup3\n        /* \"#utility.yul\":925:944   */\n      mstore\n        /* \"#utility.yul\":977:981   */\n      0x20\n        /* \"#utility.yul\":972:975   */\n      dup3\n        /* \"#utility.yul\":968:982   */\n      add\n        /* \"#utility.yul\":953:982   */\n      swap1\n      pop\n        /* \"#utility.yul\":829:988   */\n      swap3\n      swap2\n      pop\n      pop\n      jump\t// out\n        /* \"#utility.yul\":994:1133   */\n    tag_263:\n        /* \"#utility.yul\":1083:1089   */\n      dup3\n        /* \"#utility.yul\":1078:1081   */\n      dup2\n        /* \"#utility.yul\":1073:1076   */\n      dup4\n        /* \"#utility.yul\":1067:1090   */\n      mcopy\n        /* \"#utility.yul\":1124:1125   */\n      0x00\n        /* \"#utility.yul\":1115:1121   */\n      dup4\n        /* \"#utility.yul\":1110:1113   */\n      dup4\n        /* \"#utility.yul\":1106:1122   */\n      add\n        /* \"#utility.yul\":1099:1126   */\n      mstore\n        /* \"#utility.yul\":994:1133   */\n      pop\n      pop\n      pop\n      jump\t// out\n        /* \"#utility.yul\":1139:1241   */\n    tag_264:\n        /* \"#utility.yul\":1180:1186   */\n      0x00\n        /* \"#utility.yul\":1231:1233   */\n      0x1f\n        /* \"#utility.yul\":1227:1234   */\n      not\n        /* \"#utility.yul\":1222:1224   */\n      0x1f\n        /* \"#utility.yul\":1215:1220   */\n      dup4\n        /* \"#utility.yul\":1211:1225   */\n      add\n        /* \"#utility.yul\":1207:1235   */\n      and\n        /* \"#utility.yul\":1197:1235   */\n      swap1\n      pop\n        /* \"#utility.yul\":1139:1241   */\n      swap2\n      swap1\n      pop\n      jump\t// out\n        /* \"#utility.yul\":1247:1604   */\n    tag_265:\n        /* \"#utility.yul\":1325:1328   */\n      0x00\n        /* \"#utility.yul\":1353:1392   */\n      tag_356\n        /* \"#utility.yul\":1386:1391   */\n      dup3\n        /* \"#utility.yul\":1353:1392   */\n      tag_261\n      jump\t// in\n    tag_356:\n        /* \"#utility.yul\":1408:1469   */\n      tag_357\n        /* \"#utility.yul\":1462:1468   */\n      dup2\n        /* \"#utility.yul\":1457:1460   */\n      dup6\n        /* \"#utility.yul\":1408:1469   */\n      tag_262\n      jump\t// in\n    tag_357:\n        /* \"#utility.yul\":1401:1469   */\n      swap4\n      pop\n        /* \"#utility.yul\":1478:1543   */\n      tag_358\n        /* \"#utility.yul\":1536:1542   */\n      dup2\n        /* \"#utility.yul\":1531:1534   */\n      dup6\n        /* \"#utility.yul\":1524:1528   */\n      0x20\n        /* \"#utility.yul\":1517:1522   */\n      dup7\n        /* \"#utility.yul\":1513:1529   */\n      add\n        /* \"#utility.yul\":1478:1543   */\n      tag_263\n      jump\t// in\n    tag_358:\n        /* \"#utility.yul\":1568:1597   */\n      tag_359\n        /* \"#utility.yul\":1590:1596   */\n      dup2\n        /* \"#utility.yul\":1568:1597   */\n      tag_264\n      jump\t// in\n    tag_359:\n        /* \"#utility.yul\":1563:1566   */\n      dup5\n        /* \"#utility.yul\":1559:1598   */\n      add\n        /* \"#utility.yul\":1552:1598   */\n      swap2\n      pop\n        /* \"#utility.yul\":1329:1604   */\n      pop\n        /* \"#utility.yul\":1247:1604   */\n      swap3\n      swap2\n      pop\n      pop\n      jump\t// out\n        /* \"#utility.yul\":1610:1696   */\n    tag_266:\n        /* \"#utility.yul\":1645:1652   */\n      0x00\n        /* \"#utility.yul\":1685:1689   */\n      0xff\n        /* \"#utility.yul\":1678:1683   */\n      dup3\n        /* \"#utility.yul\":1674:1690   */\n      and\n        /* \"#utility.yul\":1663:1690   */\n      swap1\n      pop\n        /* \"#utility.yul\":1610:1696   */\n      swap2\n      swap1\n      pop\n      jump\t// out\n        /* \"#utility.yul\":1702:1804   */\n    tag_267:\n        /* \"#utility.yul\":1775:1797   */\n      tag_362\n        /* \"#utility.yul\":1791:1796   */\n      dup2\n        /* \"#utility.yul\":1775:1797   */\n      tag_266\n      jump\t// in\n    tag_362:\n        /* \"#utility.yul\":1770:1773   */\n      dup3\n        /* \"#utility.yul\":1763:1798   */\n      mstore\n        /* \"#utility.yul\":1702:1804   */\n      pop\n      pop\n      jump\t// out\n        /* \"#utility.yul\":1810:1936   */\n    tag_268:\n        /* \"#utility.yul\":1847:1854   */\n      0x00\n        /* \"#utility.yul\":1887:1929   */\n      0xffffffffffffffffffffffffffffffffffffffff\n        /* \"#utility.yul\":1880:1885   */\n      dup3\n        /* \"#utility.yul\":1876:1930   */\n      and\n        /* \"#utility.yul\":1865:1930   */\n      swap1\n      pop\n        /* \"#utility.yul\":1810:1936   */\n      swap2\n      swap1\n      pop\n      jump\t// out\n        /* \"#utility.yul\":1942:2038   */\n    tag_269:\n        /* \"#utility.yul\":1979:1986   */\n      0x00\n        /* \"#utility.yul\":2008:2032   */\n      tag_365\n        /* \"#utility.yul\":2026:2031   */\n      dup3\n        /* \"#utility.yul\":2008:2032   */\n      tag_268\n      jump\t// in\n    tag_365:\n        /* \"#utility.yul\":1997:2032   */\n      swap1\n      pop\n        /* \"#utility.yul\":1942:2038   */\n      swap2\n      swap1\n      pop\n      jump\t// out\n        /* \"#utility.yul\":2044:2152   */\n    tag_270:\n        /* \"#utility.yul\":2121:2145   */\n      tag_367\n        /* \"#utility.yul\":2139:2144   */\n      dup2\n        /* \"#utility.yul\":2121:2145   */\n      tag_269\n      jump\t// in\n    tag_367:\n        /* \"#utility.yul\":2116:2119   */\n      dup3\n        /* \"#utility.yul\":2109:2146   */\n      mstore\n        /* \"#utility.yul\":2044:2152   */\n      pop\n      pop\n      jump\t// out\n        /* \"#utility.yul\":2158:2235   */\n    tag_271:\n        /* \"#utility.yul\":2195:2202   */\n      0x00\n        /* \"#utility.yul\":2224:2229   */\n      dup2\n        /* \"#utility.yul\":2213:2229   */\n      swap1\n      pop\n        /* \"#utility.yul\":2158:2235   */\n      swap2\n      swap1\n      pop\n      jump\t// out\n        /* \"#utility.yul\":2241:2349   */\n    tag_272:\n        /* \"#utility.yul\":2318:2342   */\n      tag_370\n        /* \"#utility.yul\":2336:2341   */\n      dup2\n        /* \"#utility.yul\":2318:2342   */\n      tag_271\n      jump\t// in\n    tag_370:\n        /* \"#utility.yul\":2313:2316   */\n      dup3\n        /* \"#utility.yul\":2306:2343   */\n      mstore\n        /* \"#utility.yul\":2241:2349   */\n      pop\n      pop\n      jump\t// out\n        /* \"#utility.yul\":2435:4301   */\n    tag_273:\n        /* \"#utility.yul\":2542:2545   */\n      0x00\n        /* \"#utility.yul\":2578:2584   */\n      0x0100\n        /* \"#utility.yul\":2573:2576   */\n      dup4\n        /* \"#utility.yul\":2569:2585   */\n      add\n        /* \"#utility.yul\":2665:2669   */\n      0x00\n        /* \"#utility.yul\":2658:2663   */\n      dup4\n        /* \"#utility.yul\":2654:2670   */\n      add\n        /* \"#utility.yul\":2648:2671   */\n      mload\n        /* \"#utility.yul\":2684:2747   */\n      tag_372\n        /* \"#utility.yul\":2741:2745   */\n      0x00\n        /* \"#utility.yul\":2736:2739   */\n      dup7\n        /* \"#utility.yul\":2732:2746   */\n      add\n        /* \"#utility.yul\":2718:2730   */\n      dup3\n        /* \"#utility.yul\":2684:2747   */\n      tag_260\n      jump\t// in\n    tag_372:\n        /* \"#utility.yul\":2595:2757   */\n      pop\n        /* \"#utility.yul\":2839:2843   */\n      0x20\n        /* \"#utility.yul\":2832:2837   */\n      dup4\n        /* \"#utility.yul\":2828:2844   */\n      add\n        /* \"#utility.yul\":2822:2845   */\n      mload\n        /* \"#utility.yul\":2892:2895   */\n      dup5\n        /* \"#utility.yul\":2886:2890   */\n      dup3\n        /* \"#utility.yul\":2882:2896   */\n      sub\n        /* \"#utility.yul\":2875:2879   */\n      0x20\n        /* \"#utility.yul\":2870:2873   */\n      dup7\n        /* \"#utility.yul\":2866:2880   */\n      add\n        /* \"#utility.yul\":2859:2897   */\n      mstore\n        /* \"#utility.yul\":2918:2991   */\n      tag_373\n        /* \"#utility.yul\":2986:2990   */\n      dup3\n        /* \"#utility.yul\":2972:2984   */\n      dup3\n        /* \"#utility.yul\":2918:2991   */\n      tag_265\n      jump\t// in\n    tag_373:\n        /* \"#utility.yul\":2910:2991   */\n      swap2\n      pop\n        /* \"#utility.yul\":2767:3002   */\n      pop\n        /* \"#utility.yul\":3084:3088   */\n      0x40\n        /* \"#utility.yul\":3077:3082   */\n      dup4\n        /* \"#utility.yul\":3073:3089   */\n      add\n        /* \"#utility.yul\":3067:3090   */\n      mload\n        /* \"#utility.yul\":3137:3140   */\n      dup5\n        /* \"#utility.yul\":3131:3135   */\n      dup3\n        /* \"#utility.yul\":3127:3141   */\n      sub\n        /* \"#utility.yul\":3120:3124   */\n      0x40\n        /* \"#utility.yul\":3115:3118   */\n      dup7\n        /* \"#utility.yul\":3111:3125   */\n      add\n        /* \"#utility.yul\":3104:3142   */\n      mstore\n        /* \"#utility.yul\":3163:3236   */\n      tag_374\n        /* \"#utility.yul\":3231:3235   */\n      dup3\n        /* \"#utility.yul\":3217:3229   */\n      dup3\n        /* \"#utility.yul\":3163:3236   */\n      tag_265\n      jump\t// in\n    tag_374:\n        /* \"#utility.yul\":3155:3236   */\n      swap2\n      pop\n        /* \"#utility.yul\":3012:3247   */\n      pop\n        /* \"#utility.yul\":3334:3338   */\n      0x60\n        /* \"#utility.yul\":3327:3332   */\n      dup4\n        /* \"#utility.yul\":3323:3339   */\n      add\n        /* \"#utility.yul\":3317:3340   */\n      mload\n        /* \"#utility.yul\":3387:3390   */\n      dup5\n        /* \"#utility.yul\":3381:3385   */\n      dup3\n        /* \"#utility.yul\":3377:3391   */\n      sub\n        /* \"#utility.yul\":3370:3374   */\n      0x60\n        /* \"#utility.yul\":3365:3368   */\n      dup7\n        /* \"#utility.yul\":3361:3375   */\n      add\n        /* \"#utility.yul\":3354:3392   */\n      mstore\n        /* \"#utility.yul\":3413:3486   */\n      tag_375\n        /* \"#utility.yul\":3481:3485   */\n      dup3\n        /* \"#utility.yul\":3467:3479   */\n      dup3\n        /* \"#utility.yul\":3413:3486   */\n      tag_265\n      jump\t// in\n    tag_375:\n        /* \"#utility.yul\":3405:3486   */\n      swap2\n      pop\n        /* \"#utility.yul\":3257:3497   */\n      pop\n        /* \"#utility.yul\":3580:3584   */\n      0x80\n        /* \"#utility.yul\":3573:3578   */\n      dup4\n        /* \"#utility.yul\":3569:3585   */\n      add\n        /* \"#utility.yul\":3563:3586   */\n      mload\n        /* \"#utility.yul\":3599:3658   */\n      tag_376\n        /* \"#utility.yul\":3652:3656   */\n      0x80\n        /* \"#utility.yul\":3647:3650   */\n      dup7\n        /* \"#utility.yul\":3643:3657   */\n      add\n        /* \"#utility.yul\":3629:3641   */\n      dup3\n        /* \"#utility.yul\":3599:3658   */\n      tag_267\n      jump\t// in\n    tag_376:\n        /* \"#utility.yul\":3507:3668   */\n      pop\n        /* \"#utility.yul\":3750:3754   */\n      0xa0\n        /* \"#utility.yul\":3743:3748   */\n      dup4\n        /* \"#utility.yul\":3739:3755   */\n      add\n        /* \"#utility.yul\":3733:3756   */\n      mload\n        /* \"#utility.yul\":3803:3806   */\n      dup5\n        /* \"#utility.yul\":3797:3801   */\n      dup3\n        /* \"#utility.yul\":3793:3807   */\n      sub\n        /* \"#utility.yul\":3786:3790   */\n      0xa0\n        /* \"#utility.yul\":3781:3784   */\n      dup7\n        /* \"#utility.yul\":3777:3791   */\n      add\n        /* \"#utility.yul\":3770:3808   */\n      mstore\n        /* \"#utility.yul\":3829:3902   */\n      tag_377\n        /* \"#utility.yul\":3897:3901   */\n      dup3\n        /* \"#utility.yul\":3883:3895   */\n      dup3\n        /* \"#utility.yul\":3829:3902   */\n      tag_265\n      jump\t// in\n    tag_377:\n        /* \"#utility.yul\":3821:3902   */\n      swap2\n      pop\n        /* \"#utility.yul\":3678:3913   */\n      pop\n        /* \"#utility.yul\":4000:4004   */\n      0xc0\n        /* \"#utility.yul\":3993:3998   */\n      dup4\n        /* \"#utility.yul\":3989:4005   */\n      add\n        /* \"#utility.yul\":3983:4006   */\n      mload\n        /* \"#utility.yul\":4019:4082   */\n      tag_378\n        /* \"#utility.yul\":4076:4080   */\n      0xc0\n        /* \"#utility.yul\":4071:4074   */\n      dup7\n        /* \"#utility.yul\":4067:4081   */\n      add\n        /* \"#utility.yul\":4053:4065   */\n      dup3\n        /* \"#utility.yul\":4019:4082   */\n      tag_270\n      jump\t// in\n    tag_378:\n        /* \"#utility.yul\":3923:4092   */\n      pop\n        /* \"#utility.yul\":4182:4186   */\n      0xe0\n        /* \"#utility.yul\":4175:4180   */\n      dup4\n        /* \"#utility.yul\":4171:4187   */\n      add\n        /* \"#utility.yul\":4165:4188   */\n      mload\n        /* \"#utility.yul\":4201:4264   */\n      tag_379\n        /* \"#utility.yul\":4258:4262   */\n      0xe0\n        /* \"#utility.yul\":4253:4256   */\n      dup7\n        /* \"#utility.yul\":4249:4263   */\n      add\n        /* \"#utility.yul\":4235:4247   */\n      dup3\n        /* \"#utility.yul\":4201:4264   */\n      tag_272\n      jump\t// in\n    tag_379:\n        /* \"#utility.yul\":4102:4274   */\n      pop\n        /* \"#utility.yul\":4291:4295   */\n      dup1\n        /* \"#utility.yul\":4284:4295   */\n      swap2\n      pop\n        /* \"#utility.yul\":2547:4301   */\n      pop\n        /* \"#utility.yul\":2435:4301   */\n      swap3\n      swap2\n      pop\n      pop\n      jump\t// out\n        /* \"#utility.yul\":4307:4559   */\n    tag_274:\n        /* \"#utility.yul\":4424:4434   */\n      0x00\n        /* \"#utility.yul\":4459:4553   */\n      tag_381\n        /* \"#utility.yul\":4549:4552   */\n      dup4\n        /* \"#utility.yul\":4541:4547   */\n      dup4\n        /* \"#utility.yul\":4459:4553   */\n      tag_273\n      jump\t// in\n    tag_381:\n        /* \"#utility.yul\":4445:4553   */\n      swap1\n      pop\n        /* \"#utility.yul\":4307:4559   */\n      swap3\n      swap2\n      pop\n      pop\n      jump\t// out\n        /* \"#utility.yul\":4565:4702   */\n    tag_275:\n        /* \"#utility.yul\":4659:4663   */\n      0x00\n        /* \"#utility.yul\":4691:4695   */\n      0x20\n        /* \"#utility.yul\":4686:4689   */\n      dup3\n        /* \"#utility.yul\":4682:4696   */\n      add\n        /* \"#utility.yul\":4674:4696   */\n      swap1\n      pop\n        /* \"#utility.yul\":4565:4702   */\n      swap2\n      swap1\n      pop\n      jump\t// out\n        /* \"#utility.yul\":4792:5895   */\n    tag_276:\n        /* \"#utility.yul\":4959:4962   */\n      0x00\n        /* \"#utility.yul\":4988:5066   */\n      tag_384\n        /* \"#utility.yul\":5060:5065   */\n      dup3\n        /* \"#utility.yul\":4988:5066   */\n      tag_256\n      jump\t// in\n    tag_384:\n        /* \"#utility.yul\":5082:5192   */\n      tag_385\n        /* \"#utility.yul\":5185:5191   */\n      dup2\n        /* \"#utility.yul\":5180:5183   */\n      dup6\n        /* \"#utility.yul\":5082:5192   */\n      tag_257\n      jump\t// in\n    tag_385:\n        /* \"#utility.yul\":5075:5192   */\n      swap4\n      pop\n        /* \"#utility.yul\":5218:5221   */\n      dup4\n        /* \"#utility.yul\":5263:5267   */\n      0x20\n        /* \"#utility.yul\":5255:5261   */\n      dup3\n        /* \"#utility.yul\":5251:5268   */\n      mul\n        /* \"#utility.yul\":5246:5249   */\n      dup6\n        /* \"#utility.yul\":5242:5269   */\n      add\n        /* \"#utility.yul\":5293:5373   */\n      tag_386\n        /* \"#utility.yul\":5367:5372   */\n      dup6\n        /* \"#utility.yul\":5293:5373   */\n      tag_258\n      jump\t// in\n    tag_386:\n        /* \"#utility.yul\":5396:5403   */\n      dup1\n        /* \"#utility.yul\":5427:5428   */\n      0x00\n        /* \"#utility.yul\":5412:5850   */\n    tag_387:\n        /* \"#utility.yul\":5437:5443   */\n      dup6\n        /* \"#utility.yul\":5434:5435   */\n      dup2\n        /* \"#utility.yul\":5431:5444   */\n      lt\n        /* \"#utility.yul\":5412:5850   */\n      iszero\n      tag_389\n      jumpi\n        /* \"#utility.yul\":5508:5517   */\n      dup5\n        /* \"#utility.yul\":5502:5506   */\n      dup5\n        /* \"#utility.yul\":5498:5518   */\n      sub\n        /* \"#utility.yul\":5493:5496   */\n      dup10\n        /* \"#utility.yul\":5486:5519   */\n      mstore\n        /* \"#utility.yul\":5559:5565   */\n      dup2\n        /* \"#utility.yul\":5553:5566   */\n      mload\n        /* \"#utility.yul\":5587:5699   */\n      tag_390\n        /* \"#utility.yul\":5694:5698   */\n      dup6\n        /* \"#utility.yul\":5679:5692   */\n      dup3\n        /* \"#utility.yul\":5587:5699   */\n      tag_274\n      jump\t// in\n    tag_390:\n        /* \"#utility.yul\":5579:5699   */\n      swap5\n      pop\n        /* \"#utility.yul\":5722:5806   */\n      tag_391\n        /* \"#utility.yul\":5799:5805   */\n      dup4\n        /* \"#utility.yul\":5722:5806   */\n      tag_275\n      jump\t// in\n    tag_391:\n        /* \"#utility.yul\":5712:5806   */\n      swap3\n      pop\n        /* \"#utility.yul\":5835:5839   */\n      0x20\n        /* \"#utility.yul\":5830:5833   */\n      dup11\n        /* \"#utility.yul\":5826:5840   */\n      add\n        /* \"#utility.yul\":5819:5840   */\n      swap10\n      pop\n        /* \"#utility.yul\":5472:5850   */\n      pop\n        /* \"#utility.yul\":5459:5460   */\n      0x01\n        /* \"#utility.yul\":5456:5457   */\n      dup2\n        /* \"#utility.yul\":5452:5461   */\n      add\n        /* \"#utility.yul\":5447:5461   */\n      swap1\n      pop\n        /* \"#utility.yul\":5412:5850   */\n      jump(tag_387)\n    tag_389:\n        /* \"#utility.yul\":5416:5430   */\n      pop\n        /* \"#utility.yul\":5866:5870   */\n      dup3\n        /* \"#utility.yul\":5859:5870   */\n      swap8\n      pop\n        /* \"#utility.yul\":5886:5889   */\n      dup8\n        /* \"#utility.yul\":5879:5889   */\n      swap6\n      pop\n        /* \"#utility.yul\":4964:5895   */\n      pop\n      pop\n      pop\n      pop\n      pop\n        /* \"#utility.yul\":4792:5895   */\n      swap3\n      swap2\n      pop\n      pop\n      jump\t// out\n        /* \"#utility.yul\":5901:6370   */\n    tag_18:\n        /* \"#utility.yul\":6092:6096   */\n      0x00\n        /* \"#utility.yul\":6130:6132   */\n      0x20\n        /* \"#utility.yul\":6119:6128   */\n      dup3\n        /* \"#utility.yul\":6115:6133   */\n      add\n        /* \"#utility.yul\":6107:6133   */\n      swap1\n      pop\n        /* \"#utility.yul\":6179:6188   */\n      dup2\n        /* \"#utility.yul\":6173:6177   */\n      dup2\n        /* \"#utility.yul\":6169:6189   */\n      sub\n        /* \"#utility.yul\":6165:6166   */\n      0x00\n        /* \"#utility.yul\":6154:6163   */\n      dup4\n        /* \"#utility.yul\":6150:6167   */\n      add\n        /* \"#utility.yul\":6143:6190   */\n      mstore\n        /* \"#utility.yul\":6207:6363   */\n      tag_393\n        /* \"#utility.yul\":6358:6362   */\n      dup2\n        /* \"#utility.yul\":6349:6355   */\n      dup5\n        /* \"#utility.yul\":6207:6363   */\n      tag_276\n      jump\t// in\n    tag_393:\n        /* \"#utility.yul\":6199:6363   */\n      swap1\n      pop\n        /* \"#utility.yul\":5901:6370   */\n      swap3\n      swap2\n      pop\n      pop\n      jump\t// out\n        /* \"#utility.yul\":6376:6451   */\n    tag_277:\n        /* \"#utility.yul\":6409:6415   */\n      0x00\n        /* \"#utility.yul\":6442:6444   */\n      0x40\n        /* \"#utility.yul\":6436:6445   */\n      mload\n        /* \"#utility.yul\":6426:6445   */\n      swap1\n      pop\n        /* \"#utility.yul\":6376:6451   */\n      swap1\n      jump\t// out\n        /* \"#utility.yul\":6457:6574   */\n    tag_278:\n        /* \"#utility.yul\":6566:6567   */\n      0x00\n        /* \"#utility.yul\":6563:6564   */\n      0x00\n        /* \"#utility.yul\":6556:6568   */\n      revert\n        /* \"#utility.yul\":6580:6697   */\n    tag_279:\n        /* \"#utility.yul\":6689:6690   */\n      0x00\n        /* \"#utility.yul\":6686:6687   */\n      0x00\n        /* \"#utility.yul\":6679:6691   */\n      revert\n        /* \"#utility.yul\":6703:6820   */\n    tag_280:\n        /* \"#utility.yul\":6812:6813   */\n      0x00\n        /* \"#utility.yul\":6809:6810   */\n      0x00\n        /* \"#utility.yul\":6802:6814   */\n      revert\n        /* \"#utility.yul\":6826:6943   */\n    tag_281:\n        /* \"#utility.yul\":6935:6936   */\n      0x00\n        /* \"#utility.yul\":6932:6933   */\n      0x00\n        /* \"#utility.yul\":6925:6937   */\n      revert\n        /* \"#utility.yul\":6949:7129   */\n    tag_72:\n        /* \"#utility.yul\":6997:7074   */\n      0x4e487b7100000000000000000000000000000000000000000000000000000000\n        /* \"#utility.yul\":6994:6995   */\n      0x00\n        /* \"#utility.yul\":6987:7075   */\n      mstore\n        /* \"#utility.yul\":7094:7098   */\n      0x41\n        /* \"#utility.yul\":7091:7092   */\n      0x04\n        /* \"#utility.yul\":7084:7099   */\n      mstore\n        /* \"#utility.yul\":7118:7122   */\n      0x24\n        /* \"#utility.yul\":7115:7116   */\n      0x00\n        /* \"#utility.yul\":7108:7123   */\n      revert\n        /* \"#utility.yul\":7135:7416   */\n    tag_282:\n        /* \"#utility.yul\":7218:7245   */\n      tag_401\n        /* \"#utility.yul\":7240:7244   */\n      dup3\n        /* \"#utility.yul\":7218:7245   */\n      tag_264\n      jump\t// in\n    tag_401:\n        /* \"#utility.yul\":7210:7216   */\n      dup2\n        /* \"#utility.yul\":7206:7246   */\n      add\n        /* \"#utility.yul\":7348:7354   */\n      dup2\n        /* \"#utility.yul\":7336:7346   */\n      dup2\n        /* \"#utility.yul\":7333:7355   */\n      lt\n        /* \"#utility.yul\":7312:7330   */\n      0xffffffffffffffff\n        /* \"#utility.yul\":7300:7310   */\n      dup3\n        /* \"#utility.yul\":7297:7331   */\n      gt\n        /* \"#utility.yul\":7294:7356   */\n      or\n        /* \"#utility.yul\":7291:7379   */\n      iszero\n      tag_402\n      jumpi\n        /* \"#utility.yul\":7359:7377   */\n      tag_403\n      tag_72\n      jump\t// in\n    tag_403:\n        /* \"#utility.yul\":7291:7379   */\n    tag_402:\n        /* \"#utility.yul\":7399:7409   */\n      dup1\n        /* \"#utility.yul\":7395:7397   */\n      0x40\n        /* \"#utility.yul\":7388:7410   */\n      mstore\n        /* \"#utility.yul\":7178:7416   */\n      pop\n        /* \"#utility.yul\":7135:7416   */\n      pop\n      pop\n      jump\t// out\n        /* \"#utility.yul\":7422:7551   */\n    tag_283:\n        /* \"#utility.yul\":7456:7462   */\n      0x00\n        /* \"#utility.yul\":7483:7503   */\n      tag_405\n      tag_277\n      jump\t// in\n    tag_405:\n        /* \"#utility.yul\":7473:7503   */\n      swap1\n      pop\n        /* \"#utility.yul\":7512:7545   */\n      tag_406\n        /* \"#utility.yul\":7540:7544   */\n      dup3\n        /* \"#utility.yul\":7532:7538   */\n      dup3\n        /* \"#utility.yul\":7512:7545   */\n      tag_282\n      jump\t// in\n    tag_406:\n        /* \"#utility.yul\":7422:7551   */\n      swap2\n      swap1\n      pop\n      jump\t// out\n        /* \"#utility.yul\":7557:7865   */\n    tag_284:\n        /* \"#utility.yul\":7619:7623   */\n      0x00\n        /* \"#utility.yul\":7709:7727   */\n      0xffffffffffffffff\n        /* \"#utility.yul\":7701:7707   */\n      dup3\n        /* \"#utility.yul\":7698:7728   */\n      gt\n        /* \"#utility.yul\":7695:7751   */\n      iszero\n      tag_408\n      jumpi\n        /* \"#utility.yul\":7731:7749   */\n      tag_409\n      tag_72\n      jump\t// in\n    tag_409:\n        /* \"#utility.yul\":7695:7751   */\n    tag_408:\n        /* \"#utility.yul\":7769:7798   */\n      tag_410\n        /* \"#utility.yul\":7791:7797   */\n      dup3\n        /* \"#utility.yul\":7769:7798   */\n      tag_264\n      jump\t// in\n    tag_410:\n        /* \"#utility.yul\":7761:7798   */\n      swap1\n      pop\n        /* \"#utility.yul\":7853:7857   */\n      0x20\n        /* \"#utility.yul\":7847:7851   */\n      dup2\n        /* \"#utility.yul\":7843:7858   */\n      add\n        /* \"#utility.yul\":7835:7858   */\n      swap1\n      pop\n        /* \"#utility.yul\":7557:7865   */\n      swap2\n      swap1\n      pop\n      jump\t// out\n        /* \"#utility.yul\":7871:8019   */\n    tag_285:\n        /* \"#utility.yul\":7969:7975   */\n      dup3\n        /* \"#utility.yul\":7964:7967   */\n      dup2\n        /* \"#utility.yul\":7959:7962   */\n      dup4\n        /* \"#utility.yul\":7946:7976   */\n      calldatacopy\n        /* \"#utility.yul\":8010:8011   */\n      0x00\n        /* \"#utility.yul\":8001:8007   */\n      dup4\n        /* \"#utility.yul\":7996:7999   */\n      dup4\n        /* \"#utility.yul\":7992:8008   */\n      add\n        /* \"#utility.yul\":7985:8012   */\n      mstore\n        /* \"#utility.yul\":7871:8019   */\n      pop\n      pop\n      pop\n      jump\t// out\n        /* \"#utility.yul\":8025:8450   */\n    tag_286:\n        /* \"#utility.yul\":8103:8108   */\n      0x00\n        /* \"#utility.yul\":8128:8194   */\n      tag_413\n        /* \"#utility.yul\":8144:8193   */\n      tag_414\n        /* \"#utility.yul\":8186:8192   */\n      dup5\n        /* \"#utility.yul\":8144:8193   */\n      tag_284\n      jump\t// in\n    tag_414:\n        /* \"#utility.yul\":8128:8194   */\n      tag_283\n      jump\t// in\n    tag_413:\n        /* \"#utility.yul\":8119:8194   */\n      swap1\n      pop\n        /* \"#utility.yul\":8217:8223   */\n      dup3\n        /* \"#utility.yul\":8210:8215   */\n      dup2\n        /* \"#utility.yul\":8203:8224   */\n      mstore\n        /* \"#utility.yul\":8255:8259   */\n      0x20\n        /* \"#utility.yul\":8248:8253   */\n      dup2\n        /* \"#utility.yul\":8244:8260   */\n      add\n        /* \"#utility.yul\":8293:8296   */\n      dup5\n        /* \"#utility.yul\":8284:8290   */\n      dup5\n        /* \"#utility.yul\":8279:8282   */\n      dup5\n        /* \"#utility.yul\":8275:8291   */\n      add\n        /* \"#utility.yul\":8272:8297   */\n      gt\n        /* \"#utility.yul\":8269:8381   */\n      iszero\n      tag_415\n      jumpi\n        /* \"#utility.yul\":8300:8379   */\n      tag_416\n      tag_281\n      jump\t// in\n    tag_416:\n        /* \"#utility.yul\":8269:8381   */\n    tag_415:\n        /* \"#utility.yul\":8390:8444   */\n      tag_417\n        /* \"#utility.yul\":8437:8443   */\n      dup5\n        /* \"#utility.yul\":8432:8435   */\n      dup3\n        /* \"#utility.yul\":8427:8430   */\n      dup6\n        /* \"#utility.yul\":8390:8444   */\n      tag_285\n      jump\t// in\n    tag_417:\n        /* \"#utility.yul\":8109:8450   */\n      pop\n        /* \"#utility.yul\":8025:8450   */\n      swap4\n      swap3\n      pop\n      pop\n      pop\n      jump\t// out\n        /* \"#utility.yul\":8470:8810   */\n    tag_287:\n        /* \"#utility.yul\":8526:8531   */\n      0x00\n        /* \"#utility.yul\":8575:8578   */\n      dup3\n        /* \"#utility.yul\":8568:8572   */\n      0x1f\n        /* \"#utility.yul\":8560:8566   */\n      dup4\n        /* \"#utility.yul\":8556:8573   */\n      add\n        /* \"#utility.yul\":8552:8579   */\n      slt\n        /* \"#utility.yul\":8542:8664   */\n      tag_419\n      jumpi\n        /* \"#utility.yul\":8583:8662   */\n      tag_420\n      tag_280\n      jump\t// in\n    tag_420:\n        /* \"#utility.yul\":8542:8664   */\n    tag_419:\n        /* \"#utility.yul\":8700:8706   */\n      dup2\n        /* \"#utility.yul\":8687:8707   */\n      calldataload\n        /* \"#utility.yul\":8725:8804   */\n      tag_421\n        /* \"#utility.yul\":8800:8803   */\n      dup5\n        /* \"#utility.yul\":8792:8798   */\n      dup3\n        /* \"#utility.yul\":8785:8789   */\n      0x20\n        /* \"#utility.yul\":8777:8783   */\n      dup7\n        /* \"#utility.yul\":8773:8790   */\n      add\n        /* \"#utility.yul\":8725:8804   */\n      tag_286\n      jump\t// in\n    tag_421:\n        /* \"#utility.yul\":8716:8804   */\n      swap2\n      pop\n        /* \"#utility.yul\":8532:8810   */\n      pop\n        /* \"#utility.yul\":8470:8810   */\n      swap3\n      swap2\n      pop\n      pop\n      jump\t// out\n        /* \"#utility.yul\":8816:9975   */\n    tag_22:\n        /* \"#utility.yul\":8923:8929   */\n      0x00\n        /* \"#utility.yul\":8931:8937   */\n      0x00\n        /* \"#utility.yul\":8939:8945   */\n      0x00\n        /* \"#utility.yul\":8988:8990   */\n      0x60\n        /* \"#utility.yul\":8976:8985   */\n      dup5\n        /* \"#utility.yul\":8967:8974   */\n      dup7\n        /* \"#utility.yul\":8963:8986   */\n      sub\n        /* \"#utility.yul\":8959:8991   */\n      slt\n        /* \"#utility.yul\":8956:9075   */\n      iszero\n      tag_423\n      jumpi\n        /* \"#utility.yul\":8994:9073   */\n      tag_424\n      tag_278\n      jump\t// in\n    tag_424:\n        /* \"#utility.yul\":8956:9075   */\n    tag_423:\n        /* \"#utility.yul\":9142:9143   */\n      0x00\n        /* \"#utility.yul\":9131:9140   */\n      dup5\n        /* \"#utility.yul\":9127:9144   */\n      add\n        /* \"#utility.yul\":9114:9145   */\n      calldataload\n        /* \"#utility.yul\":9172:9190   */\n      0xffffffffffffffff\n        /* \"#utility.yul\":9164:9170   */\n      dup2\n        /* \"#utility.yul\":9161:9191   */\n      gt\n        /* \"#utility.yul\":9158:9275   */\n      iszero\n      tag_425\n      jumpi\n        /* \"#utility.yul\":9194:9273   */\n      tag_426\n      tag_279\n      jump\t// in\n    tag_426:\n        /* \"#utility.yul\":9158:9275   */\n    tag_425:\n        /* \"#utility.yul\":9299:9362   */\n      tag_427\n        /* \"#utility.yul\":9354:9361   */\n      dup7\n        /* \"#utility.yul\":9345:9351   */\n      dup3\n        /* \"#utility.yul\":9334:9343   */\n      dup8\n        /* \"#utility.yul\":9330:9352   */\n      add\n        /* \"#utility.yul\":9299:9362   */\n      tag_287\n      jump\t// in\n    tag_427:\n        /* \"#utility.yul\":9289:9362   */\n      swap4\n      pop\n        /* \"#utility.yul\":9085:9372   */\n      pop\n        /* \"#utility.yul\":9439:9441   */\n      0x20\n        /* \"#utility.yul\":9428:9437   */\n      dup5\n        /* \"#utility.yul\":9424:9442   */\n      add\n        /* \"#utility.yul\":9411:9443   */\n      calldataload\n        /* \"#utility.yul\":9470:9488   */\n      0xffffffffffffffff\n        /* \"#utility.yul\":9462:9468   */\n      dup2\n        /* \"#utility.yul\":9459:9489   */\n      gt\n        /* \"#utility.yul\":9456:9573   */\n      iszero\n      tag_428\n      jumpi\n        /* \"#utility.yul\":9492:9571   */\n      tag_429\n      tag_279\n      jump\t// in\n    tag_429:\n        /* \"#utility.yul\":9456:9573   */\n    tag_428:\n        /* \"#utility.yul\":9597:9660   */\n      tag_430\n        /* \"#utility.yul\":9652:9659   */\n      dup7\n        /* \"#utility.yul\":9643:9649   */\n      dup3\n        /* \"#utility.yul\":9632:9641   */\n      dup8\n        /* \"#utility.yul\":9628:9650   */\n      add\n        /* \"#utility.yul\":9597:9660   */\n      tag_287\n      jump\t// in\n    tag_430:\n        /* \"#utility.yul\":9587:9660   */\n      swap3\n      pop\n        /* \"#utility.yul\":9382:9670   */\n      pop\n        /* \"#utility.yul\":9737:9739   */\n      0x40\n        /* \"#utility.yul\":9726:9735   */\n      dup5\n        /* \"#utility.yul\":9722:9740   */\n      add\n        /* \"#utility.yul\":9709:9741   */\n      calldataload\n        /* \"#utility.yul\":9768:9786   */\n      0xffffffffffffffff\n        /* \"#utility.yul\":9760:9766   */\n      dup2\n        /* \"#utility.yul\":9757:9787   */\n      gt\n        /* \"#utility.yul\":9754:9871   */\n      iszero\n      tag_431\n      jumpi\n        /* \"#utility.yul\":9790:9869   */\n      tag_432\n      tag_279\n      jump\t// in\n    tag_432:\n        /* \"#utility.yul\":9754:9871   */\n    tag_431:\n        /* \"#utility.yul\":9895:9958   */\n      tag_433\n        /* \"#utility.yul\":9950:9957   */\n      dup7\n        /* \"#utility.yul\":9941:9947   */\n      dup3\n        /* \"#utility.yul\":9930:9939   */\n      dup8\n        /* \"#utility.yul\":9926:9948   */\n      add\n        /* \"#utility.yul\":9895:9958   */\n      tag_287\n      jump\t// in\n    tag_433:\n        /* \"#utility.yul\":9885:9958   */\n      swap2\n      pop\n        /* \"#utility.yul\":9680:9968   */\n      pop\n        /* \"#utility.yul\":8816:9975   */\n      swap3\n      pop\n      swap3\n      pop\n      swap3\n      jump\t// out\n        /* \"#utility.yul\":9981:10099   */\n    tag_288:\n        /* \"#utility.yul\":10068:10092   */\n      tag_435\n        /* \"#utility.yul\":10086:10091   */\n      dup2\n        /* \"#utility.yul\":10068:10092   */\n      tag_259\n      jump\t// in\n    tag_435:\n        /* \"#utility.yul\":10063:10066   */\n      dup3\n        /* \"#utility.yul\":10056:10093   */\n      mstore\n        /* \"#utility.yul\":9981:10099   */\n      pop\n      pop\n      jump\t// out\n        /* \"#utility.yul\":10105:10327   */\n    tag_25:\n        /* \"#utility.yul\":10198:10202   */\n      0x00\n        /* \"#utility.yul\":10236:10238   */\n      0x20\n        /* \"#utility.yul\":10225:10234   */\n      dup3\n        /* \"#utility.yul\":10221:10239   */\n      add\n        /* \"#utility.yul\":10213:10239   */\n      swap1\n      pop\n        /* \"#utility.yul\":10249:10320   */\n      tag_437\n        /* \"#utility.yul\":10317:10318   */\n      0x00\n        /* \"#utility.yul\":10306:10315   */\n      dup4\n        /* \"#utility.yul\":10302:10319   */\n      add\n        /* \"#utility.yul\":10293:10299   */\n      dup5\n        /* \"#utility.yul\":10249:10320   */\n      tag_288\n      jump\t// in\n    tag_437:\n        /* \"#utility.yul\":10105:10327   */\n      swap3\n      swap2\n      pop\n      pop\n      jump\t// out\n        /* \"#utility.yul\":10333:10451   */\n    tag_289:\n        /* \"#utility.yul\":10404:10426   */\n      tag_439\n        /* \"#utility.yul\":10420:10425   */\n      dup2\n        /* \"#utility.yul\":10404:10426   */\n      tag_266\n      jump\t// in\n    tag_439:\n        /* \"#utility.yul\":10397:10402   */\n      dup2\n        /* \"#utility.yul\":10394:10427   */\n      eq\n        /* \"#utility.yul\":10384:10445   */\n      tag_440\n      jumpi\n        /* \"#utility.yul\":10441:10442   */\n      0x00\n        /* \"#utility.yul\":10438:10439   */\n      0x00\n        /* \"#utility.yul\":10431:10443   */\n      revert\n        /* \"#utility.yul\":10384:10445   */\n    tag_440:\n        /* \"#utility.yul\":10333:10451   */\n      pop\n      jump\t// out\n        /* \"#utility.yul\":10457:10592   */\n    tag_290:\n        /* \"#utility.yul\":10501:10506   */\n      0x00\n        /* \"#utility.yul\":10539:10545   */\n      dup2\n        /* \"#utility.yul\":10526:10546   */\n      calldataload\n        /* \"#utility.yul\":10517:10546   */\n      swap1\n      pop\n        /* \"#utility.yul\":10555:10586   */\n      tag_442\n        /* \"#utility.yul\":10580:10585   */\n      dup2\n        /* \"#utility.yul\":10555:10586   */\n      tag_289\n      jump\t// in\n    tag_442:\n        /* \"#utility.yul\":10457:10592   */\n      swap3\n      swap2\n      pop\n      pop\n      jump\t// out\n        /* \"#utility.yul\":10598:10720   */\n    tag_291:\n        /* \"#utility.yul\":10671:10695   */\n      tag_444\n        /* \"#utility.yul\":10689:10694   */\n      dup2\n        /* \"#utility.yul\":10671:10695   */\n      tag_271\n      jump\t// in\n    tag_444:\n        /* \"#utility.yul\":10664:10669   */\n      dup2\n        /* \"#utility.yul\":10661:10696   */\n      eq\n        /* \"#utility.yul\":10651:10714   */\n      tag_445\n      jumpi\n        /* \"#utility.yul\":10710:10711   */\n      0x00\n        /* \"#utility.yul\":10707:10708   */\n      0x00\n        /* \"#utility.yul\":10700:10712   */\n      revert\n        /* \"#utility.yul\":10651:10714   */\n    tag_445:\n        /* \"#utility.yul\":10598:10720   */\n      pop\n      jump\t// out\n        /* \"#utility.yul\":10726:10865   */\n    tag_292:\n        /* \"#utility.yul\":10772:10777   */\n      0x00\n        /* \"#utility.yul\":10810:10816   */\n      dup2\n        /* \"#utility.yul\":10797:10817   */\n      calldataload\n        /* \"#utility.yul\":10788:10817   */\n      swap1\n      pop\n        /* \"#utility.yul\":10826:10859   */\n      tag_447\n        /* \"#utility.yul\":10853:10858   */\n      dup2\n        /* \"#utility.yul\":10826:10859   */\n      tag_291\n      jump\t// in\n    tag_447:\n        /* \"#utility.yul\":10726:10865   */\n      swap3\n      swap2\n      pop\n      pop\n      jump\t// out\n        /* \"#utility.yul\":10871:12318   */\n    tag_28:\n        /* \"#utility.yul\":10994:11000   */\n      0x00\n        /* \"#utility.yul\":11002:11008   */\n      0x00\n        /* \"#utility.yul\":11010:11016   */\n      0x00\n        /* \"#utility.yul\":11018:11024   */\n      0x00\n        /* \"#utility.yul\":11026:11032   */\n      0x00\n        /* \"#utility.yul\":11075:11078   */\n      0xa0\n        /* \"#utility.yul\":11063:11072   */\n      dup7\n        /* \"#utility.yul\":11054:11061   */\n      dup9\n        /* \"#utility.yul\":11050:11073   */\n      sub\n        /* \"#utility.yul\":11046:11079   */\n      slt\n        /* \"#utility.yul\":11043:11163   */\n      iszero\n      tag_449\n      jumpi\n        /* \"#utility.yul\":11082:11161   */\n      tag_450\n      tag_278\n      jump\t// in\n    tag_450:\n        /* \"#utility.yul\":11043:11163   */\n    tag_449:\n        /* \"#utility.yul\":11230:11231   */\n      0x00\n        /* \"#utility.yul\":11219:11228   */\n      dup7\n        /* \"#utility.yul\":11215:11232   */\n      add\n        /* \"#utility.yul\":11202:11233   */\n      calldataload\n        /* \"#utility.yul\":11260:11278   */\n      0xffffffffffffffff\n        /* \"#utility.yul\":11252:11258   */\n      dup2\n        /* \"#utility.yul\":11249:11279   */\n      gt\n        /* \"#utility.yul\":11246:11363   */\n      iszero\n      tag_451\n      jumpi\n        /* \"#utility.yul\":11282:11361   */\n      tag_452\n      tag_279\n      jump\t// in\n    tag_452:\n        /* \"#utility.yul\":11246:11363   */\n    tag_451:\n        /* \"#utility.yul\":11387:11450   */\n      tag_453\n        /* \"#utility.yul\":11442:11449   */\n      dup9\n        /* \"#utility.yul\":11433:11439   */\n      dup3\n        /* \"#utility.yul\":11422:11431   */\n      dup10\n        /* \"#utility.yul\":11418:11440   */\n      add\n        /* \"#utility.yul\":11387:11450   */\n      tag_287\n      jump\t// in\n    tag_453:\n        /* \"#utility.yul\":11377:11450   */\n      swap6\n      pop\n        /* \"#utility.yul\":11173:11460   */\n      pop\n        /* \"#utility.yul\":11527:11529   */\n      0x20\n        /* \"#utility.yul\":11516:11525   */\n      dup7\n        /* \"#utility.yul\":11512:11530   */\n      add\n        /* \"#utility.yul\":11499:11531   */\n      calldataload\n        /* \"#utility.yul\":11558:11576   */\n      0xffffffffffffffff\n        /* \"#utility.yul\":11550:11556   */\n      dup2\n        /* \"#utility.yul\":11547:11577   */\n      gt\n        /* \"#utility.yul\":11544:11661   */\n      iszero\n      tag_454\n      jumpi\n        /* \"#utility.yul\":11580:11659   */\n      tag_455\n      tag_279\n      jump\t// in\n    tag_455:\n        /* \"#utility.yul\":11544:11661   */\n    tag_454:\n        /* \"#utility.yul\":11685:11748   */\n      tag_456\n        /* \"#utility.yul\":11740:11747   */\n      dup9\n        /* \"#utility.yul\":11731:11737   */\n      dup3\n        /* \"#utility.yul\":11720:11729   */\n      dup10\n        /* \"#utility.yul\":11716:11738   */\n      add\n        /* \"#utility.yul\":11685:11748   */\n      tag_287\n      jump\t// in\n    tag_456:\n        /* \"#utility.yul\":11675:11748   */\n      swap5\n      pop\n        /* \"#utility.yul\":11470:11758   */\n      pop\n        /* \"#utility.yul\":11797:11799   */\n      0x40\n        /* \"#utility.yul\":11823:11874   */\n      tag_457\n        /* \"#utility.yul\":11866:11873   */\n      dup9\n        /* \"#utility.yul\":11857:11863   */\n      dup3\n        /* \"#utility.yul\":11846:11855   */\n      dup10\n        /* \"#utility.yul\":11842:11864   */\n      add\n        /* \"#utility.yul\":11823:11874   */\n      tag_290\n      jump\t// in\n    tag_457:\n        /* \"#utility.yul\":11813:11874   */\n      swap4\n      pop\n        /* \"#utility.yul\":11768:11884   */\n      pop\n        /* \"#utility.yul\":11951:11953   */\n      0x60\n        /* \"#utility.yul\":11940:11949   */\n      dup7\n        /* \"#utility.yul\":11936:11954   */\n      add\n        /* \"#utility.yul\":11923:11955   */\n      calldataload\n        /* \"#utility.yul\":11982:12000   */\n      0xffffffffffffffff\n        /* \"#utility.yul\":11974:11980   */\n      dup2\n        /* \"#utility.yul\":11971:12001   */\n      gt\n        /* \"#utility.yul\":11968:12085   */\n      iszero\n      tag_458\n      jumpi\n        /* \"#utility.yul\":12004:12083   */\n      tag_459\n      tag_279\n      jump\t// in\n    tag_459:\n        /* \"#utility.yul\":11968:12085   */\n    tag_458:\n        /* \"#utility.yul\":12109:12172   */\n      tag_460\n        /* \"#utility.yul\":12164:12171   */\n      dup9\n        /* \"#utility.yul\":12155:12161   */\n      dup3\n        /* \"#utility.yul\":12144:12153   */\n      dup10\n        /* \"#utility.yul\":12140:12162   */\n      add\n        /* \"#utility.yul\":12109:12172   */\n      tag_287\n      jump\t// in\n    tag_460:\n        /* \"#utility.yul\":12099:12172   */\n      swap3\n      pop\n        /* \"#utility.yul\":11894:12182   */\n      pop\n        /* \"#utility.yul\":12221:12224   */\n      0x80\n        /* \"#utility.yul\":12248:12301   */\n      tag_461\n        /* \"#utility.yul\":12293:12300   */\n      dup9\n        /* \"#utility.yul\":12284:12290   */\n      dup3\n        /* \"#utility.yul\":12273:12282   */\n      dup10\n        /* \"#utility.yul\":12269:12291   */\n      add\n        /* \"#utility.yul\":12248:12301   */\n      tag_292\n      jump\t// in\n    tag_461:\n        /* \"#utility.yul\":12238:12301   */\n      swap2\n      pop\n        /* \"#utility.yul\":12192:12311   */\n      pop\n        /* \"#utility.yul\":10871:12318   */\n      swap3\n      swap6\n      pop\n      swap3\n      swap6\n      swap1\n      swap4\n      pop\n      jump\t// out\n        /* \"#utility.yul\":12324:12653   */\n    tag_33:\n        /* \"#utility.yul\":12383:12389   */\n      0x00\n        /* \"#utility.yul\":12432:12434   */\n      0x20\n        /* \"#utility.yul\":12420:12429   */\n      dup3\n        /* \"#utility.yul\":12411:12418   */\n      dup5\n        /* \"#utility.yul\":12407:12430   */\n      sub\n        /* \"#utility.yul\":12403:12435   */\n      slt\n        /* \"#utility.yul\":12400:12519   */\n      iszero\n      tag_463\n      jumpi\n        /* \"#utility.yul\":12438:12517   */\n      tag_464\n      tag_278\n      jump\t// in\n    tag_464:\n        /* \"#utility.yul\":12400:12519   */\n    tag_463:\n        /* \"#utility.yul\":12558:12559   */\n      0x00\n        /* \"#utility.yul\":12583:12636   */\n      tag_465\n        /* \"#utility.yul\":12628:12635   */\n      dup5\n        /* \"#utility.yul\":12619:12625   */\n      dup3\n        /* \"#utility.yul\":12608:12617   */\n      dup6\n        /* \"#utility.yul\":12604:12626   */\n      add\n        /* \"#utility.yul\":12583:12636   */\n      tag_292\n      jump\t// in\n    tag_465:\n        /* \"#utility.yul\":12573:12636   */\n      swap2\n      pop\n        /* \"#utility.yul\":12529:12646   */\n      pop\n        /* \"#utility.yul\":12324:12653   */\n      swap3\n      swap2\n      pop\n      pop\n      jump\t// out\n        /* \"#utility.yul\":12659:12781   */\n    tag_293:\n        /* \"#utility.yul\":12732:12756   */\n      tag_467\n        /* \"#utility.yul\":12750:12755   */\n      dup2\n        /* \"#utility.yul\":12732:12756   */\n      tag_259\n      jump\t// in\n    tag_467:\n        /* \"#utility.yul\":12725:12730   */\n      dup2\n        /* \"#utility.yul\":12722:12757   */\n      eq\n        /* \"#utility.yul\":12712:12775   */\n      tag_468\n      jumpi\n        /* \"#utility.yul\":12771:12772   */\n      0x00\n        /* \"#utility.yul\":12768:12769   */\n      0x00\n        /* \"#utility.yul\":12761:12773   */\n      revert\n        /* \"#utility.yul\":12712:12775   */\n    tag_468:\n        /* \"#utility.yul\":12659:12781   */\n      pop\n      jump\t// out\n        /* \"#utility.yul\":12787:12926   */\n    tag_294:\n        /* \"#utility.yul\":12833:12838   */\n      0x00\n        /* \"#utility.yul\":12871:12877   */\n      dup2\n        /* \"#utility.yul\":12858:12878   */\n      calldataload\n        /* \"#utility.yul\":12849:12878   */\n      swap1\n      pop\n        /* \"#utility.yul\":12887:12920   */\n      tag_470\n        /* \"#utility.yul\":12914:12919   */\n      dup2\n        /* \"#utility.yul\":12887:12920   */\n      tag_293\n      jump\t// in\n    tag_470:\n        /* \"#utility.yul\":12787:12926   */\n      swap3\n      swap2\n      pop\n      pop\n      jump\t// out\n        /* \"#utility.yul\":12932:14237   */\n    tag_39:\n        /* \"#utility.yul\":13048:13054   */\n      0x00\n        /* \"#utility.yul\":13056:13062   */\n      0x00\n        /* \"#utility.yul\":13064:13070   */\n      0x00\n        /* \"#utility.yul\":13072:13078   */\n      0x00\n        /* \"#utility.yul\":13121:13124   */\n      0x80\n        /* \"#utility.yul\":13109:13118   */\n      dup6\n        /* \"#utility.yul\":13100:13107   */\n      dup8\n        /* \"#utility.yul\":13096:13119   */\n      sub\n        /* \"#utility.yul\":13092:13125   */\n      slt\n        /* \"#utility.yul\":13089:13209   */\n      iszero\n      tag_472\n      jumpi\n        /* \"#utility.yul\":13128:13207   */\n      tag_473\n      tag_278\n      jump\t// in\n    tag_473:\n        /* \"#utility.yul\":13089:13209   */\n    tag_472:\n        /* \"#utility.yul\":13276:13277   */\n      0x00\n        /* \"#utility.yul\":13265:13274   */\n      dup6\n        /* \"#utility.yul\":13261:13278   */\n      add\n        /* \"#utility.yul\":13248:13279   */\n      calldataload\n        /* \"#utility.yul\":13306:13324   */\n      0xffffffffffffffff\n        /* \"#utility.yul\":13298:13304   */\n      dup2\n        /* \"#utility.yul\":13295:13325   */\n      gt\n        /* \"#utility.yul\":13292:13409   */\n      iszero\n      tag_474\n      jumpi\n        /* \"#utility.yul\":13328:13407   */\n      tag_475\n      tag_279\n      jump\t// in\n    tag_475:\n        /* \"#utility.yul\":13292:13409   */\n    tag_474:\n        /* \"#utility.yul\":13433:13496   */\n      tag_476\n        /* \"#utility.yul\":13488:13495   */\n      dup8\n        /* \"#utility.yul\":13479:13485   */\n      dup3\n        /* \"#utility.yul\":13468:13477   */\n      dup9\n        /* \"#utility.yul\":13464:13486   */\n      add\n        /* \"#utility.yul\":13433:13496   */\n      tag_287\n      jump\t// in\n    tag_476:\n        /* \"#utility.yul\":13423:13496   */\n      swap5\n      pop\n        /* \"#utility.yul\":13219:13506   */\n      pop\n        /* \"#utility.yul\":13573:13575   */\n      0x20\n        /* \"#utility.yul\":13562:13571   */\n      dup6\n        /* \"#utility.yul\":13558:13576   */\n      add\n        /* \"#utility.yul\":13545:13577   */\n      calldataload\n        /* \"#utility.yul\":13604:13622   */\n      0xffffffffffffffff\n        /* \"#utility.yul\":13596:13602   */\n      dup2\n        /* \"#utility.yul\":13593:13623   */\n      gt\n        /* \"#utility.yul\":13590:13707   */\n      iszero\n      tag_477\n      jumpi\n        /* \"#utility.yul\":13626:13705   */\n      tag_478\n      tag_279\n      jump\t// in\n    tag_478:\n        /* \"#utility.yul\":13590:13707   */\n    tag_477:\n        /* \"#utility.yul\":13731:13794   */\n      tag_479\n        /* \"#utility.yul\":13786:13793   */\n      dup8\n        /* \"#utility.yul\":13777:13783   */\n      dup3\n        /* \"#utility.yul\":13766:13775   */\n      dup9\n        /* \"#utility.yul\":13762:13784   */\n      add\n        /* \"#utility.yul\":13731:13794   */\n      tag_287\n      jump\t// in\n    tag_479:\n        /* \"#utility.yul\":13721:13794   */\n      swap4\n      pop\n        /* \"#utility.yul\":13516:13804   */\n      pop\n        /* \"#utility.yul\":13871:13873   */\n      0x40\n        /* \"#utility.yul\":13860:13869   */\n      dup6\n        /* \"#utility.yul\":13856:13874   */\n      add\n        /* \"#utility.yul\":13843:13875   */\n      calldataload\n        /* \"#utility.yul\":13902:13920   */\n      0xffffffffffffffff\n        /* \"#utility.yul\":13894:13900   */\n      dup2\n        /* \"#utility.yul\":13891:13921   */\n      gt\n        /* \"#utility.yul\":13888:14005   */\n      iszero\n      tag_480\n      jumpi\n        /* \"#utility.yul\":13924:14003   */\n      tag_481\n      tag_279\n      jump\t// in\n    tag_481:\n        /* \"#utility.yul\":13888:14005   */\n    tag_480:\n        /* \"#utility.yul\":14029:14092   */\n      tag_482\n        /* \"#utility.yul\":14084:14091   */\n      dup8\n        /* \"#utility.yul\":14075:14081   */\n      dup3\n        /* \"#utility.yul\":14064:14073   */\n      dup9\n        /* \"#utility.yul\":14060:14082   */\n      add\n        /* \"#utility.yul\":14029:14092   */\n      tag_287\n      jump\t// in\n    tag_482:\n        /* \"#utility.yul\":14019:14092   */\n      swap3\n      pop\n        /* \"#utility.yul\":13814:14102   */\n      pop\n        /* \"#utility.yul\":14141:14143   */\n      0x60\n        /* \"#utility.yul\":14167:14220   */\n      tag_483\n        /* \"#utility.yul\":14212:14219   */\n      dup8\n        /* \"#utility.yul\":14203:14209   */\n      dup3\n        /* \"#utility.yul\":14192:14201   */\n      dup9\n        /* \"#utility.yul\":14188:14210   */\n      add\n        /* \"#utility.yul\":14167:14220   */\n      tag_294\n      jump\t// in\n    tag_483:\n        /* \"#utility.yul\":14157:14220   */\n      swap2\n      pop\n        /* \"#utility.yul\":14112:14230   */\n      pop\n        /* \"#utility.yul\":12932:14237   */\n      swap3\n      swap6\n      swap2\n      swap5\n      pop\n      swap3\n      pop\n      jump\t// out\n        /* \"#utility.yul\":14243:14572   */\n    tag_44:\n        /* \"#utility.yul\":14302:14308   */\n      0x00\n        /* \"#utility.yul\":14351:14353   */\n      0x20\n        /* \"#utility.yul\":14339:14348   */\n      dup3\n        /* \"#utility.yul\":14330:14337   */\n      dup5\n        /* \"#utility.yul\":14326:14349   */\n      sub\n        /* \"#utility.yul\":14322:14354   */\n      slt\n        /* \"#utility.yul\":14319:14438   */\n      iszero\n      tag_485\n      jumpi\n        /* \"#utility.yul\":14357:14436   */\n      tag_486\n      tag_278\n      jump\t// in\n    tag_486:\n        /* \"#utility.yul\":14319:14438   */\n    tag_485:\n        /* \"#utility.yul\":14477:14478   */\n      0x00\n        /* \"#utility.yul\":14502:14555   */\n      tag_487\n        /* \"#utility.yul\":14547:14554   */\n      dup5\n        /* \"#utility.yul\":14538:14544   */\n      dup3\n        /* \"#utility.yul\":14527:14536   */\n      dup6\n        /* \"#utility.yul\":14523:14545   */\n      add\n        /* \"#utility.yul\":14502:14555   */\n      tag_294\n      jump\t// in\n    tag_487:\n        /* \"#utility.yul\":14492:14555   */\n      swap2\n      pop\n        /* \"#utility.yul\":14448:14565   */\n      pop\n        /* \"#utility.yul\":14243:14572   */\n      swap3\n      swap2\n      pop\n      pop\n      jump\t// out\n        /* \"#utility.yul\":14578:14747   */\n    tag_295:\n        /* \"#utility.yul\":14662:14673   */\n      0x00\n        /* \"#utility.yul\":14696:14702   */\n      dup3\n        /* \"#utility.yul\":14691:14694   */\n      dup3\n        /* \"#utility.yul\":14684:14703   */\n      mstore\n        /* \"#utility.yul\":14736:14740   */\n      0x20\n        /* \"#utility.yul\":14731:14734   */\n      dup3\n        /* \"#utility.yul\":14727:14741   */\n      add\n        /* \"#utility.yul\":14712:14741   */\n      swap1\n      pop\n        /* \"#utility.yul\":14578:14747   */\n      swap3\n      swap2\n      pop\n      pop\n      jump\t// out\n        /* \"#utility.yul\":14753:15130   */\n    tag_296:\n        /* \"#utility.yul\":14841:14844   */\n      0x00\n        /* \"#utility.yul\":14869:14908   */\n      tag_490\n        /* \"#utility.yul\":14902:14907   */\n      dup3\n        /* \"#utility.yul\":14869:14908   */\n      tag_261\n      jump\t// in\n    tag_490:\n        /* \"#utility.yul\":14924:14995   */\n      tag_491\n        /* \"#utility.yul\":14988:14994   */\n      dup2\n        /* \"#utility.yul\":14983:14986   */\n      dup6\n        /* \"#utility.yul\":14924:14995   */\n      tag_295\n      jump\t// in\n    tag_491:\n        /* \"#utility.yul\":14917:14995   */\n      swap4\n      pop\n        /* \"#utility.yul\":15004:15069   */\n      tag_492\n        /* \"#utility.yul\":15062:15068   */\n      dup2\n        /* \"#utility.yul\":15057:15060   */\n      dup6\n        /* \"#utility.yul\":15050:15054   */\n      0x20\n        /* \"#utility.yul\":15043:15048   */\n      dup7\n        /* \"#utility.yul\":15039:15055   */\n      add\n        /* \"#utility.yul\":15004:15069   */\n      tag_263\n      jump\t// in\n    tag_492:\n        /* \"#utility.yul\":15094:15123   */\n      tag_493\n        /* \"#utility.yul\":15116:15122   */\n      dup2\n        /* \"#utility.yul\":15094:15123   */\n      tag_264\n      jump\t// in\n    tag_493:\n        /* \"#utility.yul\":15089:15092   */\n      dup5\n        /* \"#utility.yul\":15085:15124   */\n      add\n        /* \"#utility.yul\":15078:15124   */\n      swap2\n      pop\n        /* \"#utility.yul\":14845:15130   */\n      pop\n        /* \"#utility.yul\":14753:15130   */\n      swap3\n      swap2\n      pop\n      pop\n      jump\t// out\n        /* \"#utility.yul\":15136:15248   */\n    tag_297:\n        /* \"#utility.yul\":15219:15241   */\n      tag_495\n        /* \"#utility.yul\":15235:15240   */\n      dup2\n        /* \"#utility.yul\":15219:15241   */\n      tag_266\n      jump\t// in\n    tag_495:\n        /* \"#utility.yul\":15214:15217   */\n      dup3\n        /* \"#utility.yul\":15207:15242   */\n      mstore\n        /* \"#utility.yul\":15136:15248   */\n      pop\n      pop\n      jump\t// out\n        /* \"#utility.yul\":15254:15372   */\n    tag_298:\n        /* \"#utility.yul\":15341:15365   */\n      tag_497\n        /* \"#utility.yul\":15359:15364   */\n      dup2\n        /* \"#utility.yul\":15341:15365   */\n      tag_269\n      jump\t// in\n    tag_497:\n        /* \"#utility.yul\":15336:15339   */\n      dup3\n        /* \"#utility.yul\":15329:15366   */\n      mstore\n        /* \"#utility.yul\":15254:15372   */\n      pop\n      pop\n      jump\t// out\n        /* \"#utility.yul\":15378:15496   */\n    tag_299:\n        /* \"#utility.yul\":15465:15489   */\n      tag_499\n        /* \"#utility.yul\":15483:15488   */\n      dup2\n        /* \"#utility.yul\":15465:15489   */\n      tag_271\n      jump\t// in\n    tag_499:\n        /* \"#utility.yul\":15460:15463   */\n      dup3\n        /* \"#utility.yul\":15453:15490   */\n      mstore\n        /* \"#utility.yul\":15378:15496   */\n      pop\n      pop\n      jump\t// out\n        /* \"#utility.yul\":15502:16855   */\n    tag_47:\n        /* \"#utility.yul\":15867:15871   */\n      0x00\n        /* \"#utility.yul\":15905:15908   */\n      0x0100\n        /* \"#utility.yul\":15894:15903   */\n      dup3\n        /* \"#utility.yul\":15890:15909   */\n      add\n        /* \"#utility.yul\":15882:15909   */\n      swap1\n      pop\n        /* \"#utility.yul\":15919:15990   */\n      tag_501\n        /* \"#utility.yul\":15987:15988   */\n      0x00\n        /* \"#utility.yul\":15976:15985   */\n      dup4\n        /* \"#utility.yul\":15972:15989   */\n      add\n        /* \"#utility.yul\":15963:15969   */\n      dup12\n        /* \"#utility.yul\":15919:15990   */\n      tag_288\n      jump\t// in\n    tag_501:\n        /* \"#utility.yul\":16037:16046   */\n      dup2\n        /* \"#utility.yul\":16031:16035   */\n      dup2\n        /* \"#utility.yul\":16027:16047   */\n      sub\n        /* \"#utility.yul\":16022:16024   */\n      0x20\n        /* \"#utility.yul\":16011:16020   */\n      dup4\n        /* \"#utility.yul\":16007:16025   */\n      add\n        /* \"#utility.yul\":16000:16048   */\n      mstore\n        /* \"#utility.yul\":16065:16143   */\n      tag_502\n        /* \"#utility.yul\":16138:16142   */\n      dup2\n        /* \"#utility.yul\":16129:16135   */\n      dup11\n        /* \"#utility.yul\":16065:16143   */\n      tag_296\n      jump\t// in\n    tag_502:\n        /* \"#utility.yul\":16057:16143   */\n      swap1\n      pop\n        /* \"#utility.yul\":16190:16199   */\n      dup2\n        /* \"#utility.yul\":16184:16188   */\n      dup2\n        /* \"#utility.yul\":16180:16200   */\n      sub\n        /* \"#utility.yul\":16175:16177   */\n      0x40\n        /* \"#utility.yul\":16164:16173   */\n      dup4\n        /* \"#utility.yul\":16160:16178   */\n      add\n        /* \"#utility.yul\":16153:16201   */\n      mstore\n        /* \"#utility.yul\":16218:16296   */\n      tag_503\n        /* \"#utility.yul\":16291:16295   */\n      dup2\n        /* \"#utility.yul\":16282:16288   */\n      dup10\n        /* \"#utility.yul\":16218:16296   */\n      tag_296\n      jump\t// in\n    tag_503:\n        /* \"#utility.yul\":16210:16296   */\n      swap1\n      pop\n        /* \"#utility.yul\":16343:16352   */\n      dup2\n        /* \"#utility.yul\":16337:16341   */\n      dup2\n        /* \"#utility.yul\":16333:16353   */\n      sub\n        /* \"#utility.yul\":16328:16330   */\n      0x60\n        /* \"#utility.yul\":16317:16326   */\n      dup4\n        /* \"#utility.yul\":16313:16331   */\n      add\n        /* \"#utility.yul\":16306:16354   */\n      mstore\n        /* \"#utility.yul\":16371:16449   */\n      tag_504\n        /* \"#utility.yul\":16444:16448   */\n      dup2\n        /* \"#utility.yul\":16435:16441   */\n      dup9\n        /* \"#utility.yul\":16371:16449   */\n      tag_296\n      jump\t// in\n    tag_504:\n        /* \"#utility.yul\":16363:16449   */\n      swap1\n      pop\n        /* \"#utility.yul\":16459:16528   */\n      tag_505\n        /* \"#utility.yul\":16523:16526   */\n      0x80\n        /* \"#utility.yul\":16512:16521   */\n      dup4\n        /* \"#utility.yul\":16508:16527   */\n      add\n        /* \"#utility.yul\":16499:16505   */\n      dup8\n        /* \"#utility.yul\":16459:16528   */\n      tag_297\n      jump\t// in\n    tag_505:\n        /* \"#utility.yul\":16576:16585   */\n      dup2\n        /* \"#utility.yul\":16570:16574   */\n      dup2\n        /* \"#utility.yul\":16566:16586   */\n      sub\n        /* \"#utility.yul\":16560:16563   */\n      0xa0\n        /* \"#utility.yul\":16549:16558   */\n      dup4\n        /* \"#utility.yul\":16545:16564   */\n      add\n        /* \"#utility.yul\":16538:16587   */\n      mstore\n        /* \"#utility.yul\":16604:16682   */\n      tag_506\n        /* \"#utility.yul\":16677:16681   */\n      dup2\n        /* \"#utility.yul\":16668:16674   */\n      dup7\n        /* \"#utility.yul\":16604:16682   */\n      tag_296\n      jump\t// in\n    tag_506:\n        /* \"#utility.yul\":16596:16682   */\n      swap1\n      pop\n        /* \"#utility.yul\":16692:16765   */\n      tag_507\n        /* \"#utility.yul\":16760:16763   */\n      0xc0\n        /* \"#utility.yul\":16749:16758   */\n      dup4\n        /* \"#utility.yul\":16745:16764   */\n      add\n        /* \"#utility.yul\":16736:16742   */\n      dup6\n        /* \"#utility.yul\":16692:16765   */\n      tag_298\n      jump\t// in\n    tag_507:\n        /* \"#utility.yul\":16775:16848   */\n      tag_508\n        /* \"#utility.yul\":16843:16846   */\n      0xe0\n        /* \"#utility.yul\":16832:16841   */\n      dup4\n        /* \"#utility.yul\":16828:16847   */\n      add\n        /* \"#utility.yul\":16819:16825   */\n      dup5\n        /* \"#utility.yul\":16775:16848   */\n      tag_299\n      jump\t// in\n    tag_508:\n        /* \"#utility.yul\":15502:16855   */\n      swap10\n      swap9\n      pop\n      pop\n      pop\n      pop\n      pop\n      pop\n      pop\n      pop\n      pop\n      jump\t// out\n        /* \"#utility.yul\":16861:17083   */\n    tag_52:\n        /* \"#utility.yul\":16954:16958   */\n      0x00\n        /* \"#utility.yul\":16992:16994   */\n      0x20\n        /* \"#utility.yul\":16981:16990   */\n      dup3\n        /* \"#utility.yul\":16977:16995   */\n      add\n        /* \"#utility.yul\":16969:16995   */\n      swap1\n      pop\n        /* \"#utility.yul\":17005:17076   */\n      tag_510\n        /* \"#utility.yul\":17073:17074   */\n      0x00\n        /* \"#utility.yul\":17062:17071   */\n      dup4\n        /* \"#utility.yul\":17058:17075   */\n      add\n        /* \"#utility.yul\":17049:17055   */\n      dup5\n        /* \"#utility.yul\":17005:17076   */\n      tag_298\n      jump\t// in\n    tag_510:\n        /* \"#utility.yul\":16861:17083   */\n      swap3\n      swap2\n      pop\n      pop\n      jump\t// out\n        /* \"#utility.yul\":17089:17213   */\n    tag_300:\n        /* \"#utility.yul\":17166:17172   */\n      0x00\n        /* \"#utility.yul\":17200:17205   */\n      dup2\n        /* \"#utility.yul\":17194:17206   */\n      mload\n        /* \"#utility.yul\":17184:17206   */\n      swap1\n      pop\n        /* \"#utility.yul\":17089:17213   */\n      swap2\n      swap1\n      pop\n      jump\t// out\n        /* \"#utility.yul\":17219:17413   */\n    tag_301:\n        /* \"#utility.yul\":17328:17339   */\n      0x00\n        /* \"#utility.yul\":17362:17368   */\n      dup3\n        /* \"#utility.yul\":17357:17360   */\n      dup3\n        /* \"#utility.yul\":17350:17369   */\n      mstore\n        /* \"#utility.yul\":17402:17406   */\n      0x20\n        /* \"#utility.yul\":17397:17400   */\n      dup3\n        /* \"#utility.yul\":17393:17407   */\n      add\n        /* \"#utility.yul\":17378:17407   */\n      swap1\n      pop\n        /* \"#utility.yul\":17219:17413   */\n      swap3\n      swap2\n      pop\n      pop\n      jump\t// out\n        /* \"#utility.yul\":17419:17561   */\n    tag_302:\n        /* \"#utility.yul\":17496:17500   */\n      0x00\n        /* \"#utility.yul\":17519:17522   */\n      dup2\n        /* \"#utility.yul\":17511:17522   */\n      swap1\n      pop\n        /* \"#utility.yul\":17549:17553   */\n      0x20\n        /* \"#utility.yul\":17544:17547   */\n      dup3\n        /* \"#utility.yul\":17540:17554   */\n      add\n        /* \"#utility.yul\":17532:17554   */\n      swap1\n      pop\n        /* \"#utility.yul\":17419:17561   */\n      swap2\n      swap1\n      pop\n      jump\t// out\n        /* \"#utility.yul\":17567:17763   */\n    tag_303:\n        /* \"#utility.yul\":17656:17666   */\n      0x00\n        /* \"#utility.yul\":17691:17757   */\n      tag_515\n        /* \"#utility.yul\":17753:17756   */\n      dup4\n        /* \"#utility.yul\":17745:17751   */\n      dup4\n        /* \"#utility.yul\":17691:17757   */\n      tag_265\n      jump\t// in\n    tag_515:\n        /* \"#utility.yul\":17677:17757   */\n      swap1\n      pop\n        /* \"#utility.yul\":17567:17763   */\n      swap3\n      swap2\n      pop\n      pop\n      jump\t// out\n        /* \"#utility.yul\":17769:17892   */\n    tag_304:\n        /* \"#utility.yul\":17849:17853   */\n      0x00\n        /* \"#utility.yul\":17881:17885   */\n      0x20\n        /* \"#utility.yul\":17876:17879   */\n      dup3\n        /* \"#utility.yul\":17872:17886   */\n      add\n        /* \"#utility.yul\":17864:17886   */\n      swap1\n      pop\n        /* \"#utility.yul\":17769:17892   */\n      swap2\n      swap1\n      pop\n      jump\t// out\n        /* \"#utility.yul\":17926:18917   */\n    tag_305:\n        /* \"#utility.yul\":18065:18068   */\n      0x00\n        /* \"#utility.yul\":18094:18158   */\n      tag_518\n        /* \"#utility.yul\":18152:18157   */\n      dup3\n        /* \"#utility.yul\":18094:18158   */\n      tag_300\n      jump\t// in\n    tag_518:\n        /* \"#utility.yul\":18174:18270   */\n      tag_519\n        /* \"#utility.yul\":18263:18269   */\n      dup2\n        /* \"#utility.yul\":18258:18261   */\n      dup6\n        /* \"#utility.yul\":18174:18270   */\n      tag_301\n      jump\t// in\n    tag_519:\n        /* \"#utility.yul\":18167:18270   */\n      swap4\n      pop\n        /* \"#utility.yul\":18296:18299   */\n      dup4\n        /* \"#utility.yul\":18341:18345   */\n      0x20\n        /* \"#utility.yul\":18333:18339   */\n      dup3\n        /* \"#utility.yul\":18329:18346   */\n      mul\n        /* \"#utility.yul\":18324:18327   */\n      dup6\n        /* \"#utility.yul\":18320:18347   */\n      add\n        /* \"#utility.yul\":18371:18437   */\n      tag_520\n        /* \"#utility.yul\":18431:18436   */\n      dup6\n        /* \"#utility.yul\":18371:18437   */\n      tag_302\n      jump\t// in\n    tag_520:\n        /* \"#utility.yul\":18460:18467   */\n      dup1\n        /* \"#utility.yul\":18491:18492   */\n      0x00\n        /* \"#utility.yul\":18476:18872   */\n    tag_521:\n        /* \"#utility.yul\":18501:18507   */\n      dup6\n        /* \"#utility.yul\":18498:18499   */\n      dup2\n        /* \"#utility.yul\":18495:18508   */\n      lt\n        /* \"#utility.yul\":18476:18872   */\n      iszero\n      tag_523\n      jumpi\n        /* \"#utility.yul\":18572:18581   */\n      dup5\n        /* \"#utility.yul\":18566:18570   */\n      dup5\n        /* \"#utility.yul\":18562:18582   */\n      sub\n        /* \"#utility.yul\":18557:18560   */\n      dup10\n        /* \"#utility.yul\":18550:18583   */\n      mstore\n        /* \"#utility.yul\":18623:18629   */\n      dup2\n        /* \"#utility.yul\":18617:18630   */\n      mload\n        /* \"#utility.yul\":18651:18735   */\n      tag_524\n        /* \"#utility.yul\":18730:18734   */\n      dup6\n        /* \"#utility.yul\":18715:18728   */\n      dup3\n        /* \"#utility.yul\":18651:18735   */\n      tag_303\n      jump\t// in\n    tag_524:\n        /* \"#utility.yul\":18643:18735   */\n      swap5\n      pop\n        /* \"#utility.yul\":18758:18828   */\n      tag_525\n        /* \"#utility.yul\":18821:18827   */\n      dup4\n        /* \"#utility.yul\":18758:18828   */\n      tag_304\n      jump\t// in\n    tag_525:\n        /* \"#utility.yul\":18748:18828   */\n      swap3\n      pop\n        /* \"#utility.yul\":18857:18861   */\n      0x20\n        /* \"#utility.yul\":18852:18855   */\n      dup11\n        /* \"#utility.yul\":18848:18862   */\n      add\n        /* \"#utility.yul\":18841:18862   */\n      swap10\n      pop\n        /* \"#utility.yul\":18536:18872   */\n      pop\n        /* \"#utility.yul\":18523:18524   */\n      0x01\n        /* \"#utility.yul\":18520:18521   */\n      dup2\n        /* \"#utility.yul\":18516:18525   */\n      add\n        /* \"#utility.yul\":18511:18525   */\n      swap1\n      pop\n        /* \"#utility.yul\":18476:18872   */\n      jump(tag_521)\n    tag_523:\n        /* \"#utility.yul\":18480:18494   */\n      pop\n        /* \"#utility.yul\":18888:18892   */\n      dup3\n        /* \"#utility.yul\":18881:18892   */\n      swap8\n      pop\n        /* \"#utility.yul\":18908:18911   */\n      dup8\n        /* \"#utility.yul\":18901:18911   */\n      swap6\n      pop\n        /* \"#utility.yul\":18070:18917   */\n      pop\n      pop\n      pop\n      pop\n      pop\n        /* \"#utility.yul\":17926:18917   */\n      swap3\n      swap2\n      pop\n      pop\n      jump\t// out\n        /* \"#utility.yul\":18923:19037   */\n    tag_306:\n        /* \"#utility.yul\":18990:18996   */\n      0x00\n        /* \"#utility.yul\":19024:19029   */\n      dup2\n        /* \"#utility.yul\":19018:19030   */\n      mload\n        /* \"#utility.yul\":19008:19030   */\n      swap1\n      pop\n        /* \"#utility.yul\":18923:19037   */\n      swap2\n      swap1\n      pop\n      jump\t// out\n        /* \"#utility.yul\":19043:19227   */\n    tag_307:\n        /* \"#utility.yul\":19142:19153   */\n      0x00\n        /* \"#utility.yul\":19176:19182   */\n      dup3\n        /* \"#utility.yul\":19171:19174   */\n      dup3\n        /* \"#utility.yul\":19164:19183   */\n      mstore\n        /* \"#utility.yul\":19216:19220   */\n      0x20\n        /* \"#utility.yul\":19211:19214   */\n      dup3\n        /* \"#utility.yul\":19207:19221   */\n      add\n        /* \"#utility.yul\":19192:19221   */\n      swap1\n      pop\n        /* \"#utility.yul\":19043:19227   */\n      swap3\n      swap2\n      pop\n      pop\n      jump\t// out\n        /* \"#utility.yul\":19233:19365   */\n    tag_308:\n        /* \"#utility.yul\":19300:19304   */\n      0x00\n        /* \"#utility.yul\":19323:19326   */\n      dup2\n        /* \"#utility.yul\":19315:19326   */\n      swap1\n      pop\n        /* \"#utility.yul\":19353:19357   */\n      0x20\n        /* \"#utility.yul\":19348:19351   */\n      dup3\n        /* \"#utility.yul\":19344:19358   */\n      add\n        /* \"#utility.yul\":19336:19358   */\n      swap1\n      pop\n        /* \"#utility.yul\":19233:19365   */\n      swap2\n      swap1\n      pop\n      jump\t// out\n        /* \"#utility.yul\":19371:19550   */\n    tag_309:\n        /* \"#utility.yul\":19440:19450   */\n      0x00\n        /* \"#utility.yul\":19461:19507   */\n      tag_530\n        /* \"#utility.yul\":19503:19506   */\n      dup4\n        /* \"#utility.yul\":19495:19501   */\n      dup4\n        /* \"#utility.yul\":19461:19507   */\n      tag_260\n      jump\t// in\n    tag_530:\n        /* \"#utility.yul\":19539:19543   */\n      0x20\n        /* \"#utility.yul\":19534:19537   */\n      dup4\n        /* \"#utility.yul\":19530:19544   */\n      add\n        /* \"#utility.yul\":19516:19544   */\n      swap1\n      pop\n        /* \"#utility.yul\":19371:19550   */\n      swap3\n      swap2\n      pop\n      pop\n      jump\t// out\n        /* \"#utility.yul\":19556:19669   */\n    tag_310:\n        /* \"#utility.yul\":19626:19630   */\n      0x00\n        /* \"#utility.yul\":19658:19662   */\n      0x20\n        /* \"#utility.yul\":19653:19656   */\n      dup3\n        /* \"#utility.yul\":19649:19663   */\n      add\n        /* \"#utility.yul\":19641:19663   */\n      swap1\n      pop\n        /* \"#utility.yul\":19556:19669   */\n      swap2\n      swap1\n      pop\n      jump\t// out\n        /* \"#utility.yul\":19705:20437   */\n    tag_311:\n        /* \"#utility.yul\":19824:19827   */\n      0x00\n        /* \"#utility.yul\":19853:19907   */\n      tag_533\n        /* \"#utility.yul\":19901:19906   */\n      dup3\n        /* \"#utility.yul\":19853:19907   */\n      tag_306\n      jump\t// in\n    tag_533:\n        /* \"#utility.yul\":19923:20009   */\n      tag_534\n        /* \"#utility.yul\":20002:20008   */\n      dup2\n        /* \"#utility.yul\":19997:20000   */\n      dup6\n        /* \"#utility.yul\":19923:20009   */\n      tag_307\n      jump\t// in\n    tag_534:\n        /* \"#utility.yul\":19916:20009   */\n      swap4\n      pop\n        /* \"#utility.yul\":20033:20089   */\n      tag_535\n        /* \"#utility.yul\":20083:20088   */\n      dup4\n        /* \"#utility.yul\":20033:20089   */\n      tag_308\n      jump\t// in\n    tag_535:\n        /* \"#utility.yul\":20112:20119   */\n      dup1\n        /* \"#utility.yul\":20143:20144   */\n      0x00\n        /* \"#utility.yul\":20128:20412   */\n    tag_536:\n        /* \"#utility.yul\":20153:20159   */\n      dup4\n        /* \"#utility.yul\":20150:20151   */\n      dup2\n        /* \"#utility.yul\":20147:20160   */\n      lt\n        /* \"#utility.yul\":20128:20412   */\n      iszero\n      tag_538\n      jumpi\n        /* \"#utility.yul\":20229:20235   */\n      dup2\n        /* \"#utility.yul\":20223:20236   */\n      mload\n        /* \"#utility.yul\":20256:20319   */\n      tag_539\n        /* \"#utility.yul\":20315:20318   */\n      dup9\n        /* \"#utility.yul\":20300:20313   */\n      dup3\n        /* \"#utility.yul\":20256:20319   */\n      tag_309\n      jump\t// in\n    tag_539:\n        /* \"#utility.yul\":20249:20319   */\n      swap8\n      pop\n        /* \"#utility.yul\":20342:20402   */\n      tag_540\n        /* \"#utility.yul\":20395:20401   */\n      dup4\n        /* \"#utility.yul\":20342:20402   */\n      tag_310\n      jump\t// in\n    tag_540:\n        /* \"#utility.yul\":20332:20402   */\n      swap3\n      pop\n        /* \"#utility.yul\":20188:20412   */\n      pop\n        /* \"#utility.yul\":20175:20176   */\n      0x01\n        /* \"#utility.yul\":20172:20173   */\n      dup2\n        /* \"#utility.yul\":20168:20177   */\n      add\n        /* \"#utility.yul\":20163:20177   */\n      swap1\n      pop\n        /* \"#utility.yul\":20128:20412   */\n      jump(tag_536)\n    tag_538:\n        /* \"#utility.yul\":20132:20146   */\n      pop\n        /* \"#utility.yul\":20428:20431   */\n      dup6\n        /* \"#utility.yul\":20421:20431   */\n      swap4\n      pop\n        /* \"#utility.yul\":19829:20437   */\n      pop\n      pop\n      pop\n        /* \"#utility.yul\":19705:20437   */\n      swap3\n      swap2\n      pop\n      pop\n      jump\t// out\n        /* \"#utility.yul\":20443:21720   */\n    tag_57:\n        /* \"#utility.yul\":20880:20884   */\n      0x00\n        /* \"#utility.yul\":20918:20921   */\n      0x80\n        /* \"#utility.yul\":20907:20916   */\n      dup3\n        /* \"#utility.yul\":20903:20922   */\n      add\n        /* \"#utility.yul\":20895:20922   */\n      swap1\n      pop\n        /* \"#utility.yul\":20968:20977   */\n      dup2\n        /* \"#utility.yul\":20962:20966   */\n      dup2\n        /* \"#utility.yul\":20958:20978   */\n      sub\n        /* \"#utility.yul\":20954:20955   */\n      0x00\n        /* \"#utility.yul\":20943:20952   */\n      dup4\n        /* \"#utility.yul\":20939:20956   */\n      add\n        /* \"#utility.yul\":20932:20979   */\n      mstore\n        /* \"#utility.yul\":20996:21124   */\n      tag_542\n        /* \"#utility.yul\":21119:21123   */\n      dup2\n        /* \"#utility.yul\":21110:21116   */\n      dup8\n        /* \"#utility.yul\":20996:21124   */\n      tag_305\n      jump\t// in\n    tag_542:\n        /* \"#utility.yul\":20988:21124   */\n      swap1\n      pop\n        /* \"#utility.yul\":21171:21180   */\n      dup2\n        /* \"#utility.yul\":21165:21169   */\n      dup2\n        /* \"#utility.yul\":21161:21181   */\n      sub\n        /* \"#utility.yul\":21156:21158   */\n      0x20\n        /* \"#utility.yul\":21145:21154   */\n      dup4\n        /* \"#utility.yul\":21141:21159   */\n      add\n        /* \"#utility.yul\":21134:21182   */\n      mstore\n        /* \"#utility.yul\":21199:21327   */\n      tag_543\n        /* \"#utility.yul\":21322:21326   */\n      dup2\n        /* \"#utility.yul\":21313:21319   */\n      dup7\n        /* \"#utility.yul\":21199:21327   */\n      tag_305\n      jump\t// in\n    tag_543:\n        /* \"#utility.yul\":21191:21327   */\n      swap1\n      pop\n        /* \"#utility.yul\":21374:21383   */\n      dup2\n        /* \"#utility.yul\":21368:21372   */\n      dup2\n        /* \"#utility.yul\":21364:21384   */\n      sub\n        /* \"#utility.yul\":21359:21361   */\n      0x40\n        /* \"#utility.yul\":21348:21357   */\n      dup4\n        /* \"#utility.yul\":21344:21362   */\n      add\n        /* \"#utility.yul\":21337:21385   */\n      mstore\n        /* \"#utility.yul\":21402:21530   */\n      tag_544\n        /* \"#utility.yul\":21525:21529   */\n      dup2\n        /* \"#utility.yul\":21516:21522   */\n      dup6\n        /* \"#utility.yul\":21402:21530   */\n      tag_305\n      jump\t// in\n    tag_544:\n        /* \"#utility.yul\":21394:21530   */\n      swap1\n      pop\n        /* \"#utility.yul\":21577:21586   */\n      dup2\n        /* \"#utility.yul\":21571:21575   */\n      dup2\n        /* \"#utility.yul\":21567:21587   */\n      sub\n        /* \"#utility.yul\":21562:21564   */\n      0x60\n        /* \"#utility.yul\":21551:21560   */\n      dup4\n        /* \"#utility.yul\":21547:21565   */\n      add\n        /* \"#utility.yul\":21540:21588   */\n      mstore\n        /* \"#utility.yul\":21605:21713   */\n      tag_545\n        /* \"#utility.yul\":21708:21712   */\n      dup2\n        /* \"#utility.yul\":21699:21705   */\n      dup5\n        /* \"#utility.yul\":21605:21713   */\n      tag_311\n      jump\t// in\n    tag_545:\n        /* \"#utility.yul\":21597:21713   */\n      swap1\n      pop\n        /* \"#utility.yul\":20443:21720   */\n      swap6\n      swap5\n      pop\n      pop\n      pop\n      pop\n      pop\n      jump\t// out\n        /* \"#utility.yul\":21726:23031   */\n    tag_63:\n        /* \"#utility.yul\":21842:21848   */\n      0x00\n        /* \"#utility.yul\":21850:21856   */\n      0x00\n        /* \"#utility.yul\":21858:21864   */\n      0x00\n        /* \"#utility.yul\":21866:21872   */\n      0x00\n        /* \"#utility.yul\":21915:21918   */\n      0x80\n        /* \"#utility.yul\":21903:21912   */\n      dup6\n        /* \"#utility.yul\":21894:21901   */\n      dup8\n        /* \"#utility.yul\":21890:21913   */\n      sub\n        /* \"#utility.yul\":21886:21919   */\n      slt\n        /* \"#utility.yul\":21883:22003   */\n      iszero\n      tag_547\n      jumpi\n        /* \"#utility.yul\":21922:22001   */\n      tag_548\n      tag_278\n      jump\t// in\n    tag_548:\n        /* \"#utility.yul\":21883:22003   */\n    tag_547:\n        /* \"#utility.yul\":22070:22071   */\n      0x00\n        /* \"#utility.yul\":22059:22068   */\n      dup6\n        /* \"#utility.yul\":22055:22072   */\n      add\n        /* \"#utility.yul\":22042:22073   */\n      calldataload\n        /* \"#utility.yul\":22100:22118   */\n      0xffffffffffffffff\n        /* \"#utility.yul\":22092:22098   */\n      dup2\n        /* \"#utility.yul\":22089:22119   */\n      gt\n        /* \"#utility.yul\":22086:22203   */\n      iszero\n      tag_549\n      jumpi\n        /* \"#utility.yul\":22122:22201   */\n      tag_550\n      tag_279\n      jump\t// in\n    tag_550:\n        /* \"#utility.yul\":22086:22203   */\n    tag_549:\n        /* \"#utility.yul\":22227:22290   */\n      tag_551\n        /* \"#utility.yul\":22282:22289   */\n      dup8\n        /* \"#utility.yul\":22273:22279   */\n      dup3\n        /* \"#utility.yul\":22262:22271   */\n      dup9\n        /* \"#utility.yul\":22258:22280   */\n      add\n        /* \"#utility.yul\":22227:22290   */\n      tag_287\n      jump\t// in\n    tag_551:\n        /* \"#utility.yul\":22217:22290   */\n      swap5\n      pop\n        /* \"#utility.yul\":22013:22300   */\n      pop\n        /* \"#utility.yul\":22367:22369   */\n      0x20\n        /* \"#utility.yul\":22356:22365   */\n      dup6\n        /* \"#utility.yul\":22352:22370   */\n      add\n        /* \"#utility.yul\":22339:22371   */\n      calldataload\n        /* \"#utility.yul\":22398:22416   */\n      0xffffffffffffffff\n        /* \"#utility.yul\":22390:22396   */\n      dup2\n        /* \"#utility.yul\":22387:22417   */\n      gt\n        /* \"#utility.yul\":22384:22501   */\n      iszero\n      tag_552\n      jumpi\n        /* \"#utility.yul\":22420:22499   */\n      tag_553\n      tag_279\n      jump\t// in\n    tag_553:\n        /* \"#utility.yul\":22384:22501   */\n    tag_552:\n        /* \"#utility.yul\":22525:22588   */\n      tag_554\n        /* \"#utility.yul\":22580:22587   */\n      dup8\n        /* \"#utility.yul\":22571:22577   */\n      dup3\n        /* \"#utility.yul\":22560:22569   */\n      dup9\n        /* \"#utility.yul\":22556:22578   */\n      add\n        /* \"#utility.yul\":22525:22588   */\n      tag_287\n      jump\t// in\n    tag_554:\n        /* \"#utility.yul\":22515:22588   */\n      swap4\n      pop\n        /* \"#utility.yul\":22310:22598   */\n      pop\n        /* \"#utility.yul\":22665:22667   */\n      0x40\n        /* \"#utility.yul\":22654:22663   */\n      dup6\n        /* \"#utility.yul\":22650:22668   */\n      add\n        /* \"#utility.yul\":22637:22669   */\n      calldataload\n        /* \"#utility.yul\":22696:22714   */\n      0xffffffffffffffff\n        /* \"#utility.yul\":22688:22694   */\n      dup2\n        /* \"#utility.yul\":22685:22715   */\n      gt\n        /* \"#utility.yul\":22682:22799   */\n      iszero\n      tag_555\n      jumpi\n        /* \"#utility.yul\":22718:22797   */\n      tag_556\n      tag_279\n      jump\t// in\n    tag_556:\n        /* \"#utility.yul\":22682:22799   */\n    tag_555:\n        /* \"#utility.yul\":22823:22886   */\n      tag_557\n        /* \"#utility.yul\":22878:22885   */\n      dup8\n        /* \"#utility.yul\":22869:22875   */\n      dup3\n        /* \"#utility.yul\":22858:22867   */\n      dup9\n        /* \"#utility.yul\":22854:22876   */\n      add\n        /* \"#utility.yul\":22823:22886   */\n      tag_287\n      jump\t// in\n    tag_557:\n        /* \"#utility.yul\":22813:22886   */\n      swap3\n      pop\n        /* \"#utility.yul\":22608:22896   */\n      pop\n        /* \"#utility.yul\":22935:22937   */\n      0x60\n        /* \"#utility.yul\":22961:23014   */\n      tag_558\n        /* \"#utility.yul\":23006:23013   */\n      dup8\n        /* \"#utility.yul\":22997:23003   */\n      dup3\n        /* \"#utility.yul\":22986:22995   */\n      dup9\n        /* \"#utility.yul\":22982:23004   */\n      add\n        /* \"#utility.yul\":22961:23014   */\n      tag_292\n      jump\t// in\n    tag_558:\n        /* \"#utility.yul\":22951:23014   */\n      swap2\n      pop\n        /* \"#utility.yul\":22906:23024   */\n      pop\n        /* \"#utility.yul\":21726:23031   */\n      swap3\n      swap6\n      swap2\n      swap5\n      pop\n      swap3\n      pop\n      jump\t// out\n        /* \"#utility.yul\":23037:23217   */\n    tag_312:\n        /* \"#utility.yul\":23085:23162   */\n      0x4e487b7100000000000000000000000000000000000000000000000000000000\n        /* \"#utility.yul\":23082:23083   */\n      0x00\n        /* \"#utility.yul\":23075:23163   */\n      mstore\n        /* \"#utility.yul\":23182:23186   */\n      0x22\n        /* \"#utility.yul\":23179:23180   */\n      0x04\n        /* \"#utility.yul\":23172:23187   */\n      mstore\n        /* \"#utility.yul\":23206:23210   */\n      0x24\n        /* \"#utility.yul\":23203:23204   */\n      0x00\n        /* \"#utility.yul\":23196:23211   */\n      revert\n        /* \"#utility.yul\":23223:23543   */\n    tag_81:\n        /* \"#utility.yul\":23267:23273   */\n      0x00\n        /* \"#utility.yul\":23304:23305   */\n      0x02\n        /* \"#utility.yul\":23298:23302   */\n      dup3\n        /* \"#utility.yul\":23294:23306   */\n      div\n        /* \"#utility.yul\":23284:23306   */\n      swap1\n      pop\n        /* \"#utility.yul\":23351:23352   */\n      0x01\n        /* \"#utility.yul\":23345:23349   */\n      dup3\n        /* \"#utility.yul\":23341:23353   */\n      and\n        /* \"#utility.yul\":23372:23390   */\n      dup1\n        /* \"#utility.yul\":23362:23443   */\n      tag_561\n      jumpi\n        /* \"#utility.yul\":23428:23432   */\n      0x7f\n        /* \"#utility.yul\":23420:23426   */\n      dup3\n        /* \"#utility.yul\":23416:23433   */\n      and\n        /* \"#utility.yul\":23406:23433   */\n      swap2\n      pop\n        /* \"#utility.yul\":23362:23443   */\n    tag_561:\n        /* \"#utility.yul\":23490:23492   */\n      0x20\n        /* \"#utility.yul\":23482:23488   */\n      dup3\n        /* \"#utility.yul\":23479:23493   */\n      lt\n        /* \"#utility.yul\":23459:23477   */\n      dup2\n        /* \"#utility.yul\":23456:23494   */\n      sub\n        /* \"#utility.yul\":23453:23537   */\n      tag_562\n      jumpi\n        /* \"#utility.yul\":23509:23527   */\n      tag_563\n      tag_312\n      jump\t// in\n    tag_563:\n        /* \"#utility.yul\":23453:23537   */\n    tag_562:\n        /* \"#utility.yul\":23274:23543   */\n      pop\n        /* \"#utility.yul\":23223:23543   */\n      swap2\n      swap1\n      pop\n      jump\t// out\n        /* \"#utility.yul\":23549:23729   */\n    tag_313:\n        /* \"#utility.yul\":23597:23674   */\n      0x4e487b7100000000000000000000000000000000000000000000000000000000\n        /* \"#utility.yul\":23594:23595   */\n      0x00\n        /* \"#utility.yul\":23587:23675   */\n      mstore\n        /* \"#utility.yul\":23694:23698   */\n      0x11\n        /* \"#utility.yul\":23691:23692   */\n      0x04\n        /* \"#utility.yul\":23684:23699   */\n      mstore\n        /* \"#utility.yul\":23718:23722   */\n      0x24\n        /* \"#utility.yul\":23715:23716   */\n      0x00\n        /* \"#utility.yul\":23708:23723   */\n      revert\n        /* \"#utility.yul\":23735:23929   */\n    tag_102:\n        /* \"#utility.yul\":23775:23779   */\n      0x00\n        /* \"#utility.yul\":23795:23815   */\n      tag_566\n        /* \"#utility.yul\":23813:23814   */\n      dup3\n        /* \"#utility.yul\":23795:23815   */\n      tag_259\n      jump\t// in\n    tag_566:\n        /* \"#utility.yul\":23790:23815   */\n      swap2\n      pop\n        /* \"#utility.yul\":23829:23849   */\n      tag_567\n        /* \"#utility.yul\":23847:23848   */\n      dup4\n        /* \"#utility.yul\":23829:23849   */\n      tag_259\n      jump\t// in\n    tag_567:\n        /* \"#utility.yul\":23824:23849   */\n      swap3\n      pop\n        /* \"#utility.yul\":23873:23874   */\n      dup3\n        /* \"#utility.yul\":23870:23871   */\n      dup3\n        /* \"#utility.yul\":23866:23875   */\n      sub\n        /* \"#utility.yul\":23858:23875   */\n      swap1\n      pop\n        /* \"#utility.yul\":23897:23898   */\n      dup2\n        /* \"#utility.yul\":23891:23895   */\n      dup2\n        /* \"#utility.yul\":23888:23899   */\n      gt\n        /* \"#utility.yul\":23885:23922   */\n      iszero\n      tag_568\n      jumpi\n        /* \"#utility.yul\":23902:23920   */\n      tag_569\n      tag_313\n      jump\t// in\n    tag_569:\n        /* \"#utility.yul\":23885:23922   */\n    tag_568:\n        /* \"#utility.yul\":23735:23929   */\n      swap3\n      swap2\n      pop\n      pop\n      jump\t// out\n        /* \"#utility.yul\":23935:24115   */\n    tag_105:\n        /* \"#utility.yul\":23983:24060   */\n      0x4e487b7100000000000000000000000000000000000000000000000000000000\n        /* \"#utility.yul\":23980:23981   */\n      0x00\n        /* \"#utility.yul\":23973:24061   */\n      mstore\n        /* \"#utility.yul\":24080:24084   */\n      0x32\n        /* \"#utility.yul\":24077:24078   */\n      0x04\n        /* \"#utility.yul\":24070:24085   */\n      mstore\n        /* \"#utility.yul\":24104:24108   */\n      0x24\n        /* \"#utility.yul\":24101:24102   */\n      0x00\n        /* \"#utility.yul\":24094:24109   */\n      revert\n        /* \"#utility.yul\":24121:24354   */\n    tag_107:\n        /* \"#utility.yul\":24160:24163   */\n      0x00\n        /* \"#utility.yul\":24183:24207   */\n      tag_572\n        /* \"#utility.yul\":24201:24206   */\n      dup3\n        /* \"#utility.yul\":24183:24207   */\n      tag_259\n      jump\t// in\n    tag_572:\n        /* \"#utility.yul\":24174:24207   */\n      swap2\n      pop\n        /* \"#utility.yul\":24229:24295   */\n      0xffffffffffffffffffffffffffffffffffffffffffffffffffffffffffffffff\n        /* \"#utility.yul\":24222:24227   */\n      dup3\n        /* \"#utility.yul\":24219:24296   */\n      sub\n        /* \"#utility.yul\":24216:24319   */\n      tag_573\n      jumpi\n        /* \"#utility.yul\":24299:24317   */\n      tag_574\n      tag_313\n      jump\t// in\n    tag_574:\n        /* \"#utility.yul\":24216:24319   */\n    tag_573:\n        /* \"#utility.yul\":24346:24347   */\n      0x01\n        /* \"#utility.yul\":24339:24344   */\n      dup3\n        /* \"#utility.yul\":24335:24348   */\n      add\n        /* \"#utility.yul\":24328:24348   */\n      swap1\n      pop\n        /* \"#utility.yul\":24121:24354   */\n      swap2\n      swap1\n      pop\n      jump\t// out\n        /* \"#utility.yul\":24360:24524   */\n    tag_314:\n        /* \"#utility.yul\":24500:24516   */\n      0x4e6f69746520696e76616c696461000000000000000000000000000000000000\n        /* \"#utility.yul\":24496:24497   */\n      0x00\n        /* \"#utility.yul\":24488:24494   */\n      dup3\n        /* \"#utility.yul\":24484:24498   */\n      add\n        /* \"#utility.yul\":24477:24517   */\n      mstore\n        /* \"#utility.yul\":24360:24524   */\n      pop\n      jump\t// out\n        /* \"#utility.yul\":24530:24896   */\n    tag_315:\n        /* \"#utility.yul\":24672:24675   */\n      0x00\n        /* \"#utility.yul\":24693:24760   */\n      tag_577\n        /* \"#utility.yul\":24757:24759   */\n      0x0e\n        /* \"#utility.yul\":24752:24755   */\n      dup4\n        /* \"#utility.yul\":24693:24760   */\n      tag_295\n      jump\t// in\n    tag_577:\n        /* \"#utility.yul\":24686:24760   */\n      swap2\n      pop\n        /* \"#utility.yul\":24769:24862   */\n      tag_578\n        /* \"#utility.yul\":24858:24861   */\n      dup3\n        /* \"#utility.yul\":24769:24862   */\n      tag_314\n      jump\t// in\n    tag_578:\n        /* \"#utility.yul\":24887:24889   */\n      0x20\n        /* \"#utility.yul\":24882:24885   */\n      dup3\n        /* \"#utility.yul\":24878:24890   */\n      add\n        /* \"#utility.yul\":24871:24890   */\n      swap1\n      pop\n        /* \"#utility.yul\":24530:24896   */\n      swap2\n      swap1\n      pop\n      jump\t// out\n        /* \"#utility.yul\":24902:25321   */\n    tag_112:\n        /* \"#utility.yul\":25068:25072   */\n      0x00\n        /* \"#utility.yul\":25106:25108   */\n      0x20\n        /* \"#utility.yul\":25095:25104   */\n      dup3\n        /* \"#utility.yul\":25091:25109   */\n      add\n        /* \"#utility.yul\":25083:25109   */\n      swap1\n      pop\n        /* \"#utility.yul\":25155:25164   */\n      dup2\n        /* \"#utility.yul\":25149:25153   */\n      dup2\n        /* \"#utility.yul\":25145:25165   */\n      sub\n        /* \"#utility.yul\":25141:25142   */\n      0x00\n        /* \"#utility.yul\":25130:25139   */\n      dup4\n        /* \"#utility.yul\":25126:25143   */\n      add\n        /* \"#utility.yul\":25119:25166   */\n      mstore\n        /* \"#utility.yul\":25183:25314   */\n      tag_580\n        /* \"#utility.yul\":25309:25313   */\n      dup2\n        /* \"#utility.yul\":25183:25314   */\n      tag_315\n      jump\t// in\n    tag_580:\n        /* \"#utility.yul\":25175:25314   */\n      swap1\n      pop\n        /* \"#utility.yul\":24902:25321   */\n      swap2\n      swap1\n      pop\n      jump\t// out\n        /* \"#utility.yul\":25327:25475   */\n    tag_316:\n        /* \"#utility.yul\":25429:25440   */\n      0x00\n        /* \"#utility.yul\":25466:25469   */\n      dup2\n        /* \"#utility.yul\":25451:25469   */\n      swap1\n      pop\n        /* \"#utility.yul\":25327:25475   */\n      swap3\n      swap2\n      pop\n      pop\n      jump\t// out\n        /* \"#utility.yul\":25481:25871   */\n    tag_317:\n        /* \"#utility.yul\":25587:25590   */\n      0x00\n        /* \"#utility.yul\":25615:25654   */\n      tag_583\n        /* \"#utility.yul\":25648:25653   */\n      dup3\n        /* \"#utility.yul\":25615:25654   */\n      tag_261\n      jump\t// in\n    tag_583:\n        /* \"#utility.yul\":25670:25759   */\n      tag_584\n        /* \"#utility.yul\":25752:25758   */\n      dup2\n        /* \"#utility.yul\":25747:25750   */\n      dup6\n        /* \"#utility.yul\":25670:25759   */\n      tag_316\n      jump\t// in\n    tag_584:\n        /* \"#utility.yul\":25663:25759   */\n      swap4\n      pop\n        /* \"#utility.yul\":25768:25833   */\n      tag_585\n        /* \"#utility.yul\":25826:25832   */\n      dup2\n        /* \"#utility.yul\":25821:25824   */\n      dup6\n        /* \"#utility.yul\":25814:25818   */\n      0x20\n        /* \"#utility.yul\":25807:25812   */\n      dup7\n        /* \"#utility.yul\":25803:25819   */\n      add\n        /* \"#utility.yul\":25768:25833   */\n      tag_263\n      jump\t// in\n    tag_585:\n        /* \"#utility.yul\":25858:25864   */\n      dup1\n        /* \"#utility.yul\":25853:25856   */\n      dup5\n        /* \"#utility.yul\":25849:25865   */\n      add\n        /* \"#utility.yul\":25842:25865   */\n      swap2\n      pop\n        /* \"#utility.yul\":25591:25871   */\n      pop\n        /* \"#utility.yul\":25481:25871   */\n      swap3\n      swap2\n      pop\n      pop\n      jump\t// out\n        /* \"#utility.yul\":25877:26152   */\n    tag_114:\n        /* \"#utility.yul\":26009:26012   */\n      0x00\n        /* \"#utility.yul\":26031:26126   */\n      tag_587\n        /* \"#utility.yul\":26122:26125   */\n      dup3\n        /* \"#utility.yul\":26113:26119   */\n      dup5\n        /* \"#utility.yul\":26031:26126   */\n      tag_317\n      jump\t// in\n    tag_587:\n        /* \"#utility.yul\":26024:26126   */\n      swap2\n      pop\n        /* \"#utility.yul\":26143:26146   */\n      dup2\n        /* \"#utility.yul\":26136:26146   */\n      swap1\n      pop\n        /* \"#utility.yul\":25877:26152   */\n      swap3\n      swap2\n      pop\n      pop\n      jump\t// out\n        /* \"#utility.yul\":26158:26329   */\n    tag_318:\n        /* \"#utility.yul\":26298:26321   */\n      0x507265636f206e616f20636f6e666967757261646f0000000000000000000000\n        /* \"#utility.yul\":26294:26295   */\n      0x00\n        /* \"#utility.yul\":26286:26292   */\n      dup3\n        /* \"#utility.yul\":26282:26296   */\n      add\n        /* \"#utility.yul\":26275:26322   */\n      mstore\n        /* \"#utility.yul\":26158:26329   */\n      pop\n      jump\t// out\n        /* \"#utility.yul\":26335:26701   */\n    tag_319:\n        /* \"#utility.yul\":26477:26480   */\n      0x00\n        /* \"#utility.yul\":26498:26565   */\n      tag_590\n        /* \"#utility.yul\":26562:26564   */\n      0x15\n        /* \"#utility.yul\":26557:26560   */\n      dup4\n        /* \"#utility.yul\":26498:26565   */\n      tag_295\n      jump\t// in\n    tag_590:\n        /* \"#utility.yul\":26491:26565   */\n      swap2\n      pop\n        /* \"#utility.yul\":26574:26667   */\n      tag_591\n        /* \"#utility.yul\":26663:26666   */\n      dup3\n        /* \"#utility.yul\":26574:26667   */\n      tag_318\n      jump\t// in\n    tag_591:\n        /* \"#utility.yul\":26692:26694   */\n      0x20\n        /* \"#utility.yul\":26687:26690   */\n      dup3\n        /* \"#utility.yul\":26683:26695   */\n      add\n        /* \"#utility.yul\":26676:26695   */\n      swap1\n      pop\n        /* \"#utility.yul\":26335:26701   */\n      swap2\n      swap1\n      pop\n      jump\t// out\n        /* \"#utility.yul\":26707:27126   */\n    tag_119:\n        /* \"#utility.yul\":26873:26877   */\n      0x00\n        /* \"#utility.yul\":26911:26913   */\n      0x20\n        /* \"#utility.yul\":26900:26909   */\n      dup3\n        /* \"#utility.yul\":26896:26914   */\n      add\n        /* \"#utility.yul\":26888:26914   */\n      swap1\n      pop\n        /* \"#utility.yul\":26960:26969   */\n      dup2\n        /* \"#utility.yul\":26954:26958   */\n      dup2\n        /* \"#utility.yul\":26950:26970   */\n      sub\n        /* \"#utility.yul\":26946:26947   */\n      0x00\n        /* \"#utility.yul\":26935:26944   */\n      dup4\n        /* \"#utility.yul\":26931:26948   */\n      add\n        /* \"#utility.yul\":26924:26971   */\n      mstore\n        /* \"#utility.yul\":26988:27119   */\n      tag_593\n        /* \"#utility.yul\":27114:27118   */\n      dup2\n        /* \"#utility.yul\":26988:27119   */\n      tag_319\n      jump\t// in\n    tag_593:\n        /* \"#utility.yul\":26980:27119   */\n      swap1\n      pop\n        /* \"#utility.yul\":26707:27126   */\n      swap2\n      swap1\n      pop\n      jump\t// out\n        /* \"#utility.yul\":27132:27300   */\n    tag_320:\n        /* \"#utility.yul\":27272:27292   */\n      0x56616c6f7220696e737566696369656e74650000000000000000000000000000\n        /* \"#utility.yul\":27268:27269   */\n      0x00\n        /* \"#utility.yul\":27260:27266   */\n      dup3\n        /* \"#utility.yul\":27256:27270   */\n      add\n        /* \"#utility.yul\":27249:27293   */\n      mstore\n        /* \"#utility.yul\":27132:27300   */\n      pop\n      jump\t// out\n        /* \"#utility.yul\":27306:27672   */\n    tag_321:\n        /* \"#utility.yul\":27448:27451   */\n      0x00\n        /* \"#utility.yul\":27469:27536   */\n      tag_596\n        /* \"#utility.yul\":27533:27535   */\n      0x12\n        /* \"#utility.yul\":27528:27531   */\n      dup4\n        /* \"#utility.yul\":27469:27536   */\n      tag_295\n      jump\t// in\n    tag_596:\n        /* \"#utility.yul\":27462:27536   */\n      swap2\n      pop\n        /* \"#utility.yul\":27545:27638   */\n      tag_597\n        /* \"#utility.yul\":27634:27637   */\n      dup3\n        /* \"#utility.yul\":27545:27638   */\n      tag_320\n      jump\t// in\n    tag_597:\n        /* \"#utility.yul\":27663:27665   */\n      0x20\n        /* \"#utility.yul\":27658:27661   */\n      dup3\n        /* \"#utility.yul\":27654:27666   */\n      add\n        /* \"#utility.yul\":27647:27666   */\n      swap1\n      pop\n        /* \"#utility.yul\":27306:27672   */\n      swap2\n      swap1\n      pop\n      jump\t// out\n        /* \"#utility.yul\":27678:28097   */\n    tag_122:\n        /* \"#utility.yul\":27844:27848   */\n      0x00\n        /* \"#utility.yul\":27882:27884   */\n      0x20\n        /* \"#utility.yul\":27871:27880   */\n      dup3\n        /* \"#utility.yul\":27867:27885   */\n      add\n        /* \"#utility.yul\":27859:27885   */\n      swap1\n      pop\n        /* \"#utility.yul\":27931:27940   */\n      dup2\n        /* \"#utility.yul\":27925:27929   */\n      dup2\n        /* \"#utility.yul\":27921:27941   */\n      sub\n        /* \"#utility.yul\":27917:27918   */\n      0x00\n        /* \"#utility.yul\":27906:27915   */\n      dup4\n        /* \"#utility.yul\":27902:27919   */\n      add\n        /* \"#utility.yul\":27895:27942   */\n      mstore\n        /* \"#utility.yul\":27959:28090   */\n      tag_599\n        /* \"#utility.yul\":28085:28089   */\n      dup2\n        /* \"#utility.yul\":27959:28090   */\n      tag_321\n      jump\t// in\n    tag_599:\n        /* \"#utility.yul\":27951:28090   */\n      swap1\n      pop\n        /* \"#utility.yul\":27678:28097   */\n      swap2\n      swap1\n      pop\n      jump\t// out\n        /* \"#utility.yul\":28103:28328   */\n    tag_322:\n        /* \"#utility.yul\":28243:28277   */\n      0x4c696d697465206465203220696e67726573736f7320706f7220435046206174\n        /* \"#utility.yul\":28239:28240   */\n      0x00\n        /* \"#utility.yul\":28231:28237   */\n      dup3\n        /* \"#utility.yul\":28227:28241   */\n      add\n        /* \"#utility.yul\":28220:28278   */\n      mstore\n        /* \"#utility.yul\":28312:28320   */\n      0x696e6769646f0000000000000000000000000000000000000000000000000000\n        /* \"#utility.yul\":28307:28309   */\n      0x20\n        /* \"#utility.yul\":28299:28305   */\n      dup3\n        /* \"#utility.yul\":28295:28310   */\n      add\n        /* \"#utility.yul\":28288:28321   */\n      mstore\n        /* \"#utility.yul\":28103:28328   */\n      pop\n      jump\t// out\n        /* \"#utility.yul\":28334:28700   */\n    tag_323:\n        /* \"#utility.yul\":28476:28479   */\n      0x00\n        /* \"#utility.yul\":28497:28564   */\n      tag_602\n        /* \"#utility.yul\":28561:28563   */\n      0x26\n        /* \"#utility.yul\":28556:28559   */\n      dup4\n        /* \"#utility.yul\":28497:28564   */\n      tag_295\n      jump\t// in\n    tag_602:\n        /* \"#utility.yul\":28490:28564   */\n      swap2\n      pop\n        /* \"#utility.yul\":28573:28666   */\n      tag_603\n        /* \"#utility.yul\":28662:28665   */\n      dup3\n        /* \"#utility.yul\":28573:28666   */\n      tag_322\n      jump\t// in\n    tag_603:\n        /* \"#utility.yul\":28691:28693   */\n      0x40\n        /* \"#utility.yul\":28686:28689   */\n      dup3\n        /* \"#utility.yul\":28682:28694   */\n      add\n        /* \"#utility.yul\":28675:28694   */\n      swap1\n      pop\n        /* \"#utility.yul\":28334:28700   */\n      swap2\n      swap1\n      pop\n      jump\t// out\n        /* \"#utility.yul\":28706:29125   */\n    tag_125:\n        /* \"#utility.yul\":28872:28876   */\n      0x00\n        /* \"#utility.yul\":28910:28912   */\n      0x20\n        /* \"#utility.yul\":28899:28908   */\n      dup3\n        /* \"#utility.yul\":28895:28913   */\n      add\n        /* \"#utility.yul\":28887:28913   */\n      swap1\n      pop\n        /* \"#utility.yul\":28959:28968   */\n      dup2\n        /* \"#utility.yul\":28953:28957   */\n      dup2\n        /* \"#utility.yul\":28949:28969   */\n      sub\n        /* \"#utility.yul\":28945:28946   */\n      0x00\n        /* \"#utility.yul\":28934:28943   */\n      dup4\n        /* \"#utility.yul\":28930:28947   */\n      add\n        /* \"#utility.yul\":28923:28970   */\n      mstore\n        /* \"#utility.yul\":28987:29118   */\n      tag_605\n        /* \"#utility.yul\":29113:29117   */\n      dup2\n        /* \"#utility.yul\":28987:29118   */\n      tag_323\n      jump\t// in\n    tag_605:\n        /* \"#utility.yul\":28979:29118   */\n      swap1\n      pop\n        /* \"#utility.yul\":28706:29125   */\n      swap2\n      swap1\n      pop\n      jump\t// out\n        /* \"#utility.yul\":29131:29272   */\n    tag_324:\n        /* \"#utility.yul\":29180:29184   */\n      0x00\n        /* \"#utility.yul\":29203:29206   */\n      dup2\n        /* \"#utility.yul\":29195:29206   */\n      swap1\n      pop\n        /* \"#utility.yul\":29226:29229   */\n      dup2\n        /* \"#utility.yul\":29223:29224   */\n      0x00\n        /* \"#utility.yul\":29216:29230   */\n      mstore\n        /* \"#utility.yul\":29260:29264   */\n      0x20\n        /* \"#utility.yul\":29257:29258   */\n      0x00\n        /* \"#utility.yul\":29247:29265   */\n      keccak256\n        /* \"#utility.yul\":29239:29265   */\n      swap1\n      pop\n        /* \"#utility.yul\":29131:29272   */\n      swap2\n      swap1\n      pop\n      jump\t// out\n        /* \"#utility.yul\":29278:29371   */\n    tag_325:\n        /* \"#utility.yul\":29315:29321   */\n      0x00\n        /* \"#utility.yul\":29362:29364   */\n      0x20\n        /* \"#utility.yul\":29357:29359   */\n      0x1f\n        /* \"#utility.yul\":29350:29355   */\n      dup4\n        /* \"#utility.yul\":29346:29360   */\n      add\n        /* \"#utility.yul\":29342:29365   */\n      div\n        /* \"#utility.yul\":29332:29365   */\n      swap1\n      pop\n        /* \"#utility.yul\":29278:29371   */\n      swap2\n      swap1\n      pop\n      jump\t// out\n        /* \"#utility.yul\":29377:29484   */\n    tag_326:\n        /* \"#utility.yul\":29421:29429   */\n      0x00\n        /* \"#utility.yul\":29471:29476   */\n      dup3\n        /* \"#utility.yul\":29465:29469   */\n      dup3\n        /* \"#utility.yul\":29461:29477   */\n      shl\n        /* \"#utility.yul\":29440:29477   */\n      swap1\n      pop\n        /* \"#utility.yul\":29377:29484   */\n      swap3\n      swap2\n      pop\n      pop\n      jump\t// out\n        /* \"#utility.yul\":29490:29883   */\n    tag_327:\n        /* \"#utility.yul\":29559:29565   */\n      0x00\n        /* \"#utility.yul\":29609:29610   */\n      0x08\n        /* \"#utility.yul\":29597:29607   */\n      dup4\n        /* \"#utility.yul\":29593:29611   */\n      mul\n        /* \"#utility.yul\":29632:29729   */\n      tag_610\n        /* \"#utility.yul\":29662:29728   */\n      0xffffffffffffffffffffffffffffffffffffffffffffffffffffffffffffffff\n        /* \"#utility.yul\":29651:29660   */\n      dup3\n        /* \"#utility.yul\":29632:29729   */\n      tag_326\n      jump\t// in\n    tag_610:\n        /* \"#utility.yul\":29750:29789   */\n      tag_611\n        /* \"#utility.yul\":29780:29788   */\n      dup7\n        /* \"#utility.yul\":29769:29778   */\n      dup4\n        /* \"#utility.yul\":29750:29789   */\n      tag_326\n      jump\t// in\n    tag_611:\n        /* \"#utility.yul\":29738:29789   */\n      swap6\n      pop\n        /* \"#utility.yul\":29822:29826   */\n      dup1\n        /* \"#utility.yul\":29818:29827   */\n      not\n        /* \"#utility.yul\":29811:29816   */\n      dup5\n        /* \"#utility.yul\":29807:29828   */\n      and\n        /* \"#utility.yul\":29798:29828   */\n      swap4\n      pop\n        /* \"#utility.yul\":29871:29875   */\n      dup1\n        /* \"#utility.yul\":29861:29869   */\n      dup7\n        /* \"#utility.yul\":29857:29876   */\n      and\n        /* \"#utility.yul\":29850:29855   */\n      dup5\n        /* \"#utility.yul\":29847:29877   */\n      or\n        /* \"#utility.yul\":29837:29877   */\n      swap3\n      pop\n        /* \"#utility.yul\":29566:29883   */\n      pop\n      pop\n        /* \"#utility.yul\":29490:29883   */\n      swap4\n      swap3\n      pop\n      pop\n      pop\n      jump\t// out\n        /* \"#utility.yul\":29889:29949   */\n    tag_328:\n        /* \"#utility.yul\":29917:29920   */\n      0x00\n        /* \"#utility.yul\":29938:29943   */\n      dup2\n        /* \"#utility.yul\":29931:29943   */\n      swap1\n      pop\n        /* \"#utility.yul\":29889:29949   */\n      swap2\n      swap1\n      pop\n      jump\t// out\n        /* \"#utility.yul\":29955:30097   */\n    tag_329:\n        /* \"#utility.yul\":30005:30014   */\n      0x00\n        /* \"#utility.yul\":30038:30091   */\n      tag_614\n        /* \"#utility.yul\":30056:30090   */\n      tag_615\n        /* \"#utility.yul\":30065:30089   */\n      tag_616\n        /* \"#utility.yul\":30083:30088   */\n      dup5\n        /* \"#utility.yul\":30065:30089   */\n      tag_259\n      jump\t// in\n    tag_616:\n        /* \"#utility.yul\":30056:30090   */\n      tag_328\n      jump\t// in\n    tag_615:\n        /* \"#utility.yul\":30038:30091   */\n      tag_259\n      jump\t// in\n    tag_614:\n        /* \"#utility.yul\":30025:30091   */\n      swap1\n      pop\n        /* \"#utility.yul\":29955:30097   */\n      swap2\n      swap1\n      pop\n      jump\t// out\n        /* \"#utility.yul\":30103:30178   */\n    tag_330:\n        /* \"#utility.yul\":30146:30149   */\n      0x00\n        /* \"#utility.yul\":30167:30172   */\n      dup2\n        /* \"#utility.yul\":30160:30172   */\n      swap1\n      pop\n        /* \"#utility.yul\":30103:30178   */\n      swap2\n      swap1\n      pop\n      jump\t// out\n        /* \"#utility.yul\":30184:30453   */\n    tag_331:\n        /* \"#utility.yul\":30294:30333   */\n      tag_619\n        /* \"#utility.yul\":30325:30332   */\n      dup4\n        /* \"#utility.yul\":30294:30333   */\n      tag_329\n      jump\t// in\n    tag_619:\n        /* \"#utility.yul\":30355:30446   */\n      tag_620\n        /* \"#utility.yul\":30404:30445   */\n      tag_621\n        /* \"#utility.yul\":30428:30444   */\n      dup3\n        /* \"#utility.yul\":30404:30445   */\n      tag_330\n      jump\t// in\n    tag_621:\n        /* \"#utility.yul\":30396:30402   */\n      dup5\n        /* \"#utility.yul\":30389:30393   */\n      dup5\n        /* \"#utility.yul\":30383:30394   */\n      sload\n        /* \"#utility.yul\":30355:30446   */\n      tag_327\n      jump\t// in\n    tag_620:\n        /* \"#utility.yul\":30349:30353   */\n      dup3\n        /* \"#utility.yul\":30342:30447   */\n      sstore\n        /* \"#utility.yul\":30260:30453   */\n      pop\n        /* \"#utility.yul\":30184:30453   */\n      pop\n      pop\n      pop\n      jump\t// out\n        /* \"#utility.yul\":30459:30532   */\n    tag_332:\n        /* \"#utility.yul\":30504:30507   */\n      0x00\n        /* \"#utility.yul\":30525:30526   */\n      0x00\n        /* \"#utility.yul\":30518:30526   */\n      swap1\n      pop\n        /* \"#utility.yul\":30459:30532   */\n      swap1\n      jump\t// out\n        /* \"#utility.yul\":30538:30727   */\n    tag_333:\n        /* \"#utility.yul\":30615:30647   */\n      tag_624\n      tag_332\n      jump\t// in\n    tag_624:\n        /* \"#utility.yul\":30656:30721   */\n      tag_625\n        /* \"#utility.yul\":30714:30720   */\n      dup2\n        /* \"#utility.yul\":30706:30712   */\n      dup5\n        /* \"#utility.yul\":30700:30704   */\n      dup5\n        /* \"#utility.yul\":30656:30721   */\n      tag_331\n      jump\t// in\n    tag_625:\n        /* \"#utility.yul\":30591:30727   */\n      pop\n        /* \"#utility.yul\":30538:30727   */\n      pop\n      pop\n      jump\t// out\n        /* \"#utility.yul\":30733:30919   */\n    tag_334:\n        /* \"#utility.yul\":30793:30913   */\n    tag_627:\n        /* \"#utility.yul\":30810:30813   */\n      dup2\n        /* \"#utility.yul\":30803:30808   */\n      dup2\n        /* \"#utility.yul\":30800:30814   */\n      lt\n        /* \"#utility.yul\":30793:30913   */\n      iszero\n      tag_629\n      jumpi\n        /* \"#utility.yul\":30864:30903   */\n      tag_630\n        /* \"#utility.yul\":30901:30902   */\n      0x00\n        /* \"#utility.yul\":30894:30899   */\n      dup3\n        /* \"#utility.yul\":30864:30903   */\n      tag_333\n      jump\t// in\n    tag_630:\n        /* \"#utility.yul\":30837:30838   */\n      0x01\n        /* \"#utility.yul\":30830:30835   */\n      dup2\n        /* \"#utility.yul\":30826:30839   */\n      add\n        /* \"#utility.yul\":30817:30839   */\n      swap1\n      pop\n        /* \"#utility.yul\":30793:30913   */\n      jump(tag_627)\n    tag_629:\n        /* \"#utility.yul\":30733:30919   */\n      pop\n      pop\n      jump\t// out\n        /* \"#utility.yul\":30925:31468   */\n    tag_335:\n        /* \"#utility.yul\":31026:31028   */\n      0x1f\n        /* \"#utility.yul\":31021:31024   */\n      dup3\n        /* \"#utility.yul\":31018:31029   */\n      gt\n        /* \"#utility.yul\":31015:31461   */\n      iszero\n      tag_632\n      jumpi\n        /* \"#utility.yul\":31060:31098   */\n      tag_633\n        /* \"#utility.yul\":31092:31097   */\n      dup2\n        /* \"#utility.yul\":31060:31098   */\n      tag_324\n      jump\t// in\n    tag_633:\n        /* \"#utility.yul\":31144:31173   */\n      tag_634\n        /* \"#utility.yul\":31162:31172   */\n      dup5\n        /* \"#utility.yul\":31144:31173   */\n      tag_325\n      jump\t// in\n    tag_634:\n        /* \"#utility.yul\":31134:31142   */\n      dup2\n        /* \"#utility.yul\":31130:31174   */\n      add\n        /* \"#utility.yul\":31327:31329   */\n      0x20\n        /* \"#utility.yul\":31315:31325   */\n      dup6\n        /* \"#utility.yul\":31312:31330   */\n      lt\n        /* \"#utility.yul\":31309:31358   */\n      iszero\n      tag_635\n      jumpi\n        /* \"#utility.yul\":31348:31356   */\n      dup2\n        /* \"#utility.yul\":31333:31356   */\n      swap1\n      pop\n        /* \"#utility.yul\":31309:31358   */\n    tag_635:\n        /* \"#utility.yul\":31371:31451   */\n      tag_636\n        /* \"#utility.yul\":31427:31449   */\n      tag_637\n        /* \"#utility.yul\":31445:31448   */\n      dup6\n        /* \"#utility.yul\":31427:31449   */\n      tag_325\n      jump\t// in\n    tag_637:\n        /* \"#utility.yul\":31417:31425   */\n      dup4\n        /* \"#utility.yul\":31413:31450   */\n      add\n        /* \"#utility.yul\":31400:31411   */\n      dup3\n        /* \"#utility.yul\":31371:31451   */\n      tag_334\n      jump\t// in\n    tag_636:\n        /* \"#utility.yul\":31030:31461   */\n      pop\n      pop\n        /* \"#utility.yul\":31015:31461   */\n    tag_632:\n        /* \"#utility.yul\":30925:31468   */\n      pop\n      pop\n      pop\n      jump\t// out\n        /* \"#utility.yul\":31474:31591   */\n    tag_336:\n        /* \"#utility.yul\":31528:31536   */\n      0x00\n        /* \"#utility.yul\":31578:31583   */\n      dup3\n        /* \"#utility.yul\":31572:31576   */\n      dup3\n        /* \"#utility.yul\":31568:31584   */\n      shr\n        /* \"#utility.yul\":31547:31584   */\n      swap1\n      pop\n        /* \"#utility.yul\":31474:31591   */\n      swap3\n      swap2\n      pop\n      pop\n      jump\t// out\n        /* \"#utility.yul\":31597:31766   */\n    tag_337:\n        /* \"#utility.yul\":31641:31647   */\n      0x00\n        /* \"#utility.yul\":31674:31725   */\n      tag_640\n        /* \"#utility.yul\":31722:31723   */\n      0x00\n        /* \"#utility.yul\":31718:31724   */\n      not\n        /* \"#utility.yul\":31710:31715   */\n      dup5\n        /* \"#utility.yul\":31707:31708   */\n      0x08\n        /* \"#utility.yul\":31703:31716   */\n      mul\n        /* \"#utility.yul\":31674:31725   */\n      tag_336\n      jump\t// in\n    tag_640:\n        /* \"#utility.yul\":31670:31726   */\n      not\n        /* \"#utility.yul\":31755:31759   */\n      dup1\n        /* \"#utility.yul\":31749:31753   */\n      dup4\n        /* \"#utility.yul\":31745:31760   */\n      and\n        /* \"#utility.yul\":31735:31760   */\n      swap2\n      pop\n        /* \"#utility.yul\":31648:31766   */\n      pop\n        /* \"#utility.yul\":31597:31766   */\n      swap3\n      swap2\n      pop\n      pop\n      jump\t// out\n        /* \"#utility.yul\":31771:32066   */\n    tag_338:\n        /* \"#utility.yul\":31847:31851   */\n      0x00\n        /* \"#utility.yul\":31993:32022   */\n      tag_642\n        /* \"#utility.yul\":32018:32021   */\n      dup4\n        /* \"#utility.yul\":32012:32016   */\n      dup4\n        /* \"#utility.yul\":31993:32022   */\n      tag_337\n      jump\t// in\n    tag_642:\n        /* \"#utility.yul\":31985:32022   */\n      swap2\n      pop\n        /* \"#utility.yul\":32055:32058   */\n      dup3\n        /* \"#utility.yul\":32052:32053   */\n      0x02\n        /* \"#utility.yul\":32048:32059   */\n      mul\n        /* \"#utility.yul\":32042:32046   */\n      dup3\n        /* \"#utility.yul\":32039:32060   */\n      or\n        /* \"#utility.yul\":32031:32060   */\n      swap1\n      pop\n        /* \"#utility.yul\":31771:32066   */\n      swap3\n      swap2\n      pop\n      pop\n      jump\t// out\n        /* \"#utility.yul\":32071:33466   */\n    tag_128:\n        /* \"#utility.yul\":32188:32225   */\n      tag_644\n        /* \"#utility.yul\":32221:32224   */\n      dup3\n        /* \"#utility.yul\":32188:32225   */\n      tag_261\n      jump\t// in\n    tag_644:\n        /* \"#utility.yul\":32290:32308   */\n      0xffffffffffffffff\n        /* \"#utility.yul\":32282:32288   */\n      dup2\n        /* \"#utility.yul\":32279:32309   */\n      gt\n        /* \"#utility.yul\":32276:32332   */\n      iszero\n      tag_645\n      jumpi\n        /* \"#utility.yul\":32312:32330   */\n      tag_646\n      tag_72\n      jump\t// in\n    tag_646:\n        /* \"#utility.yul\":32276:32332   */\n    tag_645:\n        /* \"#utility.yul\":32356:32394   */\n      tag_647\n        /* \"#utility.yul\":32388:32392   */\n      dup3\n        /* \"#utility.yul\":32382:32393   */\n      sload\n        /* \"#utility.yul\":32356:32394   */\n      tag_81\n      jump\t// in\n    tag_647:\n        /* \"#utility.yul\":32441:32508   */\n      tag_648\n        /* \"#utility.yul\":32501:32507   */\n      dup3\n        /* \"#utility.yul\":32493:32499   */\n      dup3\n        /* \"#utility.yul\":32487:32491   */\n      dup6\n        /* \"#utility.yul\":32441:32508   */\n      tag_335\n      jump\t// in\n    tag_648:\n        /* \"#utility.yul\":32535:32536   */\n      0x00\n        /* \"#utility.yul\":32559:32563   */\n      0x20\n        /* \"#utility.yul\":32546:32563   */\n      swap1\n      pop\n        /* \"#utility.yul\":32591:32593   */\n      0x1f\n        /* \"#utility.yul\":32583:32589   */\n      dup4\n        /* \"#utility.yul\":32580:32594   */\n      gt\n        /* \"#utility.yul\":32608:32609   */\n      0x01\n        /* \"#utility.yul\":32603:33221   */\n      dup2\n      eq\n      tag_650\n      jumpi\n        /* \"#utility.yul\":33265:33266   */\n      0x00\n        /* \"#utility.yul\":33282:33288   */\n      dup5\n        /* \"#utility.yul\":33279:33356   */\n      iszero\n      tag_651\n      jumpi\n        /* \"#utility.yul\":33331:33340   */\n      dup3\n        /* \"#utility.yul\":33326:33329   */\n      dup8\n        /* \"#utility.yul\":33322:33341   */\n      add\n        /* \"#utility.yul\":33316:33342   */\n      mload\n        /* \"#utility.yul\":33307:33342   */\n      swap1\n      pop\n        /* \"#utility.yul\":33279:33356   */\n    tag_651:\n        /* \"#utility.yul\":33382:33449   */\n      tag_652\n        /* \"#utility.yul\":33442:33448   */\n      dup6\n        /* \"#utility.yul\":33435:33440   */\n      dup3\n        /* \"#utility.yul\":33382:33449   */\n      tag_338\n      jump\t// in\n    tag_652:\n        /* \"#utility.yul\":33376:33380   */\n      dup7\n        /* \"#utility.yul\":33369:33450   */\n      sstore\n        /* \"#utility.yul\":33238:33460   */\n      pop\n        /* \"#utility.yul\":32573:33460   */\n      jump(tag_649)\n        /* \"#utility.yul\":32603:33221   */\n    tag_650:\n        /* \"#utility.yul\":32655:32659   */\n      0x1f\n        /* \"#utility.yul\":32651:32660   */\n      not\n        /* \"#utility.yul\":32643:32649   */\n      dup5\n        /* \"#utility.yul\":32639:32661   */\n      and\n        /* \"#utility.yul\":32689:32726   */\n      tag_653\n        /* \"#utility.yul\":32721:32725   */\n      dup7\n        /* \"#utility.yul\":32689:32726   */\n      tag_324\n      jump\t// in\n    tag_653:\n        /* \"#utility.yul\":32748:32749   */\n      0x00\n        /* \"#utility.yul\":32762:32970   */\n    tag_654:\n        /* \"#utility.yul\":32776:32783   */\n      dup3\n        /* \"#utility.yul\":32773:32774   */\n      dup2\n        /* \"#utility.yul\":32770:32784   */\n      lt\n        /* \"#utility.yul\":32762:32970   */\n      iszero\n      tag_656\n      jumpi\n        /* \"#utility.yul\":32855:32864   */\n      dup5\n        /* \"#utility.yul\":32850:32853   */\n      dup10\n        /* \"#utility.yul\":32846:32865   */\n      add\n        /* \"#utility.yul\":32840:32866   */\n      mload\n        /* \"#utility.yul\":32832:32838   */\n      dup3\n        /* \"#utility.yul\":32825:32867   */\n      sstore\n        /* \"#utility.yul\":32906:32907   */\n      0x01\n        /* \"#utility.yul\":32898:32904   */\n      dup3\n        /* \"#utility.yul\":32894:32908   */\n      add\n        /* \"#utility.yul\":32884:32908   */\n      swap2\n      pop\n        /* \"#utility.yul\":32953:32955   */\n      0x20\n        /* \"#utility.yul\":32942:32951   */\n      dup6\n        /* \"#utility.yul\":32938:32956   */\n      add\n        /* \"#utility.yul\":32925:32956   */\n      swap5\n      pop\n        /* \"#utility.yul\":32799:32803   */\n      0x20\n        /* \"#utility.yul\":32796:32797   */\n      dup2\n        /* \"#utility.yul\":32792:32804   */\n      add\n        /* \"#utility.yul\":32787:32804   */\n      swap1\n      pop\n        /* \"#utility.yul\":32762:32970   */\n      jump(tag_654)\n    tag_656:\n        /* \"#utility.yul\":32998:33004   */\n      dup7\n        /* \"#utility.yul\":32989:32996   */\n      dup4\n        /* \"#utility.yul\":32986:33005   */\n      lt\n        /* \"#utility.yul\":32983:33162   */\n      iszero\n      tag_657\n      jumpi\n        /* \"#utility.yul\":33056:33065   */\n      dup5\n        /* \"#utility.yul\":33051:33054   */\n      dup10\n        /* \"#utility.yul\":33047:33066   */\n      add\n        /* \"#utility.yul\":33041:33067   */\n      mload\n        /* \"#utility.yul\":33099:33147   */\n      tag_658\n        /* \"#utility.yul\":33141:33145   */\n      0x1f\n        /* \"#utility.yul\":33133:33139   */\n      dup10\n        /* \"#utility.yul\":33129:33146   */\n      and\n        /* \"#utility.yul\":33118:33127   */\n      dup3\n        /* \"#utility.yul\":33099:33147   */\n      tag_337\n      jump\t// in\n    tag_658:\n        /* \"#utility.yul\":33091:33097   */\n      dup4\n        /* \"#utility.yul\":33084:33148   */\n      sstore\n        /* \"#utility.yul\":33006:33162   */\n      pop\n        /* \"#utility.yul\":32983:33162   */\n    tag_657:\n        /* \"#utility.yul\":33208:33209   */\n      0x01\n        /* \"#utility.yul\":33204:33205   */\n      0x02\n        /* \"#utility.yul\":33196:33202   */\n      dup9\n        /* \"#utility.yul\":33192:33206   */\n      mul\n        /* \"#utility.yul\":33188:33210   */\n      add\n        /* \"#utility.yul\":33182:33186   */\n      dup9\n        /* \"#utility.yul\":33175:33211   */\n      sstore\n        /* \"#utility.yul\":32610:33221   */\n      pop\n      pop\n      pop\n        /* \"#utility.yul\":32573:33460   */\n    tag_649:\n      pop\n        /* \"#utility.yul\":32163:33466   */\n      pop\n      pop\n      pop\n        /* \"#utility.yul\":32071:33466   */\n      pop\n      pop\n      jump\t// out\n        /* \"#utility.yul\":33472:33650   */\n    tag_339:\n        /* \"#utility.yul\":33612:33642   */\n      0x536f6d656e7465206f20646f6e6f20706f646520657865637574617200000000\n        /* \"#utility.yul\":33608:33609   */\n      0x00\n        /* \"#utility.yul\":33600:33606   */\n      dup3\n        /* \"#utility.yul\":33596:33610   */\n      add\n        /* \"#utility.yul\":33589:33643   */\n      mstore\n        /* \"#utility.yul\":33472:33650   */\n      pop\n      jump\t// out\n        /* \"#utility.yul\":33656:34022   */\n    tag_340:\n        /* \"#utility.yul\":33798:33801   */\n      0x00\n        /* \"#utility.yul\":33819:33886   */\n      tag_661\n        /* \"#utility.yul\":33883:33885   */\n      0x1c\n        /* \"#utility.yul\":33878:33881   */\n      dup4\n        /* \"#utility.yul\":33819:33886   */\n      tag_295\n      jump\t// in\n    tag_661:\n        /* \"#utility.yul\":33812:33886   */\n      swap2\n      pop\n        /* \"#utility.yul\":33895:33988   */\n      tag_662\n        /* \"#utility.yul\":33984:33987   */\n      dup3\n        /* \"#utility.yul\":33895:33988   */\n      tag_339\n      jump\t// in\n    tag_662:\n        /* \"#utility.yul\":34013:34015   */\n      0x20\n        /* \"#utility.yul\":34008:34011   */\n      dup3\n        /* \"#utility.yul\":34004:34016   */\n      add\n        /* \"#utility.yul\":33997:34016   */\n      swap1\n      pop\n        /* \"#utility.yul\":33656:34022   */\n      swap2\n      swap1\n      pop\n      jump\t// out\n        /* \"#utility.yul\":34028:34447   */\n    tag_137:\n        /* \"#utility.yul\":34194:34198   */\n      0x00\n        /* \"#utility.yul\":34232:34234   */\n      0x20\n        /* \"#utility.yul\":34221:34230   */\n      dup3\n        /* \"#utility.yul\":34217:34235   */\n      add\n        /* \"#utility.yul\":34209:34235   */\n      swap1\n      pop\n        /* \"#utility.yul\":34281:34290   */\n      dup2\n        /* \"#utility.yul\":34275:34279   */\n      dup2\n        /* \"#utility.yul\":34271:34291   */\n      sub\n        /* \"#utility.yul\":34267:34268   */\n      0x00\n        /* \"#utility.yul\":34256:34265   */\n      dup4\n        /* \"#utility.yul\":34252:34269   */\n      add\n        /* \"#utility.yul\":34245:34292   */\n      mstore\n        /* \"#utility.yul\":34309:34440   */\n      tag_664\n        /* \"#utility.yul\":34435:34439   */\n      dup2\n        /* \"#utility.yul\":34309:34440   */\n      tag_340\n      jump\t// in\n    tag_664:\n        /* \"#utility.yul\":34301:34440   */\n      swap1\n      pop\n        /* \"#utility.yul\":34028:34447   */\n      swap2\n      swap1\n      pop\n      jump\t// out\n        /* \"#utility.yul\":34453:34538   */\n    tag_341:\n        /* \"#utility.yul\":34498:34505   */\n      0x00\n        /* \"#utility.yul\":34527:34532   */\n      dup2\n        /* \"#utility.yul\":34516:34532   */\n      swap1\n      pop\n        /* \"#utility.yul\":34453:34538   */\n      swap2\n      swap1\n      pop\n      jump\t// out\n        /* \"#utility.yul\":34544:34698   */\n    tag_342:\n        /* \"#utility.yul\":34600:34609   */\n      0x00\n        /* \"#utility.yul\":34633:34692   */\n      tag_667\n        /* \"#utility.yul\":34649:34691   */\n      tag_668\n        /* \"#utility.yul\":34658:34690   */\n      tag_669\n        /* \"#utility.yul\":34684:34689   */\n      dup5\n        /* \"#utility.yul\":34658:34690   */\n      tag_341\n      jump\t// in\n    tag_669:\n        /* \"#utility.yul\":34649:34691   */\n      tag_328\n      jump\t// in\n    tag_668:\n        /* \"#utility.yul\":34633:34692   */\n      tag_266\n      jump\t// in\n    tag_667:\n        /* \"#utility.yul\":34620:34692   */\n      swap1\n      pop\n        /* \"#utility.yul\":34544:34698   */\n      swap2\n      swap1\n      pop\n      jump\t// out\n        /* \"#utility.yul\":34704:34847   */\n    tag_343:\n        /* \"#utility.yul\":34797:34840   */\n      tag_671\n        /* \"#utility.yul\":34834:34839   */\n      dup2\n        /* \"#utility.yul\":34797:34840   */\n      tag_342\n      jump\t// in\n    tag_671:\n        /* \"#utility.yul\":34792:34795   */\n      dup3\n        /* \"#utility.yul\":34785:34841   */\n      mstore\n        /* \"#utility.yul\":34704:34847   */\n      pop\n      pop\n      jump\t// out\n        /* \"#utility.yul\":34853:36226   */\n    tag_255:\n        /* \"#utility.yul\":35228:35232   */\n      0x00\n        /* \"#utility.yul\":35266:35269   */\n      0x0100\n        /* \"#utility.yul\":35255:35264   */\n      dup3\n        /* \"#utility.yul\":35251:35270   */\n      add\n        /* \"#utility.yul\":35243:35270   */\n      swap1\n      pop\n        /* \"#utility.yul\":35280:35351   */\n      tag_673\n        /* \"#utility.yul\":35348:35349   */\n      0x00\n        /* \"#utility.yul\":35337:35346   */\n      dup4\n        /* \"#utility.yul\":35333:35350   */\n      add\n        /* \"#utility.yul\":35324:35330   */\n      dup12\n        /* \"#utility.yul\":35280:35351   */\n      tag_288\n      jump\t// in\n    tag_673:\n        /* \"#utility.yul\":35398:35407   */\n      dup2\n        /* \"#utility.yul\":35392:35396   */\n      dup2\n        /* \"#utility.yul\":35388:35408   */\n      sub\n        /* \"#utility.yul\":35383:35385   */\n      0x20\n        /* \"#utility.yul\":35372:35381   */\n      dup4\n        /* \"#utility.yul\":35368:35386   */\n      add\n        /* \"#utility.yul\":35361:35409   */\n      mstore\n        /* \"#utility.yul\":35426:35504   */\n      tag_674\n        /* \"#utility.yul\":35499:35503   */\n      dup2\n        /* \"#utility.yul\":35490:35496   */\n      dup11\n        /* \"#utility.yul\":35426:35504   */\n      tag_296\n      jump\t// in\n    tag_674:\n        /* \"#utility.yul\":35418:35504   */\n      swap1\n      pop\n        /* \"#utility.yul\":35551:35560   */\n      dup2\n        /* \"#utility.yul\":35545:35549   */\n      dup2\n        /* \"#utility.yul\":35541:35561   */\n      sub\n        /* \"#utility.yul\":35536:35538   */\n      0x40\n        /* \"#utility.yul\":35525:35534   */\n      dup4\n        /* \"#utility.yul\":35521:35539   */\n      add\n        /* \"#utility.yul\":35514:35562   */\n      mstore\n        /* \"#utility.yul\":35579:35657   */\n      tag_675\n        /* \"#utility.yul\":35652:35656   */\n      dup2\n        /* \"#utility.yul\":35643:35649   */\n      dup10\n        /* \"#utility.yul\":35579:35657   */\n      tag_296\n      jump\t// in\n    tag_675:\n        /* \"#utility.yul\":35571:35657   */\n      swap1\n      pop\n        /* \"#utility.yul\":35704:35713   */\n      dup2\n        /* \"#utility.yul\":35698:35702   */\n      dup2\n        /* \"#utility.yul\":35694:35714   */\n      sub\n        /* \"#utility.yul\":35689:35691   */\n      0x60\n        /* \"#utility.yul\":35678:35687   */\n      dup4\n        /* \"#utility.yul\":35674:35692   */\n      add\n        /* \"#utility.yul\":35667:35715   */\n      mstore\n        /* \"#utility.yul\":35732:35810   */\n      tag_676\n        /* \"#utility.yul\":35805:35809   */\n      dup2\n        /* \"#utility.yul\":35796:35802   */\n      dup9\n        /* \"#utility.yul\":35732:35810   */\n      tag_296\n      jump\t// in\n    tag_676:\n        /* \"#utility.yul\":35724:35810   */\n      swap1\n      pop\n        /* \"#utility.yul\":35820:35899   */\n      tag_677\n        /* \"#utility.yul\":35894:35897   */\n      0x80\n        /* \"#utility.yul\":35883:35892   */\n      dup4\n        /* \"#utility.yul\":35879:35898   */\n      add\n        /* \"#utility.yul\":35870:35876   */\n      dup8\n        /* \"#utility.yul\":35820:35899   */\n      tag_343\n      jump\t// in\n    tag_677:\n        /* \"#utility.yul\":35947:35956   */\n      dup2\n        /* \"#utility.yul\":35941:35945   */\n      dup2\n        /* \"#utility.yul\":35937:35957   */\n      sub\n        /* \"#utility.yul\":35931:35934   */\n      0xa0\n        /* \"#utility.yul\":35920:35929   */\n      dup4\n        /* \"#utility.yul\":35916:35935   */\n      add\n        /* \"#utility.yul\":35909:35958   */\n      mstore\n        /* \"#utility.yul\":35975:36053   */\n      tag_678\n        /* \"#utility.yul\":36048:36052   */\n      dup2\n        /* \"#utility.yul\":36039:36045   */\n      dup7\n        /* \"#utility.yul\":35975:36053   */\n      tag_296\n      jump\t// in\n    tag_678:\n        /* \"#utility.yul\":35967:36053   */\n      swap1\n      pop\n        /* \"#utility.yul\":36063:36136   */\n      tag_679\n        /* \"#utility.yul\":36131:36134   */\n      0xc0\n        /* \"#utility.yul\":36120:36129   */\n      dup4\n        /* \"#utility.yul\":36116:36135   */\n      add\n        /* \"#utility.yul\":36107:36113   */\n      dup6\n        /* \"#utility.yul\":36063:36136   */\n      tag_298\n      jump\t// in\n    tag_679:\n        /* \"#utility.yul\":36146:36219   */\n      tag_680\n        /* \"#utility.yul\":36214:36217   */\n      0xe0\n        /* \"#utility.yul\":36203:36212   */\n      dup4\n        /* \"#utility.yul\":36199:36218   */\n      add\n        /* \"#utility.yul\":36190:36196   */\n      dup5\n        /* \"#utility.yul\":36146:36219   */\n      tag_299\n      jump\t// in\n    tag_680:\n        /* \"#utility.yul\":34853:36226   */\n      swap10\n      swap9\n      pop\n      pop\n      pop\n      pop\n      pop\n      pop\n      pop\n      pop\n      pop\n      jump\t// out\n\n    auxdata: 0xa26469706673582212208382c2dfd05571fd17174bd85210312c194e64caba6fc3c3450178ac709569a364736f6c634300081e0033\n}\n",
				"bytecode": {
					"linkReferences": {},
					"object": "6080604052348015600e575f5ffd5b50335f5f6101000a81548173ffffffffffffffffffffffffffffffffffffffff021916908373ffffffffffffffffffffffffffffffffffffffff160217905550612a1e8061005b5f395ff3fe60806040526004361061009b575f3560e01c8063574ccbc611610063578063574ccbc6146101855780638da5cb5b146101c8578063931d66da146101f2578063a51068c81461021f578063ab879f7e14610235578063c36deb0c146102515761009b565b80632b6e7eb41461009f578063377633cb146100c957806338224aa714610105578063451a7f1e146101215780634d4d2bf21461015d575b5f5ffd5b3480156100aa575f5ffd5b506100b361027b565b6040516100c09190611ad9565b60405180910390f35b3480156100d4575f5ffd5b506100ef60048036038101906100ea9190611c36565b61060b565b6040516100fc9190611ce9565b60405180910390f35b61011f600480360381019061011a9190611d56565b61067e565b005b34801561012c575f5ffd5b5061014760048036038101906101429190611e21565b610a09565b6040516101549190611ce9565b60405180910390f35b348015610168575f5ffd5b50610183600480360381019061017e9190611e76565b610a1e565b005b348015610190575f5ffd5b506101ab60048036038101906101a69190611f2e565b610b0d565b6040516101bf989796959493929190611fce565b60405180910390f35b3480156101d3575f5ffd5b506101dc610d94565b6040516101e99190612066565b60405180910390f35b3480156101fd575f5ffd5b50610206610db8565b60405161021694939291906121e2565b60405180910390f35b34801561022a575f5ffd5b506102336113db565b005b61024f600480360381019061024a9190612241565b6114cf565b005b34801561025c575f5ffd5b50610265611802565b6040516102729190611ce9565b60405180910390f35b60605f60015467ffffffffffffffff81111561029a57610299611b12565b5b6040519080825280602002602001820160405280156102d357816020015b6102c0611808565b8152602001906001900390816102b85790505b5090505f600190505b60015481116106035760025f8281526020019081526020015f20604051806101000160405290815f820154815260200160018201805461031b90612326565b80601f016020809104026020016040519081016040528092919081815260200182805461034790612326565b80156103925780601f1061036957610100808354040283529160200191610392565b820191905f5260205f20905b81548152906001019060200180831161037557829003601f168201915b505050505081526020016002820180546103ab90612326565b80601f01602080910402602001604051908101604052809291908181526020018280546103d790612326565b80156104225780601f106103f957610100808354040283529160200191610422565b820191905f5260205f20905b81548152906001019060200180831161040557829003601f168201915b5050505050815260200160038201805461043b90612326565b80601f016020809104026020016040519081016040528092919081815260200182805461046790612326565b80156104b25780601f10610489576101008083540402835291602001916104b2565b820191905f5260205f20905b81548152906001019060200180831161049557829003601f168201915b50505050508152602001600482015f9054906101000a900460ff1660ff1660ff1681526020016005820180546104e790612326565b80601f016020809104026020016040519081016040528092919081815260200182805461051390612326565b801561055e5780601f106105355761010080835404028352916020019161055e565b820191905f5260205f20905b81548152906001019060200180831161054157829003601f168201915b50505050508152602001600682015f9054906101000a900473ffffffffffffffffffffffffffffffffffffffff1673ffffffffffffffffffffffffffffffffffffffff1673ffffffffffffffffffffffffffffffffffffffff168152602001600782015481525050826001836105d49190612383565b815181106105e5576105e46123b6565b5b602002602001018190525080806105fb906123e3565b9150506102dc565b508091505090565b60038380516020810182018051848252602083016020850120818352809550505050505082805160208101820180518482526020830160208501208183528095505050505050818051602081018201805184825260208301602085012081835280955050505050505f9250925050505481565b60018360ff1610158015610696575060038360ff1611155b6106d5576040517f08c379a00000000000000000000000000000000000000000000000000000000081526004016106cc90612474565b60405180910390fd5b5f6040518060400160405280600681526020017f4176756c736f000000000000000000000000000000000000000000000000000081525090505f60038260405161071f91906124cc565b90815260200160405180910390208760405161073b91906124cc565b90815260200160405180910390208660405161075791906124cc565b90815260200160405180910390205490505f81116107aa576040517f08c379a00000000000000000000000000000000000000000000000000000000081526004016107a19061252c565b60405180910390fd5b803410156107ed576040517f08c379a00000000000000000000000000000000000000000000000000000000081526004016107e490612594565b60405180910390fd5b600260045f8581526020019081526020015f205410610841576040517f08c379a000000000000000000000000000000000000000000000000000000000815260040161083890612622565b60405180910390fd5b60015f815480929190610853906123e3565b919050555060405180610100016040528060015481526020018381526020018881526020018781526020018660ff1681526020018581526020013373ffffffffffffffffffffffffffffffffffffffff1681526020018481525060025f60015481526020019081526020015f205f820151815f015560208201518160010190816108dd91906127e0565b5060408201518160020190816108f391906127e0565b50606082015181600301908161090991906127e0565b506080820151816004015f6101000a81548160ff021916908360ff16021790555060a082015181600501908161093f91906127e0565b5060c0820151816006015f6101000a81548173ffffffffffffffffffffffffffffffffffffffff021916908373ffffffffffffffffffffffffffffffffffffffff16021790555060e0820151816007015590505060045f8481526020019081526020015f205f8154809291906109b4906123e3565b91905055507f50a2d2c5907c0982300d5de2585b6f5bb69b85cf6a926336ca938b641aae14e86001548389898989338a6040516109f8989796959493929190611fce565b60405180910390a150505050505050565b6004602052805f5260405f205f915090505481565b5f5f9054906101000a900473ffffffffffffffffffffffffffffffffffffffff1673ffffffffffffffffffffffffffffffffffffffff163373ffffffffffffffffffffffffffffffffffffffff1614610aac576040517f08c379a0000000000000000000000000000000000000000000000000000000008152600401610aa3906128f9565b60405180910390fd5b80600385604051610abd91906124cc565b908152602001604051809103902084604051610ad991906124cc565b908152602001604051809103902083604051610af591906124cc565b90815260200160405180910390208190555050505050565b6002602052805f5260405f205f91509050805f015490806001018054610b3290612326565b80601f0160208091040260200160405190810160405280929190818152602001828054610b5e90612326565b8015610ba95780601f10610b8057610100808354040283529160200191610ba9565b820191905f5260205f20905b815481529060010190602001808311610b8c57829003601f168201915b505050505090806002018054610bbe90612326565b80601f0160208091040260200160405190810160405280929190818152602001828054610bea90612326565b8015610c355780601f10610c0c57610100808354040283529160200191610c35565b820191905f5260205f20905b815481529060010190602001808311610c1857829003601f168201915b505050505090806003018054610c4a90612326565b80601f0160208091040260200160405190810160405280929190818152602001828054610c7690612326565b8015610cc15780601f10610c9857610100808354040283529160200191610cc1565b820191905f5260205f20905b815481529060010190602001808311610ca457829003601f168201915b505050505090806004015f9054906101000a900460ff1690806005018054610ce890612326565b80601f0160208091040260200160405190810160405280929190818152602001828054610d1490612326565b8015610d5f5780601f10610d3657610100808354040283529160200191610d5f565b820191905f5260205f20905b815481529060010190602001808311610d4257829003601f168201915b505050505090806006015f9054906101000a900473ffffffffffffffffffffffffffffffffffffffff16908060070154905088565b5f5f9054906101000a900473ffffffffffffffffffffffffffffffffffffffff1681565b6060806060805f60405180604001604052806040518060400160405280600a81526020017f5061737361706f7274650000000000000000000000000000000000000000000081525081526020016040518060400160405280600681526020017f4176756c736f000000000000000000000000000000000000000000000000000081525081525090505f60405180608001604052806040518060400160405280601481526020017f417271756962616e636164612043656e7472616c00000000000000000000000081525081526020016040518060400160405280601581526020017f417271756962616e6361646120457370656369616c000000000000000000000081525081526020016040518060400160405280600f81526020017f43616465697261205469706f203031000000000000000000000000000000000081525081526020016040518060400160405280600f81526020017f43616465697261205469706f203032000000000000000000000000000000000081525081525090505f60405180604001604052806040518060400160405280600781526020017f496e74656972610000000000000000000000000000000000000000000000000081525081526020016040518060400160405280600481526020017f4d6569610000000000000000000000000000000000000000000000000000000081525081525090505f5f90505f5f90505b60028110156110c3575f5f90505b60048110156110b5575f5f90505b60028110156110a7575f6003888560028110610ffe57610ffd6123b6565b5b602002015160405161101091906124cc565b9081526020016040518091039020878460048110611031576110306123b6565b5b602002015160405161104391906124cc565b9081526020016040518091039020868360028110611064576110636123b6565b5b602002015160405161107691906124cc565b908152602001604051809103902054111561109a578380611096906123e3565b9450505b8080600101915050610fdf565b508080600101915050610fd1565b508080600101915050610fc3565b508067ffffffffffffffff8111156110de576110dd611b12565b5b60405190808252806020026020018201604052801561111157816020015b60608152602001906001900390816110fc5790505b5097508067ffffffffffffffff81111561112e5761112d611b12565b5b60405190808252806020026020018201604052801561116157816020015b606081526020019060019003908161114c5790505b5096508067ffffffffffffffff81111561117e5761117d611b12565b5b6040519080825280602002602001820160405280156111b157816020015b606081526020019060019003908161119c5790505b5095508067ffffffffffffffff8111156111ce576111cd611b12565b5b6040519080825280602002602001820160405280156111fc5781602001602082028036833780820191505090505b5094505f5f90505f5f90505b60028110156113cf575f5f90505b60048110156113c1575f5f90505b60028110156113b3575f6003898560028110611243576112426123b6565b5b602002015160405161125591906124cc565b9081526020016040518091039020888460048110611276576112756123b6565b5b602002015160405161128891906124cc565b90815260200160405180910390208783600281106112a9576112a86123b6565b5b60200201516040516112bb91906124cc565b90815260200160405180910390205490505f8111156113a5578884600281106112e7576112e66123b6565b5b60200201518d86815181106112ff576112fe6123b6565b5b602002602001018190525087836004811061131d5761131c6123b6565b5b60200201518c8681518110611335576113346123b6565b5b6020026020010181905250868260028110611353576113526123b6565b5b60200201518b868151811061136b5761136a6123b6565b5b6020026020010181905250808a868151811061138a576113896123b6565b5b60200260200101818152505084806113a1906123e3565b9550505b508080600101915050611224565b508080600101915050611216565b508080600101915050611208565b50505050505090919293565b5f5f9054906101000a900473ffffffffffffffffffffffffffffffffffffffff1673ffffffffffffffffffffffffffffffffffffffff163373ffffffffffffffffffffffffffffffffffffffff1614611469576040517f08c379a0000000000000000000000000000000000000000000000000000000008152600401611460906128f9565b60405180910390fd5b5f5f9054906101000a900473ffffffffffffffffffffffffffffffffffffffff1673ffffffffffffffffffffffffffffffffffffffff166108fc4790811502906040515f60405180830381858888f193505050501580156114cc573d5f5f3e3d5ffd5b50565b5f6040518060400160405280600a81526020017f5061737361706f7274650000000000000000000000000000000000000000000081525090505f60038260405161151991906124cc565b90815260200160405180910390208660405161153591906124cc565b90815260200160405180910390208560405161155191906124cc565b90815260200160405180910390205490505f81116115a4576040517f08c379a000000000000000000000000000000000000000000000000000000000815260040161159b9061252c565b60405180910390fd5b803410156115e7576040517f08c379a00000000000000000000000000000000000000000000000000000000081526004016115de90612594565b60405180910390fd5b600260045f8581526020019081526020015f20541061163b576040517f08c379a000000000000000000000000000000000000000000000000000000000815260040161163290612622565b60405180910390fd5b60015f81548092919061164d906123e3565b919050555060405180610100016040528060015481526020018381526020018781526020018681526020015f60ff1681526020018581526020013373ffffffffffffffffffffffffffffffffffffffff1681526020018481525060025f60015481526020019081526020015f205f820151815f015560208201518160010190816116d791906127e0565b5060408201518160020190816116ed91906127e0565b50606082015181600301908161170391906127e0565b506080820151816004015f6101000a81548160ff021916908360ff16021790555060a082015181600501908161173991906127e0565b5060c0820151816006015f6101000a81548173ffffffffffffffffffffffffffffffffffffffff021916908373ffffffffffffffffffffffffffffffffffffffff16021790555060e0820151816007015590505060045f8481526020019081526020015f205f8154809291906117ae906123e3565b91905055507f50a2d2c5907c0982300d5de2585b6f5bb69b85cf6a926336ca938b641aae14e86001548388885f89338a6040516117f2989796959493929190612950565b60405180910390a1505050505050565b60015481565b6040518061010001604052805f81526020016060815260200160608152602001606081526020015f60ff168152602001606081526020015f73ffffffffffffffffffffffffffffffffffffffff1681526020015f81525090565b5f81519050919050565b5f82825260208201905092915050565b5f819050602082019050919050565b5f819050919050565b61189d8161188b565b82525050565b5f81519050919050565b5f82825260208201905092915050565b8281835e5f83830152505050565b5f601f19601f8301169050919050565b5f6118e5826118a3565b6118ef81856118ad565b93506118ff8185602086016118bd565b611908816118cb565b840191505092915050565b5f60ff82169050919050565b61192881611913565b82525050565b5f73ffffffffffffffffffffffffffffffffffffffff82169050919050565b5f6119578261192e565b9050919050565b6119678161194d565b82525050565b5f819050919050565b61197f8161196d565b82525050565b5f61010083015f83015161199b5f860182611894565b50602083015184820360208601526119b382826118db565b915050604083015184820360408601526119cd82826118db565b915050606083015184820360608601526119e782826118db565b91505060808301516119fc608086018261191f565b5060a083015184820360a0860152611a1482826118db565b91505060c0830151611a2960c086018261195e565b5060e0830151611a3c60e0860182611976565b508091505092915050565b5f611a528383611985565b905092915050565b5f602082019050919050565b5f611a7082611862565b611a7a818561186c565b935083602082028501611a8c8561187c565b805f5b85811015611ac75784840389528151611aa88582611a47565b9450611ab383611a5a565b925060208a01995050600181019050611a8f565b50829750879550505050505092915050565b5f6020820190508181035f830152611af18184611a66565b905092915050565b5f604051905090565b5f5ffd5b5f5ffd5b5f5ffd5b5f5ffd5b7f4e487b71000000000000000000000000000000000000000000000000000000005f52604160045260245ffd5b611b48826118cb565b810181811067ffffffffffffffff82111715611b6757611b66611b12565b5b80604052505050565b5f611b79611af9565b9050611b858282611b3f565b919050565b5f67ffffffffffffffff821115611ba457611ba3611b12565b5b611bad826118cb565b9050602081019050919050565b828183375f83830152505050565b5f611bda611bd584611b8a565b611b70565b905082815260208101848484011115611bf657611bf5611b0e565b5b611c01848285611bba565b509392505050565b5f82601f830112611c1d57611c1c611b0a565b5b8135611c2d848260208601611bc8565b91505092915050565b5f5f5f60608486031215611c4d57611c4c611b02565b5b5f84013567ffffffffffffffff811115611c6a57611c69611b06565b5b611c7686828701611c09565b935050602084013567ffffffffffffffff811115611c9757611c96611b06565b5b611ca386828701611c09565b925050604084013567ffffffffffffffff811115611cc457611cc3611b06565b5b611cd086828701611c09565b9150509250925092565b611ce38161188b565b82525050565b5f602082019050611cfc5f830184611cda565b92915050565b611d0b81611913565b8114611d15575f5ffd5b50565b5f81359050611d2681611d02565b92915050565b611d358161196d565b8114611d3f575f5ffd5b50565b5f81359050611d5081611d2c565b92915050565b5f5f5f5f5f60a08688031215611d6f57611d6e611b02565b5b5f86013567ffffffffffffffff811115611d8c57611d8b611b06565b5b611d9888828901611c09565b955050602086013567ffffffffffffffff811115611db957611db8611b06565b5b611dc588828901611c09565b9450506040611dd688828901611d18565b935050606086013567ffffffffffffffff811115611df757611df6611b06565b5b611e0388828901611c09565b9250506080611e1488828901611d42565b9150509295509295909350565b5f60208284031215611e3657611e35611b02565b5b5f611e4384828501611d42565b91505092915050565b611e558161188b565b8114611e5f575f5ffd5b50565b5f81359050611e7081611e4c565b92915050565b5f5f5f5f60808587031215611e8e57611e8d611b02565b5b5f85013567ffffffffffffffff811115611eab57611eaa611b06565b5b611eb787828801611c09565b945050602085013567ffffffffffffffff811115611ed857611ed7611b06565b5b611ee487828801611c09565b935050604085013567ffffffffffffffff811115611f0557611f04611b06565b5b611f1187828801611c09565b9250506060611f2287828801611e62565b91505092959194509250565b5f60208284031215611f4357611f42611b02565b5b5f611f5084828501611e62565b91505092915050565b5f82825260208201905092915050565b5f611f73826118a3565b611f7d8185611f59565b9350611f8d8185602086016118bd565b611f96816118cb565b840191505092915050565b611faa81611913565b82525050565b611fb98161194d565b82525050565b611fc88161196d565b82525050565b5f61010082019050611fe25f83018b611cda565b8181036020830152611ff4818a611f69565b905081810360408301526120088189611f69565b9050818103606083015261201c8188611f69565b905061202b6080830187611fa1565b81810360a083015261203d8186611f69565b905061204c60c0830185611fb0565b61205960e0830184611fbf565b9998505050505050505050565b5f6020820190506120795f830184611fb0565b92915050565b5f81519050919050565b5f82825260208201905092915050565b5f819050602082019050919050565b5f6120b383836118db565b905092915050565b5f602082019050919050565b5f6120d18261207f565b6120db8185612089565b9350836020820285016120ed85612099565b805f5b85811015612128578484038952815161210985826120a8565b9450612114836120bb565b925060208a019950506001810190506120f0565b50829750879550505050505092915050565b5f81519050919050565b5f82825260208201905092915050565b5f819050602082019050919050565b5f61216e8383611894565b60208301905092915050565b5f602082019050919050565b5f6121908261213a565b61219a8185612144565b93506121a583612154565b805f5b838110156121d55781516121bc8882612163565b97506121c78361217a565b9250506001810190506121a8565b5085935050505092915050565b5f6080820190508181035f8301526121fa81876120c7565b9050818103602083015261220e81866120c7565b9050818103604083015261222281856120c7565b905081810360608301526122368184612186565b905095945050505050565b5f5f5f5f6080858703121561225957612258611b02565b5b5f85013567ffffffffffffffff81111561227657612275611b06565b5b61228287828801611c09565b945050602085013567ffffffffffffffff8111156122a3576122a2611b06565b5b6122af87828801611c09565b935050604085013567ffffffffffffffff8111156122d0576122cf611b06565b5b6122dc87828801611c09565b92505060606122ed87828801611d42565b91505092959194509250565b7f4e487b71000000000000000000000000000000000000000000000000000000005f52602260045260245ffd5b5f600282049050600182168061233d57607f821691505b6020821081036123505761234f6122f9565b5b50919050565b7f4e487b71000000000000000000000000000000000000000000000000000000005f52601160045260245ffd5b5f61238d8261188b565b91506123988361188b565b92508282039050818111156123b0576123af612356565b5b92915050565b7f4e487b71000000000000000000000000000000000000000000000000000000005f52603260045260245ffd5b5f6123ed8261188b565b91507fffffffffffffffffffffffffffffffffffffffffffffffffffffffffffffffff820361241f5761241e612356565b5b600182019050919050565b7f4e6f69746520696e76616c6964610000000000000000000000000000000000005f82015250565b5f61245e600e83611f59565b91506124698261242a565b602082019050919050565b5f6020820190508181035f83015261248b81612452565b9050919050565b5f81905092915050565b5f6124a6826118a3565b6124b08185612492565b93506124c08185602086016118bd565b80840191505092915050565b5f6124d7828461249c565b915081905092915050565b7f507265636f206e616f20636f6e666967757261646f00000000000000000000005f82015250565b5f612516601583611f59565b9150612521826124e2565b602082019050919050565b5f6020820190508181035f8301526125438161250a565b9050919050565b7f56616c6f7220696e737566696369656e746500000000000000000000000000005f82015250565b5f61257e601283611f59565b91506125898261254a565b602082019050919050565b5f6020820190508181035f8301526125ab81612572565b9050919050565b7f4c696d697465206465203220696e67726573736f7320706f72204350462061745f8201527f696e6769646f0000000000000000000000000000000000000000000000000000602082015250565b5f61260c602683611f59565b9150612617826125b2565b604082019050919050565b5f6020820190508181035f83015261263981612600565b9050919050565b5f819050815f5260205f209050919050565b5f6020601f8301049050919050565b5f82821b905092915050565b5f6008830261269c7fffffffffffffffffffffffffffffffffffffffffffffffffffffffffffffffff82612661565b6126a68683612661565b95508019841693508086168417925050509392505050565b5f819050919050565b5f6126e16126dc6126d78461188b565b6126be565b61188b565b9050919050565b5f819050919050565b6126fa836126c7565b61270e612706826126e8565b84845461266d565b825550505050565b5f5f905090565b612725612716565b6127308184846126f1565b505050565b5b81811015612753576127485f8261271d565b600181019050612736565b5050565b601f8211156127985761276981612640565b61277284612652565b81016020851015612781578190505b61279561278d85612652565b830182612735565b50505b505050565b5f82821c905092915050565b5f6127b85f198460080261279d565b1980831691505092915050565b5f6127d083836127a9565b9150826002028217905092915050565b6127e9826118a3565b67ffffffffffffffff81111561280257612801611b12565b5b61280c8254612326565b612817828285612757565b5f60209050601f831160018114612848575f8415612836578287015190505b61284085826127c5565b8655506128a7565b601f19841661285686612640565b5f5b8281101561287d57848901518255600182019150602085019450602081019050612858565b8683101561289a5784890151612896601f8916826127a9565b8355505b6001600288020188555050505b505050505050565b7f536f6d656e7465206f20646f6e6f20706f6465206578656375746172000000005f82015250565b5f6128e3601c83611f59565b91506128ee826128af565b602082019050919050565b5f6020820190508181035f830152612910816128d7565b9050919050565b5f819050919050565b5f61293a61293561293084612917565b6126be565b611913565b9050919050565b61294a81612920565b82525050565b5f610100820190506129645f83018b611cda565b8181036020830152612976818a611f69565b9050818103604083015261298a8189611f69565b9050818103606083015261299e8188611f69565b90506129ad6080830187612941565b81810360a08301526129bf8186611f69565b90506129ce60c0830185611fb0565b6129db60e0830184611fbf565b999850505050505050505056fea26469706673582212208382c2dfd05571fd17174bd85210312c194e64caba6fc3c3450178ac709569a364736f6c634300081e0033",
					"opcodes": "PUSH1 0x80 PUSH1 0x40 MSTORE CALLVALUE DUP1 ISZERO PUSH1 0xE JUMPI PUSH0 PUSH0 REVERT JUMPDEST POP CALLER PUSH0 PUSH0 PUSH2 0x100 EXP DUP2 SLOAD DUP2 PUSH20 0xFFFFFFFFFFFFFFFFFFFFFFFFFFFFFFFFFFFFFFFF MUL NOT AND SWAP1 DUP4 PUSH20 0xFFFFFFFFFFFFFFFFFFFFFFFFFFFFFFFFFFFFFFFF AND MUL OR SWAP1 SSTORE POP PUSH2 0x2A1E DUP1 PUSH2 0x5B PUSH0 CODECOPY PUSH0 RETURN INVALID PUSH1 0x80 PUSH1 0x40 MSTORE PUSH1 0x4 CALLDATASIZE LT PUSH2 0x9B JUMPI PUSH0 CALLDATALOAD PUSH1 0xE0 SHR DUP1 PUSH4 0x574CCBC6 GT PUSH2 0x63 JUMPI DUP1 PUSH4 0x574CCBC6 EQ PUSH2 0x185 JUMPI DUP1 PUSH4 0x8DA5CB5B EQ PUSH2 0x1C8 JUMPI DUP1 PUSH4 0x931D66DA EQ PUSH2 0x1F2 JUMPI DUP1 PUSH4 0xA51068C8 EQ PUSH2 0x21F JUMPI DUP1 PUSH4 0xAB879F7E EQ PUSH2 0x235 JUMPI DUP1 PUSH4 0xC36DEB0C EQ PUSH2 0x251 JUMPI PUSH2 0x9B JUMP JUMPDEST DUP1 PUSH4 0x2B6E7EB4 EQ PUSH2 0x9F JUMPI DUP1 PUSH4 0x377633CB EQ PUSH2 0xC9 JUMPI DUP1 PUSH4 0x38224AA7 EQ PUSH2 0x105 JUMPI DUP1 PUSH4 0x451A7F1E EQ PUSH2 0x121 JUMPI DUP1 PUSH4 0x4D4D2BF2 EQ PUSH2 0x15D JUMPI JUMPDEST PUSH0 PUSH0 REVERT JUMPDEST CALLVALUE DUP1 ISZERO PUSH2 0xAA JUMPI PUSH0 PUSH0 REVERT JUMPDEST POP PUSH2 0xB3 PUSH2 0x27B JUMP JUMPDEST PUSH1 0x40 MLOAD PUSH2 0xC0 SWAP2 SWAP1 PUSH2 0x1AD9 JUMP JUMPDEST PUSH1 0x40 MLOAD DUP1 SWAP2 SUB SWAP1 RETURN JUMPDEST CALLVALUE DUP1 ISZERO PUSH2 0xD4 JUMPI PUSH0 PUSH0 REVERT JUMPDEST POP PUSH2 0xEF PUSH1 0x4 DUP1 CALLDATASIZE SUB DUP2 ADD SWAP1 PUSH2 0xEA SWAP2 SWAP1 PUSH2 0x1C36 JUMP JUMPDEST PUSH2 0x60B JUMP JUMPDEST PUSH1 0x40 MLOAD PUSH2 0xFC SWAP2 SWAP1 PUSH2 0x1CE9 JUMP JUMPDEST PUSH1 0x40 MLOAD DUP1 SWAP2 SUB SWAP1 RETURN JUMPDEST PUSH2 0x11F PUSH1 0x4 DUP1 CALLDATASIZE SUB DUP2 ADD SWAP1 PUSH2 0x11A SWAP2 SWAP1 PUSH2 0x1D56 JUMP JUMPDEST PUSH2 0x67E JUMP JUMPDEST STOP JUMPDEST CALLVALUE DUP1 ISZERO PUSH2 0x12C JUMPI PUSH0 PUSH0 REVERT JUMPDEST POP PUSH2 0x147 PUSH1 0x4 DUP1 CALLDATASIZE SUB DUP2 ADD SWAP1 PUSH2 0x142 SWAP2 SWAP1 PUSH2 0x1E21 JUMP JUMPDEST PUSH2 0xA09 JUMP JUMPDEST PUSH1 0x40 MLOAD PUSH2 0x154 SWAP2 SWAP1 PUSH2 0x1CE9 JUMP JUMPDEST PUSH1 0x40 MLOAD DUP1 SWAP2 SUB SWAP1 RETURN JUMPDEST CALLVALUE DUP1 ISZERO PUSH2 0x168 JUMPI PUSH0 PUSH0 REVERT JUMPDEST POP PUSH2 0x183 PUSH1 0x4 DUP1 CALLDATASIZE SUB DUP2 ADD SWAP1 PUSH2 0x17E SWAP2 SWAP1 PUSH2 0x1E76 JUMP JUMPDEST PUSH2 0xA1E JUMP JUMPDEST STOP JUMPDEST CALLVALUE DUP1 ISZERO PUSH2 0x190 JUMPI PUSH0 PUSH0 REVERT JUMPDEST POP PUSH2 0x1AB PUSH1 0x4 DUP1 CALLDATASIZE SUB DUP2 ADD SWAP1 PUSH2 0x1A6 SWAP2 SWAP1 PUSH2 0x1F2E JUMP JUMPDEST PUSH2 0xB0D JUMP JUMPDEST PUSH1 0x40 MLOAD PUSH2 0x1BF SWAP9 SWAP8 SWAP7 SWAP6 SWAP5 SWAP4 SWAP3 SWAP2 SWAP1 PUSH2 0x1FCE JUMP JUMPDEST PUSH1 0x40 MLOAD DUP1 SWAP2 SUB SWAP1 RETURN JUMPDEST CALLVALUE DUP1 ISZERO PUSH2 0x1D3 JUMPI PUSH0 PUSH0 REVERT JUMPDEST POP PUSH2 0x1DC PUSH2 0xD94 JUMP JUMPDEST PUSH1 0x40 MLOAD PUSH2 0x1E9 SWAP2 SWAP1 PUSH2 0x2066 JUMP JUMPDEST PUSH1 0x40 MLOAD DUP1 SWAP2 SUB SWAP1 RETURN JUMPDEST CALLVALUE DUP1 ISZERO PUSH2 0x1FD JUMPI PUSH0 PUSH0 REVERT JUMPDEST POP PUSH2 0x206 PUSH2 0xDB8 JUMP JUMPDEST PUSH1 0x40 MLOAD PUSH2 0x216 SWAP5 SWAP4 SWAP3 SWAP2 SWAP1 PUSH2 0x21E2 JUMP JUMPDEST PUSH1 0x40 MLOAD DUP1 SWAP2 SUB SWAP1 RETURN JUMPDEST CALLVALUE DUP1 ISZERO PUSH2 0x22A JUMPI PUSH0 PUSH0 REVERT JUMPDEST POP PUSH2 0x233 PUSH2 0x13DB JUMP JUMPDEST STOP JUMPDEST PUSH2 0x24F PUSH1 0x4 DUP1 CALLDATASIZE SUB DUP2 ADD SWAP1 PUSH2 0x24A SWAP2 SWAP1 PUSH2 0x2241 JUMP JUMPDEST PUSH2 0x14CF JUMP JUMPDEST STOP JUMPDEST CALLVALUE DUP1 ISZERO PUSH2 0x25C JUMPI PUSH0 PUSH0 REVERT JUMPDEST POP PUSH2 0x265 PUSH2 0x1802 JUMP JUMPDEST PUSH1 0x40 MLOAD PUSH2 0x272 SWAP2 SWAP1 PUSH2 0x1CE9 JUMP JUMPDEST PUSH1 0x40 MLOAD DUP1 SWAP2 SUB SWAP1 RETURN JUMPDEST PUSH1 0x60 PUSH0 PUSH1 0x1 SLOAD PUSH8 0xFFFFFFFFFFFFFFFF DUP2 GT ISZERO PUSH2 0x29A JUMPI PUSH2 0x299 PUSH2 0x1B12 JUMP JUMPDEST JUMPDEST PUSH1 0x40 MLOAD SWAP1 DUP1 DUP3 MSTORE DUP1 PUSH1 0x20 MUL PUSH1 0x20 ADD DUP3 ADD PUSH1 0x40 MSTORE DUP1 ISZERO PUSH2 0x2D3 JUMPI DUP2 PUSH1 0x20 ADD JUMPDEST PUSH2 0x2C0 PUSH2 0x1808 JUMP JUMPDEST DUP2 MSTORE PUSH1 0x20 ADD SWAP1 PUSH1 0x1 SWAP1 SUB SWAP1 DUP2 PUSH2 0x2B8 JUMPI SWAP1 POP JUMPDEST POP SWAP1 POP PUSH0 PUSH1 0x1 SWAP1 POP JUMPDEST PUSH1 0x1 SLOAD DUP2 GT PUSH2 0x603 JUMPI PUSH1 0x2 PUSH0 DUP3 DUP2 MSTORE PUSH1 0x20 ADD SWAP1 DUP2 MSTORE PUSH1 0x20 ADD PUSH0 KECCAK256 PUSH1 0x40 MLOAD DUP1 PUSH2 0x100 ADD PUSH1 0x40 MSTORE SWAP1 DUP2 PUSH0 DUP3 ADD SLOAD DUP2 MSTORE PUSH1 0x20 ADD PUSH1 0x1 DUP3 ADD DUP1 SLOAD PUSH2 0x31B SWAP1 PUSH2 0x2326 JUMP JUMPDEST DUP1 PUSH1 0x1F ADD PUSH1 0x20 DUP1 SWAP2 DIV MUL PUSH1 0x20 ADD PUSH1 0x40 MLOAD SWAP1 DUP2 ADD PUSH1 0x40 MSTORE DUP1 SWAP3 SWAP2 SWAP1 DUP2 DUP2 MSTORE PUSH1 0x20 ADD DUP3 DUP1 SLOAD PUSH2 0x347 SWAP1 PUSH2 0x2326 JUMP JUMPDEST DUP1 ISZERO PUSH2 0x392 JUMPI DUP1 PUSH1 0x1F LT PUSH2 0x369 JUMPI PUSH2 0x100 DUP1 DUP4 SLOAD DIV MUL DUP4 MSTORE SWAP2 PUSH1 0x20 ADD SWAP2 PUSH2 0x392 JUMP JUMPDEST DUP3 ADD SWAP2 SWAP1 PUSH0 MSTORE PUSH1 0x20 PUSH0 KECCAK256 SWAP1 JUMPDEST DUP2 SLOAD DUP2 MSTORE SWAP1 PUSH1 0x1 ADD SWAP1 PUSH1 0x20 ADD DUP1 DUP4 GT PUSH2 0x375 JUMPI DUP3 SWAP1 SUB PUSH1 0x1F AND DUP3 ADD SWAP2 JUMPDEST POP POP POP POP POP DUP2 MSTORE PUSH1 0x20 ADD PUSH1 0x2 DUP3 ADD DUP1 SLOAD PUSH2 0x3AB SWAP1 PUSH2 0x2326 JUMP JUMPDEST DUP1 PUSH1 0x1F ADD PUSH1 0x20 DUP1 SWAP2 DIV MUL PUSH1 0x20 ADD PUSH1 0x40 MLOAD SWAP1 DUP2 ADD PUSH1 0x40 MSTORE DUP1 SWAP3 SWAP2 SWAP1 DUP2 DUP2 MSTORE PUSH1 0x20 ADD DUP3 DUP1 SLOAD PUSH2 0x3D7 SWAP1 PUSH2 0x2326 JUMP JUMPDEST DUP1 ISZERO PUSH2 0x422 JUMPI DUP1 PUSH1 0x1F LT PUSH2 0x3F9 JUMPI PUSH2 0x100 DUP1 DUP4 SLOAD DIV MUL DUP4 MSTORE SWAP2 PUSH1 0x20 ADD SWAP2 PUSH2 0x422 JUMP JUMPDEST DUP3 ADD SWAP2 SWAP1 PUSH0 MSTORE PUSH1 0x20 PUSH0 KECCAK256 SWAP1 JUMPDEST DUP2 SLOAD DUP2 MSTORE SWAP1 PUSH1 0x1 ADD SWAP1 PUSH1 0x20 ADD DUP1 DUP4 GT PUSH2 0x405 JUMPI DUP3 SWAP1 SUB PUSH1 0x1F AND DUP3 ADD SWAP2 JUMPDEST POP POP POP POP POP DUP2 MSTORE PUSH1 0x20 ADD PUSH1 0x3 DUP3 ADD DUP1 SLOAD PUSH2 0x43B SWAP1 PUSH2 0x2326 JUMP JUMPDEST DUP1 PUSH1 0x1F ADD PUSH1 0x20 DUP1 SWAP2 DIV MUL PUSH1 0x20 ADD PUSH1 0x40 MLOAD SWAP1 DUP2 ADD PUSH1 0x40 MSTORE DUP1 SWAP3 SWAP2 SWAP1 DUP2 DUP2 MSTORE PUSH1 0x20 ADD DUP3 DUP1 SLOAD PUSH2 0x467 SWAP1 PUSH2 0x2326 JUMP JUMPDEST DUP1 ISZERO PUSH2 0x4B2 JUMPI DUP1 PUSH1 0x1F LT PUSH2 0x489 JUMPI PUSH2 0x100 DUP1 DUP4 SLOAD DIV MUL DUP4 MSTORE SWAP2 PUSH1 0x20 ADD SWAP2 PUSH2 0x4B2 JUMP JUMPDEST DUP3 ADD SWAP2 SWAP1 PUSH0 MSTORE PUSH1 0x20 PUSH0 KECCAK256 SWAP1 JUMPDEST DUP2 SLOAD DUP2 MSTORE SWAP1 PUSH1 0x1 ADD SWAP1 PUSH1 0x20 ADD DUP1 DUP4 GT PUSH2 0x495 JUMPI DUP3 SWAP1 SUB PUSH1 0x1F AND DUP3 ADD SWAP2 JUMPDEST POP POP POP POP POP DUP2 MSTORE PUSH1 0x20 ADD PUSH1 0x4 DUP3 ADD PUSH0 SWAP1 SLOAD SWAP1 PUSH2 0x100 EXP SWAP1 DIV PUSH1 0xFF AND PUSH1 0xFF AND PUSH1 0xFF AND DUP2 MSTORE PUSH1 0x20 ADD PUSH1 0x5 DUP3 ADD DUP1 SLOAD PUSH2 0x4E7 SWAP1 PUSH2 0x2326 JUMP JUMPDEST DUP1 PUSH1 0x1F ADD PUSH1 0x20 DUP1 SWAP2 DIV MUL PUSH1 0x20 ADD PUSH1 0x40 MLOAD SWAP1 DUP2 ADD PUSH1 0x40 MSTORE DUP1 SWAP3 SWAP2 SWAP1 DUP2 DUP2 MSTORE PUSH1 0x20 ADD DUP3 DUP1 SLOAD PUSH2 0x513 SWAP1 PUSH2 0x2326 JUMP JUMPDEST DUP1 ISZERO PUSH2 0x55E JUMPI DUP1 PUSH1 0x1F LT PUSH2 0x535 JUMPI PUSH2 0x100 DUP1 DUP4 SLOAD DIV MUL DUP4 MSTORE SWAP2 PUSH1 0x20 ADD SWAP2 PUSH2 0x55E JUMP JUMPDEST DUP3 ADD SWAP2 SWAP1 PUSH0 MSTORE PUSH1 0x20 PUSH0 KECCAK256 SWAP1 JUMPDEST DUP2 SLOAD DUP2 MSTORE SWAP1 PUSH1 0x1 ADD SWAP1 PUSH1 0x20 ADD DUP1 DUP4 GT PUSH2 0x541 JUMPI DUP3 SWAP1 SUB PUSH1 0x1F AND DUP3 ADD SWAP2 JUMPDEST POP POP POP POP POP DUP2 MSTORE PUSH1 0x20 ADD PUSH1 0x6 DUP3 ADD PUSH0 SWAP1 SLOAD SWAP1 PUSH2 0x100 EXP SWAP1 DIV PUSH20 0xFFFFFFFFFFFFFFFFFFFFFFFFFFFFFFFFFFFFFFFF AND PUSH20 0xFFFFFFFFFFFFFFFFFFFFFFFFFFFFFFFFFFFFFFFF AND PUSH20 0xFFFFFFFFFFFFFFFFFFFFFFFFFFFFFFFFFFFFFFFF AND DUP2 MSTORE PUSH1 0x20 ADD PUSH1 0x7 DUP3 ADD SLOAD DUP2 MSTORE POP POP DUP3 PUSH1 0x1 DUP4 PUSH2 0x5D4 SWAP2 SWAP1 PUSH2 0x2383 JUMP JUMPDEST DUP2 MLOAD DUP2 LT PUSH2 0x5E5 JUMPI PUSH2 0x5E4 PUSH2 0x23B6 JUMP JUMPDEST JUMPDEST PUSH1 0x20 MUL PUSH1 0x20 ADD ADD DUP2 SWAP1 MSTORE POP DUP1 DUP1 PUSH2 0x5FB SWAP1 PUSH2 0x23E3 JUMP JUMPDEST SWAP2 POP POP PUSH2 0x2DC JUMP JUMPDEST POP DUP1 SWAP2 POP POP SWAP1 JUMP JUMPDEST PUSH1 0x3 DUP4 DUP1 MLOAD PUSH1 0x20 DUP2 ADD DUP3 ADD DUP1 MLOAD DUP5 DUP3 MSTORE PUSH1 0x20 DUP4 ADD PUSH1 0x20 DUP6 ADD KECCAK256 DUP2 DUP4 MSTORE DUP1 SWAP6 POP POP POP POP POP POP DUP3 DUP1 MLOAD PUSH1 0x20 DUP2 ADD DUP3 ADD DUP1 MLOAD DUP5 DUP3 MSTORE PUSH1 0x20 DUP4 ADD PUSH1 0x20 DUP6 ADD KECCAK256 DUP2 DUP4 MSTORE DUP1 SWAP6 POP POP POP POP POP POP DUP2 DUP1 MLOAD PUSH1 0x20 DUP2 ADD DUP3 ADD DUP1 MLOAD DUP5 DUP3 MSTORE PUSH1 0x20 DUP4 ADD PUSH1 0x20 DUP6 ADD KECCAK256 DUP2 DUP4 MSTORE DUP1 SWAP6 POP POP POP POP POP POP PUSH0 SWAP3 POP SWAP3 POP POP POP SLOAD DUP2 JUMP JUMPDEST PUSH1 0x1 DUP4 PUSH1 0xFF AND LT ISZERO DUP1 ISZERO PUSH2 0x696 JUMPI POP PUSH1 0x3 DUP4 PUSH1 0xFF AND GT ISZERO JUMPDEST PUSH2 0x6D5 JUMPI PUSH1 0x40 MLOAD PUSH32 0x8C379A000000000000000000000000000000000000000000000000000000000 DUP2 MSTORE PUSH1 0x4 ADD PUSH2 0x6CC SWAP1 PUSH2 0x2474 JUMP JUMPDEST PUSH1 0x40 MLOAD DUP1 SWAP2 SUB SWAP1 REVERT JUMPDEST PUSH0 PUSH1 0x40 MLOAD DUP1 PUSH1 0x40 ADD PUSH1 0x40 MSTORE DUP1 PUSH1 0x6 DUP2 MSTORE PUSH1 0x20 ADD PUSH32 0x4176756C736F0000000000000000000000000000000000000000000000000000 DUP2 MSTORE POP SWAP1 POP PUSH0 PUSH1 0x3 DUP3 PUSH1 0x40 MLOAD PUSH2 0x71F SWAP2 SWAP1 PUSH2 0x24CC JUMP JUMPDEST SWAP1 DUP2 MSTORE PUSH1 0x20 ADD PUSH1 0x40 MLOAD DUP1 SWAP2 SUB SWAP1 KECCAK256 DUP8 PUSH1 0x40 MLOAD PUSH2 0x73B SWAP2 SWAP1 PUSH2 0x24CC JUMP JUMPDEST SWAP1 DUP2 MSTORE PUSH1 0x20 ADD PUSH1 0x40 MLOAD DUP1 SWAP2 SUB SWAP1 KECCAK256 DUP7 PUSH1 0x40 MLOAD PUSH2 0x757 SWAP2 SWAP1 PUSH2 0x24CC JUMP JUMPDEST SWAP1 DUP2 MSTORE PUSH1 0x20 ADD PUSH1 0x40 MLOAD DUP1 SWAP2 SUB SWAP1 KECCAK256 SLOAD SWAP1 POP PUSH0 DUP2 GT PUSH2 0x7AA JUMPI PUSH1 0x40 MLOAD PUSH32 0x8C379A000000000000000000000000000000000000000000000000000000000 DUP2 MSTORE PUSH1 0x4 ADD PUSH2 0x7A1 SWAP1 PUSH2 0x252C JUMP JUMPDEST PUSH1 0x40 MLOAD DUP1 SWAP2 SUB SWAP1 REVERT JUMPDEST DUP1 CALLVALUE LT ISZERO PUSH2 0x7ED JUMPI PUSH1 0x40 MLOAD PUSH32 0x8C379A000000000000000000000000000000000000000000000000000000000 DUP2 MSTORE PUSH1 0x4 ADD PUSH2 0x7E4 SWAP1 PUSH2 0x2594 JUMP JUMPDEST PUSH1 0x40 MLOAD DUP1 SWAP2 SUB SWAP1 REVERT JUMPDEST PUSH1 0x2 PUSH1 0x4 PUSH0 DUP6 DUP2 MSTORE PUSH1 0x20 ADD SWAP1 DUP2 MSTORE PUSH1 0x20 ADD PUSH0 KECCAK256 SLOAD LT PUSH2 0x841 JUMPI PUSH1 0x40 MLOAD PUSH32 0x8C379A000000000000000000000000000000000000000000000000000000000 DUP2 MSTORE PUSH1 0x4 ADD PUSH2 0x838 SWAP1 PUSH2 0x2622 JUMP JUMPDEST PUSH1 0x40 MLOAD DUP1 SWAP2 SUB SWAP1 REVERT JUMPDEST PUSH1 0x1 PUSH0 DUP2 SLOAD DUP1 SWAP3 SWAP2 SWAP1 PUSH2 0x853 SWAP1 PUSH2 0x23E3 JUMP JUMPDEST SWAP2 SWAP1 POP SSTORE POP PUSH1 0x40 MLOAD DUP1 PUSH2 0x100 ADD PUSH1 0x40 MSTORE DUP1 PUSH1 0x1 SLOAD DUP2 MSTORE PUSH1 0x20 ADD DUP4 DUP2 MSTORE PUSH1 0x20 ADD DUP9 DUP2 MSTORE PUSH1 0x20 ADD DUP8 DUP2 MSTORE PUSH1 0x20 ADD DUP7 PUSH1 0xFF AND DUP2 MSTORE PUSH1 0x20 ADD DUP6 DUP2 MSTORE PUSH1 0x20 ADD CALLER PUSH20 0xFFFFFFFFFFFFFFFFFFFFFFFFFFFFFFFFFFFFFFFF AND DUP2 MSTORE PUSH1 0x20 ADD DUP5 DUP2 MSTORE POP PUSH1 0x2 PUSH0 PUSH1 0x1 SLOAD DUP2 MSTORE PUSH1 0x20 ADD SWAP1 DUP2 MSTORE PUSH1 0x20 ADD PUSH0 KECCAK256 PUSH0 DUP3 ADD MLOAD DUP2 PUSH0 ADD SSTORE PUSH1 0x20 DUP3 ADD MLOAD DUP2 PUSH1 0x1 ADD SWAP1 DUP2 PUSH2 0x8DD SWAP2 SWAP1 PUSH2 0x27E0 JUMP JUMPDEST POP PUSH1 0x40 DUP3 ADD MLOAD DUP2 PUSH1 0x2 ADD SWAP1 DUP2 PUSH2 0x8F3 SWAP2 SWAP1 PUSH2 0x27E0 JUMP JUMPDEST POP PUSH1 0x60 DUP3 ADD MLOAD DUP2 PUSH1 0x3 ADD SWAP1 DUP2 PUSH2 0x909 SWAP2 SWAP1 PUSH2 0x27E0 JUMP JUMPDEST POP PUSH1 0x80 DUP3 ADD MLOAD DUP2 PUSH1 0x4 ADD PUSH0 PUSH2 0x100 EXP DUP2 SLOAD DUP2 PUSH1 0xFF MUL NOT AND SWAP1 DUP4 PUSH1 0xFF AND MUL OR SWAP1 SSTORE POP PUSH1 0xA0 DUP3 ADD MLOAD DUP2 PUSH1 0x5 ADD SWAP1 DUP2 PUSH2 0x93F SWAP2 SWAP1 PUSH2 0x27E0 JUMP JUMPDEST POP PUSH1 0xC0 DUP3 ADD MLOAD DUP2 PUSH1 0x6 ADD PUSH0 PUSH2 0x100 EXP DUP2 SLOAD DUP2 PUSH20 0xFFFFFFFFFFFFFFFFFFFFFFFFFFFFFFFFFFFFFFFF MUL NOT AND SWAP1 DUP4 PUSH20 0xFFFFFFFFFFFFFFFFFFFFFFFFFFFFFFFFFFFFFFFF AND MUL OR SWAP1 SSTORE POP PUSH1 0xE0 DUP3 ADD MLOAD DUP2 PUSH1 0x7 ADD SSTORE SWAP1 POP POP PUSH1 0x4 PUSH0 DUP5 DUP2 MSTORE PUSH1 0x20 ADD SWAP1 DUP2 MSTORE PUSH1 0x20 ADD PUSH0 KECCAK256 PUSH0 DUP2 SLOAD DUP1 SWAP3 SWAP2 SWAP1 PUSH2 0x9B4 SWAP1 PUSH2 0x23E3 JUMP JUMPDEST SWAP2 SWAP1 POP SSTORE POP PUSH32 0x50A2D2C5907C0982300D5DE2585B6F5BB69B85CF6A926336CA938B641AAE14E8 PUSH1 0x1 SLOAD DUP4 DUP10 DUP10 DUP10 DUP10 CALLER DUP11 PUSH1 0x40 MLOAD PUSH2 0x9F8 SWAP9 SWAP8 SWAP7 SWAP6 SWAP5 SWAP4 SWAP3 SWAP2 SWAP1 PUSH2 0x1FCE JUMP JUMPDEST PUSH1 0x40 MLOAD DUP1 SWAP2 SUB SWAP1 LOG1 POP POP POP POP POP POP POP JUMP JUMPDEST PUSH1 0x4 PUSH1 0x20 MSTORE DUP1 PUSH0 MSTORE PUSH1 0x40 PUSH0 KECCAK256 PUSH0 SWAP2 POP SWAP1 POP SLOAD DUP2 JUMP JUMPDEST PUSH0 PUSH0 SWAP1 SLOAD SWAP1 PUSH2 0x100 EXP SWAP1 DIV PUSH20 0xFFFFFFFFFFFFFFFFFFFFFFFFFFFFFFFFFFFFFFFF AND PUSH20 0xFFFFFFFFFFFFFFFFFFFFFFFFFFFFFFFFFFFFFFFF AND CALLER PUSH20 0xFFFFFFFFFFFFFFFFFFFFFFFFFFFFFFFFFFFFFFFF AND EQ PUSH2 0xAAC JUMPI PUSH1 0x40 MLOAD PUSH32 0x8C379A000000000000000000000000000000000000000000000000000000000 DUP2 MSTORE PUSH1 0x4 ADD PUSH2 0xAA3 SWAP1 PUSH2 0x28F9 JUMP JUMPDEST PUSH1 0x40 MLOAD DUP1 SWAP2 SUB SWAP1 REVERT JUMPDEST DUP1 PUSH1 0x3 DUP6 PUSH1 0x40 MLOAD PUSH2 0xABD SWAP2 SWAP1 PUSH2 0x24CC JUMP JUMPDEST SWAP1 DUP2 MSTORE PUSH1 0x20 ADD PUSH1 0x40 MLOAD DUP1 SWAP2 SUB SWAP1 KECCAK256 DUP5 PUSH1 0x40 MLOAD PUSH2 0xAD9 SWAP2 SWAP1 PUSH2 0x24CC JUMP JUMPDEST SWAP1 DUP2 MSTORE PUSH1 0x20 ADD PUSH1 0x40 MLOAD DUP1 SWAP2 SUB SWAP1 KECCAK256 DUP4 PUSH1 0x40 MLOAD PUSH2 0xAF5 SWAP2 SWAP1 PUSH2 0x24CC JUMP JUMPDEST SWAP1 DUP2 MSTORE PUSH1 0x20 ADD PUSH1 0x40 MLOAD DUP1 SWAP2 SUB SWAP1 KECCAK256 DUP2 SWAP1 SSTORE POP POP POP POP POP JUMP JUMPDEST PUSH1 0x2 PUSH1 0x20 MSTORE DUP1 PUSH0 MSTORE PUSH1 0x40 PUSH0 KECCAK256 PUSH0 SWAP2 POP SWAP1 POP DUP1 PUSH0 ADD SLOAD SWAP1 DUP1 PUSH1 0x1 ADD DUP1 SLOAD PUSH2 0xB32 SWAP1 PUSH2 0x2326 JUMP JUMPDEST DUP1 PUSH1 0x1F ADD PUSH1 0x20 DUP1 SWAP2 DIV MUL PUSH1 0x20 ADD PUSH1 0x40 MLOAD SWAP1 DUP2 ADD PUSH1 0x40 MSTORE DUP1 SWAP3 SWAP2 SWAP1 DUP2 DUP2 MSTORE PUSH1 0x20 ADD DUP3 DUP1 SLOAD PUSH2 0xB5E SWAP1 PUSH2 0x2326 JUMP JUMPDEST DUP1 ISZERO PUSH2 0xBA9 JUMPI DUP1 PUSH1 0x1F LT PUSH2 0xB80 JUMPI PUSH2 0x100 DUP1 DUP4 SLOAD DIV MUL DUP4 MSTORE SWAP2 PUSH1 0x20 ADD SWAP2 PUSH2 0xBA9 JUMP JUMPDEST DUP3 ADD SWAP2 SWAP1 PUSH0 MSTORE PUSH1 0x20 PUSH0 KECCAK256 SWAP1 JUMPDEST DUP2 SLOAD DUP2 MSTORE SWAP1 PUSH1 0x1 ADD SWAP1 PUSH1 0x20 ADD DUP1 DUP4 GT PUSH2 0xB8C JUMPI DUP3 SWAP1 SUB PUSH1 0x1F AND DUP3 ADD SWAP2 JUMPDEST POP POP POP POP POP SWAP1 DUP1 PUSH1 0x2 ADD DUP1 SLOAD PUSH2 0xBBE SWAP1 PUSH2 0x2326 JUMP JUMPDEST DUP1 PUSH1 0x1F ADD PUSH1 0x20 DUP1 SWAP2 DIV MUL PUSH1 0x20 ADD PUSH1 0x40 MLOAD SWAP1 DUP2 ADD PUSH1 0x40 MSTORE DUP1 SWAP3 SWAP2 SWAP1 DUP2 DUP2 MSTORE PUSH1 0x20 ADD DUP3 DUP1 SLOAD PUSH2 0xBEA SWAP1 PUSH2 0x2326 JUMP JUMPDEST DUP1 ISZERO PUSH2 0xC35 JUMPI DUP1 PUSH1 0x1F LT PUSH2 0xC0C JUMPI PUSH2 0x100 DUP1 DUP4 SLOAD DIV MUL DUP4 MSTORE SWAP2 PUSH1 0x20 ADD SWAP2 PUSH2 0xC35 JUMP JUMPDEST DUP3 ADD SWAP2 SWAP1 PUSH0 MSTORE PUSH1 0x20 PUSH0 KECCAK256 SWAP1 JUMPDEST DUP2 SLOAD DUP2 MSTORE SWAP1 PUSH1 0x1 ADD SWAP1 PUSH1 0x20 ADD DUP1 DUP4 GT PUSH2 0xC18 JUMPI DUP3 SWAP1 SUB PUSH1 0x1F AND DUP3 ADD SWAP2 JUMPDEST POP POP POP POP POP SWAP1 DUP1 PUSH1 0x3 ADD DUP1 SLOAD PUSH2 0xC4A SWAP1 PUSH2 0x2326 JUMP JUMPDEST DUP1 PUSH1 0x1F ADD PUSH1 0x20 DUP1 SWAP2 DIV MUL PUSH1 0x20 ADD PUSH1 0x40 MLOAD SWAP1 DUP2 ADD PUSH1 0x40 MSTORE DUP1 SWAP3 SWAP2 SWAP1 DUP2 DUP2 MSTORE PUSH1 0x20 ADD DUP3 DUP1 SLOAD PUSH2 0xC76 SWAP1 PUSH2 0x2326 JUMP JUMPDEST DUP1 ISZERO PUSH2 0xCC1 JUMPI DUP1 PUSH1 0x1F LT PUSH2 0xC98 JUMPI PUSH2 0x100 DUP1 DUP4 SLOAD DIV MUL DUP4 MSTORE SWAP2 PUSH1 0x20 ADD SWAP2 PUSH2 0xCC1 JUMP JUMPDEST DUP3 ADD SWAP2 SWAP1 PUSH0 MSTORE PUSH1 0x20 PUSH0 KECCAK256 SWAP1 JUMPDEST DUP2 SLOAD DUP2 MSTORE SWAP1 PUSH1 0x1 ADD SWAP1 PUSH1 0x20 ADD DUP1 DUP4 GT PUSH2 0xCA4 JUMPI DUP3 SWAP1 SUB PUSH1 0x1F AND DUP3 ADD SWAP2 JUMPDEST POP POP POP POP POP SWAP1 DUP1 PUSH1 0x4 ADD PUSH0 SWAP1 SLOAD SWAP1 PUSH2 0x100 EXP SWAP1 DIV PUSH1 0xFF AND SWAP1 DUP1 PUSH1 0x5 ADD DUP1 SLOAD PUSH2 0xCE8 SWAP1 PUSH2 0x2326 JUMP JUMPDEST DUP1 PUSH1 0x1F ADD PUSH1 0x20 DUP1 SWAP2 DIV MUL PUSH1 0x20 ADD PUSH1 0x40 MLOAD SWAP1 DUP2 ADD PUSH1 0x40 MSTORE DUP1 SWAP3 SWAP2 SWAP1 DUP2 DUP2 MSTORE PUSH1 0x20 ADD DUP3 DUP1 SLOAD PUSH2 0xD14 SWAP1 PUSH2 0x2326 JUMP JUMPDEST DUP1 ISZERO PUSH2 0xD5F JUMPI DUP1 PUSH1 0x1F LT PUSH2 0xD36 JUMPI PUSH2 0x100 DUP1 DUP4 SLOAD DIV MUL DUP4 MSTORE SWAP2 PUSH1 0x20 ADD SWAP2 PUSH2 0xD5F JUMP JUMPDEST DUP3 ADD SWAP2 SWAP1 PUSH0 MSTORE PUSH1 0x20 PUSH0 KECCAK256 SWAP1 JUMPDEST DUP2 SLOAD DUP2 MSTORE SWAP1 PUSH1 0x1 ADD SWAP1 PUSH1 0x20 ADD DUP1 DUP4 GT PUSH2 0xD42 JUMPI DUP3 SWAP1 SUB PUSH1 0x1F AND DUP3 ADD SWAP2 JUMPDEST POP POP POP POP POP SWAP1 DUP1 PUSH1 0x6 ADD PUSH0 SWAP1 SLOAD SWAP1 PUSH2 0x100 EXP SWAP1 DIV PUSH20 0xFFFFFFFFFFFFFFFFFFFFFFFFFFFFFFFFFFFFFFFF AND SWAP1 DUP1 PUSH1 0x7 ADD SLOAD SWAP1 POP DUP9 JUMP JUMPDEST PUSH0 PUSH0 SWAP1 SLOAD SWAP1 PUSH2 0x100 EXP SWAP1 DIV PUSH20 0xFFFFFFFFFFFFFFFFFFFFFFFFFFFFFFFFFFFFFFFF AND DUP2 JUMP JUMPDEST PUSH1 0x60 DUP1 PUSH1 0x60 DUP1 PUSH0 PUSH1 0x40 MLOAD DUP1 PUSH1 0x40 ADD PUSH1 0x40 MSTORE DUP1 PUSH1 0x40 MLOAD DUP1 PUSH1 0x40 ADD PUSH1 0x40 MSTORE DUP1 PUSH1 0xA DUP2 MSTORE PUSH1 0x20 ADD PUSH32 0x5061737361706F72746500000000000000000000000000000000000000000000 DUP2 MSTORE POP DUP2 MSTORE PUSH1 0x20 ADD PUSH1 0x40 MLOAD DUP1 PUSH1 0x40 ADD PUSH1 0x40 MSTORE DUP1 PUSH1 0x6 DUP2 MSTORE PUSH1 0x20 ADD PUSH32 0x4176756C736F0000000000000000000000000000000000000000000000000000 DUP2 MSTORE POP DUP2 MSTORE POP SWAP1 POP PUSH0 PUSH1 0x40 MLOAD DUP1 PUSH1 0x80 ADD PUSH1 0x40 MSTORE DUP1 PUSH1 0x40 MLOAD DUP1 PUSH1 0x40 ADD PUSH1 0x40 MSTORE DUP1 PUSH1 0x14 DUP2 MSTORE PUSH1 0x20 ADD PUSH32 0x417271756962616E636164612043656E7472616C000000000000000000000000 DUP2 MSTORE POP DUP2 MSTORE PUSH1 0x20 ADD PUSH1 0x40 MLOAD DUP1 PUSH1 0x40 ADD PUSH1 0x40 MSTORE DUP1 PUSH1 0x15 DUP2 MSTORE PUSH1 0x20 ADD PUSH32 0x417271756962616E6361646120457370656369616C0000000000000000000000 DUP2 MSTORE POP DUP2 MSTORE PUSH1 0x20 ADD PUSH1 0x40 MLOAD DUP1 PUSH1 0x40 ADD PUSH1 0x40 MSTORE DUP1 PUSH1 0xF DUP2 MSTORE PUSH1 0x20 ADD PUSH32 0x43616465697261205469706F2030310000000000000000000000000000000000 DUP2 MSTORE POP DUP2 MSTORE PUSH1 0x20 ADD PUSH1 0x40 MLOAD DUP1 PUSH1 0x40 ADD PUSH1 0x40 MSTORE DUP1 PUSH1 0xF DUP2 MSTORE PUSH1 0x20 ADD PUSH32 0x43616465697261205469706F2030320000000000000000000000000000000000 DUP2 MSTORE POP DUP2 MSTORE POP SWAP1 POP PUSH0 PUSH1 0x40 MLOAD DUP1 PUSH1 0x40 ADD PUSH1 0x40 MSTORE DUP1 PUSH1 0x40 MLOAD DUP1 PUSH1 0x40 ADD PUSH1 0x40 MSTORE DUP1 PUSH1 0x7 DUP2 MSTORE PUSH1 0x20 ADD PUSH32 0x496E746569726100000000000000000000000000000000000000000000000000 DUP2 MSTORE POP DUP2 MSTORE PUSH1 0x20 ADD PUSH1 0x40 MLOAD DUP1 PUSH1 0x40 ADD PUSH1 0x40 MSTORE DUP1 PUSH1 0x4 DUP2 MSTORE PUSH1 0x20 ADD PUSH32 0x4D65696100000000000000000000000000000000000000000000000000000000 DUP2 MSTORE POP DUP2 MSTORE POP SWAP1 POP PUSH0 PUSH0 SWAP1 POP PUSH0 PUSH0 SWAP1 POP JUMPDEST PUSH1 0x2 DUP2 LT ISZERO PUSH2 0x10C3 JUMPI PUSH0 PUSH0 SWAP1 POP JUMPDEST PUSH1 0x4 DUP2 LT ISZERO PUSH2 0x10B5 JUMPI PUSH0 PUSH0 SWAP1 POP JUMPDEST PUSH1 0x2 DUP2 LT ISZERO PUSH2 0x10A7 JUMPI PUSH0 PUSH1 0x3 DUP9 DUP6 PUSH1 0x2 DUP2 LT PUSH2 0xFFE JUMPI PUSH2 0xFFD PUSH2 0x23B6 JUMP JUMPDEST JUMPDEST PUSH1 0x20 MUL ADD MLOAD PUSH1 0x40 MLOAD PUSH2 0x1010 SWAP2 SWAP1 PUSH2 0x24CC JUMP JUMPDEST SWAP1 DUP2 MSTORE PUSH1 0x20 ADD PUSH1 0x40 MLOAD DUP1 SWAP2 SUB SWAP1 KECCAK256 DUP8 DUP5 PUSH1 0x4 DUP2 LT PUSH2 0x1031 JUMPI PUSH2 0x1030 PUSH2 0x23B6 JUMP JUMPDEST JUMPDEST PUSH1 0x20 MUL ADD MLOAD PUSH1 0x40 MLOAD PUSH2 0x1043 SWAP2 SWAP1 PUSH2 0x24CC JUMP JUMPDEST SWAP1 DUP2 MSTORE PUSH1 0x20 ADD PUSH1 0x40 MLOAD DUP1 SWAP2 SUB SWAP1 KECCAK256 DUP7 DUP4 PUSH1 0x2 DUP2 LT PUSH2 0x1064 JUMPI PUSH2 0x1063 PUSH2 0x23B6 JUMP JUMPDEST JUMPDEST PUSH1 0x20 MUL ADD MLOAD PUSH1 0x40 MLOAD PUSH2 0x1076 SWAP2 SWAP1 PUSH2 0x24CC JUMP JUMPDEST SWAP1 DUP2 MSTORE PUSH1 0x20 ADD PUSH1 0x40 MLOAD DUP1 SWAP2 SUB SWAP1 KECCAK256 SLOAD GT ISZERO PUSH2 0x109A JUMPI DUP4 DUP1 PUSH2 0x1096 SWAP1 PUSH2 0x23E3 JUMP JUMPDEST SWAP5 POP POP JUMPDEST DUP1 DUP1 PUSH1 0x1 ADD SWAP2 POP POP PUSH2 0xFDF JUMP JUMPDEST POP DUP1 DUP1 PUSH1 0x1 ADD SWAP2 POP POP PUSH2 0xFD1 JUMP JUMPDEST POP DUP1 DUP1 PUSH1 0x1 ADD SWAP2 POP POP PUSH2 0xFC3 JUMP JUMPDEST POP DUP1 PUSH8 0xFFFFFFFFFFFFFFFF DUP2 GT ISZERO PUSH2 0x10DE JUMPI PUSH2 0x10DD PUSH2 0x1B12 JUMP JUMPDEST JUMPDEST PUSH1 0x40 MLOAD SWAP1 DUP1 DUP3 MSTORE DUP1 PUSH1 0x20 MUL PUSH1 0x20 ADD DUP3 ADD PUSH1 0x40 MSTORE DUP1 ISZERO PUSH2 0x1111 JUMPI DUP2 PUSH1 0x20 ADD JUMPDEST PUSH1 0x60 DUP2 MSTORE PUSH1 0x20 ADD SWAP1 PUSH1 0x1 SWAP1 SUB SWAP1 DUP2 PUSH2 0x10FC JUMPI SWAP1 POP JUMPDEST POP SWAP8 POP DUP1 PUSH8 0xFFFFFFFFFFFFFFFF DUP2 GT ISZERO PUSH2 0x112E JUMPI PUSH2 0x112D PUSH2 0x1B12 JUMP JUMPDEST JUMPDEST PUSH1 0x40 MLOAD SWAP1 DUP1 DUP3 MSTORE DUP1 PUSH1 0x20 MUL PUSH1 0x20 ADD DUP3 ADD PUSH1 0x40 MSTORE DUP1 ISZERO PUSH2 0x1161 JUMPI DUP2 PUSH1 0x20 ADD JUMPDEST PUSH1 0x60 DUP2 MSTORE PUSH1 0x20 ADD SWAP1 PUSH1 0x1 SWAP1 SUB SWAP1 DUP2 PUSH2 0x114C JUMPI SWAP1 POP JUMPDEST POP SWAP7 POP DUP1 PUSH8 0xFFFFFFFFFFFFFFFF DUP2 GT ISZERO PUSH2 0x117E JUMPI PUSH2 0x117D PUSH2 0x1B12 JUMP JUMPDEST JUMPDEST PUSH1 0x40 MLOAD SWAP1 DUP1 DUP3 MSTORE DUP1 PUSH1 0x20 MUL PUSH1 0x20 ADD DUP3 ADD PUSH1 0x40 MSTORE DUP1 ISZERO PUSH2 0x11B1 JUMPI DUP2 PUSH1 0x20 ADD JUMPDEST PUSH1 0x60 DUP2 MSTORE PUSH1 0x20 ADD SWAP1 PUSH1 0x1 SWAP1 SUB SWAP1 DUP2 PUSH2 0x119C JUMPI SWAP1 POP JUMPDEST POP SWAP6 POP DUP1 PUSH8 0xFFFFFFFFFFFFFFFF DUP2 GT ISZERO PUSH2 0x11CE JUMPI PUSH2 0x11CD PUSH2 0x1B12 JUMP JUMPDEST JUMPDEST PUSH1 0x40 MLOAD SWAP1 DUP1 DUP3 MSTORE DUP1 PUSH1 0x20 MUL PUSH1 0x20 ADD DUP3 ADD PUSH1 0x40 MSTORE DUP1 ISZERO PUSH2 0x11FC JUMPI DUP2 PUSH1 0x20 ADD PUSH1 0x20 DUP3 MUL DUP1 CALLDATASIZE DUP4 CALLDATACOPY DUP1 DUP3 ADD SWAP2 POP POP SWAP1 POP JUMPDEST POP SWAP5 POP PUSH0 PUSH0 SWAP1 POP PUSH0 PUSH0 SWAP1 POP JUMPDEST PUSH1 0x2 DUP2 LT ISZERO PUSH2 0x13CF JUMPI PUSH0 PUSH0 SWAP1 POP JUMPDEST PUSH1 0x4 DUP2 LT ISZERO PUSH2 0x13C1 JUMPI PUSH0 PUSH0 SWAP1 POP JUMPDEST PUSH1 0x2 DUP2 LT ISZERO PUSH2 0x13B3 JUMPI PUSH0 PUSH1 0x3 DUP10 DUP6 PUSH1 0x2 DUP2 LT PUSH2 0x1243 JUMPI PUSH2 0x1242 PUSH2 0x23B6 JUMP JUMPDEST JUMPDEST PUSH1 0x20 MUL ADD MLOAD PUSH1 0x40 MLOAD PUSH2 0x1255 SWAP2 SWAP1 PUSH2 0x24CC JUMP JUMPDEST SWAP1 DUP2 MSTORE PUSH1 0x20 ADD PUSH1 0x40 MLOAD DUP1 SWAP2 SUB SWAP1 KECCAK256 DUP9 DUP5 PUSH1 0x4 DUP2 LT PUSH2 0x1276 JUMPI PUSH2 0x1275 PUSH2 0x23B6 JUMP JUMPDEST JUMPDEST PUSH1 0x20 MUL ADD MLOAD PUSH1 0x40 MLOAD PUSH2 0x1288 SWAP2 SWAP1 PUSH2 0x24CC JUMP JUMPDEST SWAP1 DUP2 MSTORE PUSH1 0x20 ADD PUSH1 0x40 MLOAD DUP1 SWAP2 SUB SWAP1 KECCAK256 DUP8 DUP4 PUSH1 0x2 DUP2 LT PUSH2 0x12A9 JUMPI PUSH2 0x12A8 PUSH2 0x23B6 JUMP JUMPDEST JUMPDEST PUSH1 0x20 MUL ADD MLOAD PUSH1 0x40 MLOAD PUSH2 0x12BB SWAP2 SWAP1 PUSH2 0x24CC JUMP JUMPDEST SWAP1 DUP2 MSTORE PUSH1 0x20 ADD PUSH1 0x40 MLOAD DUP1 SWAP2 SUB SWAP1 KECCAK256 SLOAD SWAP1 POP PUSH0 DUP2 GT ISZERO PUSH2 0x13A5 JUMPI DUP9 DUP5 PUSH1 0x2 DUP2 LT PUSH2 0x12E7 JUMPI PUSH2 0x12E6 PUSH2 0x23B6 JUMP JUMPDEST JUMPDEST PUSH1 0x20 MUL ADD MLOAD DUP14 DUP7 DUP2 MLOAD DUP2 LT PUSH2 0x12FF JUMPI PUSH2 0x12FE PUSH2 0x23B6 JUMP JUMPDEST JUMPDEST PUSH1 0x20 MUL PUSH1 0x20 ADD ADD DUP2 SWAP1 MSTORE POP DUP8 DUP4 PUSH1 0x4 DUP2 LT PUSH2 0x131D JUMPI PUSH2 0x131C PUSH2 0x23B6 JUMP JUMPDEST JUMPDEST PUSH1 0x20 MUL ADD MLOAD DUP13 DUP7 DUP2 MLOAD DUP2 LT PUSH2 0x1335 JUMPI PUSH2 0x1334 PUSH2 0x23B6 JUMP JUMPDEST JUMPDEST PUSH1 0x20 MUL PUSH1 0x20 ADD ADD DUP2 SWAP1 MSTORE POP DUP7 DUP3 PUSH1 0x2 DUP2 LT PUSH2 0x1353 JUMPI PUSH2 0x1352 PUSH2 0x23B6 JUMP JUMPDEST JUMPDEST PUSH1 0x20 MUL ADD MLOAD DUP12 DUP7 DUP2 MLOAD DUP2 LT PUSH2 0x136B JUMPI PUSH2 0x136A PUSH2 0x23B6 JUMP JUMPDEST JUMPDEST PUSH1 0x20 MUL PUSH1 0x20 ADD ADD DUP2 SWAP1 MSTORE POP DUP1 DUP11 DUP7 DUP2 MLOAD DUP2 LT PUSH2 0x138A JUMPI PUSH2 0x1389 PUSH2 0x23B6 JUMP JUMPDEST JUMPDEST PUSH1 0x20 MUL PUSH1 0x20 ADD ADD DUP2 DUP2 MSTORE POP POP DUP5 DUP1 PUSH2 0x13A1 SWAP1 PUSH2 0x23E3 JUMP JUMPDEST SWAP6 POP POP JUMPDEST POP DUP1 DUP1 PUSH1 0x1 ADD SWAP2 POP POP PUSH2 0x1224 JUMP JUMPDEST POP DUP1 DUP1 PUSH1 0x1 ADD SWAP2 POP POP PUSH2 0x1216 JUMP JUMPDEST POP DUP1 DUP1 PUSH1 0x1 ADD SWAP2 POP POP PUSH2 0x1208 JUMP JUMPDEST POP POP POP POP POP POP SWAP1 SWAP2 SWAP3 SWAP4 JUMP JUMPDEST PUSH0 PUSH0 SWAP1 SLOAD SWAP1 PUSH2 0x100 EXP SWAP1 DIV PUSH20 0xFFFFFFFFFFFFFFFFFFFFFFFFFFFFFFFFFFFFFFFF AND PUSH20 0xFFFFFFFFFFFFFFFFFFFFFFFFFFFFFFFFFFFFFFFF AND CALLER PUSH20 0xFFFFFFFFFFFFFFFFFFFFFFFFFFFFFFFFFFFFFFFF AND EQ PUSH2 0x1469 JUMPI PUSH1 0x40 MLOAD PUSH32 0x8C379A000000000000000000000000000000000000000000000000000000000 DUP2 MSTORE PUSH1 0x4 ADD PUSH2 0x1460 SWAP1 PUSH2 0x28F9 JUMP JUMPDEST PUSH1 0x40 MLOAD DUP1 SWAP2 SUB SWAP1 REVERT JUMPDEST PUSH0 PUSH0 SWAP1 SLOAD SWAP1 PUSH2 0x100 EXP SWAP1 DIV PUSH20 0xFFFFFFFFFFFFFFFFFFFFFFFFFFFFFFFFFFFFFFFF AND PUSH20 0xFFFFFFFFFFFFFFFFFFFFFFFFFFFFFFFFFFFFFFFF AND PUSH2 0x8FC SELFBALANCE SWAP1 DUP2 ISZERO MUL SWAP1 PUSH1 0x40 MLOAD PUSH0 PUSH1 0x40 MLOAD DUP1 DUP4 SUB DUP2 DUP6 DUP9 DUP9 CALL SWAP4 POP POP POP POP ISZERO DUP1 ISZERO PUSH2 0x14CC JUMPI RETURNDATASIZE PUSH0 PUSH0 RETURNDATACOPY RETURNDATASIZE PUSH0 REVERT JUMPDEST POP JUMP JUMPDEST PUSH0 PUSH1 0x40 MLOAD DUP1 PUSH1 0x40 ADD PUSH1 0x40 MSTORE DUP1 PUSH1 0xA DUP2 MSTORE PUSH1 0x20 ADD PUSH32 0x5061737361706F72746500000000000000000000000000000000000000000000 DUP2 MSTORE POP SWAP1 POP PUSH0 PUSH1 0x3 DUP3 PUSH1 0x40 MLOAD PUSH2 0x1519 SWAP2 SWAP1 PUSH2 0x24CC JUMP JUMPDEST SWAP1 DUP2 MSTORE PUSH1 0x20 ADD PUSH1 0x40 MLOAD DUP1 SWAP2 SUB SWAP1 KECCAK256 DUP7 PUSH1 0x40 MLOAD PUSH2 0x1535 SWAP2 SWAP1 PUSH2 0x24CC JUMP JUMPDEST SWAP1 DUP2 MSTORE PUSH1 0x20 ADD PUSH1 0x40 MLOAD DUP1 SWAP2 SUB SWAP1 KECCAK256 DUP6 PUSH1 0x40 MLOAD PUSH2 0x1551 SWAP2 SWAP1 PUSH2 0x24CC JUMP JUMPDEST SWAP1 DUP2 MSTORE PUSH1 0x20 ADD PUSH1 0x40 MLOAD DUP1 SWAP2 SUB SWAP1 KECCAK256 SLOAD SWAP1 POP PUSH0 DUP2 GT PUSH2 0x15A4 JUMPI PUSH1 0x40 MLOAD PUSH32 0x8C379A000000000000000000000000000000000000000000000000000000000 DUP2 MSTORE PUSH1 0x4 ADD PUSH2 0x159B SWAP1 PUSH2 0x252C JUMP JUMPDEST PUSH1 0x40 MLOAD DUP1 SWAP2 SUB SWAP1 REVERT JUMPDEST DUP1 CALLVALUE LT ISZERO PUSH2 0x15E7 JUMPI PUSH1 0x40 MLOAD PUSH32 0x8C379A000000000000000000000000000000000000000000000000000000000 DUP2 MSTORE PUSH1 0x4 ADD PUSH2 0x15DE SWAP1 PUSH2 0x2594 JUMP JUMPDEST PUSH1 0x40 MLOAD DUP1 SWAP2 SUB SWAP1 REVERT JUMPDEST PUSH1 0x2 PUSH1 0x4 PUSH0 DUP6 DUP2 MSTORE PUSH1 0x20 ADD SWAP1 DUP2 MSTORE PUSH1 0x20 ADD PUSH0 KECCAK256 SLOAD LT PUSH2 0x163B JUMPI PUSH1 0x40 MLOAD PUSH32 0x8C379A000000000000000000000000000000000000000000000000000000000 DUP2 MSTORE PUSH1 0x4 ADD PUSH2 0x1632 SWAP1 PUSH2 0x2622 JUMP JUMPDEST PUSH1 0x40 MLOAD DUP1 SWAP2 SUB SWAP1 REVERT JUMPDEST PUSH1 0x1 PUSH0 DUP2 SLOAD DUP1 SWAP3 SWAP2 SWAP1 PUSH2 0x164D SWAP1 PUSH2 0x23E3 JUMP JUMPDEST SWAP2 SWAP1 POP SSTORE POP PUSH1 0x40 MLOAD DUP1 PUSH2 0x100 ADD PUSH1 0x40 MSTORE DUP1 PUSH1 0x1 SLOAD DUP2 MSTORE PUSH1 0x20 ADD DUP4 DUP2 MSTORE PUSH1 0x20 ADD DUP8 DUP2 MSTORE PUSH1 0x20 ADD DUP7 DUP2 MSTORE PUSH1 0x20 ADD PUSH0 PUSH1 0xFF AND DUP2 MSTORE PUSH1 0x20 ADD DUP6 DUP2 MSTORE PUSH1 0x20 ADD CALLER PUSH20 0xFFFFFFFFFFFFFFFFFFFFFFFFFFFFFFFFFFFFFFFF AND DUP2 MSTORE PUSH1 0x20 ADD DUP5 DUP2 MSTORE POP PUSH1 0x2 PUSH0 PUSH1 0x1 SLOAD DUP2 MSTORE PUSH1 0x20 ADD SWAP1 DUP2 MSTORE PUSH1 0x20 ADD PUSH0 KECCAK256 PUSH0 DUP3 ADD MLOAD DUP2 PUSH0 ADD SSTORE PUSH1 0x20 DUP3 ADD MLOAD DUP2 PUSH1 0x1 ADD SWAP1 DUP2 PUSH2 0x16D7 SWAP2 SWAP1 PUSH2 0x27E0 JUMP JUMPDEST POP PUSH1 0x40 DUP3 ADD MLOAD DUP2 PUSH1 0x2 ADD SWAP1 DUP2 PUSH2 0x16ED SWAP2 SWAP1 PUSH2 0x27E0 JUMP JUMPDEST POP PUSH1 0x60 DUP3 ADD MLOAD DUP2 PUSH1 0x3 ADD SWAP1 DUP2 PUSH2 0x1703 SWAP2 SWAP1 PUSH2 0x27E0 JUMP JUMPDEST POP PUSH1 0x80 DUP3 ADD MLOAD DUP2 PUSH1 0x4 ADD PUSH0 PUSH2 0x100 EXP DUP2 SLOAD DUP2 PUSH1 0xFF MUL NOT AND SWAP1 DUP4 PUSH1 0xFF AND MUL OR SWAP1 SSTORE POP PUSH1 0xA0 DUP3 ADD MLOAD DUP2 PUSH1 0x5 ADD SWAP1 DUP2 PUSH2 0x1739 SWAP2 SWAP1 PUSH2 0x27E0 JUMP JUMPDEST POP PUSH1 0xC0 DUP3 ADD MLOAD DUP2 PUSH1 0x6 ADD PUSH0 PUSH2 0x100 EXP DUP2 SLOAD DUP2 PUSH20 0xFFFFFFFFFFFFFFFFFFFFFFFFFFFFFFFFFFFFFFFF MUL NOT AND SWAP1 DUP4 PUSH20 0xFFFFFFFFFFFFFFFFFFFFFFFFFFFFFFFFFFFFFFFF AND MUL OR SWAP1 SSTORE POP PUSH1 0xE0 DUP3 ADD MLOAD DUP2 PUSH1 0x7 ADD SSTORE SWAP1 POP POP PUSH1 0x4 PUSH0 DUP5 DUP2 MSTORE PUSH1 0x20 ADD SWAP1 DUP2 MSTORE PUSH1 0x20 ADD PUSH0 KECCAK256 PUSH0 DUP2 SLOAD DUP1 SWAP3 SWAP2 SWAP1 PUSH2 0x17AE SWAP1 PUSH2 0x23E3 JUMP JUMPDEST SWAP2 SWAP1 POP SSTORE POP PUSH32 0x50A2D2C5907C0982300D5DE2585B6F5BB69B85CF6A926336CA938B641AAE14E8 PUSH1 0x1 SLOAD DUP4 DUP9 DUP9 PUSH0 DUP10 CALLER DUP11 PUSH1 0x40 MLOAD PUSH2 0x17F2 SWAP9 SWAP8 SWAP7 SWAP6 SWAP5 SWAP4 SWAP3 SWAP2 SWAP1 PUSH2 0x2950 JUMP JUMPDEST PUSH1 0x40 MLOAD DUP1 SWAP2 SUB SWAP1 LOG1 POP POP POP POP POP POP JUMP JUMPDEST PUSH1 0x1 SLOAD DUP2 JUMP JUMPDEST PUSH1 0x40 MLOAD DUP1 PUSH2 0x100 ADD PUSH1 0x40 MSTORE DUP1 PUSH0 DUP2 MSTORE PUSH1 0x20 ADD PUSH1 0x60 DUP2 MSTORE PUSH1 0x20 ADD PUSH1 0x60 DUP2 MSTORE PUSH1 0x20 ADD PUSH1 0x60 DUP2 MSTORE PUSH1 0x20 ADD PUSH0 PUSH1 0xFF AND DUP2 MSTORE PUSH1 0x20 ADD PUSH1 0x60 DUP2 MSTORE PUSH1 0x20 ADD PUSH0 PUSH20 0xFFFFFFFFFFFFFFFFFFFFFFFFFFFFFFFFFFFFFFFF AND DUP2 MSTORE PUSH1 0x20 ADD PUSH0 DUP2 MSTORE POP SWAP1 JUMP JUMPDEST PUSH0 DUP2 MLOAD SWAP1 POP SWAP2 SWAP1 POP JUMP JUMPDEST PUSH0 DUP3 DUP3 MSTORE PUSH1 0x20 DUP3 ADD SWAP1 POP SWAP3 SWAP2 POP POP JUMP JUMPDEST PUSH0 DUP2 SWAP1 POP PUSH1 0x20 DUP3 ADD SWAP1 POP SWAP2 SWAP1 POP JUMP JUMPDEST PUSH0 DUP2 SWAP1 POP SWAP2 SWAP1 POP JUMP JUMPDEST PUSH2 0x189D DUP2 PUSH2 0x188B JUMP JUMPDEST DUP3 MSTORE POP POP JUMP JUMPDEST PUSH0 DUP2 MLOAD SWAP1 POP SWAP2 SWAP1 POP JUMP JUMPDEST PUSH0 DUP3 DUP3 MSTORE PUSH1 0x20 DUP3 ADD SWAP1 POP SWAP3 SWAP2 POP POP JUMP JUMPDEST DUP3 DUP2 DUP4 MCOPY PUSH0 DUP4 DUP4 ADD MSTORE POP POP POP JUMP JUMPDEST PUSH0 PUSH1 0x1F NOT PUSH1 0x1F DUP4 ADD AND SWAP1 POP SWAP2 SWAP1 POP JUMP JUMPDEST PUSH0 PUSH2 0x18E5 DUP3 PUSH2 0x18A3 JUMP JUMPDEST PUSH2 0x18EF DUP2 DUP6 PUSH2 0x18AD JUMP JUMPDEST SWAP4 POP PUSH2 0x18FF DUP2 DUP6 PUSH1 0x20 DUP7 ADD PUSH2 0x18BD JUMP JUMPDEST PUSH2 0x1908 DUP2 PUSH2 0x18CB JUMP JUMPDEST DUP5 ADD SWAP2 POP POP SWAP3 SWAP2 POP POP JUMP JUMPDEST PUSH0 PUSH1 0xFF DUP3 AND SWAP1 POP SWAP2 SWAP1 POP JUMP JUMPDEST PUSH2 0x1928 DUP2 PUSH2 0x1913 JUMP JUMPDEST DUP3 MSTORE POP POP JUMP JUMPDEST PUSH0 PUSH20 0xFFFFFFFFFFFFFFFFFFFFFFFFFFFFFFFFFFFFFFFF DUP3 AND SWAP1 POP SWAP2 SWAP1 POP JUMP JUMPDEST PUSH0 PUSH2 0x1957 DUP3 PUSH2 0x192E JUMP JUMPDEST SWAP1 POP SWAP2 SWAP1 POP JUMP JUMPDEST PUSH2 0x1967 DUP2 PUSH2 0x194D JUMP JUMPDEST DUP3 MSTORE POP POP JUMP JUMPDEST PUSH0 DUP2 SWAP1 POP SWAP2 SWAP1 POP JUMP JUMPDEST PUSH2 0x197F DUP2 PUSH2 0x196D JUMP JUMPDEST DUP3 MSTORE POP POP JUMP JUMPDEST PUSH0 PUSH2 0x100 DUP4 ADD PUSH0 DUP4 ADD MLOAD PUSH2 0x199B PUSH0 DUP7 ADD DUP3 PUSH2 0x1894 JUMP JUMPDEST POP PUSH1 0x20 DUP4 ADD MLOAD DUP5 DUP3 SUB PUSH1 0x20 DUP7 ADD MSTORE PUSH2 0x19B3 DUP3 DUP3 PUSH2 0x18DB JUMP JUMPDEST SWAP2 POP POP PUSH1 0x40 DUP4 ADD MLOAD DUP5 DUP3 SUB PUSH1 0x40 DUP7 ADD MSTORE PUSH2 0x19CD DUP3 DUP3 PUSH2 0x18DB JUMP JUMPDEST SWAP2 POP POP PUSH1 0x60 DUP4 ADD MLOAD DUP5 DUP3 SUB PUSH1 0x60 DUP7 ADD MSTORE PUSH2 0x19E7 DUP3 DUP3 PUSH2 0x18DB JUMP JUMPDEST SWAP2 POP POP PUSH1 0x80 DUP4 ADD MLOAD PUSH2 0x19FC PUSH1 0x80 DUP7 ADD DUP3 PUSH2 0x191F JUMP JUMPDEST POP PUSH1 0xA0 DUP4 ADD MLOAD DUP5 DUP3 SUB PUSH1 0xA0 DUP7 ADD MSTORE PUSH2 0x1A14 DUP3 DUP3 PUSH2 0x18DB JUMP JUMPDEST SWAP2 POP POP PUSH1 0xC0 DUP4 ADD MLOAD PUSH2 0x1A29 PUSH1 0xC0 DUP7 ADD DUP3 PUSH2 0x195E JUMP JUMPDEST POP PUSH1 0xE0 DUP4 ADD MLOAD PUSH2 0x1A3C PUSH1 0xE0 DUP7 ADD DUP3 PUSH2 0x1976 JUMP JUMPDEST POP DUP1 SWAP2 POP POP SWAP3 SWAP2 POP POP JUMP JUMPDEST PUSH0 PUSH2 0x1A52 DUP4 DUP4 PUSH2 0x1985 JUMP JUMPDEST SWAP1 POP SWAP3 SWAP2 POP POP JUMP JUMPDEST PUSH0 PUSH1 0x20 DUP3 ADD SWAP1 POP SWAP2 SWAP1 POP JUMP JUMPDEST PUSH0 PUSH2 0x1A70 DUP3 PUSH2 0x1862 JUMP JUMPDEST PUSH2 0x1A7A DUP2 DUP6 PUSH2 0x186C JUMP JUMPDEST SWAP4 POP DUP4 PUSH1 0x20 DUP3 MUL DUP6 ADD PUSH2 0x1A8C DUP6 PUSH2 0x187C JUMP JUMPDEST DUP1 PUSH0 JUMPDEST DUP6 DUP2 LT ISZERO PUSH2 0x1AC7 JUMPI DUP5 DUP5 SUB DUP10 MSTORE DUP2 MLOAD PUSH2 0x1AA8 DUP6 DUP3 PUSH2 0x1A47 JUMP JUMPDEST SWAP5 POP PUSH2 0x1AB3 DUP4 PUSH2 0x1A5A JUMP JUMPDEST SWAP3 POP PUSH1 0x20 DUP11 ADD SWAP10 POP POP PUSH1 0x1 DUP2 ADD SWAP1 POP PUSH2 0x1A8F JUMP JUMPDEST POP DUP3 SWAP8 POP DUP8 SWAP6 POP POP POP POP POP POP SWAP3 SWAP2 POP POP JUMP JUMPDEST PUSH0 PUSH1 0x20 DUP3 ADD SWAP1 POP DUP2 DUP2 SUB PUSH0 DUP4 ADD MSTORE PUSH2 0x1AF1 DUP2 DUP5 PUSH2 0x1A66 JUMP JUMPDEST SWAP1 POP SWAP3 SWAP2 POP POP JUMP JUMPDEST PUSH0 PUSH1 0x40 MLOAD SWAP1 POP SWAP1 JUMP JUMPDEST PUSH0 PUSH0 REVERT JUMPDEST PUSH0 PUSH0 REVERT JUMPDEST PUSH0 PUSH0 REVERT JUMPDEST PUSH0 PUSH0 REVERT JUMPDEST PUSH32 0x4E487B7100000000000000000000000000000000000000000000000000000000 PUSH0 MSTORE PUSH1 0x41 PUSH1 0x4 MSTORE PUSH1 0x24 PUSH0 REVERT JUMPDEST PUSH2 0x1B48 DUP3 PUSH2 0x18CB JUMP JUMPDEST DUP2 ADD DUP2 DUP2 LT PUSH8 0xFFFFFFFFFFFFFFFF DUP3 GT OR ISZERO PUSH2 0x1B67 JUMPI PUSH2 0x1B66 PUSH2 0x1B12 JUMP JUMPDEST JUMPDEST DUP1 PUSH1 0x40 MSTORE POP POP POP JUMP JUMPDEST PUSH0 PUSH2 0x1B79 PUSH2 0x1AF9 JUMP JUMPDEST SWAP1 POP PUSH2 0x1B85 DUP3 DUP3 PUSH2 0x1B3F JUMP JUMPDEST SWAP2 SWAP1 POP JUMP JUMPDEST PUSH0 PUSH8 0xFFFFFFFFFFFFFFFF DUP3 GT ISZERO PUSH2 0x1BA4 JUMPI PUSH2 0x1BA3 PUSH2 0x1B12 JUMP JUMPDEST JUMPDEST PUSH2 0x1BAD DUP3 PUSH2 0x18CB JUMP JUMPDEST SWAP1 POP PUSH1 0x20 DUP2 ADD SWAP1 POP SWAP2 SWAP1 POP JUMP JUMPDEST DUP3 DUP2 DUP4 CALLDATACOPY PUSH0 DUP4 DUP4 ADD MSTORE POP POP POP JUMP JUMPDEST PUSH0 PUSH2 0x1BDA PUSH2 0x1BD5 DUP5 PUSH2 0x1B8A JUMP JUMPDEST PUSH2 0x1B70 JUMP JUMPDEST SWAP1 POP DUP3 DUP2 MSTORE PUSH1 0x20 DUP2 ADD DUP5 DUP5 DUP5 ADD GT ISZERO PUSH2 0x1BF6 JUMPI PUSH2 0x1BF5 PUSH2 0x1B0E JUMP JUMPDEST JUMPDEST PUSH2 0x1C01 DUP5 DUP3 DUP6 PUSH2 0x1BBA JUMP JUMPDEST POP SWAP4 SWAP3 POP POP POP JUMP JUMPDEST PUSH0 DUP3 PUSH1 0x1F DUP4 ADD SLT PUSH2 0x1C1D JUMPI PUSH2 0x1C1C PUSH2 0x1B0A JUMP JUMPDEST JUMPDEST DUP2 CALLDATALOAD PUSH2 0x1C2D DUP5 DUP3 PUSH1 0x20 DUP7 ADD PUSH2 0x1BC8 JUMP JUMPDEST SWAP2 POP POP SWAP3 SWAP2 POP POP JUMP JUMPDEST PUSH0 PUSH0 PUSH0 PUSH1 0x60 DUP5 DUP7 SUB SLT ISZERO PUSH2 0x1C4D JUMPI PUSH2 0x1C4C PUSH2 0x1B02 JUMP JUMPDEST JUMPDEST PUSH0 DUP5 ADD CALLDATALOAD PUSH8 0xFFFFFFFFFFFFFFFF DUP2 GT ISZERO PUSH2 0x1C6A JUMPI PUSH2 0x1C69 PUSH2 0x1B06 JUMP JUMPDEST JUMPDEST PUSH2 0x1C76 DUP7 DUP3 DUP8 ADD PUSH2 0x1C09 JUMP JUMPDEST SWAP4 POP POP PUSH1 0x20 DUP5 ADD CALLDATALOAD PUSH8 0xFFFFFFFFFFFFFFFF DUP2 GT ISZERO PUSH2 0x1C97 JUMPI PUSH2 0x1C96 PUSH2 0x1B06 JUMP JUMPDEST JUMPDEST PUSH2 0x1CA3 DUP7 DUP3 DUP8 ADD PUSH2 0x1C09 JUMP JUMPDEST SWAP3 POP POP PUSH1 0x40 DUP5 ADD CALLDATALOAD PUSH8 0xFFFFFFFFFFFFFFFF DUP2 GT ISZERO PUSH2 0x1CC4 JUMPI PUSH2 0x1CC3 PUSH2 0x1B06 JUMP JUMPDEST JUMPDEST PUSH2 0x1CD0 DUP7 DUP3 DUP8 ADD PUSH2 0x1C09 JUMP JUMPDEST SWAP2 POP POP SWAP3 POP SWAP3 POP SWAP3 JUMP JUMPDEST PUSH2 0x1CE3 DUP2 PUSH2 0x188B JUMP JUMPDEST DUP3 MSTORE POP POP JUMP JUMPDEST PUSH0 PUSH1 0x20 DUP3 ADD SWAP1 POP PUSH2 0x1CFC PUSH0 DUP4 ADD DUP5 PUSH2 0x1CDA JUMP JUMPDEST SWAP3 SWAP2 POP POP JUMP JUMPDEST PUSH2 0x1D0B DUP2 PUSH2 0x1913 JUMP JUMPDEST DUP2 EQ PUSH2 0x1D15 JUMPI PUSH0 PUSH0 REVERT JUMPDEST POP JUMP JUMPDEST PUSH0 DUP2 CALLDATALOAD SWAP1 POP PUSH2 0x1D26 DUP2 PUSH2 0x1D02 JUMP JUMPDEST SWAP3 SWAP2 POP POP JUMP JUMPDEST PUSH2 0x1D35 DUP2 PUSH2 0x196D JUMP JUMPDEST DUP2 EQ PUSH2 0x1D3F JUMPI PUSH0 PUSH0 REVERT JUMPDEST POP JUMP JUMPDEST PUSH0 DUP2 CALLDATALOAD SWAP1 POP PUSH2 0x1D50 DUP2 PUSH2 0x1D2C JUMP JUMPDEST SWAP3 SWAP2 POP POP JUMP JUMPDEST PUSH0 PUSH0 PUSH0 PUSH0 PUSH0 PUSH1 0xA0 DUP7 DUP9 SUB SLT ISZERO PUSH2 0x1D6F JUMPI PUSH2 0x1D6E PUSH2 0x1B02 JUMP JUMPDEST JUMPDEST PUSH0 DUP7 ADD CALLDATALOAD PUSH8 0xFFFFFFFFFFFFFFFF DUP2 GT ISZERO PUSH2 0x1D8C JUMPI PUSH2 0x1D8B PUSH2 0x1B06 JUMP JUMPDEST JUMPDEST PUSH2 0x1D98 DUP9 DUP3 DUP10 ADD PUSH2 0x1C09 JUMP JUMPDEST SWAP6 POP POP PUSH1 0x20 DUP7 ADD CALLDATALOAD PUSH8 0xFFFFFFFFFFFFFFFF DUP2 GT ISZERO PUSH2 0x1DB9 JUMPI PUSH2 0x1DB8 PUSH2 0x1B06 JUMP JUMPDEST JUMPDEST PUSH2 0x1DC5 DUP9 DUP3 DUP10 ADD PUSH2 0x1C09 JUMP JUMPDEST SWAP5 POP POP PUSH1 0x40 PUSH2 0x1DD6 DUP9 DUP3 DUP10 ADD PUSH2 0x1D18 JUMP JUMPDEST SWAP4 POP POP PUSH1 0x60 DUP7 ADD CALLDATALOAD PUSH8 0xFFFFFFFFFFFFFFFF DUP2 GT ISZERO PUSH2 0x1DF7 JUMPI PUSH2 0x1DF6 PUSH2 0x1B06 JUMP JUMPDEST JUMPDEST PUSH2 0x1E03 DUP9 DUP3 DUP10 ADD PUSH2 0x1C09 JUMP JUMPDEST SWAP3 POP POP PUSH1 0x80 PUSH2 0x1E14 DUP9 DUP3 DUP10 ADD PUSH2 0x1D42 JUMP JUMPDEST SWAP2 POP POP SWAP3 SWAP6 POP SWAP3 SWAP6 SWAP1 SWAP4 POP JUMP JUMPDEST PUSH0 PUSH1 0x20 DUP3 DUP5 SUB SLT ISZERO PUSH2 0x1E36 JUMPI PUSH2 0x1E35 PUSH2 0x1B02 JUMP JUMPDEST JUMPDEST PUSH0 PUSH2 0x1E43 DUP5 DUP3 DUP6 ADD PUSH2 0x1D42 JUMP JUMPDEST SWAP2 POP POP SWAP3 SWAP2 POP POP JUMP JUMPDEST PUSH2 0x1E55 DUP2 PUSH2 0x188B JUMP JUMPDEST DUP2 EQ PUSH2 0x1E5F JUMPI PUSH0 PUSH0 REVERT JUMPDEST POP JUMP JUMPDEST PUSH0 DUP2 CALLDATALOAD SWAP1 POP PUSH2 0x1E70 DUP2 PUSH2 0x1E4C JUMP JUMPDEST SWAP3 SWAP2 POP POP JUMP JUMPDEST PUSH0 PUSH0 PUSH0 PUSH0 PUSH1 0x80 DUP6 DUP8 SUB SLT ISZERO PUSH2 0x1E8E JUMPI PUSH2 0x1E8D PUSH2 0x1B02 JUMP JUMPDEST JUMPDEST PUSH0 DUP6 ADD CALLDATALOAD PUSH8 0xFFFFFFFFFFFFFFFF DUP2 GT ISZERO PUSH2 0x1EAB JUMPI PUSH2 0x1EAA PUSH2 0x1B06 JUMP JUMPDEST JUMPDEST PUSH2 0x1EB7 DUP8 DUP3 DUP9 ADD PUSH2 0x1C09 JUMP JUMPDEST SWAP5 POP POP PUSH1 0x20 DUP6 ADD CALLDATALOAD PUSH8 0xFFFFFFFFFFFFFFFF DUP2 GT ISZERO PUSH2 0x1ED8 JUMPI PUSH2 0x1ED7 PUSH2 0x1B06 JUMP JUMPDEST JUMPDEST PUSH2 0x1EE4 DUP8 DUP3 DUP9 ADD PUSH2 0x1C09 JUMP JUMPDEST SWAP4 POP POP PUSH1 0x40 DUP6 ADD CALLDATALOAD PUSH8 0xFFFFFFFFFFFFFFFF DUP2 GT ISZERO PUSH2 0x1F05 JUMPI PUSH2 0x1F04 PUSH2 0x1B06 JUMP JUMPDEST JUMPDEST PUSH2 0x1F11 DUP8 DUP3 DUP9 ADD PUSH2 0x1C09 JUMP JUMPDEST SWAP3 POP POP PUSH1 0x60 PUSH2 0x1F22 DUP8 DUP3 DUP9 ADD PUSH2 0x1E62 JUMP JUMPDEST SWAP2 POP POP SWAP3 SWAP6 SWAP2 SWAP5 POP SWAP3 POP JUMP JUMPDEST PUSH0 PUSH1 0x20 DUP3 DUP5 SUB SLT ISZERO PUSH2 0x1F43 JUMPI PUSH2 0x1F42 PUSH2 0x1B02 JUMP JUMPDEST JUMPDEST PUSH0 PUSH2 0x1F50 DUP5 DUP3 DUP6 ADD PUSH2 0x1E62 JUMP JUMPDEST SWAP2 POP POP SWAP3 SWAP2 POP POP JUMP JUMPDEST PUSH0 DUP3 DUP3 MSTORE PUSH1 0x20 DUP3 ADD SWAP1 POP SWAP3 SWAP2 POP POP JUMP JUMPDEST PUSH0 PUSH2 0x1F73 DUP3 PUSH2 0x18A3 JUMP JUMPDEST PUSH2 0x1F7D DUP2 DUP6 PUSH2 0x1F59 JUMP JUMPDEST SWAP4 POP PUSH2 0x1F8D DUP2 DUP6 PUSH1 0x20 DUP7 ADD PUSH2 0x18BD JUMP JUMPDEST PUSH2 0x1F96 DUP2 PUSH2 0x18CB JUMP JUMPDEST DUP5 ADD SWAP2 POP POP SWAP3 SWAP2 POP POP JUMP JUMPDEST PUSH2 0x1FAA DUP2 PUSH2 0x1913 JUMP JUMPDEST DUP3 MSTORE POP POP JUMP JUMPDEST PUSH2 0x1FB9 DUP2 PUSH2 0x194D JUMP JUMPDEST DUP3 MSTORE POP POP JUMP JUMPDEST PUSH2 0x1FC8 DUP2 PUSH2 0x196D JUMP JUMPDEST DUP3 MSTORE POP POP JUMP JUMPDEST PUSH0 PUSH2 0x100 DUP3 ADD SWAP1 POP PUSH2 0x1FE2 PUSH0 DUP4 ADD DUP12 PUSH2 0x1CDA JUMP JUMPDEST DUP2 DUP2 SUB PUSH1 0x20 DUP4 ADD MSTORE PUSH2 0x1FF4 DUP2 DUP11 PUSH2 0x1F69 JUMP JUMPDEST SWAP1 POP DUP2 DUP2 SUB PUSH1 0x40 DUP4 ADD MSTORE PUSH2 0x2008 DUP2 DUP10 PUSH2 0x1F69 JUMP JUMPDEST SWAP1 POP DUP2 DUP2 SUB PUSH1 0x60 DUP4 ADD MSTORE PUSH2 0x201C DUP2 DUP9 PUSH2 0x1F69 JUMP JUMPDEST SWAP1 POP PUSH2 0x202B PUSH1 0x80 DUP4 ADD DUP8 PUSH2 0x1FA1 JUMP JUMPDEST DUP2 DUP2 SUB PUSH1 0xA0 DUP4 ADD MSTORE PUSH2 0x203D DUP2 DUP7 PUSH2 0x1F69 JUMP JUMPDEST SWAP1 POP PUSH2 0x204C PUSH1 0xC0 DUP4 ADD DUP6 PUSH2 0x1FB0 JUMP JUMPDEST PUSH2 0x2059 PUSH1 0xE0 DUP4 ADD DUP5 PUSH2 0x1FBF JUMP JUMPDEST SWAP10 SWAP9 POP POP POP POP POP POP POP POP POP JUMP JUMPDEST PUSH0 PUSH1 0x20 DUP3 ADD SWAP1 POP PUSH2 0x2079 PUSH0 DUP4 ADD DUP5 PUSH2 0x1FB0 JUMP JUMPDEST SWAP3 SWAP2 POP POP JUMP JUMPDEST PUSH0 DUP2 MLOAD SWAP1 POP SWAP2 SWAP1 POP JUMP JUMPDEST PUSH0 DUP3 DUP3 MSTORE PUSH1 0x20 DUP3 ADD SWAP1 POP SWAP3 SWAP2 POP POP JUMP JUMPDEST PUSH0 DUP2 SWAP1 POP PUSH1 0x20 DUP3 ADD SWAP1 POP SWAP2 SWAP1 POP JUMP JUMPDEST PUSH0 PUSH2 0x20B3 DUP4 DUP4 PUSH2 0x18DB JUMP JUMPDEST SWAP1 POP SWAP3 SWAP2 POP POP JUMP JUMPDEST PUSH0 PUSH1 0x20 DUP3 ADD SWAP1 POP SWAP2 SWAP1 POP JUMP JUMPDEST PUSH0 PUSH2 0x20D1 DUP3 PUSH2 0x207F JUMP JUMPDEST PUSH2 0x20DB DUP2 DUP6 PUSH2 0x2089 JUMP JUMPDEST SWAP4 POP DUP4 PUSH1 0x20 DUP3 MUL DUP6 ADD PUSH2 0x20ED DUP6 PUSH2 0x2099 JUMP JUMPDEST DUP1 PUSH0 JUMPDEST DUP6 DUP2 LT ISZERO PUSH2 0x2128 JUMPI DUP5 DUP5 SUB DUP10 MSTORE DUP2 MLOAD PUSH2 0x2109 DUP6 DUP3 PUSH2 0x20A8 JUMP JUMPDEST SWAP5 POP PUSH2 0x2114 DUP4 PUSH2 0x20BB JUMP JUMPDEST SWAP3 POP PUSH1 0x20 DUP11 ADD SWAP10 POP POP PUSH1 0x1 DUP2 ADD SWAP1 POP PUSH2 0x20F0 JUMP JUMPDEST POP DUP3 SWAP8 POP DUP8 SWAP6 POP POP POP POP POP POP SWAP3 SWAP2 POP POP JUMP JUMPDEST PUSH0 DUP2 MLOAD SWAP1 POP SWAP2 SWAP1 POP JUMP JUMPDEST PUSH0 DUP3 DUP3 MSTORE PUSH1 0x20 DUP3 ADD SWAP1 POP SWAP3 SWAP2 POP POP JUMP JUMPDEST PUSH0 DUP2 SWAP1 POP PUSH1 0x20 DUP3 ADD SWAP1 POP SWAP2 SWAP1 POP JUMP JUMPDEST PUSH0 PUSH2 0x216E DUP4 DUP4 PUSH2 0x1894 JUMP JUMPDEST PUSH1 0x20 DUP4 ADD SWAP1 POP SWAP3 SWAP2 POP POP JUMP JUMPDEST PUSH0 PUSH1 0x20 DUP3 ADD SWAP1 POP SWAP2 SWAP1 POP JUMP JUMPDEST PUSH0 PUSH2 0x2190 DUP3 PUSH2 0x213A JUMP JUMPDEST PUSH2 0x219A DUP2 DUP6 PUSH2 0x2144 JUMP JUMPDEST SWAP4 POP PUSH2 0x21A5 DUP4 PUSH2 0x2154 JUMP JUMPDEST DUP1 PUSH0 JUMPDEST DUP4 DUP2 LT ISZERO PUSH2 0x21D5 JUMPI DUP2 MLOAD PUSH2 0x21BC DUP9 DUP3 PUSH2 0x2163 JUMP JUMPDEST SWAP8 POP PUSH2 0x21C7 DUP4 PUSH2 0x217A JUMP JUMPDEST SWAP3 POP POP PUSH1 0x1 DUP2 ADD SWAP1 POP PUSH2 0x21A8 JUMP JUMPDEST POP DUP6 SWAP4 POP POP POP POP SWAP3 SWAP2 POP POP JUMP JUMPDEST PUSH0 PUSH1 0x80 DUP3 ADD SWAP1 POP DUP2 DUP2 SUB PUSH0 DUP4 ADD MSTORE PUSH2 0x21FA DUP2 DUP8 PUSH2 0x20C7 JUMP JUMPDEST SWAP1 POP DUP2 DUP2 SUB PUSH1 0x20 DUP4 ADD MSTORE PUSH2 0x220E DUP2 DUP7 PUSH2 0x20C7 JUMP JUMPDEST SWAP1 POP DUP2 DUP2 SUB PUSH1 0x40 DUP4 ADD MSTORE PUSH2 0x2222 DUP2 DUP6 PUSH2 0x20C7 JUMP JUMPDEST SWAP1 POP DUP2 DUP2 SUB PUSH1 0x60 DUP4 ADD MSTORE PUSH2 0x2236 DUP2 DUP5 PUSH2 0x2186 JUMP JUMPDEST SWAP1 POP SWAP6 SWAP5 POP POP POP POP POP JUMP JUMPDEST PUSH0 PUSH0 PUSH0 PUSH0 PUSH1 0x80 DUP6 DUP8 SUB SLT ISZERO PUSH2 0x2259 JUMPI PUSH2 0x2258 PUSH2 0x1B02 JUMP JUMPDEST JUMPDEST PUSH0 DUP6 ADD CALLDATALOAD PUSH8 0xFFFFFFFFFFFFFFFF DUP2 GT ISZERO PUSH2 0x2276 JUMPI PUSH2 0x2275 PUSH2 0x1B06 JUMP JUMPDEST JUMPDEST PUSH2 0x2282 DUP8 DUP3 DUP9 ADD PUSH2 0x1C09 JUMP JUMPDEST SWAP5 POP POP PUSH1 0x20 DUP6 ADD CALLDATALOAD PUSH8 0xFFFFFFFFFFFFFFFF DUP2 GT ISZERO PUSH2 0x22A3 JUMPI PUSH2 0x22A2 PUSH2 0x1B06 JUMP JUMPDEST JUMPDEST PUSH2 0x22AF DUP8 DUP3 DUP9 ADD PUSH2 0x1C09 JUMP JUMPDEST SWAP4 POP POP PUSH1 0x40 DUP6 ADD CALLDATALOAD PUSH8 0xFFFFFFFFFFFFFFFF DUP2 GT ISZERO PUSH2 0x22D0 JUMPI PUSH2 0x22CF PUSH2 0x1B06 JUMP JUMPDEST JUMPDEST PUSH2 0x22DC DUP8 DUP3 DUP9 ADD PUSH2 0x1C09 JUMP JUMPDEST SWAP3 POP POP PUSH1 0x60 PUSH2 0x22ED DUP8 DUP3 DUP9 ADD PUSH2 0x1D42 JUMP JUMPDEST SWAP2 POP POP SWAP3 SWAP6 SWAP2 SWAP5 POP SWAP3 POP JUMP JUMPDEST PUSH32 0x4E487B7100000000000000000000000000000000000000000000000000000000 PUSH0 MSTORE PUSH1 0x22 PUSH1 0x4 MSTORE PUSH1 0x24 PUSH0 REVERT JUMPDEST PUSH0 PUSH1 0x2 DUP3 DIV SWAP1 POP PUSH1 0x1 DUP3 AND DUP1 PUSH2 0x233D JUMPI PUSH1 0x7F DUP3 AND SWAP2 POP JUMPDEST PUSH1 0x20 DUP3 LT DUP2 SUB PUSH2 0x2350 JUMPI PUSH2 0x234F PUSH2 0x22F9 JUMP JUMPDEST JUMPDEST POP SWAP2 SWAP1 POP JUMP JUMPDEST PUSH32 0x4E487B7100000000000000000000000000000000000000000000000000000000 PUSH0 MSTORE PUSH1 0x11 PUSH1 0x4 MSTORE PUSH1 0x24 PUSH0 REVERT JUMPDEST PUSH0 PUSH2 0x238D DUP3 PUSH2 0x188B JUMP JUMPDEST SWAP2 POP PUSH2 0x2398 DUP4 PUSH2 0x188B JUMP JUMPDEST SWAP3 POP DUP3 DUP3 SUB SWAP1 POP DUP2 DUP2 GT ISZERO PUSH2 0x23B0 JUMPI PUSH2 0x23AF PUSH2 0x2356 JUMP JUMPDEST JUMPDEST SWAP3 SWAP2 POP POP JUMP JUMPDEST PUSH32 0x4E487B7100000000000000000000000000000000000000000000000000000000 PUSH0 MSTORE PUSH1 0x32 PUSH1 0x4 MSTORE PUSH1 0x24 PUSH0 REVERT JUMPDEST PUSH0 PUSH2 0x23ED DUP3 PUSH2 0x188B JUMP JUMPDEST SWAP2 POP PUSH32 0xFFFFFFFFFFFFFFFFFFFFFFFFFFFFFFFFFFFFFFFFFFFFFFFFFFFFFFFFFFFFFFFF DUP3 SUB PUSH2 0x241F JUMPI PUSH2 0x241E PUSH2 0x2356 JUMP JUMPDEST JUMPDEST PUSH1 0x1 DUP3 ADD SWAP1 POP SWAP2 SWAP1 POP JUMP JUMPDEST PUSH32 0x4E6F69746520696E76616C696461000000000000000000000000000000000000 PUSH0 DUP3 ADD MSTORE POP JUMP JUMPDEST PUSH0 PUSH2 0x245E PUSH1 0xE DUP4 PUSH2 0x1F59 JUMP JUMPDEST SWAP2 POP PUSH2 0x2469 DUP3 PUSH2 0x242A JUMP JUMPDEST PUSH1 0x20 DUP3 ADD SWAP1 POP SWAP2 SWAP1 POP JUMP JUMPDEST PUSH0 PUSH1 0x20 DUP3 ADD SWAP1 POP DUP2 DUP2 SUB PUSH0 DUP4 ADD MSTORE PUSH2 0x248B DUP2 PUSH2 0x2452 JUMP JUMPDEST SWAP1 POP SWAP2 SWAP1 POP JUMP JUMPDEST PUSH0 DUP2 SWAP1 POP SWAP3 SWAP2 POP POP JUMP JUMPDEST PUSH0 PUSH2 0x24A6 DUP3 PUSH2 0x18A3 JUMP JUMPDEST PUSH2 0x24B0 DUP2 DUP6 PUSH2 0x2492 JUMP JUMPDEST SWAP4 POP PUSH2 0x24C0 DUP2 DUP6 PUSH1 0x20 DUP7 ADD PUSH2 0x18BD JUMP JUMPDEST DUP1 DUP5 ADD SWAP2 POP POP SWAP3 SWAP2 POP POP JUMP JUMPDEST PUSH0 PUSH2 0x24D7 DUP3 DUP5 PUSH2 0x249C JUMP JUMPDEST SWAP2 POP DUP2 SWAP1 POP SWAP3 SWAP2 POP POP JUMP JUMPDEST PUSH32 0x507265636F206E616F20636F6E666967757261646F0000000000000000000000 PUSH0 DUP3 ADD MSTORE POP JUMP JUMPDEST PUSH0 PUSH2 0x2516 PUSH1 0x15 DUP4 PUSH2 0x1F59 JUMP JUMPDEST SWAP2 POP PUSH2 0x2521 DUP3 PUSH2 0x24E2 JUMP JUMPDEST PUSH1 0x20 DUP3 ADD SWAP1 POP SWAP2 SWAP1 POP JUMP JUMPDEST PUSH0 PUSH1 0x20 DUP3 ADD SWAP1 POP DUP2 DUP2 SUB PUSH0 DUP4 ADD MSTORE PUSH2 0x2543 DUP2 PUSH2 0x250A JUMP JUMPDEST SWAP1 POP SWAP2 SWAP1 POP JUMP JUMPDEST PUSH32 0x56616C6F7220696E737566696369656E74650000000000000000000000000000 PUSH0 DUP3 ADD MSTORE POP JUMP JUMPDEST PUSH0 PUSH2 0x257E PUSH1 0x12 DUP4 PUSH2 0x1F59 JUMP JUMPDEST SWAP2 POP PUSH2 0x2589 DUP3 PUSH2 0x254A JUMP JUMPDEST PUSH1 0x20 DUP3 ADD SWAP1 POP SWAP2 SWAP1 POP JUMP JUMPDEST PUSH0 PUSH1 0x20 DUP3 ADD SWAP1 POP DUP2 DUP2 SUB PUSH0 DUP4 ADD MSTORE PUSH2 0x25AB DUP2 PUSH2 0x2572 JUMP JUMPDEST SWAP1 POP SWAP2 SWAP1 POP JUMP JUMPDEST PUSH32 0x4C696D697465206465203220696E67726573736F7320706F7220435046206174 PUSH0 DUP3 ADD MSTORE PUSH32 0x696E6769646F0000000000000000000000000000000000000000000000000000 PUSH1 0x20 DUP3 ADD MSTORE POP JUMP JUMPDEST PUSH0 PUSH2 0x260C PUSH1 0x26 DUP4 PUSH2 0x1F59 JUMP JUMPDEST SWAP2 POP PUSH2 0x2617 DUP3 PUSH2 0x25B2 JUMP JUMPDEST PUSH1 0x40 DUP3 ADD SWAP1 POP SWAP2 SWAP1 POP JUMP JUMPDEST PUSH0 PUSH1 0x20 DUP3 ADD SWAP1 POP DUP2 DUP2 SUB PUSH0 DUP4 ADD MSTORE PUSH2 0x2639 DUP2 PUSH2 0x2600 JUMP JUMPDEST SWAP1 POP SWAP2 SWAP1 POP JUMP JUMPDEST PUSH0 DUP2 SWAP1 POP DUP2 PUSH0 MSTORE PUSH1 0x20 PUSH0 KECCAK256 SWAP1 POP SWAP2 SWAP1 POP JUMP JUMPDEST PUSH0 PUSH1 0x20 PUSH1 0x1F DUP4 ADD DIV SWAP1 POP SWAP2 SWAP1 POP JUMP JUMPDEST PUSH0 DUP3 DUP3 SHL SWAP1 POP SWAP3 SWAP2 POP POP JUMP JUMPDEST PUSH0 PUSH1 0x8 DUP4 MUL PUSH2 0x269C PUSH32 0xFFFFFFFFFFFFFFFFFFFFFFFFFFFFFFFFFFFFFFFFFFFFFFFFFFFFFFFFFFFFFFFF DUP3 PUSH2 0x2661 JUMP JUMPDEST PUSH2 0x26A6 DUP7 DUP4 PUSH2 0x2661 JUMP JUMPDEST SWAP6 POP DUP1 NOT DUP5 AND SWAP4 POP DUP1 DUP7 AND DUP5 OR SWAP3 POP POP POP SWAP4 SWAP3 POP POP POP JUMP JUMPDEST PUSH0 DUP2 SWAP1 POP SWAP2 SWAP1 POP JUMP JUMPDEST PUSH0 PUSH2 0x26E1 PUSH2 0x26DC PUSH2 0x26D7 DUP5 PUSH2 0x188B JUMP JUMPDEST PUSH2 0x26BE JUMP JUMPDEST PUSH2 0x188B JUMP JUMPDEST SWAP1 POP SWAP2 SWAP1 POP JUMP JUMPDEST PUSH0 DUP2 SWAP1 POP SWAP2 SWAP1 POP JUMP JUMPDEST PUSH2 0x26FA DUP4 PUSH2 0x26C7 JUMP JUMPDEST PUSH2 0x270E PUSH2 0x2706 DUP3 PUSH2 0x26E8 JUMP JUMPDEST DUP5 DUP5 SLOAD PUSH2 0x266D JUMP JUMPDEST DUP3 SSTORE POP POP POP POP JUMP JUMPDEST PUSH0 PUSH0 SWAP1 POP SWAP1 JUMP JUMPDEST PUSH2 0x2725 PUSH2 0x2716 JUMP JUMPDEST PUSH2 0x2730 DUP2 DUP5 DUP5 PUSH2 0x26F1 JUMP JUMPDEST POP POP POP JUMP JUMPDEST JUMPDEST DUP2 DUP2 LT ISZERO PUSH2 0x2753 JUMPI PUSH2 0x2748 PUSH0 DUP3 PUSH2 0x271D JUMP JUMPDEST PUSH1 0x1 DUP2 ADD SWAP1 POP PUSH2 0x2736 JUMP JUMPDEST POP POP JUMP JUMPDEST PUSH1 0x1F DUP3 GT ISZERO PUSH2 0x2798 JUMPI PUSH2 0x2769 DUP2 PUSH2 0x2640 JUMP JUMPDEST PUSH2 0x2772 DUP5 PUSH2 0x2652 JUMP JUMPDEST DUP2 ADD PUSH1 0x20 DUP6 LT ISZERO PUSH2 0x2781 JUMPI DUP2 SWAP1 POP JUMPDEST PUSH2 0x2795 PUSH2 0x278D DUP6 PUSH2 0x2652 JUMP JUMPDEST DUP4 ADD DUP3 PUSH2 0x2735 JUMP JUMPDEST POP POP JUMPDEST POP POP POP JUMP JUMPDEST PUSH0 DUP3 DUP3 SHR SWAP1 POP SWAP3 SWAP2 POP POP JUMP JUMPDEST PUSH0 PUSH2 0x27B8 PUSH0 NOT DUP5 PUSH1 0x8 MUL PUSH2 0x279D JUMP JUMPDEST NOT DUP1 DUP4 AND SWAP2 POP POP SWAP3 SWAP2 POP POP JUMP JUMPDEST PUSH0 PUSH2 0x27D0 DUP4 DUP4 PUSH2 0x27A9 JUMP JUMPDEST SWAP2 POP DUP3 PUSH1 0x2 MUL DUP3 OR SWAP1 POP SWAP3 SWAP2 POP POP JUMP JUMPDEST PUSH2 0x27E9 DUP3 PUSH2 0x18A3 JUMP JUMPDEST PUSH8 0xFFFFFFFFFFFFFFFF DUP2 GT ISZERO PUSH2 0x2802 JUMPI PUSH2 0x2801 PUSH2 0x1B12 JUMP JUMPDEST JUMPDEST PUSH2 0x280C DUP3 SLOAD PUSH2 0x2326 JUMP JUMPDEST PUSH2 0x2817 DUP3 DUP3 DUP6 PUSH2 0x2757 JUMP JUMPDEST PUSH0 PUSH1 0x20 SWAP1 POP PUSH1 0x1F DUP4 GT PUSH1 0x1 DUP2 EQ PUSH2 0x2848 JUMPI PUSH0 DUP5 ISZERO PUSH2 0x2836 JUMPI DUP3 DUP8 ADD MLOAD SWAP1 POP JUMPDEST PUSH2 0x2840 DUP6 DUP3 PUSH2 0x27C5 JUMP JUMPDEST DUP7 SSTORE POP PUSH2 0x28A7 JUMP JUMPDEST PUSH1 0x1F NOT DUP5 AND PUSH2 0x2856 DUP7 PUSH2 0x2640 JUMP JUMPDEST PUSH0 JUMPDEST DUP3 DUP2 LT ISZERO PUSH2 0x287D JUMPI DUP5 DUP10 ADD MLOAD DUP3 SSTORE PUSH1 0x1 DUP3 ADD SWAP2 POP PUSH1 0x20 DUP6 ADD SWAP5 POP PUSH1 0x20 DUP2 ADD SWAP1 POP PUSH2 0x2858 JUMP JUMPDEST DUP7 DUP4 LT ISZERO PUSH2 0x289A JUMPI DUP5 DUP10 ADD MLOAD PUSH2 0x2896 PUSH1 0x1F DUP10 AND DUP3 PUSH2 0x27A9 JUMP JUMPDEST DUP4 SSTORE POP JUMPDEST PUSH1 0x1 PUSH1 0x2 DUP9 MUL ADD DUP9 SSTORE POP POP POP JUMPDEST POP POP POP POP POP POP JUMP JUMPDEST PUSH32 0x536F6D656E7465206F20646F6E6F20706F646520657865637574617200000000 PUSH0 DUP3 ADD MSTORE POP JUMP JUMPDEST PUSH0 PUSH2 0x28E3 PUSH1 0x1C DUP4 PUSH2 0x1F59 JUMP JUMPDEST SWAP2 POP PUSH2 0x28EE DUP3 PUSH2 0x28AF JUMP JUMPDEST PUSH1 0x20 DUP3 ADD SWAP1 POP SWAP2 SWAP1 POP JUMP JUMPDEST PUSH0 PUSH1 0x20 DUP3 ADD SWAP1 POP DUP2 DUP2 SUB PUSH0 DUP4 ADD MSTORE PUSH2 0x2910 DUP2 PUSH2 0x28D7 JUMP JUMPDEST SWAP1 POP SWAP2 SWAP1 POP JUMP JUMPDEST PUSH0 DUP2 SWAP1 POP SWAP2 SWAP1 POP JUMP JUMPDEST PUSH0 PUSH2 0x293A PUSH2 0x2935 PUSH2 0x2930 DUP5 PUSH2 0x2917 JUMP JUMPDEST PUSH2 0x26BE JUMP JUMPDEST PUSH2 0x1913 JUMP JUMPDEST SWAP1 POP SWAP2 SWAP1 POP JUMP JUMPDEST PUSH2 0x294A DUP2 PUSH2 0x2920 JUMP JUMPDEST DUP3 MSTORE POP POP JUMP JUMPDEST PUSH0 PUSH2 0x100 DUP3 ADD SWAP1 POP PUSH2 0x2964 PUSH0 DUP4 ADD DUP12 PUSH2 0x1CDA JUMP JUMPDEST DUP2 DUP2 SUB PUSH1 0x20 DUP4 ADD MSTORE PUSH2 0x2976 DUP2 DUP11 PUSH2 0x1F69 JUMP JUMPDEST SWAP1 POP DUP2 DUP2 SUB PUSH1 0x40 DUP4 ADD MSTORE PUSH2 0x298A DUP2 DUP10 PUSH2 0x1F69 JUMP JUMPDEST SWAP1 POP DUP2 DUP2 SUB PUSH1 0x60 DUP4 ADD MSTORE PUSH2 0x299E DUP2 DUP9 PUSH2 0x1F69 JUMP JUMPDEST SWAP1 POP PUSH2 0x29AD PUSH1 0x80 DUP4 ADD DUP8 PUSH2 0x2941 JUMP JUMPDEST DUP2 DUP2 SUB PUSH1 0xA0 DUP4 ADD MSTORE PUSH2 0x29BF DUP2 DUP7 PUSH2 0x1F69 JUMP JUMPDEST SWAP1 POP PUSH2 0x29CE PUSH1 0xC0 DUP4 ADD DUP6 PUSH2 0x1FB0 JUMP JUMPDEST PUSH2 0x29DB PUSH1 0xE0 DUP4 ADD DUP5 PUSH2 0x1FBF JUMP JUMPDEST SWAP10 SWAP9 POP POP POP POP POP POP POP POP POP JUMP INVALID LOG2 PUSH5 0x6970667358 0x22 SLT KECCAK256 DUP4 DUP3 0xC2 0xDF 0xD0 SSTORE PUSH18 0xFD17174BD85210312C194E64CABA6FC3C345 ADD PUSH25 0xAC709569A364736F6C634300081E0033000000000000000000 "
				},
				"gasEstimates": {
					"creation": {
						"codeDepositCost": "2156400",
						"executionCost": "26556",
						"totalCost": "2182956"
					},
					"external": {
						"comprarAvulso(string,string,uint8,string,bytes32)": "infinite",
						"comprarPassaporte(string,string,string,bytes32)": "infinite",
						"ingressoCount()": "2535",
						"ingressos(uint256)": "infinite",
						"ingressosPorCpf(bytes32)": "2821",
						"listarIngressos()": "infinite",
						"listarIngressosDisponiveis()": "infinite",
						"owner()": "2529",
						"precos(string,string,string)": "infinite",
						"sacar()": "infinite",
						"setPreco(string,string,string,uint256)": "infinite"
					}
				},
				"methodIdentifiers": {
					"comprarAvulso(string,string,uint8,string,bytes32)": "38224aa7",
					"comprarPassaporte(string,string,string,bytes32)": "ab879f7e",
					"ingressoCount()": "c36deb0c",
					"ingressos(uint256)": "574ccbc6",
					"ingressosPorCpf(bytes32)": "451a7f1e",
					"listarIngressos()": "2b6e7eb4",
					"listarIngressosDisponiveis()": "931d66da",
					"owner()": "8da5cb5b",
					"precos(string,string,string)": "377633cb",
					"sacar()": "a51068c8",
					"setPreco(string,string,string,uint256)": "4d4d2bf2"
				}
			},
			"storageLayout": {
				"storage": [
					{
						"astId": 3,
						"contract": "ParintinsIngressos.sol:ParintinsIngressos",
						"label": "owner",
						"offset": 0,
						"slot": "0",
						"type": "t_address"
					},
					{
						"astId": 22,
						"contract": "ParintinsIngressos.sol:ParintinsIngressos",
						"label": "ingressoCount",
						"offset": 0,
						"slot": "1",
						"type": "t_uint256"
					},
					{
						"astId": 27,
						"contract": "ParintinsIngressos.sol:ParintinsIngressos",
						"label": "ingressos",
						"offset": 0,
						"slot": "2",
						"type": "t_mapping(t_uint256,t_struct(Ingresso)20_storage)"
					},
					{
						"astId": 35,
						"contract": "ParintinsIngressos.sol:ParintinsIngressos",
						"label": "precos",
						"offset": 0,
						"slot": "3",
						"type": "t_mapping(t_string_memory_ptr,t_mapping(t_string_memory_ptr,t_mapping(t_string_memory_ptr,t_uint256)))"
					},
					{
						"astId": 39,
						"contract": "ParintinsIngressos.sol:ParintinsIngressos",
						"label": "ingressosPorCpf",
						"offset": 0,
						"slot": "4",
						"type": "t_mapping(t_bytes32,t_uint256)"
					}
				],
				"types": {
					"t_address": {
						"encoding": "inplace",
						"label": "address",
						"numberOfBytes": "20"
					},
					"t_bytes32": {
						"encoding": "inplace",
						"label": "bytes32",
						"numberOfBytes": "32"
					},
					"t_mapping(t_bytes32,t_uint256)": {
						"encoding": "mapping",
						"key": "t_bytes32",
						"label": "mapping(bytes32 => uint256)",
						"numberOfBytes": "32",
						"value": "t_uint256"
					},
					"t_mapping(t_string_memory_ptr,t_mapping(t_string_memory_ptr,t_mapping(t_string_memory_ptr,t_uint256)))": {
						"encoding": "mapping",
						"key": "t_string_memory_ptr",
						"label": "mapping(string => mapping(string => mapping(string => uint256)))",
						"numberOfBytes": "32",
						"value": "t_mapping(t_string_memory_ptr,t_mapping(t_string_memory_ptr,t_uint256))"
					},
					"t_mapping(t_string_memory_ptr,t_mapping(t_string_memory_ptr,t_uint256))": {
						"encoding": "mapping",
						"key": "t_string_memory_ptr",
						"label": "mapping(string => mapping(string => uint256))",
						"numberOfBytes": "32",
						"value": "t_mapping(t_string_memory_ptr,t_uint256)"
					},
					"t_mapping(t_string_memory_ptr,t_uint256)": {
						"encoding": "mapping",
						"key": "t_string_memory_ptr",
						"label": "mapping(string => uint256)",
						"numberOfBytes": "32",
						"value": "t_uint256"
					},
					"t_mapping(t_uint256,t_struct(Ingresso)20_storage)": {
						"encoding": "mapping",
						"key": "t_uint256",
						"label": "mapping(uint256 => struct ParintinsIngressos.Ingresso)",
						"numberOfBytes": "32",
						"value": "t_struct(Ingresso)20_storage"
					},
					"t_string_memory_ptr": {
						"encoding": "bytes",
						"label": "string",
						"numberOfBytes": "32"
					},
					"t_string_storage": {
						"encoding": "bytes",
						"label": "string",
						"numberOfBytes": "32"
					},
					"t_struct(Ingresso)20_storage": {
						"encoding": "inplace",
						"label": "struct ParintinsIngressos.Ingresso",
						"members": [
							{
								"astId": 5,
								"contract": "ParintinsIngressos.sol:ParintinsIngressos",
								"label": "id",
								"offset": 0,
								"slot": "0",
								"type": "t_uint256"
							},
							{
								"astId": 7,
								"contract": "ParintinsIngressos.sol:ParintinsIngressos",
								"label": "tipo",
								"offset": 0,
								"slot": "1",
								"type": "t_string_storage"
							},
							{
								"astId": 9,
								"contract": "ParintinsIngressos.sol:ParintinsIngressos",
								"label": "area",
								"offset": 0,
								"slot": "2",
								"type": "t_string_storage"
							},
							{
								"astId": 11,
								"contract": "ParintinsIngressos.sol:ParintinsIngressos",
								"label": "tipoPreco",
								"offset": 0,
								"slot": "3",
								"type": "t_string_storage"
							},
							{
								"astId": 13,
								"contract": "ParintinsIngressos.sol:ParintinsIngressos",
								"label": "noite",
								"offset": 0,
								"slot": "4",
								"type": "t_uint8"
							},
							{
								"astId": 15,
								"contract": "ParintinsIngressos.sol:ParintinsIngressos",
								"label": "lado",
								"offset": 0,
								"slot": "5",
								"type": "t_string_storage"
							},
							{
								"astId": 17,
								"contract": "ParintinsIngressos.sol:ParintinsIngressos",
								"label": "comprador",
								"offset": 0,
								"slot": "6",
								"type": "t_address"
							},
							{
								"astId": 19,
								"contract": "ParintinsIngressos.sol:ParintinsIngressos",
								"label": "cpfComprador",
								"offset": 0,
								"slot": "7",
								"type": "t_bytes32"
							}
						],
						"numberOfBytes": "256"
					},
					"t_uint256": {
						"encoding": "inplace",
						"label": "uint256",
						"numberOfBytes": "32"
					},
					"t_uint8": {
						"encoding": "inplace",
						"label": "uint8",
						"numberOfBytes": "1"
					}
				}
			},
			"userdoc": {
				"kind": "user",
				"methods": {},
				"version": 1
			}
		}
	}
}