{
	"TesteParintinsIngressos.sol": {
		"ParintinsIngressos": {
			"abi": [
				{
					"inputs": [],
					"stateMutability": "nonpayable",
					"type": "constructor"
				},
				{
					"anonymous": false,
					"inputs": [
						{
							"indexed": false,
							"internalType": "uint256",
							"name": "id",
							"type": "uint256"
						},
						{
							"indexed": false,
							"internalType": "string",
							"name": "tipo",
							"type": "string"
						},
						{
							"indexed": false,
							"internalType": "string",
							"name": "area",
							"type": "string"
						},
						{
							"indexed": false,
							"internalType": "string",
							"name": "tipoPreco",
							"type": "string"
						},
						{
							"indexed": false,
							"internalType": "uint8",
							"name": "noite",
							"type": "uint8"
						},
						{
							"indexed": false,
							"internalType": "string",
							"name": "lado",
							"type": "string"
						},
						{
							"indexed": false,
							"internalType": "address",
							"name": "comprador",
							"type": "address"
						}
					],
					"name": "IngressoVendido",
					"type": "event"
				},
				{
					"inputs": [
						{
							"internalType": "string",
							"name": "_area",
							"type": "string"
						},
						{
							"internalType": "string",
							"name": "_tipoPreco",
							"type": "string"
						},
						{
							"internalType": "uint8",
							"name": "_noite",
							"type": "uint8"
						},
						{
							"internalType": "string",
							"name": "_lado",
							"type": "string"
						}
					],
					"name": "comprarAvulso",
					"outputs": [],
					"stateMutability": "payable",
					"type": "function"
				},
				{
					"inputs": [
						{
							"internalType": "string",
							"name": "_area",
							"type": "string"
						},
						{
							"internalType": "string",
							"name": "_tipoPreco",
							"type": "string"
						},
						{
							"internalType": "string",
							"name": "_lado",
							"type": "string"
						}
					],
					"name": "comprarPassaporte",
					"outputs": [],
					"stateMutability": "payable",
					"type": "function"
				},
				{
					"inputs": [],
					"name": "ingressoCount",
					"outputs": [
						{
							"internalType": "uint256",
							"name": "",
							"type": "uint256"
						}
					],
					"stateMutability": "view",
					"type": "function"
				},
				{
					"inputs": [
						{
							"internalType": "uint256",
							"name": "",
							"type": "uint256"
						}
					],
					"name": "ingressos",
					"outputs": [
						{
							"internalType": "uint256",
							"name": "id",
							"type": "uint256"
						},
						{
							"internalType": "string",
							"name": "tipo",
							"type": "string"
						},
						{
							"internalType": "string",
							"name": "area",
							"type": "string"
						},
						{
							"internalType": "string",
							"name": "tipoPreco",
							"type": "string"
						},
						{
							"internalType": "uint8",
							"name": "noite",
							"type": "uint8"
						},
						{
							"internalType": "string",
							"name": "lado",
							"type": "string"
						},
						{
							"internalType": "address",
							"name": "comprador",
							"type": "address"
						}
					],
					"stateMutability": "view",
					"type": "function"
				},
				{
					"inputs": [],
					"name": "listarIngressos",
					"outputs": [
						{
							"components": [
								{
									"internalType": "uint256",
									"name": "id",
									"type": "uint256"
								},
								{
									"internalType": "string",
									"name": "tipo",
									"type": "string"
								},
								{
									"internalType": "string",
									"name": "area",
									"type": "string"
								},
								{
									"internalType": "string",
									"name": "tipoPreco",
									"type": "string"
								},
								{
									"internalType": "uint8",
									"name": "noite",
									"type": "uint8"
								},
								{
									"internalType": "string",
									"name": "lado",
									"type": "string"
								},
								{
									"internalType": "address",
									"name": "comprador",
									"type": "address"
								}
							],
							"internalType": "struct ParintinsIngressos.Ingresso[]",
							"name": "",
							"type": "tuple[]"
						}
					],
					"stateMutability": "view",
					"type": "function"
				},
				{
					"inputs": [],
					"name": "listarIngressosDisponiveis",
					"outputs": [
						{
							"internalType": "string[]",
							"name": "tipos",
							"type": "string[]"
						},
						{
							"internalType": "string[]",
							"name": "areas",
							"type": "string[]"
						},
						{
							"internalType": "string[]",
							"name": "tiposPreco",
							"type": "string[]"
						},
						{
							"internalType": "uint256[]",
							"name": "valores",
							"type": "uint256[]"
						}
					],
					"stateMutability": "view",
					"type": "function"
				},
				{
					"inputs": [],
					"name": "owner",
					"outputs": [
						{
							"internalType": "address",
							"name": "",
							"type": "address"
						}
					],
					"stateMutability": "view",
					"type": "function"
				},
				{
					"inputs": [
						{
							"internalType": "string",
							"name": "",
							"type": "string"
						},
						{
							"internalType": "string",
							"name": "",
							"type": "string"
						},
						{
							"internalType": "string",
							"name": "",
							"type": "string"
						}
					],
					"name": "precos",
					"outputs": [
						{
							"internalType": "uint256",
							"name": "",
							"type": "uint256"
						}
					],
					"stateMutability": "view",
					"type": "function"
				},
				{
					"inputs": [],
					"name": "sacar",
					"outputs": [],
					"stateMutability": "nonpayable",
					"type": "function"
				},
				{
					"inputs": [
						{
							"internalType": "string",
							"name": "_tipo",
							"type": "string"
						},
						{
							"internalType": "string",
							"name": "_area",
							"type": "string"
						},
						{
							"internalType": "string",
							"name": "_tipoPreco",
							"type": "string"
						},
						{
							"internalType": "uint256",
							"name": "_valor",
							"type": "uint256"
						}
					],
					"name": "setPreco",
					"outputs": [],
					"stateMutability": "nonpayable",
					"type": "function"
				}
			],
			"devdoc": {
				"kind": "dev",
				"methods": {},
				"version": 1
			},
			"evm": {
				"assembly": "    /* \"TesteParintinsIngressos.sol\":81:5549  contract ParintinsIngressos {\r... */\n  mstore(0x40, 0x80)\n    /* \"TesteParintinsIngressos.sol\":1120:1171  constructor() {\r... */\n  callvalue\n  dup1\n  iszero\n  tag_1\n  jumpi\n  0x00\n  dup1\n  revert\ntag_1:\n  pop\n    /* \"TesteParintinsIngressos.sol\":1153:1163  msg.sender */\n  caller\n    /* \"TesteParintinsIngressos.sol\":1145:1150  owner */\n  0x00\n  dup1\n    /* \"TesteParintinsIngressos.sol\":1145:1163  owner = msg.sender */\n  0x0100\n  exp\n  dup2\n  sload\n  dup2\n  0xffffffffffffffffffffffffffffffffffffffff\n  mul\n  not\n  and\n  swap1\n  dup4\n  0xffffffffffffffffffffffffffffffffffffffff\n  and\n  mul\n  or\n  swap1\n  sstore\n  pop\n    /* \"TesteParintinsIngressos.sol\":81:5549  contract ParintinsIngressos {\r... */\n  dataSize(sub_0)\n  dup1\n  dataOffset(sub_0)\n  0x00\n  codecopy\n  0x00\n  return\nstop\n\nsub_0: assembly {\n        /* \"TesteParintinsIngressos.sol\":81:5549  contract ParintinsIngressos {\r... */\n      mstore(0x40, 0x80)\n      jumpi(tag_1, lt(calldatasize, 0x04))\n      shr(0xe0, calldataload(0x00))\n      dup1\n      0x8da5cb5b\n      gt\n      tag_12\n      jumpi\n      dup1\n      0x8da5cb5b\n      eq\n      tag_7\n      jumpi\n      dup1\n      0x931d66da\n      eq\n      tag_8\n      jumpi\n      dup1\n      0xa51068c8\n      eq\n      tag_9\n      jumpi\n      dup1\n      0xc36deb0c\n      eq\n      tag_10\n      jumpi\n      dup1\n      0xdd1482dc\n      eq\n      tag_11\n      jumpi\n      jump(tag_1)\n    tag_12:\n      dup1\n      0x06aab3e7\n      eq\n      tag_2\n      jumpi\n      dup1\n      0x2b6e7eb4\n      eq\n      tag_3\n      jumpi\n      dup1\n      0x377633cb\n      eq\n      tag_4\n      jumpi\n      dup1\n      0x4d4d2bf2\n      eq\n      tag_5\n      jumpi\n      dup1\n      0x574ccbc6\n      eq\n      tag_6\n      jumpi\n    tag_1:\n      0x00\n      dup1\n      revert\n        /* \"TesteParintinsIngressos.sol\":2219:3016  function comprarAvulso(string memory _area, string memory _tipoPreco, uint8 _noite, string memory _lado) public payable {\r... */\n    tag_2:\n      tag_13\n      0x04\n      dup1\n      calldatasize\n      sub\n      dup2\n      add\n      swap1\n      tag_14\n      swap2\n      swap1\n      tag_15\n      jump\t// in\n    tag_14:\n      tag_16\n      jump\t// in\n    tag_13:\n      stop\n        /* \"TesteParintinsIngressos.sol\":3058:3328  function listarIngressos() public view returns (Ingresso[] memory) {\r... */\n    tag_3:\n      callvalue\n      dup1\n      iszero\n      tag_17\n      jumpi\n      0x00\n      dup1\n      revert\n    tag_17:\n      pop\n      tag_18\n      tag_19\n      jump\t// in\n    tag_18:\n      mload(0x40)\n      tag_20\n      swap2\n      swap1\n      tag_21\n      jump\t// in\n    tag_20:\n      mload(0x40)\n      dup1\n      swap2\n      sub\n      swap1\n      return\n        /* \"TesteParintinsIngressos.sol\":718:793  mapping(string => mapping(string => mapping(string => uint))) public precos */\n    tag_4:\n      callvalue\n      dup1\n      iszero\n      tag_22\n      jumpi\n      0x00\n      dup1\n      revert\n    tag_22:\n      pop\n      tag_23\n      0x04\n      dup1\n      calldatasize\n      sub\n      dup2\n      add\n      swap1\n      tag_24\n      swap2\n      swap1\n      tag_25\n      jump\t// in\n    tag_24:\n      tag_26\n      jump\t// in\n    tag_23:\n      mload(0x40)\n      tag_27\n      swap2\n      swap1\n      tag_28\n      jump\t// in\n    tag_27:\n      mload(0x40)\n      dup1\n      swap2\n      sub\n      swap1\n      return\n        /* \"TesteParintinsIngressos.sol\":1230:1406  function setPreco(string memory _tipo, string memory _area, string memory _tipoPreco, uint _valor) public onlyOwner {\r... */\n    tag_5:\n      callvalue\n      dup1\n      iszero\n      tag_29\n      jumpi\n      0x00\n      dup1\n      revert\n    tag_29:\n      pop\n      tag_30\n      0x04\n      dup1\n      calldatasize\n      sub\n      dup2\n      add\n      swap1\n      tag_31\n      swap2\n      swap1\n      tag_32\n      jump\t// in\n    tag_31:\n      tag_33\n      jump\t// in\n    tag_30:\n      stop\n        /* \"TesteParintinsIngressos.sol\":607:649  mapping(uint => Ingresso) public ingressos */\n    tag_6:\n      callvalue\n      dup1\n      iszero\n      tag_34\n      jumpi\n      0x00\n      dup1\n      revert\n    tag_34:\n      pop\n      tag_35\n      0x04\n      dup1\n      calldatasize\n      sub\n      dup2\n      add\n      swap1\n      tag_36\n      swap2\n      swap1\n      tag_37\n      jump\t// in\n    tag_36:\n      tag_38\n      jump\t// in\n    tag_35:\n      mload(0x40)\n      tag_39\n      swap8\n      swap7\n      swap6\n      swap5\n      swap4\n      swap3\n      swap2\n      swap1\n      tag_40\n      jump\t// in\n    tag_39:\n      mload(0x40)\n      dup1\n      swap2\n      sub\n      swap1\n      return\n        /* \"TesteParintinsIngressos.sol\":116:136  address public owner */\n    tag_7:\n      callvalue\n      dup1\n      iszero\n      tag_41\n      jumpi\n      0x00\n      dup1\n      revert\n    tag_41:\n      pop\n      tag_42\n      tag_43\n      jump\t// in\n    tag_42:\n      mload(0x40)\n      tag_44\n      swap2\n      swap1\n      tag_45\n      jump\t// in\n    tag_44:\n      mload(0x40)\n      dup1\n      swap2\n      sub\n      swap1\n      return\n        /* \"TesteParintinsIngressos.sol\":3418:5407  function listarIngressosDisponiveis() public view returns (\r... */\n    tag_8:\n      callvalue\n      dup1\n      iszero\n      tag_46\n      jumpi\n      0x00\n      dup1\n      revert\n    tag_46:\n      pop\n      tag_47\n      tag_48\n      jump\t// in\n    tag_47:\n      mload(0x40)\n      tag_49\n      swap5\n      swap4\n      swap3\n      swap2\n      swap1\n      tag_50\n      jump\t// in\n    tag_49:\n      mload(0x40)\n      dup1\n      swap2\n      sub\n      swap1\n      return\n        /* \"TesteParintinsIngressos.sol\":5447:5546  function sacar() public onlyOwner {\r... */\n    tag_9:\n      callvalue\n      dup1\n      iszero\n      tag_51\n      jumpi\n      0x00\n      dup1\n      revert\n    tag_51:\n      pop\n      tag_52\n      tag_53\n      jump\t// in\n    tag_52:\n      stop\n        /* \"TesteParintinsIngressos.sol\":575:600  uint public ingressoCount */\n    tag_10:\n      callvalue\n      dup1\n      iszero\n      tag_54\n      jumpi\n      0x00\n      dup1\n      revert\n    tag_54:\n      pop\n      tag_55\n      tag_56\n      jump\t// in\n    tag_55:\n      mload(0x40)\n      tag_57\n      swap2\n      swap1\n      tag_28\n      jump\t// in\n    tag_57:\n      mload(0x40)\n      dup1\n      swap2\n      sub\n      swap1\n      return\n        /* \"TesteParintinsIngressos.sol\":1452:2169  function comprarPassaporte(string memory _area, string memory _tipoPreco, string memory _lado) public payable {\r... */\n    tag_11:\n      tag_58\n      0x04\n      dup1\n      calldatasize\n      sub\n      dup2\n      add\n      swap1\n      tag_59\n      swap2\n      swap1\n      tag_25\n      jump\t// in\n    tag_59:\n      tag_60\n      jump\t// in\n    tag_58:\n      stop\n        /* \"TesteParintinsIngressos.sol\":2219:3016  function comprarAvulso(string memory _area, string memory _tipoPreco, uint8 _noite, string memory _lado) public payable {\r... */\n    tag_16:\n        /* \"TesteParintinsIngressos.sol\":2368:2369  1 */\n      0x01\n        /* \"TesteParintinsIngressos.sol\":2358:2364  _noite */\n      dup3\n        /* \"TesteParintinsIngressos.sol\":2358:2369  _noite >= 1 */\n      0xff\n      and\n      lt\n      iszero\n        /* \"TesteParintinsIngressos.sol\":2358:2384  _noite >= 1 && _noite <= 3 */\n      dup1\n      iszero\n      tag_62\n      jumpi\n      pop\n        /* \"TesteParintinsIngressos.sol\":2383:2384  3 */\n      0x03\n        /* \"TesteParintinsIngressos.sol\":2373:2379  _noite */\n      dup3\n        /* \"TesteParintinsIngressos.sol\":2373:2384  _noite <= 3 */\n      0xff\n      and\n      gt\n      iszero\n        /* \"TesteParintinsIngressos.sol\":2358:2384  _noite >= 1 && _noite <= 3 */\n    tag_62:\n        /* \"TesteParintinsIngressos.sol\":2350:2403  require(_noite >= 1 && _noite <= 3, \"Noite invalida\") */\n      tag_63\n      jumpi\n      mload(0x40)\n      0x08c379a000000000000000000000000000000000000000000000000000000000\n      dup2\n      mstore\n      0x04\n      add\n      tag_64\n      swap1\n      tag_65\n      jump\t// in\n    tag_64:\n      mload(0x40)\n      dup1\n      swap2\n      sub\n      swap1\n      revert\n    tag_63:\n        /* \"TesteParintinsIngressos.sol\":2414:2432  string memory tipo */\n      0x00\n        /* \"TesteParintinsIngressos.sol\":2414:2443  string memory tipo = \"Avulso\" */\n      mload(0x40)\n      dup1\n      0x40\n      add\n      0x40\n      mstore\n      dup1\n      0x06\n      dup2\n      mstore\n      0x20\n      add\n      0x4176756c736f0000000000000000000000000000000000000000000000000000\n      dup2\n      mstore\n      pop\n      swap1\n      pop\n        /* \"TesteParintinsIngressos.sol\":2454:2464  uint preco */\n      0x00\n        /* \"TesteParintinsIngressos.sol\":2467:2473  precos */\n      0x03\n        /* \"TesteParintinsIngressos.sol\":2474:2478  tipo */\n      dup3\n        /* \"TesteParintinsIngressos.sol\":2467:2479  precos[tipo] */\n      mload(0x40)\n      tag_66\n      swap2\n      swap1\n      tag_67\n      jump\t// in\n    tag_66:\n      swap1\n      dup2\n      mstore\n      0x20\n      add\n      mload(0x40)\n      dup1\n      swap2\n      sub\n      swap1\n      keccak256\n        /* \"TesteParintinsIngressos.sol\":2480:2485  _area */\n      dup7\n        /* \"TesteParintinsIngressos.sol\":2467:2486  precos[tipo][_area] */\n      mload(0x40)\n      tag_68\n      swap2\n      swap1\n      tag_67\n      jump\t// in\n    tag_68:\n      swap1\n      dup2\n      mstore\n      0x20\n      add\n      mload(0x40)\n      dup1\n      swap2\n      sub\n      swap1\n      keccak256\n        /* \"TesteParintinsIngressos.sol\":2487:2497  _tipoPreco */\n      dup6\n        /* \"TesteParintinsIngressos.sol\":2467:2498  precos[tipo][_area][_tipoPreco] */\n      mload(0x40)\n      tag_69\n      swap2\n      swap1\n      tag_67\n      jump\t// in\n    tag_69:\n      swap1\n      dup2\n      mstore\n      0x20\n      add\n      mload(0x40)\n      dup1\n      swap2\n      sub\n      swap1\n      keccak256\n      sload\n        /* \"TesteParintinsIngressos.sol\":2454:2498  uint preco = precos[tipo][_area][_tipoPreco] */\n      swap1\n      pop\n        /* \"TesteParintinsIngressos.sol\":2525:2526  0 */\n      0x00\n        /* \"TesteParintinsIngressos.sol\":2517:2522  preco */\n      dup2\n        /* \"TesteParintinsIngressos.sol\":2517:2526  preco > 0 */\n      gt\n        /* \"TesteParintinsIngressos.sol\":2509:2552  require(preco > 0, \"Preco nao configurado\") */\n      tag_70\n      jumpi\n      mload(0x40)\n      0x08c379a000000000000000000000000000000000000000000000000000000000\n      dup2\n      mstore\n      0x04\n      add\n      tag_71\n      swap1\n      tag_72\n      jump\t// in\n    tag_71:\n      mload(0x40)\n      dup1\n      swap2\n      sub\n      swap1\n      revert\n    tag_70:\n        /* \"TesteParintinsIngressos.sol\":2584:2589  preco */\n      dup1\n        /* \"TesteParintinsIngressos.sol\":2571:2580  msg.value */\n      callvalue\n        /* \"TesteParintinsIngressos.sol\":2571:2589  msg.value >= preco */\n      lt\n      iszero\n        /* \"TesteParintinsIngressos.sol\":2563:2612  require(msg.value >= preco, \"Valor insuficiente\") */\n      tag_73\n      jumpi\n      mload(0x40)\n      0x08c379a000000000000000000000000000000000000000000000000000000000\n      dup2\n      mstore\n      0x04\n      add\n      tag_74\n      swap1\n      tag_75\n      jump\t// in\n    tag_74:\n      mload(0x40)\n      dup1\n      swap2\n      sub\n      swap1\n      revert\n    tag_73:\n        /* \"TesteParintinsIngressos.sol\":2625:2638  ingressoCount */\n      0x01\n      0x00\n        /* \"TesteParintinsIngressos.sol\":2625:2640  ingressoCount++ */\n      dup2\n      sload\n      dup1\n      swap3\n      swap2\n      swap1\n      tag_76\n      swap1\n      tag_77\n      jump\t// in\n    tag_76:\n      swap2\n      swap1\n      pop\n      sstore\n      pop\n        /* \"TesteParintinsIngressos.sol\":2678:2908  Ingresso({\r... */\n      mload(0x40)\n      dup1\n      0xe0\n      add\n      0x40\n      mstore\n      dup1\n        /* \"TesteParintinsIngressos.sol\":2706:2719  ingressoCount */\n      sload(0x01)\n        /* \"TesteParintinsIngressos.sol\":2678:2908  Ingresso({\r... */\n      dup2\n      mstore\n      0x20\n      add\n        /* \"TesteParintinsIngressos.sol\":2740:2744  tipo */\n      dup4\n        /* \"TesteParintinsIngressos.sol\":2678:2908  Ingresso({\r... */\n      dup2\n      mstore\n      0x20\n      add\n        /* \"TesteParintinsIngressos.sol\":2765:2770  _area */\n      dup8\n        /* \"TesteParintinsIngressos.sol\":2678:2908  Ingresso({\r... */\n      dup2\n      mstore\n      0x20\n      add\n        /* \"TesteParintinsIngressos.sol\":2796:2806  _tipoPreco */\n      dup7\n        /* \"TesteParintinsIngressos.sol\":2678:2908  Ingresso({\r... */\n      dup2\n      mstore\n      0x20\n      add\n        /* \"TesteParintinsIngressos.sol\":2828:2834  _noite */\n      dup6\n        /* \"TesteParintinsIngressos.sol\":2678:2908  Ingresso({\r... */\n      0xff\n      and\n      dup2\n      mstore\n      0x20\n      add\n        /* \"TesteParintinsIngressos.sol\":2855:2860  _lado */\n      dup5\n        /* \"TesteParintinsIngressos.sol\":2678:2908  Ingresso({\r... */\n      dup2\n      mstore\n      0x20\n      add\n        /* \"TesteParintinsIngressos.sol\":2886:2896  msg.sender */\n      caller\n        /* \"TesteParintinsIngressos.sol\":2678:2908  Ingresso({\r... */\n      0xffffffffffffffffffffffffffffffffffffffff\n      and\n      dup2\n      mstore\n      pop\n        /* \"TesteParintinsIngressos.sol\":2651:2660  ingressos */\n      0x02\n        /* \"TesteParintinsIngressos.sol\":2651:2675  ingressos[ingressoCount] */\n      0x00\n        /* \"TesteParintinsIngressos.sol\":2661:2674  ingressoCount */\n      sload(0x01)\n        /* \"TesteParintinsIngressos.sol\":2651:2675  ingressos[ingressoCount] */\n      dup2\n      mstore\n      0x20\n      add\n      swap1\n      dup2\n      mstore\n      0x20\n      add\n      0x00\n      keccak256\n        /* \"TesteParintinsIngressos.sol\":2651:2908  ingressos[ingressoCount] = Ingresso({\r... */\n      0x00\n      dup3\n      add\n      mload\n      dup2\n      0x00\n      add\n      sstore\n      0x20\n      dup3\n      add\n      mload\n      dup2\n      0x01\n      add\n      swap1\n      dup1\n      mload\n      swap1\n      0x20\n      add\n      swap1\n      tag_78\n      swap3\n      swap2\n      swap1\n      tag_79\n      jump\t// in\n    tag_78:\n      pop\n      0x40\n      dup3\n      add\n      mload\n      dup2\n      0x02\n      add\n      swap1\n      dup1\n      mload\n      swap1\n      0x20\n      add\n      swap1\n      tag_80\n      swap3\n      swap2\n      swap1\n      tag_79\n      jump\t// in\n    tag_80:\n      pop\n      0x60\n      dup3\n      add\n      mload\n      dup2\n      0x03\n      add\n      swap1\n      dup1\n      mload\n      swap1\n      0x20\n      add\n      swap1\n      tag_81\n      swap3\n      swap2\n      swap1\n      tag_79\n      jump\t// in\n    tag_81:\n      pop\n      0x80\n      dup3\n      add\n      mload\n      dup2\n      0x04\n      add\n      exp(0x0100, 0x00)\n      dup2\n      sload\n      dup2\n      0xff\n      mul\n      not\n      and\n      swap1\n      dup4\n      0xff\n      and\n      mul\n      or\n      swap1\n      sstore\n      pop\n      0xa0\n      dup3\n      add\n      mload\n      dup2\n      0x05\n      add\n      swap1\n      dup1\n      mload\n      swap1\n      0x20\n      add\n      swap1\n      tag_82\n      swap3\n      swap2\n      swap1\n      tag_79\n      jump\t// in\n    tag_82:\n      pop\n      0xc0\n      dup3\n      add\n      mload\n      dup2\n      0x06\n      add\n      exp(0x0100, 0x00)\n      dup2\n      sload\n      dup2\n      0xffffffffffffffffffffffffffffffffffffffff\n      mul\n      not\n      and\n      swap1\n      dup4\n      0xffffffffffffffffffffffffffffffffffffffff\n      and\n      mul\n      or\n      swap1\n      sstore\n      pop\n      swap1\n      pop\n      pop\n        /* \"TesteParintinsIngressos.sol\":2926:3008  IngressoVendido(ingressoCount, tipo, _area, _tipoPreco, _noite, _lado, msg.sender) */\n      0x914d99cf3a3bf4215d2087d4b5b910906192b4a6dfb364d3746a5a16f3868b76\n        /* \"TesteParintinsIngressos.sol\":2942:2955  ingressoCount */\n      sload(0x01)\n        /* \"TesteParintinsIngressos.sol\":2957:2961  tipo */\n      dup4\n        /* \"TesteParintinsIngressos.sol\":2963:2968  _area */\n      dup9\n        /* \"TesteParintinsIngressos.sol\":2970:2980  _tipoPreco */\n      dup9\n        /* \"TesteParintinsIngressos.sol\":2982:2988  _noite */\n      dup9\n        /* \"TesteParintinsIngressos.sol\":2990:2995  _lado */\n      dup9\n        /* \"TesteParintinsIngressos.sol\":2997:3007  msg.sender */\n      caller\n        /* \"TesteParintinsIngressos.sol\":2926:3008  IngressoVendido(ingressoCount, tipo, _area, _tipoPreco, _noite, _lado, msg.sender) */\n      mload(0x40)\n      tag_83\n      swap8\n      swap7\n      swap6\n      swap5\n      swap4\n      swap3\n      swap2\n      swap1\n      tag_40\n      jump\t// in\n    tag_83:\n      mload(0x40)\n      dup1\n      swap2\n      sub\n      swap1\n      log1\n        /* \"TesteParintinsIngressos.sol\":2219:3016  function comprarAvulso(string memory _area, string memory _tipoPreco, uint8 _noite, string memory _lado) public payable {\r... */\n      pop\n      pop\n      pop\n      pop\n      pop\n      pop\n      jump\t// out\n        /* \"TesteParintinsIngressos.sol\":3058:3328  function listarIngressos() public view returns (Ingresso[] memory) {\r... */\n    tag_19:\n        /* \"TesteParintinsIngressos.sol\":3106:3123  Ingresso[] memory */\n      0x60\n        /* \"TesteParintinsIngressos.sol\":3136:3159  Ingresso[] memory todos */\n      0x00\n        /* \"TesteParintinsIngressos.sol\":3177:3190  ingressoCount */\n      sload(0x01)\n        /* \"TesteParintinsIngressos.sol\":3162:3191  new Ingresso[](ingressoCount) */\n      0xffffffffffffffff\n      dup2\n      gt\n      iszero\n      tag_85\n      jumpi\n      mstore(0x00, 0x4e487b7100000000000000000000000000000000000000000000000000000000)\n      mstore(0x04, 0x41)\n      revert(0x00, 0x24)\n    tag_85:\n      mload(0x40)\n      swap1\n      dup1\n      dup3\n      mstore\n      dup1\n      0x20\n      mul\n      0x20\n      add\n      dup3\n      add\n      0x40\n      mstore\n      dup1\n      iszero\n      tag_86\n      jumpi\n      dup2\n      0x20\n      add\n    tag_87:\n      tag_88\n      tag_89\n      jump\t// in\n    tag_88:\n      dup2\n      mstore\n      0x20\n      add\n      swap1\n      0x01\n      swap1\n      sub\n      swap1\n      dup2\n      tag_87\n      jumpi\n      swap1\n      pop\n    tag_86:\n      pop\n        /* \"TesteParintinsIngressos.sol\":3136:3191  Ingresso[] memory todos = new Ingresso[](ingressoCount) */\n      swap1\n      pop\n        /* \"TesteParintinsIngressos.sol\":3207:3213  uint i */\n      0x00\n        /* \"TesteParintinsIngressos.sol\":3216:3217  1 */\n      0x01\n        /* \"TesteParintinsIngressos.sol\":3207:3217  uint i = 1 */\n      swap1\n      pop\n        /* \"TesteParintinsIngressos.sol\":3202:3298  for (uint i = 1; i <= ingressoCount; i++) {\r... */\n    tag_90:\n        /* \"TesteParintinsIngressos.sol\":3224:3237  ingressoCount */\n      sload(0x01)\n        /* \"TesteParintinsIngressos.sol\":3219:3220  i */\n      dup2\n        /* \"TesteParintinsIngressos.sol\":3219:3237  i <= ingressoCount */\n      gt\n        /* \"TesteParintinsIngressos.sol\":3202:3298  for (uint i = 1; i <= ingressoCount; i++) {\r... */\n      tag_91\n      jumpi\n        /* \"TesteParintinsIngressos.sol\":3274:3283  ingressos */\n      0x02\n        /* \"TesteParintinsIngressos.sol\":3274:3286  ingressos[i] */\n      0x00\n        /* \"TesteParintinsIngressos.sol\":3284:3285  i */\n      dup3\n        /* \"TesteParintinsIngressos.sol\":3274:3286  ingressos[i] */\n      dup2\n      mstore\n      0x20\n      add\n      swap1\n      dup2\n      mstore\n      0x20\n      add\n      0x00\n      keccak256\n        /* \"TesteParintinsIngressos.sol\":3259:3286  todos[i - 1] = ingressos[i] */\n      mload(0x40)\n      dup1\n      0xe0\n      add\n      0x40\n      mstore\n      swap1\n      dup2\n      0x00\n      dup3\n      add\n      sload\n      dup2\n      mstore\n      0x20\n      add\n      0x01\n      dup3\n      add\n      dup1\n      sload\n      tag_93\n      swap1\n      tag_94\n      jump\t// in\n    tag_93:\n      dup1\n      0x1f\n      add\n      0x20\n      dup1\n      swap2\n      div\n      mul\n      0x20\n      add\n      mload(0x40)\n      swap1\n      dup2\n      add\n      0x40\n      mstore\n      dup1\n      swap3\n      swap2\n      swap1\n      dup2\n      dup2\n      mstore\n      0x20\n      add\n      dup3\n      dup1\n      sload\n      tag_95\n      swap1\n      tag_94\n      jump\t// in\n    tag_95:\n      dup1\n      iszero\n      tag_96\n      jumpi\n      dup1\n      0x1f\n      lt\n      tag_97\n      jumpi\n      0x0100\n      dup1\n      dup4\n      sload\n      div\n      mul\n      dup4\n      mstore\n      swap2\n      0x20\n      add\n      swap2\n      jump(tag_96)\n    tag_97:\n      dup3\n      add\n      swap2\n      swap1\n      0x00\n      mstore\n      keccak256(0x00, 0x20)\n      swap1\n    tag_98:\n      dup2\n      sload\n      dup2\n      mstore\n      swap1\n      0x01\n      add\n      swap1\n      0x20\n      add\n      dup1\n      dup4\n      gt\n      tag_98\n      jumpi\n      dup3\n      swap1\n      sub\n      0x1f\n      and\n      dup3\n      add\n      swap2\n    tag_96:\n      pop\n      pop\n      pop\n      pop\n      pop\n      dup2\n      mstore\n      0x20\n      add\n      0x02\n      dup3\n      add\n      dup1\n      sload\n      tag_99\n      swap1\n      tag_94\n      jump\t// in\n    tag_99:\n      dup1\n      0x1f\n      add\n      0x20\n      dup1\n      swap2\n      div\n      mul\n      0x20\n      add\n      mload(0x40)\n      swap1\n      dup2\n      add\n      0x40\n      mstore\n      dup1\n      swap3\n      swap2\n      swap1\n      dup2\n      dup2\n      mstore\n      0x20\n      add\n      dup3\n      dup1\n      sload\n      tag_100\n      swap1\n      tag_94\n      jump\t// in\n    tag_100:\n      dup1\n      iszero\n      tag_101\n      jumpi\n      dup1\n      0x1f\n      lt\n      tag_102\n      jumpi\n      0x0100\n      dup1\n      dup4\n      sload\n      div\n      mul\n      dup4\n      mstore\n      swap2\n      0x20\n      add\n      swap2\n      jump(tag_101)\n    tag_102:\n      dup3\n      add\n      swap2\n      swap1\n      0x00\n      mstore\n      keccak256(0x00, 0x20)\n      swap1\n    tag_103:\n      dup2\n      sload\n      dup2\n      mstore\n      swap1\n      0x01\n      add\n      swap1\n      0x20\n      add\n      dup1\n      dup4\n      gt\n      tag_103\n      jumpi\n      dup3\n      swap1\n      sub\n      0x1f\n      and\n      dup3\n      add\n      swap2\n    tag_101:\n      pop\n      pop\n      pop\n      pop\n      pop\n      dup2\n      mstore\n      0x20\n      add\n      0x03\n      dup3\n      add\n      dup1\n      sload\n      tag_104\n      swap1\n      tag_94\n      jump\t// in\n    tag_104:\n      dup1\n      0x1f\n      add\n      0x20\n      dup1\n      swap2\n      div\n      mul\n      0x20\n      add\n      mload(0x40)\n      swap1\n      dup2\n      add\n      0x40\n      mstore\n      dup1\n      swap3\n      swap2\n      swap1\n      dup2\n      dup2\n      mstore\n      0x20\n      add\n      dup3\n      dup1\n      sload\n      tag_105\n      swap1\n      tag_94\n      jump\t// in\n    tag_105:\n      dup1\n      iszero\n      tag_106\n      jumpi\n      dup1\n      0x1f\n      lt\n      tag_107\n      jumpi\n      0x0100\n      dup1\n      dup4\n      sload\n      div\n      mul\n      dup4\n      mstore\n      swap2\n      0x20\n      add\n      swap2\n      jump(tag_106)\n    tag_107:\n      dup3\n      add\n      swap2\n      swap1\n      0x00\n      mstore\n      keccak256(0x00, 0x20)\n      swap1\n    tag_108:\n      dup2\n      sload\n      dup2\n      mstore\n      swap1\n      0x01\n      add\n      swap1\n      0x20\n      add\n      dup1\n      dup4\n      gt\n      tag_108\n      jumpi\n      dup3\n      swap1\n      sub\n      0x1f\n      and\n      dup3\n      add\n      swap2\n    tag_106:\n      pop\n      pop\n      pop\n      pop\n      pop\n      dup2\n      mstore\n      0x20\n      add\n      0x04\n      dup3\n      add\n      0x00\n      swap1\n      sload\n      swap1\n      0x0100\n      exp\n      swap1\n      div\n      0xff\n      and\n      0xff\n      and\n      0xff\n      and\n      dup2\n      mstore\n      0x20\n      add\n      0x05\n      dup3\n      add\n      dup1\n      sload\n      tag_109\n      swap1\n      tag_94\n      jump\t// in\n    tag_109:\n      dup1\n      0x1f\n      add\n      0x20\n      dup1\n      swap2\n      div\n      mul\n      0x20\n      add\n      mload(0x40)\n      swap1\n      dup2\n      add\n      0x40\n      mstore\n      dup1\n      swap3\n      swap2\n      swap1\n      dup2\n      dup2\n      mstore\n      0x20\n      add\n      dup3\n      dup1\n      sload\n      tag_110\n      swap1\n      tag_94\n      jump\t// in\n    tag_110:\n      dup1\n      iszero\n      tag_111\n      jumpi\n      dup1\n      0x1f\n      lt\n      tag_112\n      jumpi\n      0x0100\n      dup1\n      dup4\n      sload\n      div\n      mul\n      dup4\n      mstore\n      swap2\n      0x20\n      add\n      swap2\n      jump(tag_111)\n    tag_112:\n      dup3\n      add\n      swap2\n      swap1\n      0x00\n      mstore\n      keccak256(0x00, 0x20)\n      swap1\n    tag_113:\n      dup2\n      sload\n      dup2\n      mstore\n      swap1\n      0x01\n      add\n      swap1\n      0x20\n      add\n      dup1\n      dup4\n      gt\n      tag_113\n      jumpi\n      dup3\n      swap1\n      sub\n      0x1f\n      and\n      dup3\n      add\n      swap2\n    tag_111:\n      pop\n      pop\n      pop\n      pop\n      pop\n      dup2\n      mstore\n      0x20\n      add\n      0x06\n      dup3\n      add\n      0x00\n      swap1\n      sload\n      swap1\n      0x0100\n      exp\n      swap1\n      div\n      0xffffffffffffffffffffffffffffffffffffffff\n      and\n      0xffffffffffffffffffffffffffffffffffffffff\n      and\n      0xffffffffffffffffffffffffffffffffffffffff\n      and\n      dup2\n      mstore\n      pop\n      pop\n        /* \"TesteParintinsIngressos.sol\":3259:3264  todos */\n      dup3\n        /* \"TesteParintinsIngressos.sol\":3269:3270  1 */\n      0x01\n        /* \"TesteParintinsIngressos.sol\":3265:3266  i */\n      dup4\n        /* \"TesteParintinsIngressos.sol\":3265:3270  i - 1 */\n      tag_114\n      swap2\n      swap1\n      tag_115\n      jump\t// in\n    tag_114:\n        /* \"TesteParintinsIngressos.sol\":3259:3271  todos[i - 1] */\n      dup2\n      mload\n      dup2\n      lt\n      tag_116\n      jumpi\n      mstore(0x00, 0x4e487b7100000000000000000000000000000000000000000000000000000000)\n      mstore(0x04, 0x32)\n      revert(0x00, 0x24)\n    tag_116:\n      0x20\n      mul\n      0x20\n      add\n      add\n        /* \"TesteParintinsIngressos.sol\":3259:3286  todos[i - 1] = ingressos[i] */\n      dup2\n      swap1\n      mstore\n      pop\n        /* \"TesteParintinsIngressos.sol\":3239:3242  i++ */\n      dup1\n      dup1\n      tag_117\n      swap1\n      tag_77\n      jump\t// in\n    tag_117:\n      swap2\n      pop\n      pop\n        /* \"TesteParintinsIngressos.sol\":3202:3298  for (uint i = 1; i <= ingressoCount; i++) {\r... */\n      jump(tag_90)\n    tag_91:\n      pop\n        /* \"TesteParintinsIngressos.sol\":3315:3320  todos */\n      dup1\n        /* \"TesteParintinsIngressos.sol\":3308:3320  return todos */\n      swap2\n      pop\n      pop\n        /* \"TesteParintinsIngressos.sol\":3058:3328  function listarIngressos() public view returns (Ingresso[] memory) {\r... */\n      swap1\n      jump\t// out\n        /* \"TesteParintinsIngressos.sol\":718:793  mapping(string => mapping(string => mapping(string => uint))) public precos */\n    tag_26:\n      0x03\n      dup4\n      dup1\n      mload\n      0x20\n      dup2\n      add\n      dup3\n      add\n      dup1\n      mload\n      dup5\n      dup3\n      mstore\n      0x20\n      dup4\n      add\n      0x20\n      dup6\n      add\n      keccak256\n      dup2\n      dup4\n      mstore\n      dup1\n      swap6\n      pop\n      pop\n      pop\n      pop\n      pop\n      pop\n      dup3\n      dup1\n      mload\n      0x20\n      dup2\n      add\n      dup3\n      add\n      dup1\n      mload\n      dup5\n      dup3\n      mstore\n      0x20\n      dup4\n      add\n      0x20\n      dup6\n      add\n      keccak256\n      dup2\n      dup4\n      mstore\n      dup1\n      swap6\n      pop\n      pop\n      pop\n      pop\n      pop\n      pop\n      dup2\n      dup1\n      mload\n      0x20\n      dup2\n      add\n      dup3\n      add\n      dup1\n      mload\n      dup5\n      dup3\n      mstore\n      0x20\n      dup4\n      add\n      0x20\n      dup6\n      add\n      keccak256\n      dup2\n      dup4\n      mstore\n      dup1\n      swap6\n      pop\n      pop\n      pop\n      pop\n      pop\n      pop\n      0x00\n      swap3\n      pop\n      swap3\n      pop\n      pop\n      pop\n      sload\n      dup2\n      jump\t// out\n        /* \"TesteParintinsIngressos.sol\":1230:1406  function setPreco(string memory _tipo, string memory _area, string memory _tipoPreco, uint _valor) public onlyOwner {\r... */\n    tag_33:\n        /* \"TesteParintinsIngressos.sol\":1054:1059  owner */\n      0x00\n      dup1\n      sload\n      swap1\n      0x0100\n      exp\n      swap1\n      div\n      0xffffffffffffffffffffffffffffffffffffffff\n      and\n        /* \"TesteParintinsIngressos.sol\":1040:1059  msg.sender == owner */\n      0xffffffffffffffffffffffffffffffffffffffff\n      and\n        /* \"TesteParintinsIngressos.sol\":1040:1050  msg.sender */\n      caller\n        /* \"TesteParintinsIngressos.sol\":1040:1059  msg.sender == owner */\n      0xffffffffffffffffffffffffffffffffffffffff\n      and\n      eq\n        /* \"TesteParintinsIngressos.sol\":1032:1092  require(msg.sender == owner, \"Somente o dono pode executar\") */\n      tag_119\n      jumpi\n      mload(0x40)\n      0x08c379a000000000000000000000000000000000000000000000000000000000\n      dup2\n      mstore\n      0x04\n      add\n      tag_120\n      swap1\n      tag_121\n      jump\t// in\n    tag_120:\n      mload(0x40)\n      dup1\n      swap2\n      sub\n      swap1\n      revert\n    tag_119:\n        /* \"TesteParintinsIngressos.sol\":1392:1398  _valor */\n      dup1\n        /* \"TesteParintinsIngressos.sol\":1357:1363  precos */\n      0x03\n        /* \"TesteParintinsIngressos.sol\":1364:1369  _tipo */\n      dup6\n        /* \"TesteParintinsIngressos.sol\":1357:1370  precos[_tipo] */\n      mload(0x40)\n      tag_123\n      swap2\n      swap1\n      tag_67\n      jump\t// in\n    tag_123:\n      swap1\n      dup2\n      mstore\n      0x20\n      add\n      mload(0x40)\n      dup1\n      swap2\n      sub\n      swap1\n      keccak256\n        /* \"TesteParintinsIngressos.sol\":1371:1376  _area */\n      dup5\n        /* \"TesteParintinsIngressos.sol\":1357:1377  precos[_tipo][_area] */\n      mload(0x40)\n      tag_124\n      swap2\n      swap1\n      tag_67\n      jump\t// in\n    tag_124:\n      swap1\n      dup2\n      mstore\n      0x20\n      add\n      mload(0x40)\n      dup1\n      swap2\n      sub\n      swap1\n      keccak256\n        /* \"TesteParintinsIngressos.sol\":1378:1388  _tipoPreco */\n      dup4\n        /* \"TesteParintinsIngressos.sol\":1357:1389  precos[_tipo][_area][_tipoPreco] */\n      mload(0x40)\n      tag_125\n      swap2\n      swap1\n      tag_67\n      jump\t// in\n    tag_125:\n      swap1\n      dup2\n      mstore\n      0x20\n      add\n      mload(0x40)\n      dup1\n      swap2\n      sub\n      swap1\n      keccak256\n        /* \"TesteParintinsIngressos.sol\":1357:1398  precos[_tipo][_area][_tipoPreco] = _valor */\n      dup2\n      swap1\n      sstore\n      pop\n        /* \"TesteParintinsIngressos.sol\":1230:1406  function setPreco(string memory _tipo, string memory _area, string memory _tipoPreco, uint _valor) public onlyOwner {\r... */\n      pop\n      pop\n      pop\n      pop\n      jump\t// out\n        /* \"TesteParintinsIngressos.sol\":607:649  mapping(uint => Ingresso) public ingressos */\n    tag_38:\n      mstore(0x20, 0x02)\n      dup1\n      0x00\n      mstore\n      keccak256(0x00, 0x40)\n      0x00\n      swap2\n      pop\n      swap1\n      pop\n      dup1\n      0x00\n      add\n      sload\n      swap1\n      dup1\n      0x01\n      add\n      dup1\n      sload\n      tag_126\n      swap1\n      tag_94\n      jump\t// in\n    tag_126:\n      dup1\n      0x1f\n      add\n      0x20\n      dup1\n      swap2\n      div\n      mul\n      0x20\n      add\n      mload(0x40)\n      swap1\n      dup2\n      add\n      0x40\n      mstore\n      dup1\n      swap3\n      swap2\n      swap1\n      dup2\n      dup2\n      mstore\n      0x20\n      add\n      dup3\n      dup1\n      sload\n      tag_127\n      swap1\n      tag_94\n      jump\t// in\n    tag_127:\n      dup1\n      iszero\n      tag_128\n      jumpi\n      dup1\n      0x1f\n      lt\n      tag_129\n      jumpi\n      0x0100\n      dup1\n      dup4\n      sload\n      div\n      mul\n      dup4\n      mstore\n      swap2\n      0x20\n      add\n      swap2\n      jump(tag_128)\n    tag_129:\n      dup3\n      add\n      swap2\n      swap1\n      0x00\n      mstore\n      keccak256(0x00, 0x20)\n      swap1\n    tag_130:\n      dup2\n      sload\n      dup2\n      mstore\n      swap1\n      0x01\n      add\n      swap1\n      0x20\n      add\n      dup1\n      dup4\n      gt\n      tag_130\n      jumpi\n      dup3\n      swap1\n      sub\n      0x1f\n      and\n      dup3\n      add\n      swap2\n    tag_128:\n      pop\n      pop\n      pop\n      pop\n      pop\n      swap1\n      dup1\n      0x02\n      add\n      dup1\n      sload\n      tag_131\n      swap1\n      tag_94\n      jump\t// in\n    tag_131:\n      dup1\n      0x1f\n      add\n      0x20\n      dup1\n      swap2\n      div\n      mul\n      0x20\n      add\n      mload(0x40)\n      swap1\n      dup2\n      add\n      0x40\n      mstore\n      dup1\n      swap3\n      swap2\n      swap1\n      dup2\n      dup2\n      mstore\n      0x20\n      add\n      dup3\n      dup1\n      sload\n      tag_132\n      swap1\n      tag_94\n      jump\t// in\n    tag_132:\n      dup1\n      iszero\n      tag_133\n      jumpi\n      dup1\n      0x1f\n      lt\n      tag_134\n      jumpi\n      0x0100\n      dup1\n      dup4\n      sload\n      div\n      mul\n      dup4\n      mstore\n      swap2\n      0x20\n      add\n      swap2\n      jump(tag_133)\n    tag_134:\n      dup3\n      add\n      swap2\n      swap1\n      0x00\n      mstore\n      keccak256(0x00, 0x20)\n      swap1\n    tag_135:\n      dup2\n      sload\n      dup2\n      mstore\n      swap1\n      0x01\n      add\n      swap1\n      0x20\n      add\n      dup1\n      dup4\n      gt\n      tag_135\n      jumpi\n      dup3\n      swap1\n      sub\n      0x1f\n      and\n      dup3\n      add\n      swap2\n    tag_133:\n      pop\n      pop\n      pop\n      pop\n      pop\n      swap1\n      dup1\n      0x03\n      add\n      dup1\n      sload\n      tag_136\n      swap1\n      tag_94\n      jump\t// in\n    tag_136:\n      dup1\n      0x1f\n      add\n      0x20\n      dup1\n      swap2\n      div\n      mul\n      0x20\n      add\n      mload(0x40)\n      swap1\n      dup2\n      add\n      0x40\n      mstore\n      dup1\n      swap3\n      swap2\n      swap1\n      dup2\n      dup2\n      mstore\n      0x20\n      add\n      dup3\n      dup1\n      sload\n      tag_137\n      swap1\n      tag_94\n      jump\t// in\n    tag_137:\n      dup1\n      iszero\n      tag_138\n      jumpi\n      dup1\n      0x1f\n      lt\n      tag_139\n      jumpi\n      0x0100\n      dup1\n      dup4\n      sload\n      div\n      mul\n      dup4\n      mstore\n      swap2\n      0x20\n      add\n      swap2\n      jump(tag_138)\n    tag_139:\n      dup3\n      add\n      swap2\n      swap1\n      0x00\n      mstore\n      keccak256(0x00, 0x20)\n      swap1\n    tag_140:\n      dup2\n      sload\n      dup2\n      mstore\n      swap1\n      0x01\n      add\n      swap1\n      0x20\n      add\n      dup1\n      dup4\n      gt\n      tag_140\n      jumpi\n      dup3\n      swap1\n      sub\n      0x1f\n      and\n      dup3\n      add\n      swap2\n    tag_138:\n      pop\n      pop\n      pop\n      pop\n      pop\n      swap1\n      dup1\n      0x04\n      add\n      0x00\n      swap1\n      sload\n      swap1\n      0x0100\n      exp\n      swap1\n      div\n      0xff\n      and\n      swap1\n      dup1\n      0x05\n      add\n      dup1\n      sload\n      tag_141\n      swap1\n      tag_94\n      jump\t// in\n    tag_141:\n      dup1\n      0x1f\n      add\n      0x20\n      dup1\n      swap2\n      div\n      mul\n      0x20\n      add\n      mload(0x40)\n      swap1\n      dup2\n      add\n      0x40\n      mstore\n      dup1\n      swap3\n      swap2\n      swap1\n      dup2\n      dup2\n      mstore\n      0x20\n      add\n      dup3\n      dup1\n      sload\n      tag_142\n      swap1\n      tag_94\n      jump\t// in\n    tag_142:\n      dup1\n      iszero\n      tag_143\n      jumpi\n      dup1\n      0x1f\n      lt\n      tag_144\n      jumpi\n      0x0100\n      dup1\n      dup4\n      sload\n      div\n      mul\n      dup4\n      mstore\n      swap2\n      0x20\n      add\n      swap2\n      jump(tag_143)\n    tag_144:\n      dup3\n      add\n      swap2\n      swap1\n      0x00\n      mstore\n      keccak256(0x00, 0x20)\n      swap1\n    tag_145:\n      dup2\n      sload\n      dup2\n      mstore\n      swap1\n      0x01\n      add\n      swap1\n      0x20\n      add\n      dup1\n      dup4\n      gt\n      tag_145\n      jumpi\n      dup3\n      swap1\n      sub\n      0x1f\n      and\n      dup3\n      add\n      swap2\n    tag_143:\n      pop\n      pop\n      pop\n      pop\n      pop\n      swap1\n      dup1\n      0x06\n      add\n      0x00\n      swap1\n      sload\n      swap1\n      0x0100\n      exp\n      swap1\n      div\n      0xffffffffffffffffffffffffffffffffffffffff\n      and\n      swap1\n      pop\n      dup8\n      jump\t// out\n        /* \"TesteParintinsIngressos.sol\":116:136  address public owner */\n    tag_43:\n      0x00\n      dup1\n      sload\n      swap1\n      0x0100\n      exp\n      swap1\n      div\n      0xffffffffffffffffffffffffffffffffffffffff\n      and\n      dup2\n      jump\t// out\n        /* \"TesteParintinsIngressos.sol\":3418:5407  function listarIngressosDisponiveis() public view returns (\r... */\n    tag_48:\n        /* \"TesteParintinsIngressos.sol\":3487:3508  string[] memory tipos */\n      0x60\n        /* \"TesteParintinsIngressos.sol\":3519:3540  string[] memory areas */\n      dup1\n        /* \"TesteParintinsIngressos.sol\":3551:3577  string[] memory tiposPreco */\n      0x60\n        /* \"TesteParintinsIngressos.sol\":3588:3609  uint[] memory valores */\n      dup1\n        /* \"TesteParintinsIngressos.sol\":3843:3870  string[2] memory tiposFixos */\n      0x00\n        /* \"TesteParintinsIngressos.sol\":3843:3897  string[2] memory tiposFixos = [\"Passaporte\", \"Avulso\"] */\n      mload(0x40)\n      dup1\n      0x40\n      add\n      0x40\n      mstore\n      dup1\n      mload(0x40)\n      dup1\n      0x40\n      add\n      0x40\n      mstore\n      dup1\n      0x0a\n      dup2\n      mstore\n      0x20\n      add\n      0x5061737361706f72746500000000000000000000000000000000000000000000\n      dup2\n      mstore\n      pop\n      dup2\n      mstore\n      0x20\n      add\n      mload(0x40)\n      dup1\n      0x40\n      add\n      0x40\n      mstore\n      dup1\n      0x06\n      dup2\n      mstore\n      0x20\n      add\n      0x4176756c736f0000000000000000000000000000000000000000000000000000\n      dup2\n      mstore\n      pop\n      dup2\n      mstore\n      pop\n      swap1\n      pop\n        /* \"TesteParintinsIngressos.sol\":3908:3935  string[4] memory areasFixas */\n      0x00\n        /* \"TesteParintinsIngressos.sol\":3908:4025  string[4] memory areasFixas = [\"Arquibancada Central\", \"Arquibancada Especial\", \"Cadeira Tipo 01\", \"Cadeira Tipo 02\"] */\n      mload(0x40)\n      dup1\n      0x80\n      add\n      0x40\n      mstore\n      dup1\n      mload(0x40)\n      dup1\n      0x40\n      add\n      0x40\n      mstore\n      dup1\n      0x14\n      dup2\n      mstore\n      0x20\n      add\n      0x417271756962616e636164612043656e7472616c000000000000000000000000\n      dup2\n      mstore\n      pop\n      dup2\n      mstore\n      0x20\n      add\n      mload(0x40)\n      dup1\n      0x40\n      add\n      0x40\n      mstore\n      dup1\n      0x15\n      dup2\n      mstore\n      0x20\n      add\n      0x417271756962616e6361646120457370656369616c0000000000000000000000\n      dup2\n      mstore\n      pop\n      dup2\n      mstore\n      0x20\n      add\n      mload(0x40)\n      dup1\n      0x40\n      add\n      0x40\n      mstore\n      dup1\n      0x0f\n      dup2\n      mstore\n      0x20\n      add\n      0x43616465697261205469706f2030310000000000000000000000000000000000\n      dup2\n      mstore\n      pop\n      dup2\n      mstore\n      0x20\n      add\n      mload(0x40)\n      dup1\n      0x40\n      add\n      0x40\n      mstore\n      dup1\n      0x0f\n      dup2\n      mstore\n      0x20\n      add\n      0x43616465697261205469706f2030320000000000000000000000000000000000\n      dup2\n      mstore\n      pop\n      dup2\n      mstore\n      pop\n      swap1\n      pop\n        /* \"TesteParintinsIngressos.sol\":4036:4068  string[2] memory tiposPrecoFixos */\n      0x00\n        /* \"TesteParintinsIngressos.sol\":4036:4090  string[2] memory tiposPrecoFixos = [\"Inteira\", \"Meia\"] */\n      mload(0x40)\n      dup1\n      0x40\n      add\n      0x40\n      mstore\n      dup1\n      mload(0x40)\n      dup1\n      0x40\n      add\n      0x40\n      mstore\n      dup1\n      0x07\n      dup2\n      mstore\n      0x20\n      add\n      0x496e746569726100000000000000000000000000000000000000000000000000\n      dup2\n      mstore\n      pop\n      dup2\n      mstore\n      0x20\n      add\n      mload(0x40)\n      dup1\n      0x40\n      add\n      0x40\n      mstore\n      dup1\n      0x04\n      dup2\n      mstore\n      0x20\n      add\n      0x4d65696100000000000000000000000000000000000000000000000000000000\n      dup2\n      mstore\n      pop\n      dup2\n      mstore\n      pop\n      swap1\n      pop\n        /* \"TesteParintinsIngressos.sol\":4188:4198  uint count */\n      0x00\n        /* \"TesteParintinsIngressos.sol\":4218:4224  uint t */\n      dup1\n        /* \"TesteParintinsIngressos.sol\":4213:4579  for (uint t = 0; t < tiposFixos.length; t++) {\r... */\n    tag_147:\n        /* \"TesteParintinsIngressos.sol\":4234:4251  tiposFixos.length */\n      0x02\n        /* \"TesteParintinsIngressos.sol\":4230:4231  t */\n      dup2\n        /* \"TesteParintinsIngressos.sol\":4230:4251  t < tiposFixos.length */\n      lt\n        /* \"TesteParintinsIngressos.sol\":4213:4579  for (uint t = 0; t < tiposFixos.length; t++) {\r... */\n      iszero\n      tag_148\n      jumpi\n        /* \"TesteParintinsIngressos.sol\":4278:4284  uint a */\n      0x00\n        /* \"TesteParintinsIngressos.sol\":4273:4568  for (uint a = 0; a < areasFixas.length; a++) {\r... */\n    tag_150:\n        /* \"TesteParintinsIngressos.sol\":4294:4311  areasFixas.length */\n      0x04\n        /* \"TesteParintinsIngressos.sol\":4290:4291  a */\n      dup2\n        /* \"TesteParintinsIngressos.sol\":4290:4311  a < areasFixas.length */\n      lt\n        /* \"TesteParintinsIngressos.sol\":4273:4568  for (uint a = 0; a < areasFixas.length; a++) {\r... */\n      iszero\n      tag_151\n      jumpi\n        /* \"TesteParintinsIngressos.sol\":4342:4348  uint p */\n      0x00\n        /* \"TesteParintinsIngressos.sol\":4337:4553  for (uint p = 0; p < tiposPrecoFixos.length; p++) {\r... */\n    tag_153:\n        /* \"TesteParintinsIngressos.sol\":4358:4380  tiposPrecoFixos.length */\n      0x02\n        /* \"TesteParintinsIngressos.sol\":4354:4355  p */\n      dup2\n        /* \"TesteParintinsIngressos.sol\":4354:4380  p < tiposPrecoFixos.length */\n      lt\n        /* \"TesteParintinsIngressos.sol\":4337:4553  for (uint p = 0; p < tiposPrecoFixos.length; p++) {\r... */\n      iszero\n      tag_154\n      jumpi\n        /* \"TesteParintinsIngressos.sol\":4473:4474  0 */\n      0x00\n        /* \"TesteParintinsIngressos.sol\":4414:4420  precos */\n      0x03\n        /* \"TesteParintinsIngressos.sol\":4421:4431  tiposFixos */\n      dup9\n        /* \"TesteParintinsIngressos.sol\":4432:4433  t */\n      dup6\n        /* \"TesteParintinsIngressos.sol\":4421:4434  tiposFixos[t] */\n      0x02\n      dup2\n      lt\n      tag_156\n      jumpi\n      mstore(0x00, 0x4e487b7100000000000000000000000000000000000000000000000000000000)\n      mstore(0x04, 0x32)\n      revert(0x00, 0x24)\n    tag_156:\n      0x20\n      mul\n      add\n      mload\n        /* \"TesteParintinsIngressos.sol\":4414:4435  precos[tiposFixos[t]] */\n      mload(0x40)\n      tag_157\n      swap2\n      swap1\n      tag_67\n      jump\t// in\n    tag_157:\n      swap1\n      dup2\n      mstore\n      0x20\n      add\n      mload(0x40)\n      dup1\n      swap2\n      sub\n      swap1\n      keccak256\n        /* \"TesteParintinsIngressos.sol\":4436:4446  areasFixas */\n      dup8\n        /* \"TesteParintinsIngressos.sol\":4447:4448  a */\n      dup5\n        /* \"TesteParintinsIngressos.sol\":4436:4449  areasFixas[a] */\n      0x04\n      dup2\n      lt\n      tag_158\n      jumpi\n      mstore(0x00, 0x4e487b7100000000000000000000000000000000000000000000000000000000)\n      mstore(0x04, 0x32)\n      revert(0x00, 0x24)\n    tag_158:\n      0x20\n      mul\n      add\n      mload\n        /* \"TesteParintinsIngressos.sol\":4414:4450  precos[tiposFixos[t]][areasFixas[a]] */\n      mload(0x40)\n      tag_159\n      swap2\n      swap1\n      tag_67\n      jump\t// in\n    tag_159:\n      swap1\n      dup2\n      mstore\n      0x20\n      add\n      mload(0x40)\n      dup1\n      swap2\n      sub\n      swap1\n      keccak256\n        /* \"TesteParintinsIngressos.sol\":4451:4466  tiposPrecoFixos */\n      dup7\n        /* \"TesteParintinsIngressos.sol\":4467:4468  p */\n      dup4\n        /* \"TesteParintinsIngressos.sol\":4451:4469  tiposPrecoFixos[p] */\n      0x02\n      dup2\n      lt\n      tag_160\n      jumpi\n      mstore(0x00, 0x4e487b7100000000000000000000000000000000000000000000000000000000)\n      mstore(0x04, 0x32)\n      revert(0x00, 0x24)\n    tag_160:\n      0x20\n      mul\n      add\n      mload\n        /* \"TesteParintinsIngressos.sol\":4414:4470  precos[tiposFixos[t]][areasFixas[a]][tiposPrecoFixos[p]] */\n      mload(0x40)\n      tag_161\n      swap2\n      swap1\n      tag_67\n      jump\t// in\n    tag_161:\n      swap1\n      dup2\n      mstore\n      0x20\n      add\n      mload(0x40)\n      dup1\n      swap2\n      sub\n      swap1\n      keccak256\n      sload\n        /* \"TesteParintinsIngressos.sol\":4414:4474  precos[tiposFixos[t]][areasFixas[a]][tiposPrecoFixos[p]] > 0 */\n      gt\n        /* \"TesteParintinsIngressos.sol\":4410:4534  if (precos[tiposFixos[t]][areasFixas[a]][tiposPrecoFixos[p]] > 0) {\r... */\n      iszero\n      tag_162\n      jumpi\n        /* \"TesteParintinsIngressos.sol\":4503:4510  count++ */\n      dup4\n      dup1\n      tag_163\n      swap1\n      tag_77\n      jump\t// in\n    tag_163:\n      swap5\n      pop\n      pop\n        /* \"TesteParintinsIngressos.sol\":4410:4534  if (precos[tiposFixos[t]][areasFixas[a]][tiposPrecoFixos[p]] > 0) {\r... */\n    tag_162:\n        /* \"TesteParintinsIngressos.sol\":4382:4385  p++ */\n      dup1\n      dup1\n      tag_164\n      swap1\n      tag_77\n      jump\t// in\n    tag_164:\n      swap2\n      pop\n      pop\n        /* \"TesteParintinsIngressos.sol\":4337:4553  for (uint p = 0; p < tiposPrecoFixos.length; p++) {\r... */\n      jump(tag_153)\n    tag_154:\n      pop\n        /* \"TesteParintinsIngressos.sol\":4313:4316  a++ */\n      dup1\n      dup1\n      tag_165\n      swap1\n      tag_77\n      jump\t// in\n    tag_165:\n      swap2\n      pop\n      pop\n        /* \"TesteParintinsIngressos.sol\":4273:4568  for (uint a = 0; a < areasFixas.length; a++) {\r... */\n      jump(tag_150)\n    tag_151:\n      pop\n        /* \"TesteParintinsIngressos.sol\":4253:4256  t++ */\n      dup1\n      dup1\n      tag_166\n      swap1\n      tag_77\n      jump\t// in\n    tag_166:\n      swap2\n      pop\n      pop\n        /* \"TesteParintinsIngressos.sol\":4213:4579  for (uint t = 0; t < tiposFixos.length; t++) {\r... */\n      jump(tag_147)\n    tag_148:\n      pop\n        /* \"TesteParintinsIngressos.sol\":4612:4617  count */\n      dup1\n        /* \"TesteParintinsIngressos.sol\":4599:4618  new string[](count) */\n      0xffffffffffffffff\n      dup2\n      gt\n      iszero\n      tag_167\n      jumpi\n      mstore(0x00, 0x4e487b7100000000000000000000000000000000000000000000000000000000)\n      mstore(0x04, 0x41)\n      revert(0x00, 0x24)\n    tag_167:\n      mload(0x40)\n      swap1\n      dup1\n      dup3\n      mstore\n      dup1\n      0x20\n      mul\n      0x20\n      add\n      dup3\n      add\n      0x40\n      mstore\n      dup1\n      iszero\n      tag_168\n      jumpi\n      dup2\n      0x20\n      add\n    tag_169:\n      0x60\n      dup2\n      mstore\n      0x20\n      add\n      swap1\n      0x01\n      swap1\n      sub\n      swap1\n      dup2\n      tag_169\n      jumpi\n      swap1\n      pop\n    tag_168:\n      pop\n        /* \"TesteParintinsIngressos.sol\":4591:4618  tipos = new string[](count) */\n      swap8\n      pop\n        /* \"TesteParintinsIngressos.sol\":4650:4655  count */\n      dup1\n        /* \"TesteParintinsIngressos.sol\":4637:4656  new string[](count) */\n      0xffffffffffffffff\n      dup2\n      gt\n      iszero\n      tag_170\n      jumpi\n      mstore(0x00, 0x4e487b7100000000000000000000000000000000000000000000000000000000)\n      mstore(0x04, 0x41)\n      revert(0x00, 0x24)\n    tag_170:\n      mload(0x40)\n      swap1\n      dup1\n      dup3\n      mstore\n      dup1\n      0x20\n      mul\n      0x20\n      add\n      dup3\n      add\n      0x40\n      mstore\n      dup1\n      iszero\n      tag_171\n      jumpi\n      dup2\n      0x20\n      add\n    tag_172:\n      0x60\n      dup2\n      mstore\n      0x20\n      add\n      swap1\n      0x01\n      swap1\n      sub\n      swap1\n      dup2\n      tag_172\n      jumpi\n      swap1\n      pop\n    tag_171:\n      pop\n        /* \"TesteParintinsIngressos.sol\":4629:4656  areas = new string[](count) */\n      swap7\n      pop\n        /* \"TesteParintinsIngressos.sol\":4693:4698  count */\n      dup1\n        /* \"TesteParintinsIngressos.sol\":4680:4699  new string[](count) */\n      0xffffffffffffffff\n      dup2\n      gt\n      iszero\n      tag_173\n      jumpi\n      mstore(0x00, 0x4e487b7100000000000000000000000000000000000000000000000000000000)\n      mstore(0x04, 0x41)\n      revert(0x00, 0x24)\n    tag_173:\n      mload(0x40)\n      swap1\n      dup1\n      dup3\n      mstore\n      dup1\n      0x20\n      mul\n      0x20\n      add\n      dup3\n      add\n      0x40\n      mstore\n      dup1\n      iszero\n      tag_174\n      jumpi\n      dup2\n      0x20\n      add\n    tag_175:\n      0x60\n      dup2\n      mstore\n      0x20\n      add\n      swap1\n      0x01\n      swap1\n      sub\n      swap1\n      dup2\n      tag_175\n      jumpi\n      swap1\n      pop\n    tag_174:\n      pop\n        /* \"TesteParintinsIngressos.sol\":4667:4699  tiposPreco = new string[](count) */\n      swap6\n      pop\n        /* \"TesteParintinsIngressos.sol\":4731:4736  count */\n      dup1\n        /* \"TesteParintinsIngressos.sol\":4720:4737  new uint[](count) */\n      0xffffffffffffffff\n      dup2\n      gt\n      iszero\n      tag_176\n      jumpi\n      mstore(0x00, 0x4e487b7100000000000000000000000000000000000000000000000000000000)\n      mstore(0x04, 0x41)\n      revert(0x00, 0x24)\n    tag_176:\n      mload(0x40)\n      swap1\n      dup1\n      dup3\n      mstore\n      dup1\n      0x20\n      mul\n      0x20\n      add\n      dup3\n      add\n      0x40\n      mstore\n      dup1\n      iszero\n      tag_177\n      jumpi\n      dup2\n      0x20\n      add\n      0x20\n      dup3\n      mul\n      dup1\n      calldatasize\n      dup4\n      calldatacopy\n      dup1\n      dup3\n      add\n      swap2\n      pop\n      pop\n      swap1\n      pop\n    tag_177:\n      pop\n        /* \"TesteParintinsIngressos.sol\":4710:4737  valores = new uint[](count) */\n      swap5\n      pop\n        /* \"TesteParintinsIngressos.sol\":4750:4760  uint index */\n      0x00\n        /* \"TesteParintinsIngressos.sol\":4780:4786  uint t */\n      dup1\n        /* \"TesteParintinsIngressos.sol\":4775:5400  for (uint t = 0; t < tiposFixos.length; t++) {\r... */\n    tag_178:\n        /* \"TesteParintinsIngressos.sol\":4796:4813  tiposFixos.length */\n      0x02\n        /* \"TesteParintinsIngressos.sol\":4792:4793  t */\n      dup2\n        /* \"TesteParintinsIngressos.sol\":4792:4813  t < tiposFixos.length */\n      lt\n        /* \"TesteParintinsIngressos.sol\":4775:5400  for (uint t = 0; t < tiposFixos.length; t++) {\r... */\n      iszero\n      tag_179\n      jumpi\n        /* \"TesteParintinsIngressos.sol\":4840:4846  uint a */\n      0x00\n        /* \"TesteParintinsIngressos.sol\":4835:5389  for (uint a = 0; a < areasFixas.length; a++) {\r... */\n    tag_181:\n        /* \"TesteParintinsIngressos.sol\":4856:4873  areasFixas.length */\n      0x04\n        /* \"TesteParintinsIngressos.sol\":4852:4853  a */\n      dup2\n        /* \"TesteParintinsIngressos.sol\":4852:4873  a < areasFixas.length */\n      lt\n        /* \"TesteParintinsIngressos.sol\":4835:5389  for (uint a = 0; a < areasFixas.length; a++) {\r... */\n      iszero\n      tag_182\n      jumpi\n        /* \"TesteParintinsIngressos.sol\":4904:4910  uint p */\n      0x00\n        /* \"TesteParintinsIngressos.sol\":4899:5374  for (uint p = 0; p < tiposPrecoFixos.length; p++) {\r... */\n    tag_184:\n        /* \"TesteParintinsIngressos.sol\":4920:4942  tiposPrecoFixos.length */\n      0x02\n        /* \"TesteParintinsIngressos.sol\":4916:4917  p */\n      dup2\n        /* \"TesteParintinsIngressos.sol\":4916:4942  p < tiposPrecoFixos.length */\n      lt\n        /* \"TesteParintinsIngressos.sol\":4899:5374  for (uint p = 0; p < tiposPrecoFixos.length; p++) {\r... */\n      iszero\n      tag_185\n      jumpi\n        /* \"TesteParintinsIngressos.sol\":4972:4980  uint val */\n      0x00\n        /* \"TesteParintinsIngressos.sol\":4983:4989  precos */\n      0x03\n        /* \"TesteParintinsIngressos.sol\":4990:5000  tiposFixos */\n      dup10\n        /* \"TesteParintinsIngressos.sol\":5001:5002  t */\n      dup6\n        /* \"TesteParintinsIngressos.sol\":4990:5003  tiposFixos[t] */\n      0x02\n      dup2\n      lt\n      tag_187\n      jumpi\n      mstore(0x00, 0x4e487b7100000000000000000000000000000000000000000000000000000000)\n      mstore(0x04, 0x32)\n      revert(0x00, 0x24)\n    tag_187:\n      0x20\n      mul\n      add\n      mload\n        /* \"TesteParintinsIngressos.sol\":4983:5004  precos[tiposFixos[t]] */\n      mload(0x40)\n      tag_188\n      swap2\n      swap1\n      tag_67\n      jump\t// in\n    tag_188:\n      swap1\n      dup2\n      mstore\n      0x20\n      add\n      mload(0x40)\n      dup1\n      swap2\n      sub\n      swap1\n      keccak256\n        /* \"TesteParintinsIngressos.sol\":5005:5015  areasFixas */\n      dup9\n        /* \"TesteParintinsIngressos.sol\":5016:5017  a */\n      dup5\n        /* \"TesteParintinsIngressos.sol\":5005:5018  areasFixas[a] */\n      0x04\n      dup2\n      lt\n      tag_189\n      jumpi\n      mstore(0x00, 0x4e487b7100000000000000000000000000000000000000000000000000000000)\n      mstore(0x04, 0x32)\n      revert(0x00, 0x24)\n    tag_189:\n      0x20\n      mul\n      add\n      mload\n        /* \"TesteParintinsIngressos.sol\":4983:5019  precos[tiposFixos[t]][areasFixas[a]] */\n      mload(0x40)\n      tag_190\n      swap2\n      swap1\n      tag_67\n      jump\t// in\n    tag_190:\n      swap1\n      dup2\n      mstore\n      0x20\n      add\n      mload(0x40)\n      dup1\n      swap2\n      sub\n      swap1\n      keccak256\n        /* \"TesteParintinsIngressos.sol\":5020:5035  tiposPrecoFixos */\n      dup8\n        /* \"TesteParintinsIngressos.sol\":5036:5037  p */\n      dup4\n        /* \"TesteParintinsIngressos.sol\":5020:5038  tiposPrecoFixos[p] */\n      0x02\n      dup2\n      lt\n      tag_191\n      jumpi\n      mstore(0x00, 0x4e487b7100000000000000000000000000000000000000000000000000000000)\n      mstore(0x04, 0x32)\n      revert(0x00, 0x24)\n    tag_191:\n      0x20\n      mul\n      add\n      mload\n        /* \"TesteParintinsIngressos.sol\":4983:5039  precos[tiposFixos[t]][areasFixas[a]][tiposPrecoFixos[p]] */\n      mload(0x40)\n      tag_192\n      swap2\n      swap1\n      tag_67\n      jump\t// in\n    tag_192:\n      swap1\n      dup2\n      mstore\n      0x20\n      add\n      mload(0x40)\n      dup1\n      swap2\n      sub\n      swap1\n      keccak256\n      sload\n        /* \"TesteParintinsIngressos.sol\":4972:5039  uint val = precos[tiposFixos[t]][areasFixas[a]][tiposPrecoFixos[p]] */\n      swap1\n      pop\n        /* \"TesteParintinsIngressos.sol\":5072:5073  0 */\n      0x00\n        /* \"TesteParintinsIngressos.sol\":5066:5069  val */\n      dup2\n        /* \"TesteParintinsIngressos.sol\":5066:5073  val > 0 */\n      gt\n        /* \"TesteParintinsIngressos.sol\":5062:5355  if (val > 0) {\r... */\n      iszero\n      tag_193\n      jumpi\n        /* \"TesteParintinsIngressos.sol\":5117:5127  tiposFixos */\n      dup9\n        /* \"TesteParintinsIngressos.sol\":5128:5129  t */\n      dup5\n        /* \"TesteParintinsIngressos.sol\":5117:5130  tiposFixos[t] */\n      0x02\n      dup2\n      lt\n      tag_194\n      jumpi\n      mstore(0x00, 0x4e487b7100000000000000000000000000000000000000000000000000000000)\n      mstore(0x04, 0x32)\n      revert(0x00, 0x24)\n    tag_194:\n      0x20\n      mul\n      add\n      mload\n        /* \"TesteParintinsIngressos.sol\":5102:5107  tipos */\n      dup14\n        /* \"TesteParintinsIngressos.sol\":5108:5113  index */\n      dup7\n        /* \"TesteParintinsIngressos.sol\":5102:5114  tipos[index] */\n      dup2\n      mload\n      dup2\n      lt\n      tag_195\n      jumpi\n      mstore(0x00, 0x4e487b7100000000000000000000000000000000000000000000000000000000)\n      mstore(0x04, 0x32)\n      revert(0x00, 0x24)\n    tag_195:\n      0x20\n      mul\n      0x20\n      add\n      add\n        /* \"TesteParintinsIngressos.sol\":5102:5130  tipos[index] = tiposFixos[t] */\n      dup2\n      swap1\n      mstore\n      pop\n        /* \"TesteParintinsIngressos.sol\":5172:5182  areasFixas */\n      dup8\n        /* \"TesteParintinsIngressos.sol\":5183:5184  a */\n      dup4\n        /* \"TesteParintinsIngressos.sol\":5172:5185  areasFixas[a] */\n      0x04\n      dup2\n      lt\n      tag_196\n      jumpi\n      mstore(0x00, 0x4e487b7100000000000000000000000000000000000000000000000000000000)\n      mstore(0x04, 0x32)\n      revert(0x00, 0x24)\n    tag_196:\n      0x20\n      mul\n      add\n      mload\n        /* \"TesteParintinsIngressos.sol\":5157:5162  areas */\n      dup13\n        /* \"TesteParintinsIngressos.sol\":5163:5168  index */\n      dup7\n        /* \"TesteParintinsIngressos.sol\":5157:5169  areas[index] */\n      dup2\n      mload\n      dup2\n      lt\n      tag_197\n      jumpi\n      mstore(0x00, 0x4e487b7100000000000000000000000000000000000000000000000000000000)\n      mstore(0x04, 0x32)\n      revert(0x00, 0x24)\n    tag_197:\n      0x20\n      mul\n      0x20\n      add\n      add\n        /* \"TesteParintinsIngressos.sol\":5157:5185  areas[index] = areasFixas[a] */\n      dup2\n      swap1\n      mstore\n      pop\n        /* \"TesteParintinsIngressos.sol\":5232:5247  tiposPrecoFixos */\n      dup7\n        /* \"TesteParintinsIngressos.sol\":5248:5249  p */\n      dup3\n        /* \"TesteParintinsIngressos.sol\":5232:5250  tiposPrecoFixos[p] */\n      0x02\n      dup2\n      lt\n      tag_198\n      jumpi\n      mstore(0x00, 0x4e487b7100000000000000000000000000000000000000000000000000000000)\n      mstore(0x04, 0x32)\n      revert(0x00, 0x24)\n    tag_198:\n      0x20\n      mul\n      add\n      mload\n        /* \"TesteParintinsIngressos.sol\":5212:5222  tiposPreco */\n      dup12\n        /* \"TesteParintinsIngressos.sol\":5223:5228  index */\n      dup7\n        /* \"TesteParintinsIngressos.sol\":5212:5229  tiposPreco[index] */\n      dup2\n      mload\n      dup2\n      lt\n      tag_199\n      jumpi\n      mstore(0x00, 0x4e487b7100000000000000000000000000000000000000000000000000000000)\n      mstore(0x04, 0x32)\n      revert(0x00, 0x24)\n    tag_199:\n      0x20\n      mul\n      0x20\n      add\n      add\n        /* \"TesteParintinsIngressos.sol\":5212:5250  tiposPreco[index] = tiposPrecoFixos[p] */\n      dup2\n      swap1\n      mstore\n      pop\n        /* \"TesteParintinsIngressos.sol\":5294:5297  val */\n      dup1\n        /* \"TesteParintinsIngressos.sol\":5277:5284  valores */\n      dup11\n        /* \"TesteParintinsIngressos.sol\":5285:5290  index */\n      dup7\n        /* \"TesteParintinsIngressos.sol\":5277:5291  valores[index] */\n      dup2\n      mload\n      dup2\n      lt\n      tag_200\n      jumpi\n      mstore(0x00, 0x4e487b7100000000000000000000000000000000000000000000000000000000)\n      mstore(0x04, 0x32)\n      revert(0x00, 0x24)\n    tag_200:\n      0x20\n      mul\n      0x20\n      add\n      add\n        /* \"TesteParintinsIngressos.sol\":5277:5297  valores[index] = val */\n      dup2\n      dup2\n      mstore\n      pop\n      pop\n        /* \"TesteParintinsIngressos.sol\":5324:5331  index++ */\n      dup5\n      dup1\n      tag_201\n      swap1\n      tag_77\n      jump\t// in\n    tag_201:\n      swap6\n      pop\n      pop\n        /* \"TesteParintinsIngressos.sol\":5062:5355  if (val > 0) {\r... */\n    tag_193:\n        /* \"TesteParintinsIngressos.sol\":4899:5374  for (uint p = 0; p < tiposPrecoFixos.length; p++) {\r... */\n      pop\n        /* \"TesteParintinsIngressos.sol\":4944:4947  p++ */\n      dup1\n      dup1\n      tag_202\n      swap1\n      tag_77\n      jump\t// in\n    tag_202:\n      swap2\n      pop\n      pop\n        /* \"TesteParintinsIngressos.sol\":4899:5374  for (uint p = 0; p < tiposPrecoFixos.length; p++) {\r... */\n      jump(tag_184)\n    tag_185:\n      pop\n        /* \"TesteParintinsIngressos.sol\":4875:4878  a++ */\n      dup1\n      dup1\n      tag_203\n      swap1\n      tag_77\n      jump\t// in\n    tag_203:\n      swap2\n      pop\n      pop\n        /* \"TesteParintinsIngressos.sol\":4835:5389  for (uint a = 0; a < areasFixas.length; a++) {\r... */\n      jump(tag_181)\n    tag_182:\n      pop\n        /* \"TesteParintinsIngressos.sol\":4815:4818  t++ */\n      dup1\n      dup1\n      tag_204\n      swap1\n      tag_77\n      jump\t// in\n    tag_204:\n      swap2\n      pop\n      pop\n        /* \"TesteParintinsIngressos.sol\":4775:5400  for (uint t = 0; t < tiposFixos.length; t++) {\r... */\n      jump(tag_178)\n    tag_179:\n      pop\n        /* \"TesteParintinsIngressos.sol\":3418:5407  function listarIngressosDisponiveis() public view returns (\r... */\n      pop\n      pop\n      pop\n      pop\n      pop\n      swap1\n      swap2\n      swap3\n      swap4\n      jump\t// out\n        /* \"TesteParintinsIngressos.sol\":5447:5546  function sacar() public onlyOwner {\r... */\n    tag_53:\n        /* \"TesteParintinsIngressos.sol\":1054:1059  owner */\n      0x00\n      dup1\n      sload\n      swap1\n      0x0100\n      exp\n      swap1\n      div\n      0xffffffffffffffffffffffffffffffffffffffff\n      and\n        /* \"TesteParintinsIngressos.sol\":1040:1059  msg.sender == owner */\n      0xffffffffffffffffffffffffffffffffffffffff\n      and\n        /* \"TesteParintinsIngressos.sol\":1040:1050  msg.sender */\n      caller\n        /* \"TesteParintinsIngressos.sol\":1040:1059  msg.sender == owner */\n      0xffffffffffffffffffffffffffffffffffffffff\n      and\n      eq\n        /* \"TesteParintinsIngressos.sol\":1032:1092  require(msg.sender == owner, \"Somente o dono pode executar\") */\n      tag_206\n      jumpi\n      mload(0x40)\n      0x08c379a000000000000000000000000000000000000000000000000000000000\n      dup2\n      mstore\n      0x04\n      add\n      tag_207\n      swap1\n      tag_121\n      jump\t// in\n    tag_207:\n      mload(0x40)\n      dup1\n      swap2\n      sub\n      swap1\n      revert\n    tag_206:\n        /* \"TesteParintinsIngressos.sol\":5500:5505  owner */\n      0x00\n      dup1\n      sload\n      swap1\n      0x0100\n      exp\n      swap1\n      div\n      0xffffffffffffffffffffffffffffffffffffffff\n      and\n        /* \"TesteParintinsIngressos.sol\":5492:5515  payable(owner).transfer */\n      0xffffffffffffffffffffffffffffffffffffffff\n      and\n        /* \"TesteParintinsIngressos.sol\":5492:5538  payable(owner).transfer(address(this).balance) */\n      0x08fc\n        /* \"TesteParintinsIngressos.sol\":5516:5537  address(this).balance */\n      selfbalance\n        /* \"TesteParintinsIngressos.sol\":5492:5538  payable(owner).transfer(address(this).balance) */\n      swap1\n      dup2\n      iszero\n      mul\n      swap1\n      mload(0x40)\n      0x00\n      mload(0x40)\n      dup1\n      dup4\n      sub\n      dup2\n      dup6\n      dup9\n      dup9\n      call\n      swap4\n      pop\n      pop\n      pop\n      pop\n      iszero\n      dup1\n      iszero\n      tag_210\n      jumpi\n      returndatasize\n      0x00\n      dup1\n      returndatacopy\n      revert(0x00, returndatasize)\n    tag_210:\n      pop\n        /* \"TesteParintinsIngressos.sol\":5447:5546  function sacar() public onlyOwner {\r... */\n      jump\t// out\n        /* \"TesteParintinsIngressos.sol\":575:600  uint public ingressoCount */\n    tag_56:\n      sload(0x01)\n      dup2\n      jump\t// out\n        /* \"TesteParintinsIngressos.sol\":1452:2169  function comprarPassaporte(string memory _area, string memory _tipoPreco, string memory _lado) public payable {\r... */\n    tag_60:\n        /* \"TesteParintinsIngressos.sol\":1573:1591  string memory tipo */\n      0x00\n        /* \"TesteParintinsIngressos.sol\":1573:1606  string memory tipo = \"Passaporte\" */\n      mload(0x40)\n      dup1\n      0x40\n      add\n      0x40\n      mstore\n      dup1\n      0x0a\n      dup2\n      mstore\n      0x20\n      add\n      0x5061737361706f72746500000000000000000000000000000000000000000000\n      dup2\n      mstore\n      pop\n      swap1\n      pop\n        /* \"TesteParintinsIngressos.sol\":1617:1627  uint preco */\n      0x00\n        /* \"TesteParintinsIngressos.sol\":1630:1636  precos */\n      0x03\n        /* \"TesteParintinsIngressos.sol\":1637:1641  tipo */\n      dup3\n        /* \"TesteParintinsIngressos.sol\":1630:1642  precos[tipo] */\n      mload(0x40)\n      tag_212\n      swap2\n      swap1\n      tag_67\n      jump\t// in\n    tag_212:\n      swap1\n      dup2\n      mstore\n      0x20\n      add\n      mload(0x40)\n      dup1\n      swap2\n      sub\n      swap1\n      keccak256\n        /* \"TesteParintinsIngressos.sol\":1643:1648  _area */\n      dup6\n        /* \"TesteParintinsIngressos.sol\":1630:1649  precos[tipo][_area] */\n      mload(0x40)\n      tag_213\n      swap2\n      swap1\n      tag_67\n      jump\t// in\n    tag_213:\n      swap1\n      dup2\n      mstore\n      0x20\n      add\n      mload(0x40)\n      dup1\n      swap2\n      sub\n      swap1\n      keccak256\n        /* \"TesteParintinsIngressos.sol\":1650:1660  _tipoPreco */\n      dup5\n        /* \"TesteParintinsIngressos.sol\":1630:1661  precos[tipo][_area][_tipoPreco] */\n      mload(0x40)\n      tag_214\n      swap2\n      swap1\n      tag_67\n      jump\t// in\n    tag_214:\n      swap1\n      dup2\n      mstore\n      0x20\n      add\n      mload(0x40)\n      dup1\n      swap2\n      sub\n      swap1\n      keccak256\n      sload\n        /* \"TesteParintinsIngressos.sol\":1617:1661  uint preco = precos[tipo][_area][_tipoPreco] */\n      swap1\n      pop\n        /* \"TesteParintinsIngressos.sol\":1688:1689  0 */\n      0x00\n        /* \"TesteParintinsIngressos.sol\":1680:1685  preco */\n      dup2\n        /* \"TesteParintinsIngressos.sol\":1680:1689  preco > 0 */\n      gt\n        /* \"TesteParintinsIngressos.sol\":1672:1715  require(preco > 0, \"Preco nao configurado\") */\n      tag_215\n      jumpi\n      mload(0x40)\n      0x08c379a000000000000000000000000000000000000000000000000000000000\n      dup2\n      mstore\n      0x04\n      add\n      tag_216\n      swap1\n      tag_72\n      jump\t// in\n    tag_216:\n      mload(0x40)\n      dup1\n      swap2\n      sub\n      swap1\n      revert\n    tag_215:\n        /* \"TesteParintinsIngressos.sol\":1747:1752  preco */\n      dup1\n        /* \"TesteParintinsIngressos.sol\":1734:1743  msg.value */\n      callvalue\n        /* \"TesteParintinsIngressos.sol\":1734:1752  msg.value >= preco */\n      lt\n      iszero\n        /* \"TesteParintinsIngressos.sol\":1726:1775  require(msg.value >= preco, \"Valor insuficiente\") */\n      tag_217\n      jumpi\n      mload(0x40)\n      0x08c379a000000000000000000000000000000000000000000000000000000000\n      dup2\n      mstore\n      0x04\n      add\n      tag_218\n      swap1\n      tag_75\n      jump\t// in\n    tag_218:\n      mload(0x40)\n      dup1\n      swap2\n      sub\n      swap1\n      revert\n    tag_217:\n        /* \"TesteParintinsIngressos.sol\":1788:1801  ingressoCount */\n      0x01\n      0x00\n        /* \"TesteParintinsIngressos.sol\":1788:1803  ingressoCount++ */\n      dup2\n      sload\n      dup1\n      swap3\n      swap2\n      swap1\n      tag_219\n      swap1\n      tag_77\n      jump\t// in\n    tag_219:\n      swap2\n      swap1\n      pop\n      sstore\n      pop\n        /* \"TesteParintinsIngressos.sol\":1841:2066  Ingresso({\r... */\n      mload(0x40)\n      dup1\n      0xe0\n      add\n      0x40\n      mstore\n      dup1\n        /* \"TesteParintinsIngressos.sol\":1869:1882  ingressoCount */\n      sload(0x01)\n        /* \"TesteParintinsIngressos.sol\":1841:2066  Ingresso({\r... */\n      dup2\n      mstore\n      0x20\n      add\n        /* \"TesteParintinsIngressos.sol\":1903:1907  tipo */\n      dup4\n        /* \"TesteParintinsIngressos.sol\":1841:2066  Ingresso({\r... */\n      dup2\n      mstore\n      0x20\n      add\n        /* \"TesteParintinsIngressos.sol\":1928:1933  _area */\n      dup7\n        /* \"TesteParintinsIngressos.sol\":1841:2066  Ingresso({\r... */\n      dup2\n      mstore\n      0x20\n      add\n        /* \"TesteParintinsIngressos.sol\":1959:1969  _tipoPreco */\n      dup6\n        /* \"TesteParintinsIngressos.sol\":1841:2066  Ingresso({\r... */\n      dup2\n      mstore\n      0x20\n      add\n        /* \"TesteParintinsIngressos.sol\":1991:1992  0 */\n      0x00\n        /* \"TesteParintinsIngressos.sol\":1841:2066  Ingresso({\r... */\n      0xff\n      and\n      dup2\n      mstore\n      0x20\n      add\n        /* \"TesteParintinsIngressos.sol\":2013:2018  _lado */\n      dup5\n        /* \"TesteParintinsIngressos.sol\":1841:2066  Ingresso({\r... */\n      dup2\n      mstore\n      0x20\n      add\n        /* \"TesteParintinsIngressos.sol\":2044:2054  msg.sender */\n      caller\n        /* \"TesteParintinsIngressos.sol\":1841:2066  Ingresso({\r... */\n      0xffffffffffffffffffffffffffffffffffffffff\n      and\n      dup2\n      mstore\n      pop\n        /* \"TesteParintinsIngressos.sol\":1814:1823  ingressos */\n      0x02\n        /* \"TesteParintinsIngressos.sol\":1814:1838  ingressos[ingressoCount] */\n      0x00\n        /* \"TesteParintinsIngressos.sol\":1824:1837  ingressoCount */\n      sload(0x01)\n        /* \"TesteParintinsIngressos.sol\":1814:1838  ingressos[ingressoCount] */\n      dup2\n      mstore\n      0x20\n      add\n      swap1\n      dup2\n      mstore\n      0x20\n      add\n      0x00\n      keccak256\n        /* \"TesteParintinsIngressos.sol\":1814:2066  ingressos[ingressoCount] = Ingresso({\r... */\n      0x00\n      dup3\n      add\n      mload\n      dup2\n      0x00\n      add\n      sstore\n      0x20\n      dup3\n      add\n      mload\n      dup2\n      0x01\n      add\n      swap1\n      dup1\n      mload\n      swap1\n      0x20\n      add\n      swap1\n      tag_220\n      swap3\n      swap2\n      swap1\n      tag_79\n      jump\t// in\n    tag_220:\n      pop\n      0x40\n      dup3\n      add\n      mload\n      dup2\n      0x02\n      add\n      swap1\n      dup1\n      mload\n      swap1\n      0x20\n      add\n      swap1\n      tag_221\n      swap3\n      swap2\n      swap1\n      tag_79\n      jump\t// in\n    tag_221:\n      pop\n      0x60\n      dup3\n      add\n      mload\n      dup2\n      0x03\n      add\n      swap1\n      dup1\n      mload\n      swap1\n      0x20\n      add\n      swap1\n      tag_222\n      swap3\n      swap2\n      swap1\n      tag_79\n      jump\t// in\n    tag_222:\n      pop\n      0x80\n      dup3\n      add\n      mload\n      dup2\n      0x04\n      add\n      exp(0x0100, 0x00)\n      dup2\n      sload\n      dup2\n      0xff\n      mul\n      not\n      and\n      swap1\n      dup4\n      0xff\n      and\n      mul\n      or\n      swap1\n      sstore\n      pop\n      0xa0\n      dup3\n      add\n      mload\n      dup2\n      0x05\n      add\n      swap1\n      dup1\n      mload\n      swap1\n      0x20\n      add\n      swap1\n      tag_223\n      swap3\n      swap2\n      swap1\n      tag_79\n      jump\t// in\n    tag_223:\n      pop\n      0xc0\n      dup3\n      add\n      mload\n      dup2\n      0x06\n      add\n      exp(0x0100, 0x00)\n      dup2\n      sload\n      dup2\n      0xffffffffffffffffffffffffffffffffffffffff\n      mul\n      not\n      and\n      swap1\n      dup4\n      0xffffffffffffffffffffffffffffffffffffffff\n      and\n      mul\n      or\n      swap1\n      sstore\n      pop\n      swap1\n      pop\n      pop\n        /* \"TesteParintinsIngressos.sol\":2084:2161  IngressoVendido(ingressoCount, tipo, _area, _tipoPreco, 0, _lado, msg.sender) */\n      0x914d99cf3a3bf4215d2087d4b5b910906192b4a6dfb364d3746a5a16f3868b76\n        /* \"TesteParintinsIngressos.sol\":2100:2113  ingressoCount */\n      sload(0x01)\n        /* \"TesteParintinsIngressos.sol\":2115:2119  tipo */\n      dup4\n        /* \"TesteParintinsIngressos.sol\":2121:2126  _area */\n      dup8\n        /* \"TesteParintinsIngressos.sol\":2128:2138  _tipoPreco */\n      dup8\n        /* \"TesteParintinsIngressos.sol\":2140:2141  0 */\n      0x00\n        /* \"TesteParintinsIngressos.sol\":2143:2148  _lado */\n      dup9\n        /* \"TesteParintinsIngressos.sol\":2150:2160  msg.sender */\n      caller\n        /* \"TesteParintinsIngressos.sol\":2084:2161  IngressoVendido(ingressoCount, tipo, _area, _tipoPreco, 0, _lado, msg.sender) */\n      mload(0x40)\n      tag_224\n      swap8\n      swap7\n      swap6\n      swap5\n      swap4\n      swap3\n      swap2\n      swap1\n      tag_225\n      jump\t// in\n    tag_224:\n      mload(0x40)\n      dup1\n      swap2\n      sub\n      swap1\n      log1\n        /* \"TesteParintinsIngressos.sol\":1452:2169  function comprarPassaporte(string memory _area, string memory _tipoPreco, string memory _lado) public payable {\r... */\n      pop\n      pop\n      pop\n      pop\n      pop\n      jump\t// out\n    tag_79:\n      dup3\n      dup1\n      sload\n      tag_226\n      swap1\n      tag_94\n      jump\t// in\n    tag_226:\n      swap1\n      0x00\n      mstore\n      keccak256(0x00, 0x20)\n      swap1\n      0x1f\n      add\n      0x20\n      swap1\n      div\n      dup2\n      add\n      swap3\n      dup3\n      tag_228\n      jumpi\n      0x00\n      dup6\n      sstore\n      jump(tag_227)\n    tag_228:\n      dup3\n      0x1f\n      lt\n      tag_229\n      jumpi\n      dup1\n      mload\n      not(0xff)\n      and\n      dup4\n      dup1\n      add\n      or\n      dup6\n      sstore\n      jump(tag_227)\n    tag_229:\n      dup3\n      dup1\n      add\n      0x01\n      add\n      dup6\n      sstore\n      dup3\n      iszero\n      tag_227\n      jumpi\n      swap2\n      dup3\n      add\n    tag_230:\n      dup3\n      dup2\n      gt\n      iszero\n      tag_231\n      jumpi\n      dup3\n      mload\n      dup3\n      sstore\n      swap2\n      0x20\n      add\n      swap2\n      swap1\n      0x01\n      add\n      swap1\n      jump(tag_230)\n    tag_231:\n    tag_227:\n      pop\n      swap1\n      pop\n      tag_232\n      swap2\n      swap1\n      tag_233\n      jump\t// in\n    tag_232:\n      pop\n      swap1\n      jump\t// out\n    tag_89:\n      mload(0x40)\n      dup1\n      0xe0\n      add\n      0x40\n      mstore\n      dup1\n      0x00\n      dup2\n      mstore\n      0x20\n      add\n      0x60\n      dup2\n      mstore\n      0x20\n      add\n      0x60\n      dup2\n      mstore\n      0x20\n      add\n      0x60\n      dup2\n      mstore\n      0x20\n      add\n      and(0xff, 0x00)\n      dup2\n      mstore\n      0x20\n      add\n      0x60\n      dup2\n      mstore\n      0x20\n      add\n      and(0xffffffffffffffffffffffffffffffffffffffff, 0x00)\n      dup2\n      mstore\n      pop\n      swap1\n      jump\t// out\n    tag_233:\n    tag_234:\n      dup1\n      dup3\n      gt\n      iszero\n      tag_235\n      jumpi\n      0x00\n      dup2\n      0x00\n      swap1\n      sstore\n      pop\n      0x01\n      add\n      jump(tag_234)\n    tag_235:\n      pop\n      swap1\n      jump\t// out\n        /* \"#utility.yul\":7:351   */\n    tag_237:\n      0x00\n        /* \"#utility.yul\":110:175   */\n      tag_239\n        /* \"#utility.yul\":125:174   */\n      tag_240\n        /* \"#utility.yul\":167:173   */\n      dup5\n        /* \"#utility.yul\":125:174   */\n      tag_241\n      jump\t// in\n    tag_240:\n        /* \"#utility.yul\":110:175   */\n      tag_242\n      jump\t// in\n    tag_239:\n        /* \"#utility.yul\":101:175   */\n      swap1\n      pop\n        /* \"#utility.yul\":198:204   */\n      dup3\n        /* \"#utility.yul\":191:196   */\n      dup2\n        /* \"#utility.yul\":184:205   */\n      mstore\n        /* \"#utility.yul\":236:240   */\n      0x20\n        /* \"#utility.yul\":229:234   */\n      dup2\n        /* \"#utility.yul\":225:241   */\n      add\n        /* \"#utility.yul\":274:277   */\n      dup5\n        /* \"#utility.yul\":265:271   */\n      dup5\n        /* \"#utility.yul\":260:263   */\n      dup5\n        /* \"#utility.yul\":256:272   */\n      add\n        /* \"#utility.yul\":253:278   */\n      gt\n        /* \"#utility.yul\":250:252   */\n      iszero\n      tag_243\n      jumpi\n        /* \"#utility.yul\":291:292   */\n      0x00\n        /* \"#utility.yul\":288:289   */\n      dup1\n        /* \"#utility.yul\":281:293   */\n      revert\n        /* \"#utility.yul\":250:252   */\n    tag_243:\n        /* \"#utility.yul\":304:345   */\n      tag_244\n        /* \"#utility.yul\":338:344   */\n      dup5\n        /* \"#utility.yul\":333:336   */\n      dup3\n        /* \"#utility.yul\":328:331   */\n      dup6\n        /* \"#utility.yul\":304:345   */\n      tag_245\n      jump\t// in\n    tag_244:\n        /* \"#utility.yul\":91:351   */\n      pop\n      swap4\n      swap3\n      pop\n      pop\n      pop\n      jump\t// out\n        /* \"#utility.yul\":371:644   */\n    tag_246:\n      0x00\n        /* \"#utility.yul\":476:479   */\n      dup3\n        /* \"#utility.yul\":469:473   */\n      0x1f\n        /* \"#utility.yul\":461:467   */\n      dup4\n        /* \"#utility.yul\":457:474   */\n      add\n        /* \"#utility.yul\":453:480   */\n      slt\n        /* \"#utility.yul\":443:445   */\n      tag_248\n      jumpi\n        /* \"#utility.yul\":494:495   */\n      0x00\n        /* \"#utility.yul\":491:492   */\n      dup1\n        /* \"#utility.yul\":484:496   */\n      revert\n        /* \"#utility.yul\":443:445   */\n    tag_248:\n        /* \"#utility.yul\":534:540   */\n      dup2\n        /* \"#utility.yul\":521:541   */\n      calldataload\n        /* \"#utility.yul\":559:638   */\n      tag_249\n        /* \"#utility.yul\":634:637   */\n      dup5\n        /* \"#utility.yul\":626:632   */\n      dup3\n        /* \"#utility.yul\":619:623   */\n      0x20\n        /* \"#utility.yul\":611:617   */\n      dup7\n        /* \"#utility.yul\":607:624   */\n      add\n        /* \"#utility.yul\":559:638   */\n      tag_237\n      jump\t// in\n    tag_249:\n        /* \"#utility.yul\":550:638   */\n      swap2\n      pop\n        /* \"#utility.yul\":433:644   */\n      pop\n      swap3\n      swap2\n      pop\n      pop\n      jump\t// out\n        /* \"#utility.yul\":650:789   */\n    tag_250:\n      0x00\n        /* \"#utility.yul\":734:740   */\n      dup2\n        /* \"#utility.yul\":721:741   */\n      calldataload\n        /* \"#utility.yul\":712:741   */\n      swap1\n      pop\n        /* \"#utility.yul\":750:783   */\n      tag_252\n        /* \"#utility.yul\":777:782   */\n      dup2\n        /* \"#utility.yul\":750:783   */\n      tag_253\n      jump\t// in\n    tag_252:\n        /* \"#utility.yul\":702:789   */\n      swap3\n      swap2\n      pop\n      pop\n      jump\t// out\n        /* \"#utility.yul\":795:930   */\n    tag_254:\n      0x00\n        /* \"#utility.yul\":877:883   */\n      dup2\n        /* \"#utility.yul\":864:884   */\n      calldataload\n        /* \"#utility.yul\":855:884   */\n      swap1\n      pop\n        /* \"#utility.yul\":893:924   */\n      tag_256\n        /* \"#utility.yul\":918:923   */\n      dup2\n        /* \"#utility.yul\":893:924   */\n      tag_257\n      jump\t// in\n    tag_256:\n        /* \"#utility.yul\":845:930   */\n      swap3\n      swap2\n      pop\n      pop\n      jump\t// out\n        /* \"#utility.yul\":936:1827   */\n    tag_25:\n      0x00\n      dup1\n      0x00\n        /* \"#utility.yul\":1108:1110   */\n      0x60\n        /* \"#utility.yul\":1096:1105   */\n      dup5\n        /* \"#utility.yul\":1087:1094   */\n      dup7\n        /* \"#utility.yul\":1083:1106   */\n      sub\n        /* \"#utility.yul\":1079:1111   */\n      slt\n        /* \"#utility.yul\":1076:1078   */\n      iszero\n      tag_259\n      jumpi\n        /* \"#utility.yul\":1124:1125   */\n      0x00\n        /* \"#utility.yul\":1121:1122   */\n      dup1\n        /* \"#utility.yul\":1114:1126   */\n      revert\n        /* \"#utility.yul\":1076:1078   */\n    tag_259:\n        /* \"#utility.yul\":1195:1196   */\n      0x00\n        /* \"#utility.yul\":1184:1193   */\n      dup5\n        /* \"#utility.yul\":1180:1197   */\n      add\n        /* \"#utility.yul\":1167:1198   */\n      calldataload\n        /* \"#utility.yul\":1225:1243   */\n      0xffffffffffffffff\n        /* \"#utility.yul\":1217:1223   */\n      dup2\n        /* \"#utility.yul\":1214:1244   */\n      gt\n        /* \"#utility.yul\":1211:1213   */\n      iszero\n      tag_260\n      jumpi\n        /* \"#utility.yul\":1257:1258   */\n      0x00\n        /* \"#utility.yul\":1254:1255   */\n      dup1\n        /* \"#utility.yul\":1247:1259   */\n      revert\n        /* \"#utility.yul\":1211:1213   */\n    tag_260:\n        /* \"#utility.yul\":1285:1348   */\n      tag_261\n        /* \"#utility.yul\":1340:1347   */\n      dup7\n        /* \"#utility.yul\":1331:1337   */\n      dup3\n        /* \"#utility.yul\":1320:1329   */\n      dup8\n        /* \"#utility.yul\":1316:1338   */\n      add\n        /* \"#utility.yul\":1285:1348   */\n      tag_246\n      jump\t// in\n    tag_261:\n        /* \"#utility.yul\":1275:1348   */\n      swap4\n      pop\n        /* \"#utility.yul\":1138:1358   */\n      pop\n        /* \"#utility.yul\":1425:1427   */\n      0x20\n        /* \"#utility.yul\":1414:1423   */\n      dup5\n        /* \"#utility.yul\":1410:1428   */\n      add\n        /* \"#utility.yul\":1397:1429   */\n      calldataload\n        /* \"#utility.yul\":1456:1474   */\n      0xffffffffffffffff\n        /* \"#utility.yul\":1448:1454   */\n      dup2\n        /* \"#utility.yul\":1445:1475   */\n      gt\n        /* \"#utility.yul\":1442:1444   */\n      iszero\n      tag_262\n      jumpi\n        /* \"#utility.yul\":1488:1489   */\n      0x00\n        /* \"#utility.yul\":1485:1486   */\n      dup1\n        /* \"#utility.yul\":1478:1490   */\n      revert\n        /* \"#utility.yul\":1442:1444   */\n    tag_262:\n        /* \"#utility.yul\":1516:1579   */\n      tag_263\n        /* \"#utility.yul\":1571:1578   */\n      dup7\n        /* \"#utility.yul\":1562:1568   */\n      dup3\n        /* \"#utility.yul\":1551:1560   */\n      dup8\n        /* \"#utility.yul\":1547:1569   */\n      add\n        /* \"#utility.yul\":1516:1579   */\n      tag_246\n      jump\t// in\n    tag_263:\n        /* \"#utility.yul\":1506:1579   */\n      swap3\n      pop\n        /* \"#utility.yul\":1368:1589   */\n      pop\n        /* \"#utility.yul\":1656:1658   */\n      0x40\n        /* \"#utility.yul\":1645:1654   */\n      dup5\n        /* \"#utility.yul\":1641:1659   */\n      add\n        /* \"#utility.yul\":1628:1660   */\n      calldataload\n        /* \"#utility.yul\":1687:1705   */\n      0xffffffffffffffff\n        /* \"#utility.yul\":1679:1685   */\n      dup2\n        /* \"#utility.yul\":1676:1706   */\n      gt\n        /* \"#utility.yul\":1673:1675   */\n      iszero\n      tag_264\n      jumpi\n        /* \"#utility.yul\":1719:1720   */\n      0x00\n        /* \"#utility.yul\":1716:1717   */\n      dup1\n        /* \"#utility.yul\":1709:1721   */\n      revert\n        /* \"#utility.yul\":1673:1675   */\n    tag_264:\n        /* \"#utility.yul\":1747:1810   */\n      tag_265\n        /* \"#utility.yul\":1802:1809   */\n      dup7\n        /* \"#utility.yul\":1793:1799   */\n      dup3\n        /* \"#utility.yul\":1782:1791   */\n      dup8\n        /* \"#utility.yul\":1778:1800   */\n      add\n        /* \"#utility.yul\":1747:1810   */\n      tag_246\n      jump\t// in\n    tag_265:\n        /* \"#utility.yul\":1737:1810   */\n      swap2\n      pop\n        /* \"#utility.yul\":1599:1820   */\n      pop\n        /* \"#utility.yul\":1066:1827   */\n      swap3\n      pop\n      swap3\n      pop\n      swap3\n      jump\t// out\n        /* \"#utility.yul\":1833:2870   */\n    tag_32:\n      0x00\n      dup1\n      0x00\n      dup1\n        /* \"#utility.yul\":2022:2025   */\n      0x80\n        /* \"#utility.yul\":2010:2019   */\n      dup6\n        /* \"#utility.yul\":2001:2008   */\n      dup8\n        /* \"#utility.yul\":1997:2020   */\n      sub\n        /* \"#utility.yul\":1993:2026   */\n      slt\n        /* \"#utility.yul\":1990:1992   */\n      iszero\n      tag_267\n      jumpi\n        /* \"#utility.yul\":2039:2040   */\n      0x00\n        /* \"#utility.yul\":2036:2037   */\n      dup1\n        /* \"#utility.yul\":2029:2041   */\n      revert\n        /* \"#utility.yul\":1990:1992   */\n    tag_267:\n        /* \"#utility.yul\":2110:2111   */\n      0x00\n        /* \"#utility.yul\":2099:2108   */\n      dup6\n        /* \"#utility.yul\":2095:2112   */\n      add\n        /* \"#utility.yul\":2082:2113   */\n      calldataload\n        /* \"#utility.yul\":2140:2158   */\n      0xffffffffffffffff\n        /* \"#utility.yul\":2132:2138   */\n      dup2\n        /* \"#utility.yul\":2129:2159   */\n      gt\n        /* \"#utility.yul\":2126:2128   */\n      iszero\n      tag_268\n      jumpi\n        /* \"#utility.yul\":2172:2173   */\n      0x00\n        /* \"#utility.yul\":2169:2170   */\n      dup1\n        /* \"#utility.yul\":2162:2174   */\n      revert\n        /* \"#utility.yul\":2126:2128   */\n    tag_268:\n        /* \"#utility.yul\":2200:2263   */\n      tag_269\n        /* \"#utility.yul\":2255:2262   */\n      dup8\n        /* \"#utility.yul\":2246:2252   */\n      dup3\n        /* \"#utility.yul\":2235:2244   */\n      dup9\n        /* \"#utility.yul\":2231:2253   */\n      add\n        /* \"#utility.yul\":2200:2263   */\n      tag_246\n      jump\t// in\n    tag_269:\n        /* \"#utility.yul\":2190:2263   */\n      swap5\n      pop\n        /* \"#utility.yul\":2053:2273   */\n      pop\n        /* \"#utility.yul\":2340:2342   */\n      0x20\n        /* \"#utility.yul\":2329:2338   */\n      dup6\n        /* \"#utility.yul\":2325:2343   */\n      add\n        /* \"#utility.yul\":2312:2344   */\n      calldataload\n        /* \"#utility.yul\":2371:2389   */\n      0xffffffffffffffff\n        /* \"#utility.yul\":2363:2369   */\n      dup2\n        /* \"#utility.yul\":2360:2390   */\n      gt\n        /* \"#utility.yul\":2357:2359   */\n      iszero\n      tag_270\n      jumpi\n        /* \"#utility.yul\":2403:2404   */\n      0x00\n        /* \"#utility.yul\":2400:2401   */\n      dup1\n        /* \"#utility.yul\":2393:2405   */\n      revert\n        /* \"#utility.yul\":2357:2359   */\n    tag_270:\n        /* \"#utility.yul\":2431:2494   */\n      tag_271\n        /* \"#utility.yul\":2486:2493   */\n      dup8\n        /* \"#utility.yul\":2477:2483   */\n      dup3\n        /* \"#utility.yul\":2466:2475   */\n      dup9\n        /* \"#utility.yul\":2462:2484   */\n      add\n        /* \"#utility.yul\":2431:2494   */\n      tag_246\n      jump\t// in\n    tag_271:\n        /* \"#utility.yul\":2421:2494   */\n      swap4\n      pop\n        /* \"#utility.yul\":2283:2504   */\n      pop\n        /* \"#utility.yul\":2571:2573   */\n      0x40\n        /* \"#utility.yul\":2560:2569   */\n      dup6\n        /* \"#utility.yul\":2556:2574   */\n      add\n        /* \"#utility.yul\":2543:2575   */\n      calldataload\n        /* \"#utility.yul\":2602:2620   */\n      0xffffffffffffffff\n        /* \"#utility.yul\":2594:2600   */\n      dup2\n        /* \"#utility.yul\":2591:2621   */\n      gt\n        /* \"#utility.yul\":2588:2590   */\n      iszero\n      tag_272\n      jumpi\n        /* \"#utility.yul\":2634:2635   */\n      0x00\n        /* \"#utility.yul\":2631:2632   */\n      dup1\n        /* \"#utility.yul\":2624:2636   */\n      revert\n        /* \"#utility.yul\":2588:2590   */\n    tag_272:\n        /* \"#utility.yul\":2662:2725   */\n      tag_273\n        /* \"#utility.yul\":2717:2724   */\n      dup8\n        /* \"#utility.yul\":2708:2714   */\n      dup3\n        /* \"#utility.yul\":2697:2706   */\n      dup9\n        /* \"#utility.yul\":2693:2715   */\n      add\n        /* \"#utility.yul\":2662:2725   */\n      tag_246\n      jump\t// in\n    tag_273:\n        /* \"#utility.yul\":2652:2725   */\n      swap3\n      pop\n        /* \"#utility.yul\":2514:2735   */\n      pop\n        /* \"#utility.yul\":2774:2776   */\n      0x60\n        /* \"#utility.yul\":2800:2853   */\n      tag_274\n        /* \"#utility.yul\":2845:2852   */\n      dup8\n        /* \"#utility.yul\":2836:2842   */\n      dup3\n        /* \"#utility.yul\":2825:2834   */\n      dup9\n        /* \"#utility.yul\":2821:2843   */\n      add\n        /* \"#utility.yul\":2800:2853   */\n      tag_250\n      jump\t// in\n    tag_274:\n        /* \"#utility.yul\":2790:2853   */\n      swap2\n      pop\n        /* \"#utility.yul\":2745:2863   */\n      pop\n        /* \"#utility.yul\":1980:2870   */\n      swap3\n      swap6\n      swap2\n      swap5\n      pop\n      swap3\n      pop\n      jump\t// out\n        /* \"#utility.yul\":2876:3909   */\n    tag_15:\n      0x00\n      dup1\n      0x00\n      dup1\n        /* \"#utility.yul\":3063:3066   */\n      0x80\n        /* \"#utility.yul\":3051:3060   */\n      dup6\n        /* \"#utility.yul\":3042:3049   */\n      dup8\n        /* \"#utility.yul\":3038:3061   */\n      sub\n        /* \"#utility.yul\":3034:3067   */\n      slt\n        /* \"#utility.yul\":3031:3033   */\n      iszero\n      tag_276\n      jumpi\n        /* \"#utility.yul\":3080:3081   */\n      0x00\n        /* \"#utility.yul\":3077:3078   */\n      dup1\n        /* \"#utility.yul\":3070:3082   */\n      revert\n        /* \"#utility.yul\":3031:3033   */\n    tag_276:\n        /* \"#utility.yul\":3151:3152   */\n      0x00\n        /* \"#utility.yul\":3140:3149   */\n      dup6\n        /* \"#utility.yul\":3136:3153   */\n      add\n        /* \"#utility.yul\":3123:3154   */\n      calldataload\n        /* \"#utility.yul\":3181:3199   */\n      0xffffffffffffffff\n        /* \"#utility.yul\":3173:3179   */\n      dup2\n        /* \"#utility.yul\":3170:3200   */\n      gt\n        /* \"#utility.yul\":3167:3169   */\n      iszero\n      tag_277\n      jumpi\n        /* \"#utility.yul\":3213:3214   */\n      0x00\n        /* \"#utility.yul\":3210:3211   */\n      dup1\n        /* \"#utility.yul\":3203:3215   */\n      revert\n        /* \"#utility.yul\":3167:3169   */\n    tag_277:\n        /* \"#utility.yul\":3241:3304   */\n      tag_278\n        /* \"#utility.yul\":3296:3303   */\n      dup8\n        /* \"#utility.yul\":3287:3293   */\n      dup3\n        /* \"#utility.yul\":3276:3285   */\n      dup9\n        /* \"#utility.yul\":3272:3294   */\n      add\n        /* \"#utility.yul\":3241:3304   */\n      tag_246\n      jump\t// in\n    tag_278:\n        /* \"#utility.yul\":3231:3304   */\n      swap5\n      pop\n        /* \"#utility.yul\":3094:3314   */\n      pop\n        /* \"#utility.yul\":3381:3383   */\n      0x20\n        /* \"#utility.yul\":3370:3379   */\n      dup6\n        /* \"#utility.yul\":3366:3384   */\n      add\n        /* \"#utility.yul\":3353:3385   */\n      calldataload\n        /* \"#utility.yul\":3412:3430   */\n      0xffffffffffffffff\n        /* \"#utility.yul\":3404:3410   */\n      dup2\n        /* \"#utility.yul\":3401:3431   */\n      gt\n        /* \"#utility.yul\":3398:3400   */\n      iszero\n      tag_279\n      jumpi\n        /* \"#utility.yul\":3444:3445   */\n      0x00\n        /* \"#utility.yul\":3441:3442   */\n      dup1\n        /* \"#utility.yul\":3434:3446   */\n      revert\n        /* \"#utility.yul\":3398:3400   */\n    tag_279:\n        /* \"#utility.yul\":3472:3535   */\n      tag_280\n        /* \"#utility.yul\":3527:3534   */\n      dup8\n        /* \"#utility.yul\":3518:3524   */\n      dup3\n        /* \"#utility.yul\":3507:3516   */\n      dup9\n        /* \"#utility.yul\":3503:3525   */\n      add\n        /* \"#utility.yul\":3472:3535   */\n      tag_246\n      jump\t// in\n    tag_280:\n        /* \"#utility.yul\":3462:3535   */\n      swap4\n      pop\n        /* \"#utility.yul\":3324:3545   */\n      pop\n        /* \"#utility.yul\":3584:3586   */\n      0x40\n        /* \"#utility.yul\":3610:3661   */\n      tag_281\n        /* \"#utility.yul\":3653:3660   */\n      dup8\n        /* \"#utility.yul\":3644:3650   */\n      dup3\n        /* \"#utility.yul\":3633:3642   */\n      dup9\n        /* \"#utility.yul\":3629:3651   */\n      add\n        /* \"#utility.yul\":3610:3661   */\n      tag_254\n      jump\t// in\n    tag_281:\n        /* \"#utility.yul\":3600:3661   */\n      swap3\n      pop\n        /* \"#utility.yul\":3555:3671   */\n      pop\n        /* \"#utility.yul\":3738:3740   */\n      0x60\n        /* \"#utility.yul\":3727:3736   */\n      dup6\n        /* \"#utility.yul\":3723:3741   */\n      add\n        /* \"#utility.yul\":3710:3742   */\n      calldataload\n        /* \"#utility.yul\":3769:3787   */\n      0xffffffffffffffff\n        /* \"#utility.yul\":3761:3767   */\n      dup2\n        /* \"#utility.yul\":3758:3788   */\n      gt\n        /* \"#utility.yul\":3755:3757   */\n      iszero\n      tag_282\n      jumpi\n        /* \"#utility.yul\":3801:3802   */\n      0x00\n        /* \"#utility.yul\":3798:3799   */\n      dup1\n        /* \"#utility.yul\":3791:3803   */\n      revert\n        /* \"#utility.yul\":3755:3757   */\n    tag_282:\n        /* \"#utility.yul\":3829:3892   */\n      tag_283\n        /* \"#utility.yul\":3884:3891   */\n      dup8\n        /* \"#utility.yul\":3875:3881   */\n      dup3\n        /* \"#utility.yul\":3864:3873   */\n      dup9\n        /* \"#utility.yul\":3860:3882   */\n      add\n        /* \"#utility.yul\":3829:3892   */\n      tag_246\n      jump\t// in\n    tag_283:\n        /* \"#utility.yul\":3819:3892   */\n      swap2\n      pop\n        /* \"#utility.yul\":3681:3902   */\n      pop\n        /* \"#utility.yul\":3021:3909   */\n      swap3\n      swap6\n      swap2\n      swap5\n      pop\n      swap3\n      pop\n      jump\t// out\n        /* \"#utility.yul\":3915:4177   */\n    tag_37:\n      0x00\n        /* \"#utility.yul\":4023:4025   */\n      0x20\n        /* \"#utility.yul\":4011:4020   */\n      dup3\n        /* \"#utility.yul\":4002:4009   */\n      dup5\n        /* \"#utility.yul\":3998:4021   */\n      sub\n        /* \"#utility.yul\":3994:4026   */\n      slt\n        /* \"#utility.yul\":3991:3993   */\n      iszero\n      tag_285\n      jumpi\n        /* \"#utility.yul\":4039:4040   */\n      0x00\n        /* \"#utility.yul\":4036:4037   */\n      dup1\n        /* \"#utility.yul\":4029:4041   */\n      revert\n        /* \"#utility.yul\":3991:3993   */\n    tag_285:\n        /* \"#utility.yul\":4082:4083   */\n      0x00\n        /* \"#utility.yul\":4107:4160   */\n      tag_286\n        /* \"#utility.yul\":4152:4159   */\n      dup5\n        /* \"#utility.yul\":4143:4149   */\n      dup3\n        /* \"#utility.yul\":4132:4141   */\n      dup6\n        /* \"#utility.yul\":4128:4150   */\n      add\n        /* \"#utility.yul\":4107:4160   */\n      tag_250\n      jump\t// in\n    tag_286:\n        /* \"#utility.yul\":4097:4160   */\n      swap2\n      pop\n        /* \"#utility.yul\":4053:4170   */\n      pop\n        /* \"#utility.yul\":3981:4177   */\n      swap3\n      swap2\n      pop\n      pop\n      jump\t// out\n        /* \"#utility.yul\":4183:4379   */\n    tag_287:\n      0x00\n        /* \"#utility.yul\":4307:4373   */\n      tag_289\n        /* \"#utility.yul\":4369:4372   */\n      dup4\n        /* \"#utility.yul\":4361:4367   */\n      dup4\n        /* \"#utility.yul\":4307:4373   */\n      tag_290\n      jump\t// in\n    tag_289:\n        /* \"#utility.yul\":4293:4373   */\n      swap1\n      pop\n        /* \"#utility.yul\":4283:4379   */\n      swap3\n      swap2\n      pop\n      pop\n      jump\t// out\n        /* \"#utility.yul\":4385:4637   */\n    tag_291:\n      0x00\n        /* \"#utility.yul\":4537:4631   */\n      tag_293\n        /* \"#utility.yul\":4627:4630   */\n      dup4\n        /* \"#utility.yul\":4619:4625   */\n      dup4\n        /* \"#utility.yul\":4537:4631   */\n      tag_294\n      jump\t// in\n    tag_293:\n        /* \"#utility.yul\":4523:4631   */\n      swap1\n      pop\n        /* \"#utility.yul\":4513:4637   */\n      swap3\n      swap2\n      pop\n      pop\n      jump\t// out\n        /* \"#utility.yul\":4643:4822   */\n    tag_295:\n      0x00\n        /* \"#utility.yul\":4733:4779   */\n      tag_297\n        /* \"#utility.yul\":4775:4778   */\n      dup4\n        /* \"#utility.yul\":4767:4773   */\n      dup4\n        /* \"#utility.yul\":4733:4779   */\n      tag_298\n      jump\t// in\n    tag_297:\n        /* \"#utility.yul\":4811:4815   */\n      0x20\n        /* \"#utility.yul\":4806:4809   */\n      dup4\n        /* \"#utility.yul\":4802:4816   */\n      add\n        /* \"#utility.yul\":4788:4816   */\n      swap1\n      pop\n        /* \"#utility.yul\":4723:4822   */\n      swap3\n      swap2\n      pop\n      pop\n      jump\t// out\n        /* \"#utility.yul\":4828:4936   */\n    tag_299:\n        /* \"#utility.yul\":4905:4929   */\n      tag_301\n        /* \"#utility.yul\":4923:4928   */\n      dup2\n        /* \"#utility.yul\":4905:4929   */\n      tag_302\n      jump\t// in\n    tag_301:\n        /* \"#utility.yul\":4900:4903   */\n      dup3\n        /* \"#utility.yul\":4893:4930   */\n      mstore\n        /* \"#utility.yul\":4883:4936   */\n      pop\n      pop\n      jump\t// out\n        /* \"#utility.yul\":4942:5060   */\n    tag_303:\n        /* \"#utility.yul\":5029:5053   */\n      tag_305\n        /* \"#utility.yul\":5047:5052   */\n      dup2\n        /* \"#utility.yul\":5029:5053   */\n      tag_302\n      jump\t// in\n    tag_305:\n        /* \"#utility.yul\":5024:5027   */\n      dup3\n        /* \"#utility.yul\":5017:5054   */\n      mstore\n        /* \"#utility.yul\":5007:5060   */\n      pop\n      pop\n      jump\t// out\n        /* \"#utility.yul\":5094:6085   */\n    tag_306:\n      0x00\n        /* \"#utility.yul\":5262:5326   */\n      tag_308\n        /* \"#utility.yul\":5320:5325   */\n      dup3\n        /* \"#utility.yul\":5262:5326   */\n      tag_309\n      jump\t// in\n    tag_308:\n        /* \"#utility.yul\":5342:5438   */\n      tag_310\n        /* \"#utility.yul\":5431:5437   */\n      dup2\n        /* \"#utility.yul\":5426:5429   */\n      dup6\n        /* \"#utility.yul\":5342:5438   */\n      tag_311\n      jump\t// in\n    tag_310:\n        /* \"#utility.yul\":5335:5438   */\n      swap4\n      pop\n        /* \"#utility.yul\":5464:5467   */\n      dup4\n        /* \"#utility.yul\":5509:5513   */\n      0x20\n        /* \"#utility.yul\":5501:5507   */\n      dup3\n        /* \"#utility.yul\":5497:5514   */\n      mul\n        /* \"#utility.yul\":5492:5495   */\n      dup6\n        /* \"#utility.yul\":5488:5515   */\n      add\n        /* \"#utility.yul\":5539:5605   */\n      tag_312\n        /* \"#utility.yul\":5599:5604   */\n      dup6\n        /* \"#utility.yul\":5539:5605   */\n      tag_313\n      jump\t// in\n    tag_312:\n        /* \"#utility.yul\":5628:5635   */\n      dup1\n        /* \"#utility.yul\":5659:5660   */\n      0x00\n        /* \"#utility.yul\":5644:6040   */\n    tag_314:\n        /* \"#utility.yul\":5669:5675   */\n      dup6\n        /* \"#utility.yul\":5666:5667   */\n      dup2\n        /* \"#utility.yul\":5663:5676   */\n      lt\n        /* \"#utility.yul\":5644:6040   */\n      iszero\n      tag_316\n      jumpi\n        /* \"#utility.yul\":5740:5749   */\n      dup5\n        /* \"#utility.yul\":5734:5738   */\n      dup5\n        /* \"#utility.yul\":5730:5750   */\n      sub\n        /* \"#utility.yul\":5725:5728   */\n      dup10\n        /* \"#utility.yul\":5718:5751   */\n      mstore\n        /* \"#utility.yul\":5791:5797   */\n      dup2\n        /* \"#utility.yul\":5785:5798   */\n      mload\n        /* \"#utility.yul\":5819:5903   */\n      tag_317\n        /* \"#utility.yul\":5898:5902   */\n      dup6\n        /* \"#utility.yul\":5883:5896   */\n      dup3\n        /* \"#utility.yul\":5819:5903   */\n      tag_287\n      jump\t// in\n    tag_317:\n        /* \"#utility.yul\":5811:5903   */\n      swap5\n      pop\n        /* \"#utility.yul\":5926:5996   */\n      tag_318\n        /* \"#utility.yul\":5989:5995   */\n      dup4\n        /* \"#utility.yul\":5926:5996   */\n      tag_319\n      jump\t// in\n    tag_318:\n        /* \"#utility.yul\":5916:5996   */\n      swap3\n      pop\n        /* \"#utility.yul\":6025:6029   */\n      0x20\n        /* \"#utility.yul\":6020:6023   */\n      dup11\n        /* \"#utility.yul\":6016:6030   */\n      add\n        /* \"#utility.yul\":6009:6030   */\n      swap10\n      pop\n        /* \"#utility.yul\":5704:6040   */\n      pop\n        /* \"#utility.yul\":5691:5692   */\n      0x01\n        /* \"#utility.yul\":5688:5689   */\n      dup2\n        /* \"#utility.yul\":5684:5693   */\n      add\n        /* \"#utility.yul\":5679:5693   */\n      swap1\n      pop\n        /* \"#utility.yul\":5644:6040   */\n      jump(tag_314)\n    tag_316:\n        /* \"#utility.yul\":5648:5662   */\n      pop\n        /* \"#utility.yul\":6056:6060   */\n      dup3\n        /* \"#utility.yul\":6049:6060   */\n      swap8\n      pop\n        /* \"#utility.yul\":6076:6079   */\n      dup8\n        /* \"#utility.yul\":6069:6079   */\n      swap6\n      pop\n        /* \"#utility.yul\":5238:6085   */\n      pop\n      pop\n      pop\n      pop\n      pop\n      swap3\n      swap2\n      pop\n      pop\n      jump\t// out\n        /* \"#utility.yul\":6175:7278   */\n    tag_320:\n      0x00\n        /* \"#utility.yul\":6371:6449   */\n      tag_322\n        /* \"#utility.yul\":6443:6448   */\n      dup3\n        /* \"#utility.yul\":6371:6449   */\n      tag_323\n      jump\t// in\n    tag_322:\n        /* \"#utility.yul\":6465:6575   */\n      tag_324\n        /* \"#utility.yul\":6568:6574   */\n      dup2\n        /* \"#utility.yul\":6563:6566   */\n      dup6\n        /* \"#utility.yul\":6465:6575   */\n      tag_325\n      jump\t// in\n    tag_324:\n        /* \"#utility.yul\":6458:6575   */\n      swap4\n      pop\n        /* \"#utility.yul\":6601:6604   */\n      dup4\n        /* \"#utility.yul\":6646:6650   */\n      0x20\n        /* \"#utility.yul\":6638:6644   */\n      dup3\n        /* \"#utility.yul\":6634:6651   */\n      mul\n        /* \"#utility.yul\":6629:6632   */\n      dup6\n        /* \"#utility.yul\":6625:6652   */\n      add\n        /* \"#utility.yul\":6676:6756   */\n      tag_326\n        /* \"#utility.yul\":6750:6755   */\n      dup6\n        /* \"#utility.yul\":6676:6756   */\n      tag_327\n      jump\t// in\n    tag_326:\n        /* \"#utility.yul\":6779:6786   */\n      dup1\n        /* \"#utility.yul\":6810:6811   */\n      0x00\n        /* \"#utility.yul\":6795:7233   */\n    tag_328:\n        /* \"#utility.yul\":6820:6826   */\n      dup6\n        /* \"#utility.yul\":6817:6818   */\n      dup2\n        /* \"#utility.yul\":6814:6827   */\n      lt\n        /* \"#utility.yul\":6795:7233   */\n      iszero\n      tag_330\n      jumpi\n        /* \"#utility.yul\":6891:6900   */\n      dup5\n        /* \"#utility.yul\":6885:6889   */\n      dup5\n        /* \"#utility.yul\":6881:6901   */\n      sub\n        /* \"#utility.yul\":6876:6879   */\n      dup10\n        /* \"#utility.yul\":6869:6902   */\n      mstore\n        /* \"#utility.yul\":6942:6948   */\n      dup2\n        /* \"#utility.yul\":6936:6949   */\n      mload\n        /* \"#utility.yul\":6970:7082   */\n      tag_331\n        /* \"#utility.yul\":7077:7081   */\n      dup6\n        /* \"#utility.yul\":7062:7075   */\n      dup3\n        /* \"#utility.yul\":6970:7082   */\n      tag_291\n      jump\t// in\n    tag_331:\n        /* \"#utility.yul\":6962:7082   */\n      swap5\n      pop\n        /* \"#utility.yul\":7105:7189   */\n      tag_332\n        /* \"#utility.yul\":7182:7188   */\n      dup4\n        /* \"#utility.yul\":7105:7189   */\n      tag_333\n      jump\t// in\n    tag_332:\n        /* \"#utility.yul\":7095:7189   */\n      swap3\n      pop\n        /* \"#utility.yul\":7218:7222   */\n      0x20\n        /* \"#utility.yul\":7213:7216   */\n      dup11\n        /* \"#utility.yul\":7209:7223   */\n      add\n        /* \"#utility.yul\":7202:7223   */\n      swap10\n      pop\n        /* \"#utility.yul\":6855:7233   */\n      pop\n        /* \"#utility.yul\":6842:6843   */\n      0x01\n        /* \"#utility.yul\":6839:6840   */\n      dup2\n        /* \"#utility.yul\":6835:6844   */\n      add\n        /* \"#utility.yul\":6830:6844   */\n      swap1\n      pop\n        /* \"#utility.yul\":6795:7233   */\n      jump(tag_328)\n    tag_330:\n        /* \"#utility.yul\":6799:6813   */\n      pop\n        /* \"#utility.yul\":7249:7253   */\n      dup3\n        /* \"#utility.yul\":7242:7253   */\n      swap8\n      pop\n        /* \"#utility.yul\":7269:7272   */\n      dup8\n        /* \"#utility.yul\":7262:7272   */\n      swap6\n      pop\n        /* \"#utility.yul\":6347:7278   */\n      pop\n      pop\n      pop\n      pop\n      pop\n      swap3\n      swap2\n      pop\n      pop\n      jump\t// out\n        /* \"#utility.yul\":7314:8046   */\n    tag_334:\n      0x00\n        /* \"#utility.yul\":7462:7516   */\n      tag_336\n        /* \"#utility.yul\":7510:7515   */\n      dup3\n        /* \"#utility.yul\":7462:7516   */\n      tag_337\n      jump\t// in\n    tag_336:\n        /* \"#utility.yul\":7532:7618   */\n      tag_338\n        /* \"#utility.yul\":7611:7617   */\n      dup2\n        /* \"#utility.yul\":7606:7609   */\n      dup6\n        /* \"#utility.yul\":7532:7618   */\n      tag_339\n      jump\t// in\n    tag_338:\n        /* \"#utility.yul\":7525:7618   */\n      swap4\n      pop\n        /* \"#utility.yul\":7642:7698   */\n      tag_340\n        /* \"#utility.yul\":7692:7697   */\n      dup4\n        /* \"#utility.yul\":7642:7698   */\n      tag_341\n      jump\t// in\n    tag_340:\n        /* \"#utility.yul\":7721:7728   */\n      dup1\n        /* \"#utility.yul\":7752:7753   */\n      0x00\n        /* \"#utility.yul\":7737:8021   */\n    tag_342:\n        /* \"#utility.yul\":7762:7768   */\n      dup4\n        /* \"#utility.yul\":7759:7760   */\n      dup2\n        /* \"#utility.yul\":7756:7769   */\n      lt\n        /* \"#utility.yul\":7737:8021   */\n      iszero\n      tag_344\n      jumpi\n        /* \"#utility.yul\":7838:7844   */\n      dup2\n        /* \"#utility.yul\":7832:7845   */\n      mload\n        /* \"#utility.yul\":7865:7928   */\n      tag_345\n        /* \"#utility.yul\":7924:7927   */\n      dup9\n        /* \"#utility.yul\":7909:7922   */\n      dup3\n        /* \"#utility.yul\":7865:7928   */\n      tag_295\n      jump\t// in\n    tag_345:\n        /* \"#utility.yul\":7858:7928   */\n      swap8\n      pop\n        /* \"#utility.yul\":7951:8011   */\n      tag_346\n        /* \"#utility.yul\":8004:8010   */\n      dup4\n        /* \"#utility.yul\":7951:8011   */\n      tag_347\n      jump\t// in\n    tag_346:\n        /* \"#utility.yul\":7941:8011   */\n      swap3\n      pop\n        /* \"#utility.yul\":7797:8021   */\n      pop\n        /* \"#utility.yul\":7784:7785   */\n      0x01\n        /* \"#utility.yul\":7781:7782   */\n      dup2\n        /* \"#utility.yul\":7777:7786   */\n      add\n        /* \"#utility.yul\":7772:7786   */\n      swap1\n      pop\n        /* \"#utility.yul\":7737:8021   */\n      jump(tag_342)\n    tag_344:\n        /* \"#utility.yul\":7741:7755   */\n      pop\n        /* \"#utility.yul\":8037:8040   */\n      dup6\n        /* \"#utility.yul\":8030:8040   */\n      swap4\n      pop\n        /* \"#utility.yul\":7438:8046   */\n      pop\n      pop\n      pop\n      swap3\n      swap2\n      pop\n      pop\n      jump\t// out\n        /* \"#utility.yul\":8052:8195   */\n    tag_348:\n        /* \"#utility.yul\":8145:8188   */\n      tag_350\n        /* \"#utility.yul\":8182:8187   */\n      dup2\n        /* \"#utility.yul\":8145:8188   */\n      tag_351\n      jump\t// in\n    tag_350:\n        /* \"#utility.yul\":8140:8143   */\n      dup3\n        /* \"#utility.yul\":8133:8189   */\n      mstore\n        /* \"#utility.yul\":8123:8195   */\n      pop\n      pop\n      jump\t// out\n        /* \"#utility.yul\":8201:8545   */\n    tag_290:\n      0x00\n        /* \"#utility.yul\":8307:8346   */\n      tag_353\n        /* \"#utility.yul\":8340:8345   */\n      dup3\n        /* \"#utility.yul\":8307:8346   */\n      tag_354\n      jump\t// in\n    tag_353:\n        /* \"#utility.yul\":8362:8423   */\n      tag_355\n        /* \"#utility.yul\":8416:8422   */\n      dup2\n        /* \"#utility.yul\":8411:8414   */\n      dup6\n        /* \"#utility.yul\":8362:8423   */\n      tag_356\n      jump\t// in\n    tag_355:\n        /* \"#utility.yul\":8355:8423   */\n      swap4\n      pop\n        /* \"#utility.yul\":8432:8484   */\n      tag_357\n        /* \"#utility.yul\":8477:8483   */\n      dup2\n        /* \"#utility.yul\":8472:8475   */\n      dup6\n        /* \"#utility.yul\":8465:8469   */\n      0x20\n        /* \"#utility.yul\":8458:8463   */\n      dup7\n        /* \"#utility.yul\":8454:8470   */\n      add\n        /* \"#utility.yul\":8432:8484   */\n      tag_358\n      jump\t// in\n    tag_357:\n        /* \"#utility.yul\":8509:8538   */\n      tag_359\n        /* \"#utility.yul\":8531:8537   */\n      dup2\n        /* \"#utility.yul\":8509:8538   */\n      tag_360\n      jump\t// in\n    tag_359:\n        /* \"#utility.yul\":8504:8507   */\n      dup5\n        /* \"#utility.yul\":8500:8539   */\n      add\n        /* \"#utility.yul\":8493:8539   */\n      swap2\n      pop\n        /* \"#utility.yul\":8283:8545   */\n      pop\n      swap3\n      swap2\n      pop\n      pop\n      jump\t// out\n        /* \"#utility.yul\":8551:8915   */\n    tag_361:\n      0x00\n        /* \"#utility.yul\":8667:8706   */\n      tag_363\n        /* \"#utility.yul\":8700:8705   */\n      dup3\n        /* \"#utility.yul\":8667:8706   */\n      tag_354\n      jump\t// in\n    tag_363:\n        /* \"#utility.yul\":8722:8793   */\n      tag_364\n        /* \"#utility.yul\":8786:8792   */\n      dup2\n        /* \"#utility.yul\":8781:8784   */\n      dup6\n        /* \"#utility.yul\":8722:8793   */\n      tag_365\n      jump\t// in\n    tag_364:\n        /* \"#utility.yul\":8715:8793   */\n      swap4\n      pop\n        /* \"#utility.yul\":8802:8854   */\n      tag_366\n        /* \"#utility.yul\":8847:8853   */\n      dup2\n        /* \"#utility.yul\":8842:8845   */\n      dup6\n        /* \"#utility.yul\":8835:8839   */\n      0x20\n        /* \"#utility.yul\":8828:8833   */\n      dup7\n        /* \"#utility.yul\":8824:8840   */\n      add\n        /* \"#utility.yul\":8802:8854   */\n      tag_358\n      jump\t// in\n    tag_366:\n        /* \"#utility.yul\":8879:8908   */\n      tag_367\n        /* \"#utility.yul\":8901:8907   */\n      dup2\n        /* \"#utility.yul\":8879:8908   */\n      tag_360\n      jump\t// in\n    tag_367:\n        /* \"#utility.yul\":8874:8877   */\n      dup5\n        /* \"#utility.yul\":8870:8909   */\n      add\n        /* \"#utility.yul\":8863:8909   */\n      swap2\n      pop\n        /* \"#utility.yul\":8643:8915   */\n      pop\n      swap3\n      swap2\n      pop\n      pop\n      jump\t// out\n        /* \"#utility.yul\":8921:9298   */\n    tag_368:\n      0x00\n        /* \"#utility.yul\":9055:9094   */\n      tag_370\n        /* \"#utility.yul\":9088:9093   */\n      dup3\n        /* \"#utility.yul\":9055:9094   */\n      tag_354\n      jump\t// in\n    tag_370:\n        /* \"#utility.yul\":9110:9199   */\n      tag_371\n        /* \"#utility.yul\":9192:9198   */\n      dup2\n        /* \"#utility.yul\":9187:9190   */\n      dup6\n        /* \"#utility.yul\":9110:9199   */\n      tag_372\n      jump\t// in\n    tag_371:\n        /* \"#utility.yul\":9103:9199   */\n      swap4\n      pop\n        /* \"#utility.yul\":9208:9260   */\n      tag_373\n        /* \"#utility.yul\":9253:9259   */\n      dup2\n        /* \"#utility.yul\":9248:9251   */\n      dup6\n        /* \"#utility.yul\":9241:9245   */\n      0x20\n        /* \"#utility.yul\":9234:9239   */\n      dup7\n        /* \"#utility.yul\":9230:9246   */\n      add\n        /* \"#utility.yul\":9208:9260   */\n      tag_358\n      jump\t// in\n    tag_373:\n        /* \"#utility.yul\":9285:9291   */\n      dup1\n        /* \"#utility.yul\":9280:9283   */\n      dup5\n        /* \"#utility.yul\":9276:9292   */\n      add\n        /* \"#utility.yul\":9269:9292   */\n      swap2\n      pop\n        /* \"#utility.yul\":9031:9298   */\n      pop\n      swap3\n      swap2\n      pop\n      pop\n      jump\t// out\n        /* \"#utility.yul\":9304:9630   */\n    tag_374:\n      0x00\n        /* \"#utility.yul\":9467:9534   */\n      tag_376\n        /* \"#utility.yul\":9531:9533   */\n      0x1c\n        /* \"#utility.yul\":9526:9529   */\n      dup4\n        /* \"#utility.yul\":9467:9534   */\n      tag_365\n      jump\t// in\n    tag_376:\n        /* \"#utility.yul\":9460:9534   */\n      swap2\n      pop\n        /* \"#utility.yul\":9564:9594   */\n      0x536f6d656e7465206f20646f6e6f20706f646520657865637574617200000000\n        /* \"#utility.yul\":9560:9561   */\n      0x00\n        /* \"#utility.yul\":9555:9558   */\n      dup4\n        /* \"#utility.yul\":9551:9562   */\n      add\n        /* \"#utility.yul\":9544:9595   */\n      mstore\n        /* \"#utility.yul\":9621:9623   */\n      0x20\n        /* \"#utility.yul\":9616:9619   */\n      dup3\n        /* \"#utility.yul\":9612:9624   */\n      add\n        /* \"#utility.yul\":9605:9624   */\n      swap1\n      pop\n        /* \"#utility.yul\":9450:9630   */\n      swap2\n      swap1\n      pop\n      jump\t// out\n        /* \"#utility.yul\":9636:9955   */\n    tag_377:\n      0x00\n        /* \"#utility.yul\":9799:9866   */\n      tag_379\n        /* \"#utility.yul\":9863:9865   */\n      0x15\n        /* \"#utility.yul\":9858:9861   */\n      dup4\n        /* \"#utility.yul\":9799:9866   */\n      tag_365\n      jump\t// in\n    tag_379:\n        /* \"#utility.yul\":9792:9866   */\n      swap2\n      pop\n        /* \"#utility.yul\":9896:9919   */\n      0x507265636f206e616f20636f6e666967757261646f0000000000000000000000\n        /* \"#utility.yul\":9892:9893   */\n      0x00\n        /* \"#utility.yul\":9887:9890   */\n      dup4\n        /* \"#utility.yul\":9883:9894   */\n      add\n        /* \"#utility.yul\":9876:9920   */\n      mstore\n        /* \"#utility.yul\":9946:9948   */\n      0x20\n        /* \"#utility.yul\":9941:9944   */\n      dup3\n        /* \"#utility.yul\":9937:9949   */\n      add\n        /* \"#utility.yul\":9930:9949   */\n      swap1\n      pop\n        /* \"#utility.yul\":9782:9955   */\n      swap2\n      swap1\n      pop\n      jump\t// out\n        /* \"#utility.yul\":9961:10277   */\n    tag_380:\n      0x00\n        /* \"#utility.yul\":10124:10191   */\n      tag_382\n        /* \"#utility.yul\":10188:10190   */\n      0x12\n        /* \"#utility.yul\":10183:10186   */\n      dup4\n        /* \"#utility.yul\":10124:10191   */\n      tag_365\n      jump\t// in\n    tag_382:\n        /* \"#utility.yul\":10117:10191   */\n      swap2\n      pop\n        /* \"#utility.yul\":10221:10241   */\n      0x56616c6f7220696e737566696369656e74650000000000000000000000000000\n        /* \"#utility.yul\":10217:10218   */\n      0x00\n        /* \"#utility.yul\":10212:10215   */\n      dup4\n        /* \"#utility.yul\":10208:10219   */\n      add\n        /* \"#utility.yul\":10201:10242   */\n      mstore\n        /* \"#utility.yul\":10268:10270   */\n      0x20\n        /* \"#utility.yul\":10263:10266   */\n      dup3\n        /* \"#utility.yul\":10259:10271   */\n      add\n        /* \"#utility.yul\":10252:10271   */\n      swap1\n      pop\n        /* \"#utility.yul\":10107:10277   */\n      swap2\n      swap1\n      pop\n      jump\t// out\n        /* \"#utility.yul\":10283:10595   */\n    tag_383:\n      0x00\n        /* \"#utility.yul\":10446:10513   */\n      tag_385\n        /* \"#utility.yul\":10510:10512   */\n      0x0e\n        /* \"#utility.yul\":10505:10508   */\n      dup4\n        /* \"#utility.yul\":10446:10513   */\n      tag_365\n      jump\t// in\n    tag_385:\n        /* \"#utility.yul\":10439:10513   */\n      swap2\n      pop\n        /* \"#utility.yul\":10543:10559   */\n      0x4e6f69746520696e76616c696461000000000000000000000000000000000000\n        /* \"#utility.yul\":10539:10540   */\n      0x00\n        /* \"#utility.yul\":10534:10537   */\n      dup4\n        /* \"#utility.yul\":10530:10541   */\n      add\n        /* \"#utility.yul\":10523:10560   */\n      mstore\n        /* \"#utility.yul\":10586:10588   */\n      0x20\n        /* \"#utility.yul\":10581:10584   */\n      dup3\n        /* \"#utility.yul\":10577:10589   */\n      add\n        /* \"#utility.yul\":10570:10589   */\n      swap1\n      pop\n        /* \"#utility.yul\":10429:10595   */\n      swap2\n      swap1\n      pop\n      jump\t// out\n        /* \"#utility.yul\":10681:12363   */\n    tag_294:\n      0x00\n        /* \"#utility.yul\":10824:10828   */\n      0xe0\n        /* \"#utility.yul\":10819:10822   */\n      dup4\n        /* \"#utility.yul\":10815:10829   */\n      add\n        /* \"#utility.yul\":10909:10913   */\n      0x00\n        /* \"#utility.yul\":10902:10907   */\n      dup4\n        /* \"#utility.yul\":10898:10914   */\n      add\n        /* \"#utility.yul\":10892:10915   */\n      mload\n        /* \"#utility.yul\":10928:10991   */\n      tag_387\n        /* \"#utility.yul\":10985:10989   */\n      0x00\n        /* \"#utility.yul\":10980:10983   */\n      dup7\n        /* \"#utility.yul\":10976:10990   */\n      add\n        /* \"#utility.yul\":10962:10974   */\n      dup3\n        /* \"#utility.yul\":10928:10991   */\n      tag_298\n      jump\t// in\n    tag_387:\n        /* \"#utility.yul\":10839:11001   */\n      pop\n        /* \"#utility.yul\":11083:11087   */\n      0x20\n        /* \"#utility.yul\":11076:11081   */\n      dup4\n        /* \"#utility.yul\":11072:11088   */\n      add\n        /* \"#utility.yul\":11066:11089   */\n      mload\n        /* \"#utility.yul\":11136:11139   */\n      dup5\n        /* \"#utility.yul\":11130:11134   */\n      dup3\n        /* \"#utility.yul\":11126:11140   */\n      sub\n        /* \"#utility.yul\":11119:11123   */\n      0x20\n        /* \"#utility.yul\":11114:11117   */\n      dup7\n        /* \"#utility.yul\":11110:11124   */\n      add\n        /* \"#utility.yul\":11103:11141   */\n      mstore\n        /* \"#utility.yul\":11162:11235   */\n      tag_388\n        /* \"#utility.yul\":11230:11234   */\n      dup3\n        /* \"#utility.yul\":11216:11228   */\n      dup3\n        /* \"#utility.yul\":11162:11235   */\n      tag_290\n      jump\t// in\n    tag_388:\n        /* \"#utility.yul\":11154:11235   */\n      swap2\n      pop\n        /* \"#utility.yul\":11011:11246   */\n      pop\n        /* \"#utility.yul\":11328:11332   */\n      0x40\n        /* \"#utility.yul\":11321:11326   */\n      dup4\n        /* \"#utility.yul\":11317:11333   */\n      add\n        /* \"#utility.yul\":11311:11334   */\n      mload\n        /* \"#utility.yul\":11381:11384   */\n      dup5\n        /* \"#utility.yul\":11375:11379   */\n      dup3\n        /* \"#utility.yul\":11371:11385   */\n      sub\n        /* \"#utility.yul\":11364:11368   */\n      0x40\n        /* \"#utility.yul\":11359:11362   */\n      dup7\n        /* \"#utility.yul\":11355:11369   */\n      add\n        /* \"#utility.yul\":11348:11386   */\n      mstore\n        /* \"#utility.yul\":11407:11480   */\n      tag_389\n        /* \"#utility.yul\":11475:11479   */\n      dup3\n        /* \"#utility.yul\":11461:11473   */\n      dup3\n        /* \"#utility.yul\":11407:11480   */\n      tag_290\n      jump\t// in\n    tag_389:\n        /* \"#utility.yul\":11399:11480   */\n      swap2\n      pop\n        /* \"#utility.yul\":11256:11491   */\n      pop\n        /* \"#utility.yul\":11578:11582   */\n      0x60\n        /* \"#utility.yul\":11571:11576   */\n      dup4\n        /* \"#utility.yul\":11567:11583   */\n      add\n        /* \"#utility.yul\":11561:11584   */\n      mload\n        /* \"#utility.yul\":11631:11634   */\n      dup5\n        /* \"#utility.yul\":11625:11629   */\n      dup3\n        /* \"#utility.yul\":11621:11635   */\n      sub\n        /* \"#utility.yul\":11614:11618   */\n      0x60\n        /* \"#utility.yul\":11609:11612   */\n      dup7\n        /* \"#utility.yul\":11605:11619   */\n      add\n        /* \"#utility.yul\":11598:11636   */\n      mstore\n        /* \"#utility.yul\":11657:11730   */\n      tag_390\n        /* \"#utility.yul\":11725:11729   */\n      dup3\n        /* \"#utility.yul\":11711:11723   */\n      dup3\n        /* \"#utility.yul\":11657:11730   */\n      tag_290\n      jump\t// in\n    tag_390:\n        /* \"#utility.yul\":11649:11730   */\n      swap2\n      pop\n        /* \"#utility.yul\":11501:11741   */\n      pop\n        /* \"#utility.yul\":11824:11828   */\n      0x80\n        /* \"#utility.yul\":11817:11822   */\n      dup4\n        /* \"#utility.yul\":11813:11829   */\n      add\n        /* \"#utility.yul\":11807:11830   */\n      mload\n        /* \"#utility.yul\":11843:11902   */\n      tag_391\n        /* \"#utility.yul\":11896:11900   */\n      0x80\n        /* \"#utility.yul\":11891:11894   */\n      dup7\n        /* \"#utility.yul\":11887:11901   */\n      add\n        /* \"#utility.yul\":11873:11885   */\n      dup3\n        /* \"#utility.yul\":11843:11902   */\n      tag_392\n      jump\t// in\n    tag_391:\n        /* \"#utility.yul\":11751:11912   */\n      pop\n        /* \"#utility.yul\":11994:11998   */\n      0xa0\n        /* \"#utility.yul\":11987:11992   */\n      dup4\n        /* \"#utility.yul\":11983:11999   */\n      add\n        /* \"#utility.yul\":11977:12000   */\n      mload\n        /* \"#utility.yul\":12047:12050   */\n      dup5\n        /* \"#utility.yul\":12041:12045   */\n      dup3\n        /* \"#utility.yul\":12037:12051   */\n      sub\n        /* \"#utility.yul\":12030:12034   */\n      0xa0\n        /* \"#utility.yul\":12025:12028   */\n      dup7\n        /* \"#utility.yul\":12021:12035   */\n      add\n        /* \"#utility.yul\":12014:12052   */\n      mstore\n        /* \"#utility.yul\":12073:12146   */\n      tag_393\n        /* \"#utility.yul\":12141:12145   */\n      dup3\n        /* \"#utility.yul\":12127:12139   */\n      dup3\n        /* \"#utility.yul\":12073:12146   */\n      tag_290\n      jump\t// in\n    tag_393:\n        /* \"#utility.yul\":12065:12146   */\n      swap2\n      pop\n        /* \"#utility.yul\":11922:12157   */\n      pop\n        /* \"#utility.yul\":12244:12248   */\n      0xc0\n        /* \"#utility.yul\":12237:12242   */\n      dup4\n        /* \"#utility.yul\":12233:12249   */\n      add\n        /* \"#utility.yul\":12227:12250   */\n      mload\n        /* \"#utility.yul\":12263:12326   */\n      tag_394\n        /* \"#utility.yul\":12320:12324   */\n      0xc0\n        /* \"#utility.yul\":12315:12318   */\n      dup7\n        /* \"#utility.yul\":12311:12325   */\n      add\n        /* \"#utility.yul\":12297:12309   */\n      dup3\n        /* \"#utility.yul\":12263:12326   */\n      tag_299\n      jump\t// in\n    tag_394:\n        /* \"#utility.yul\":12167:12336   */\n      pop\n        /* \"#utility.yul\":12353:12357   */\n      dup1\n        /* \"#utility.yul\":12346:12357   */\n      swap2\n      pop\n        /* \"#utility.yul\":10793:12363   */\n      pop\n      swap3\n      swap2\n      pop\n      pop\n      jump\t// out\n        /* \"#utility.yul\":12369:12477   */\n    tag_298:\n        /* \"#utility.yul\":12446:12470   */\n      tag_396\n        /* \"#utility.yul\":12464:12469   */\n      dup2\n        /* \"#utility.yul\":12446:12470   */\n      tag_397\n      jump\t// in\n    tag_396:\n        /* \"#utility.yul\":12441:12444   */\n      dup3\n        /* \"#utility.yul\":12434:12471   */\n      mstore\n        /* \"#utility.yul\":12424:12477   */\n      pop\n      pop\n      jump\t// out\n        /* \"#utility.yul\":12483:12601   */\n    tag_398:\n        /* \"#utility.yul\":12570:12594   */\n      tag_400\n        /* \"#utility.yul\":12588:12593   */\n      dup2\n        /* \"#utility.yul\":12570:12594   */\n      tag_397\n      jump\t// in\n    tag_400:\n        /* \"#utility.yul\":12565:12568   */\n      dup3\n        /* \"#utility.yul\":12558:12595   */\n      mstore\n        /* \"#utility.yul\":12548:12601   */\n      pop\n      pop\n      jump\t// out\n        /* \"#utility.yul\":12607:12709   */\n    tag_392:\n        /* \"#utility.yul\":12680:12702   */\n      tag_402\n        /* \"#utility.yul\":12696:12701   */\n      dup2\n        /* \"#utility.yul\":12680:12702   */\n      tag_403\n      jump\t// in\n    tag_402:\n        /* \"#utility.yul\":12675:12678   */\n      dup3\n        /* \"#utility.yul\":12668:12703   */\n      mstore\n        /* \"#utility.yul\":12658:12709   */\n      pop\n      pop\n      jump\t// out\n        /* \"#utility.yul\":12715:12827   */\n    tag_404:\n        /* \"#utility.yul\":12798:12820   */\n      tag_406\n        /* \"#utility.yul\":12814:12819   */\n      dup2\n        /* \"#utility.yul\":12798:12820   */\n      tag_403\n      jump\t// in\n    tag_406:\n        /* \"#utility.yul\":12793:12796   */\n      dup3\n        /* \"#utility.yul\":12786:12821   */\n      mstore\n        /* \"#utility.yul\":12776:12827   */\n      pop\n      pop\n      jump\t// out\n        /* \"#utility.yul\":12833:13108   */\n    tag_67:\n      0x00\n        /* \"#utility.yul\":12987:13082   */\n      tag_408\n        /* \"#utility.yul\":13078:13081   */\n      dup3\n        /* \"#utility.yul\":13069:13075   */\n      dup5\n        /* \"#utility.yul\":12987:13082   */\n      tag_368\n      jump\t// in\n    tag_408:\n        /* \"#utility.yul\":12980:13082   */\n      swap2\n      pop\n        /* \"#utility.yul\":13099:13102   */\n      dup2\n        /* \"#utility.yul\":13092:13102   */\n      swap1\n      pop\n        /* \"#utility.yul\":12969:13108   */\n      swap3\n      swap2\n      pop\n      pop\n      jump\t// out\n        /* \"#utility.yul\":13114:13336   */\n    tag_45:\n      0x00\n        /* \"#utility.yul\":13245:13247   */\n      0x20\n        /* \"#utility.yul\":13234:13243   */\n      dup3\n        /* \"#utility.yul\":13230:13248   */\n      add\n        /* \"#utility.yul\":13222:13248   */\n      swap1\n      pop\n        /* \"#utility.yul\":13258:13329   */\n      tag_410\n        /* \"#utility.yul\":13326:13327   */\n      0x00\n        /* \"#utility.yul\":13315:13324   */\n      dup4\n        /* \"#utility.yul\":13311:13328   */\n      add\n        /* \"#utility.yul\":13302:13308   */\n      dup5\n        /* \"#utility.yul\":13258:13329   */\n      tag_303\n      jump\t// in\n    tag_410:\n        /* \"#utility.yul\":13212:13336   */\n      swap3\n      swap2\n      pop\n      pop\n      jump\t// out\n        /* \"#utility.yul\":13342:14619   */\n    tag_50:\n      0x00\n        /* \"#utility.yul\":13817:13820   */\n      0x80\n        /* \"#utility.yul\":13806:13815   */\n      dup3\n        /* \"#utility.yul\":13802:13821   */\n      add\n        /* \"#utility.yul\":13794:13821   */\n      swap1\n      pop\n        /* \"#utility.yul\":13867:13876   */\n      dup2\n        /* \"#utility.yul\":13861:13865   */\n      dup2\n        /* \"#utility.yul\":13857:13877   */\n      sub\n        /* \"#utility.yul\":13853:13854   */\n      0x00\n        /* \"#utility.yul\":13842:13851   */\n      dup4\n        /* \"#utility.yul\":13838:13855   */\n      add\n        /* \"#utility.yul\":13831:13878   */\n      mstore\n        /* \"#utility.yul\":13895:14023   */\n      tag_412\n        /* \"#utility.yul\":14018:14022   */\n      dup2\n        /* \"#utility.yul\":14009:14015   */\n      dup8\n        /* \"#utility.yul\":13895:14023   */\n      tag_306\n      jump\t// in\n    tag_412:\n        /* \"#utility.yul\":13887:14023   */\n      swap1\n      pop\n        /* \"#utility.yul\":14070:14079   */\n      dup2\n        /* \"#utility.yul\":14064:14068   */\n      dup2\n        /* \"#utility.yul\":14060:14080   */\n      sub\n        /* \"#utility.yul\":14055:14057   */\n      0x20\n        /* \"#utility.yul\":14044:14053   */\n      dup4\n        /* \"#utility.yul\":14040:14058   */\n      add\n        /* \"#utility.yul\":14033:14081   */\n      mstore\n        /* \"#utility.yul\":14098:14226   */\n      tag_413\n        /* \"#utility.yul\":14221:14225   */\n      dup2\n        /* \"#utility.yul\":14212:14218   */\n      dup7\n        /* \"#utility.yul\":14098:14226   */\n      tag_306\n      jump\t// in\n    tag_413:\n        /* \"#utility.yul\":14090:14226   */\n      swap1\n      pop\n        /* \"#utility.yul\":14273:14282   */\n      dup2\n        /* \"#utility.yul\":14267:14271   */\n      dup2\n        /* \"#utility.yul\":14263:14283   */\n      sub\n        /* \"#utility.yul\":14258:14260   */\n      0x40\n        /* \"#utility.yul\":14247:14256   */\n      dup4\n        /* \"#utility.yul\":14243:14261   */\n      add\n        /* \"#utility.yul\":14236:14284   */\n      mstore\n        /* \"#utility.yul\":14301:14429   */\n      tag_414\n        /* \"#utility.yul\":14424:14428   */\n      dup2\n        /* \"#utility.yul\":14415:14421   */\n      dup6\n        /* \"#utility.yul\":14301:14429   */\n      tag_306\n      jump\t// in\n    tag_414:\n        /* \"#utility.yul\":14293:14429   */\n      swap1\n      pop\n        /* \"#utility.yul\":14476:14485   */\n      dup2\n        /* \"#utility.yul\":14470:14474   */\n      dup2\n        /* \"#utility.yul\":14466:14486   */\n      sub\n        /* \"#utility.yul\":14461:14463   */\n      0x60\n        /* \"#utility.yul\":14450:14459   */\n      dup4\n        /* \"#utility.yul\":14446:14464   */\n      add\n        /* \"#utility.yul\":14439:14487   */\n      mstore\n        /* \"#utility.yul\":14504:14612   */\n      tag_415\n        /* \"#utility.yul\":14607:14611   */\n      dup2\n        /* \"#utility.yul\":14598:14604   */\n      dup5\n        /* \"#utility.yul\":14504:14612   */\n      tag_334\n      jump\t// in\n    tag_415:\n        /* \"#utility.yul\":14496:14612   */\n      swap1\n      pop\n        /* \"#utility.yul\":13784:14619   */\n      swap6\n      swap5\n      pop\n      pop\n      pop\n      pop\n      pop\n      jump\t// out\n        /* \"#utility.yul\":14625:15094   */\n    tag_21:\n      0x00\n        /* \"#utility.yul\":14854:14856   */\n      0x20\n        /* \"#utility.yul\":14843:14852   */\n      dup3\n        /* \"#utility.yul\":14839:14857   */\n      add\n        /* \"#utility.yul\":14831:14857   */\n      swap1\n      pop\n        /* \"#utility.yul\":14903:14912   */\n      dup2\n        /* \"#utility.yul\":14897:14901   */\n      dup2\n        /* \"#utility.yul\":14893:14913   */\n      sub\n        /* \"#utility.yul\":14889:14890   */\n      0x00\n        /* \"#utility.yul\":14878:14887   */\n      dup4\n        /* \"#utility.yul\":14874:14891   */\n      add\n        /* \"#utility.yul\":14867:14914   */\n      mstore\n        /* \"#utility.yul\":14931:15087   */\n      tag_417\n        /* \"#utility.yul\":15082:15086   */\n      dup2\n        /* \"#utility.yul\":15073:15079   */\n      dup5\n        /* \"#utility.yul\":14931:15087   */\n      tag_320\n      jump\t// in\n    tag_417:\n        /* \"#utility.yul\":14923:15087   */\n      swap1\n      pop\n        /* \"#utility.yul\":14821:15094   */\n      swap3\n      swap2\n      pop\n      pop\n      jump\t// out\n        /* \"#utility.yul\":15100:15519   */\n    tag_121:\n      0x00\n        /* \"#utility.yul\":15304:15306   */\n      0x20\n        /* \"#utility.yul\":15293:15302   */\n      dup3\n        /* \"#utility.yul\":15289:15307   */\n      add\n        /* \"#utility.yul\":15281:15307   */\n      swap1\n      pop\n        /* \"#utility.yul\":15353:15362   */\n      dup2\n        /* \"#utility.yul\":15347:15351   */\n      dup2\n        /* \"#utility.yul\":15343:15363   */\n      sub\n        /* \"#utility.yul\":15339:15340   */\n      0x00\n        /* \"#utility.yul\":15328:15337   */\n      dup4\n        /* \"#utility.yul\":15324:15341   */\n      add\n        /* \"#utility.yul\":15317:15364   */\n      mstore\n        /* \"#utility.yul\":15381:15512   */\n      tag_419\n        /* \"#utility.yul\":15507:15511   */\n      dup2\n        /* \"#utility.yul\":15381:15512   */\n      tag_374\n      jump\t// in\n    tag_419:\n        /* \"#utility.yul\":15373:15512   */\n      swap1\n      pop\n        /* \"#utility.yul\":15271:15519   */\n      swap2\n      swap1\n      pop\n      jump\t// out\n        /* \"#utility.yul\":15525:15944   */\n    tag_72:\n      0x00\n        /* \"#utility.yul\":15729:15731   */\n      0x20\n        /* \"#utility.yul\":15718:15727   */\n      dup3\n        /* \"#utility.yul\":15714:15732   */\n      add\n        /* \"#utility.yul\":15706:15732   */\n      swap1\n      pop\n        /* \"#utility.yul\":15778:15787   */\n      dup2\n        /* \"#utility.yul\":15772:15776   */\n      dup2\n        /* \"#utility.yul\":15768:15788   */\n      sub\n        /* \"#utility.yul\":15764:15765   */\n      0x00\n        /* \"#utility.yul\":15753:15762   */\n      dup4\n        /* \"#utility.yul\":15749:15766   */\n      add\n        /* \"#utility.yul\":15742:15789   */\n      mstore\n        /* \"#utility.yul\":15806:15937   */\n      tag_421\n        /* \"#utility.yul\":15932:15936   */\n      dup2\n        /* \"#utility.yul\":15806:15937   */\n      tag_377\n      jump\t// in\n    tag_421:\n        /* \"#utility.yul\":15798:15937   */\n      swap1\n      pop\n        /* \"#utility.yul\":15696:15944   */\n      swap2\n      swap1\n      pop\n      jump\t// out\n        /* \"#utility.yul\":15950:16369   */\n    tag_75:\n      0x00\n        /* \"#utility.yul\":16154:16156   */\n      0x20\n        /* \"#utility.yul\":16143:16152   */\n      dup3\n        /* \"#utility.yul\":16139:16157   */\n      add\n        /* \"#utility.yul\":16131:16157   */\n      swap1\n      pop\n        /* \"#utility.yul\":16203:16212   */\n      dup2\n        /* \"#utility.yul\":16197:16201   */\n      dup2\n        /* \"#utility.yul\":16193:16213   */\n      sub\n        /* \"#utility.yul\":16189:16190   */\n      0x00\n        /* \"#utility.yul\":16178:16187   */\n      dup4\n        /* \"#utility.yul\":16174:16191   */\n      add\n        /* \"#utility.yul\":16167:16214   */\n      mstore\n        /* \"#utility.yul\":16231:16362   */\n      tag_423\n        /* \"#utility.yul\":16357:16361   */\n      dup2\n        /* \"#utility.yul\":16231:16362   */\n      tag_380\n      jump\t// in\n    tag_423:\n        /* \"#utility.yul\":16223:16362   */\n      swap1\n      pop\n        /* \"#utility.yul\":16121:16369   */\n      swap2\n      swap1\n      pop\n      jump\t// out\n        /* \"#utility.yul\":16375:16794   */\n    tag_65:\n      0x00\n        /* \"#utility.yul\":16579:16581   */\n      0x20\n        /* \"#utility.yul\":16568:16577   */\n      dup3\n        /* \"#utility.yul\":16564:16582   */\n      add\n        /* \"#utility.yul\":16556:16582   */\n      swap1\n      pop\n        /* \"#utility.yul\":16628:16637   */\n      dup2\n        /* \"#utility.yul\":16622:16626   */\n      dup2\n        /* \"#utility.yul\":16618:16638   */\n      sub\n        /* \"#utility.yul\":16614:16615   */\n      0x00\n        /* \"#utility.yul\":16603:16612   */\n      dup4\n        /* \"#utility.yul\":16599:16616   */\n      add\n        /* \"#utility.yul\":16592:16639   */\n      mstore\n        /* \"#utility.yul\":16656:16787   */\n      tag_425\n        /* \"#utility.yul\":16782:16786   */\n      dup2\n        /* \"#utility.yul\":16656:16787   */\n      tag_383\n      jump\t// in\n    tag_425:\n        /* \"#utility.yul\":16648:16787   */\n      swap1\n      pop\n        /* \"#utility.yul\":16546:16794   */\n      swap2\n      swap1\n      pop\n      jump\t// out\n        /* \"#utility.yul\":16800:17022   */\n    tag_28:\n      0x00\n        /* \"#utility.yul\":16931:16933   */\n      0x20\n        /* \"#utility.yul\":16920:16929   */\n      dup3\n        /* \"#utility.yul\":16916:16934   */\n      add\n        /* \"#utility.yul\":16908:16934   */\n      swap1\n      pop\n        /* \"#utility.yul\":16944:17015   */\n      tag_427\n        /* \"#utility.yul\":17012:17013   */\n      0x00\n        /* \"#utility.yul\":17001:17010   */\n      dup4\n        /* \"#utility.yul\":16997:17014   */\n      add\n        /* \"#utility.yul\":16988:16994   */\n      dup5\n        /* \"#utility.yul\":16944:17015   */\n      tag_398\n      jump\t// in\n    tag_427:\n        /* \"#utility.yul\":16898:17022   */\n      swap3\n      swap2\n      pop\n      pop\n      jump\t// out\n        /* \"#utility.yul\":17028:18290   */\n    tag_225:\n      0x00\n        /* \"#utility.yul\":17413:17416   */\n      0xe0\n        /* \"#utility.yul\":17402:17411   */\n      dup3\n        /* \"#utility.yul\":17398:17417   */\n      add\n        /* \"#utility.yul\":17390:17417   */\n      swap1\n      pop\n        /* \"#utility.yul\":17427:17498   */\n      tag_429\n        /* \"#utility.yul\":17495:17496   */\n      0x00\n        /* \"#utility.yul\":17484:17493   */\n      dup4\n        /* \"#utility.yul\":17480:17497   */\n      add\n        /* \"#utility.yul\":17471:17477   */\n      dup11\n        /* \"#utility.yul\":17427:17498   */\n      tag_398\n      jump\t// in\n    tag_429:\n        /* \"#utility.yul\":17545:17554   */\n      dup2\n        /* \"#utility.yul\":17539:17543   */\n      dup2\n        /* \"#utility.yul\":17535:17555   */\n      sub\n        /* \"#utility.yul\":17530:17532   */\n      0x20\n        /* \"#utility.yul\":17519:17528   */\n      dup4\n        /* \"#utility.yul\":17515:17533   */\n      add\n        /* \"#utility.yul\":17508:17556   */\n      mstore\n        /* \"#utility.yul\":17573:17651   */\n      tag_430\n        /* \"#utility.yul\":17646:17650   */\n      dup2\n        /* \"#utility.yul\":17637:17643   */\n      dup10\n        /* \"#utility.yul\":17573:17651   */\n      tag_361\n      jump\t// in\n    tag_430:\n        /* \"#utility.yul\":17565:17651   */\n      swap1\n      pop\n        /* \"#utility.yul\":17698:17707   */\n      dup2\n        /* \"#utility.yul\":17692:17696   */\n      dup2\n        /* \"#utility.yul\":17688:17708   */\n      sub\n        /* \"#utility.yul\":17683:17685   */\n      0x40\n        /* \"#utility.yul\":17672:17681   */\n      dup4\n        /* \"#utility.yul\":17668:17686   */\n      add\n        /* \"#utility.yul\":17661:17709   */\n      mstore\n        /* \"#utility.yul\":17726:17804   */\n      tag_431\n        /* \"#utility.yul\":17799:17803   */\n      dup2\n        /* \"#utility.yul\":17790:17796   */\n      dup9\n        /* \"#utility.yul\":17726:17804   */\n      tag_361\n      jump\t// in\n    tag_431:\n        /* \"#utility.yul\":17718:17804   */\n      swap1\n      pop\n        /* \"#utility.yul\":17851:17860   */\n      dup2\n        /* \"#utility.yul\":17845:17849   */\n      dup2\n        /* \"#utility.yul\":17841:17861   */\n      sub\n        /* \"#utility.yul\":17836:17838   */\n      0x60\n        /* \"#utility.yul\":17825:17834   */\n      dup4\n        /* \"#utility.yul\":17821:17839   */\n      add\n        /* \"#utility.yul\":17814:17862   */\n      mstore\n        /* \"#utility.yul\":17879:17957   */\n      tag_432\n        /* \"#utility.yul\":17952:17956   */\n      dup2\n        /* \"#utility.yul\":17943:17949   */\n      dup8\n        /* \"#utility.yul\":17879:17957   */\n      tag_361\n      jump\t// in\n    tag_432:\n        /* \"#utility.yul\":17871:17957   */\n      swap1\n      pop\n        /* \"#utility.yul\":17967:18046   */\n      tag_433\n        /* \"#utility.yul\":18041:18044   */\n      0x80\n        /* \"#utility.yul\":18030:18039   */\n      dup4\n        /* \"#utility.yul\":18026:18045   */\n      add\n        /* \"#utility.yul\":18017:18023   */\n      dup7\n        /* \"#utility.yul\":17967:18046   */\n      tag_348\n      jump\t// in\n    tag_433:\n        /* \"#utility.yul\":18094:18103   */\n      dup2\n        /* \"#utility.yul\":18088:18092   */\n      dup2\n        /* \"#utility.yul\":18084:18104   */\n      sub\n        /* \"#utility.yul\":18078:18081   */\n      0xa0\n        /* \"#utility.yul\":18067:18076   */\n      dup4\n        /* \"#utility.yul\":18063:18082   */\n      add\n        /* \"#utility.yul\":18056:18105   */\n      mstore\n        /* \"#utility.yul\":18122:18200   */\n      tag_434\n        /* \"#utility.yul\":18195:18199   */\n      dup2\n        /* \"#utility.yul\":18186:18192   */\n      dup6\n        /* \"#utility.yul\":18122:18200   */\n      tag_361\n      jump\t// in\n    tag_434:\n        /* \"#utility.yul\":18114:18200   */\n      swap1\n      pop\n        /* \"#utility.yul\":18210:18283   */\n      tag_435\n        /* \"#utility.yul\":18278:18281   */\n      0xc0\n        /* \"#utility.yul\":18267:18276   */\n      dup4\n        /* \"#utility.yul\":18263:18282   */\n      add\n        /* \"#utility.yul\":18254:18260   */\n      dup5\n        /* \"#utility.yul\":18210:18283   */\n      tag_303\n      jump\t// in\n    tag_435:\n        /* \"#utility.yul\":17380:18290   */\n      swap9\n      swap8\n      pop\n      pop\n      pop\n      pop\n      pop\n      pop\n      pop\n      pop\n      jump\t// out\n        /* \"#utility.yul\":18296:19538   */\n    tag_40:\n      0x00\n        /* \"#utility.yul\":18671:18674   */\n      0xe0\n        /* \"#utility.yul\":18660:18669   */\n      dup3\n        /* \"#utility.yul\":18656:18675   */\n      add\n        /* \"#utility.yul\":18648:18675   */\n      swap1\n      pop\n        /* \"#utility.yul\":18685:18756   */\n      tag_437\n        /* \"#utility.yul\":18753:18754   */\n      0x00\n        /* \"#utility.yul\":18742:18751   */\n      dup4\n        /* \"#utility.yul\":18738:18755   */\n      add\n        /* \"#utility.yul\":18729:18735   */\n      dup11\n        /* \"#utility.yul\":18685:18756   */\n      tag_398\n      jump\t// in\n    tag_437:\n        /* \"#utility.yul\":18803:18812   */\n      dup2\n        /* \"#utility.yul\":18797:18801   */\n      dup2\n        /* \"#utility.yul\":18793:18813   */\n      sub\n        /* \"#utility.yul\":18788:18790   */\n      0x20\n        /* \"#utility.yul\":18777:18786   */\n      dup4\n        /* \"#utility.yul\":18773:18791   */\n      add\n        /* \"#utility.yul\":18766:18814   */\n      mstore\n        /* \"#utility.yul\":18831:18909   */\n      tag_438\n        /* \"#utility.yul\":18904:18908   */\n      dup2\n        /* \"#utility.yul\":18895:18901   */\n      dup10\n        /* \"#utility.yul\":18831:18909   */\n      tag_361\n      jump\t// in\n    tag_438:\n        /* \"#utility.yul\":18823:18909   */\n      swap1\n      pop\n        /* \"#utility.yul\":18956:18965   */\n      dup2\n        /* \"#utility.yul\":18950:18954   */\n      dup2\n        /* \"#utility.yul\":18946:18966   */\n      sub\n        /* \"#utility.yul\":18941:18943   */\n      0x40\n        /* \"#utility.yul\":18930:18939   */\n      dup4\n        /* \"#utility.yul\":18926:18944   */\n      add\n        /* \"#utility.yul\":18919:18967   */\n      mstore\n        /* \"#utility.yul\":18984:19062   */\n      tag_439\n        /* \"#utility.yul\":19057:19061   */\n      dup2\n        /* \"#utility.yul\":19048:19054   */\n      dup9\n        /* \"#utility.yul\":18984:19062   */\n      tag_361\n      jump\t// in\n    tag_439:\n        /* \"#utility.yul\":18976:19062   */\n      swap1\n      pop\n        /* \"#utility.yul\":19109:19118   */\n      dup2\n        /* \"#utility.yul\":19103:19107   */\n      dup2\n        /* \"#utility.yul\":19099:19119   */\n      sub\n        /* \"#utility.yul\":19094:19096   */\n      0x60\n        /* \"#utility.yul\":19083:19092   */\n      dup4\n        /* \"#utility.yul\":19079:19097   */\n      add\n        /* \"#utility.yul\":19072:19120   */\n      mstore\n        /* \"#utility.yul\":19137:19215   */\n      tag_440\n        /* \"#utility.yul\":19210:19214   */\n      dup2\n        /* \"#utility.yul\":19201:19207   */\n      dup8\n        /* \"#utility.yul\":19137:19215   */\n      tag_361\n      jump\t// in\n    tag_440:\n        /* \"#utility.yul\":19129:19215   */\n      swap1\n      pop\n        /* \"#utility.yul\":19225:19294   */\n      tag_441\n        /* \"#utility.yul\":19289:19292   */\n      0x80\n        /* \"#utility.yul\":19278:19287   */\n      dup4\n        /* \"#utility.yul\":19274:19293   */\n      add\n        /* \"#utility.yul\":19265:19271   */\n      dup7\n        /* \"#utility.yul\":19225:19294   */\n      tag_404\n      jump\t// in\n    tag_441:\n        /* \"#utility.yul\":19342:19351   */\n      dup2\n        /* \"#utility.yul\":19336:19340   */\n      dup2\n        /* \"#utility.yul\":19332:19352   */\n      sub\n        /* \"#utility.yul\":19326:19329   */\n      0xa0\n        /* \"#utility.yul\":19315:19324   */\n      dup4\n        /* \"#utility.yul\":19311:19330   */\n      add\n        /* \"#utility.yul\":19304:19353   */\n      mstore\n        /* \"#utility.yul\":19370:19448   */\n      tag_442\n        /* \"#utility.yul\":19443:19447   */\n      dup2\n        /* \"#utility.yul\":19434:19440   */\n      dup6\n        /* \"#utility.yul\":19370:19448   */\n      tag_361\n      jump\t// in\n    tag_442:\n        /* \"#utility.yul\":19362:19448   */\n      swap1\n      pop\n        /* \"#utility.yul\":19458:19531   */\n      tag_443\n        /* \"#utility.yul\":19526:19529   */\n      0xc0\n        /* \"#utility.yul\":19515:19524   */\n      dup4\n        /* \"#utility.yul\":19511:19530   */\n      add\n        /* \"#utility.yul\":19502:19508   */\n      dup5\n        /* \"#utility.yul\":19458:19531   */\n      tag_303\n      jump\t// in\n    tag_443:\n        /* \"#utility.yul\":18638:19538   */\n      swap9\n      swap8\n      pop\n      pop\n      pop\n      pop\n      pop\n      pop\n      pop\n      pop\n      jump\t// out\n        /* \"#utility.yul\":19544:19827   */\n    tag_242:\n      0x00\n        /* \"#utility.yul\":19610:19612   */\n      0x40\n        /* \"#utility.yul\":19604:19613   */\n      mload\n        /* \"#utility.yul\":19594:19613   */\n      swap1\n      pop\n        /* \"#utility.yul\":19652:19656   */\n      dup2\n        /* \"#utility.yul\":19644:19650   */\n      dup2\n        /* \"#utility.yul\":19640:19657   */\n      add\n        /* \"#utility.yul\":19759:19765   */\n      dup2\n        /* \"#utility.yul\":19747:19757   */\n      dup2\n        /* \"#utility.yul\":19744:19766   */\n      lt\n        /* \"#utility.yul\":19723:19741   */\n      0xffffffffffffffff\n        /* \"#utility.yul\":19711:19721   */\n      dup3\n        /* \"#utility.yul\":19708:19742   */\n      gt\n        /* \"#utility.yul\":19705:19767   */\n      or\n        /* \"#utility.yul\":19702:19704   */\n      iszero\n      tag_445\n      jumpi\n        /* \"#utility.yul\":19770:19788   */\n      tag_446\n      tag_447\n      jump\t// in\n    tag_446:\n        /* \"#utility.yul\":19702:19704   */\n    tag_445:\n        /* \"#utility.yul\":19810:19820   */\n      dup1\n        /* \"#utility.yul\":19806:19808   */\n      0x40\n        /* \"#utility.yul\":19799:19821   */\n      mstore\n        /* \"#utility.yul\":19584:19827   */\n      pop\n      swap2\n      swap1\n      pop\n      jump\t// out\n        /* \"#utility.yul\":19833:20165   */\n    tag_241:\n      0x00\n        /* \"#utility.yul\":19985:20003   */\n      0xffffffffffffffff\n        /* \"#utility.yul\":19977:19983   */\n      dup3\n        /* \"#utility.yul\":19974:20004   */\n      gt\n        /* \"#utility.yul\":19971:19973   */\n      iszero\n      tag_449\n      jumpi\n        /* \"#utility.yul\":20007:20025   */\n      tag_450\n      tag_447\n      jump\t// in\n    tag_450:\n        /* \"#utility.yul\":19971:19973   */\n    tag_449:\n        /* \"#utility.yul\":20092:20096   */\n      0x1f\n        /* \"#utility.yul\":20088:20097   */\n      not\n        /* \"#utility.yul\":20081:20085   */\n      0x1f\n        /* \"#utility.yul\":20073:20079   */\n      dup4\n        /* \"#utility.yul\":20069:20086   */\n      add\n        /* \"#utility.yul\":20065:20098   */\n      and\n        /* \"#utility.yul\":20057:20098   */\n      swap1\n      pop\n        /* \"#utility.yul\":20153:20157   */\n      0x20\n        /* \"#utility.yul\":20147:20151   */\n      dup2\n        /* \"#utility.yul\":20143:20158   */\n      add\n        /* \"#utility.yul\":20135:20158   */\n      swap1\n      pop\n        /* \"#utility.yul\":19900:20165   */\n      swap2\n      swap1\n      pop\n      jump\t// out\n        /* \"#utility.yul\":20171:20313   */\n    tag_313:\n      0x00\n        /* \"#utility.yul\":20271:20274   */\n      dup2\n        /* \"#utility.yul\":20263:20274   */\n      swap1\n      pop\n        /* \"#utility.yul\":20301:20305   */\n      0x20\n        /* \"#utility.yul\":20296:20299   */\n      dup3\n        /* \"#utility.yul\":20292:20306   */\n      add\n        /* \"#utility.yul\":20284:20306   */\n      swap1\n      pop\n        /* \"#utility.yul\":20253:20313   */\n      swap2\n      swap1\n      pop\n      jump\t// out\n        /* \"#utility.yul\":20319:20475   */\n    tag_327:\n      0x00\n        /* \"#utility.yul\":20433:20436   */\n      dup2\n        /* \"#utility.yul\":20425:20436   */\n      swap1\n      pop\n        /* \"#utility.yul\":20463:20467   */\n      0x20\n        /* \"#utility.yul\":20458:20461   */\n      dup3\n        /* \"#utility.yul\":20454:20468   */\n      add\n        /* \"#utility.yul\":20446:20468   */\n      swap1\n      pop\n        /* \"#utility.yul\":20415:20475   */\n      swap2\n      swap1\n      pop\n      jump\t// out\n        /* \"#utility.yul\":20481:20613   */\n    tag_341:\n      0x00\n        /* \"#utility.yul\":20571:20574   */\n      dup2\n        /* \"#utility.yul\":20563:20574   */\n      swap1\n      pop\n        /* \"#utility.yul\":20601:20605   */\n      0x20\n        /* \"#utility.yul\":20596:20599   */\n      dup3\n        /* \"#utility.yul\":20592:20606   */\n      add\n        /* \"#utility.yul\":20584:20606   */\n      swap1\n      pop\n        /* \"#utility.yul\":20553:20613   */\n      swap2\n      swap1\n      pop\n      jump\t// out\n        /* \"#utility.yul\":20619:20743   */\n    tag_309:\n      0x00\n        /* \"#utility.yul\":20730:20735   */\n      dup2\n        /* \"#utility.yul\":20724:20736   */\n      mload\n        /* \"#utility.yul\":20714:20736   */\n      swap1\n      pop\n        /* \"#utility.yul\":20703:20743   */\n      swap2\n      swap1\n      pop\n      jump\t// out\n        /* \"#utility.yul\":20749:20887   */\n    tag_323:\n      0x00\n        /* \"#utility.yul\":20874:20879   */\n      dup2\n        /* \"#utility.yul\":20868:20880   */\n      mload\n        /* \"#utility.yul\":20858:20880   */\n      swap1\n      pop\n        /* \"#utility.yul\":20847:20887   */\n      swap2\n      swap1\n      pop\n      jump\t// out\n        /* \"#utility.yul\":20893:21007   */\n    tag_337:\n      0x00\n        /* \"#utility.yul\":20994:20999   */\n      dup2\n        /* \"#utility.yul\":20988:21000   */\n      mload\n        /* \"#utility.yul\":20978:21000   */\n      swap1\n      pop\n        /* \"#utility.yul\":20967:21007   */\n      swap2\n      swap1\n      pop\n      jump\t// out\n        /* \"#utility.yul\":21013:21112   */\n    tag_354:\n      0x00\n        /* \"#utility.yul\":21099:21104   */\n      dup2\n        /* \"#utility.yul\":21093:21105   */\n      mload\n        /* \"#utility.yul\":21083:21105   */\n      swap1\n      pop\n        /* \"#utility.yul\":21072:21112   */\n      swap2\n      swap1\n      pop\n      jump\t// out\n        /* \"#utility.yul\":21118:21241   */\n    tag_319:\n      0x00\n        /* \"#utility.yul\":21230:21234   */\n      0x20\n        /* \"#utility.yul\":21225:21228   */\n      dup3\n        /* \"#utility.yul\":21221:21235   */\n      add\n        /* \"#utility.yul\":21213:21235   */\n      swap1\n      pop\n        /* \"#utility.yul\":21203:21241   */\n      swap2\n      swap1\n      pop\n      jump\t// out\n        /* \"#utility.yul\":21247:21384   */\n    tag_333:\n      0x00\n        /* \"#utility.yul\":21373:21377   */\n      0x20\n        /* \"#utility.yul\":21368:21371   */\n      dup3\n        /* \"#utility.yul\":21364:21378   */\n      add\n        /* \"#utility.yul\":21356:21378   */\n      swap1\n      pop\n        /* \"#utility.yul\":21346:21384   */\n      swap2\n      swap1\n      pop\n      jump\t// out\n        /* \"#utility.yul\":21390:21503   */\n    tag_347:\n      0x00\n        /* \"#utility.yul\":21492:21496   */\n      0x20\n        /* \"#utility.yul\":21487:21490   */\n      dup3\n        /* \"#utility.yul\":21483:21497   */\n      add\n        /* \"#utility.yul\":21475:21497   */\n      swap1\n      pop\n        /* \"#utility.yul\":21465:21503   */\n      swap2\n      swap1\n      pop\n      jump\t// out\n        /* \"#utility.yul\":21509:21703   */\n    tag_311:\n      0x00\n        /* \"#utility.yul\":21652:21658   */\n      dup3\n        /* \"#utility.yul\":21647:21650   */\n      dup3\n        /* \"#utility.yul\":21640:21659   */\n      mstore\n        /* \"#utility.yul\":21692:21696   */\n      0x20\n        /* \"#utility.yul\":21687:21690   */\n      dup3\n        /* \"#utility.yul\":21683:21697   */\n      add\n        /* \"#utility.yul\":21668:21697   */\n      swap1\n      pop\n        /* \"#utility.yul\":21630:21703   */\n      swap3\n      swap2\n      pop\n      pop\n      jump\t// out\n        /* \"#utility.yul\":21709:21917   */\n    tag_325:\n      0x00\n        /* \"#utility.yul\":21866:21872   */\n      dup3\n        /* \"#utility.yul\":21861:21864   */\n      dup3\n        /* \"#utility.yul\":21854:21873   */\n      mstore\n        /* \"#utility.yul\":21906:21910   */\n      0x20\n        /* \"#utility.yul\":21901:21904   */\n      dup3\n        /* \"#utility.yul\":21897:21911   */\n      add\n        /* \"#utility.yul\":21882:21911   */\n      swap1\n      pop\n        /* \"#utility.yul\":21844:21917   */\n      swap3\n      swap2\n      pop\n      pop\n      jump\t// out\n        /* \"#utility.yul\":21923:22107   */\n    tag_339:\n      0x00\n        /* \"#utility.yul\":22056:22062   */\n      dup3\n        /* \"#utility.yul\":22051:22054   */\n      dup3\n        /* \"#utility.yul\":22044:22063   */\n      mstore\n        /* \"#utility.yul\":22096:22100   */\n      0x20\n        /* \"#utility.yul\":22091:22094   */\n      dup3\n        /* \"#utility.yul\":22087:22101   */\n      add\n        /* \"#utility.yul\":22072:22101   */\n      swap1\n      pop\n        /* \"#utility.yul\":22034:22107   */\n      swap3\n      swap2\n      pop\n      pop\n      jump\t// out\n        /* \"#utility.yul\":22113:22272   */\n    tag_356:\n      0x00\n        /* \"#utility.yul\":22221:22227   */\n      dup3\n        /* \"#utility.yul\":22216:22219   */\n      dup3\n        /* \"#utility.yul\":22209:22228   */\n      mstore\n        /* \"#utility.yul\":22261:22265   */\n      0x20\n        /* \"#utility.yul\":22256:22259   */\n      dup3\n        /* \"#utility.yul\":22252:22266   */\n      add\n        /* \"#utility.yul\":22237:22266   */\n      swap1\n      pop\n        /* \"#utility.yul\":22199:22272   */\n      swap3\n      swap2\n      pop\n      pop\n      jump\t// out\n        /* \"#utility.yul\":22278:22447   */\n    tag_365:\n      0x00\n        /* \"#utility.yul\":22396:22402   */\n      dup3\n        /* \"#utility.yul\":22391:22394   */\n      dup3\n        /* \"#utility.yul\":22384:22403   */\n      mstore\n        /* \"#utility.yul\":22436:22440   */\n      0x20\n        /* \"#utility.yul\":22431:22434   */\n      dup3\n        /* \"#utility.yul\":22427:22441   */\n      add\n        /* \"#utility.yul\":22412:22441   */\n      swap1\n      pop\n        /* \"#utility.yul\":22374:22447   */\n      swap3\n      swap2\n      pop\n      pop\n      jump\t// out\n        /* \"#utility.yul\":22453:22601   */\n    tag_372:\n      0x00\n        /* \"#utility.yul\":22592:22595   */\n      dup2\n        /* \"#utility.yul\":22577:22595   */\n      swap1\n      pop\n        /* \"#utility.yul\":22567:22601   */\n      swap3\n      swap2\n      pop\n      pop\n      jump\t// out\n        /* \"#utility.yul\":22607:22798   */\n    tag_115:\n      0x00\n        /* \"#utility.yul\":22667:22687   */\n      tag_468\n        /* \"#utility.yul\":22685:22686   */\n      dup3\n        /* \"#utility.yul\":22667:22687   */\n      tag_397\n      jump\t// in\n    tag_468:\n        /* \"#utility.yul\":22662:22687   */\n      swap2\n      pop\n        /* \"#utility.yul\":22701:22721   */\n      tag_469\n        /* \"#utility.yul\":22719:22720   */\n      dup4\n        /* \"#utility.yul\":22701:22721   */\n      tag_397\n      jump\t// in\n    tag_469:\n        /* \"#utility.yul\":22696:22721   */\n      swap3\n      pop\n        /* \"#utility.yul\":22740:22741   */\n      dup3\n        /* \"#utility.yul\":22737:22738   */\n      dup3\n        /* \"#utility.yul\":22734:22742   */\n      lt\n        /* \"#utility.yul\":22731:22733   */\n      iszero\n      tag_470\n      jumpi\n        /* \"#utility.yul\":22745:22763   */\n      tag_471\n      tag_472\n      jump\t// in\n    tag_471:\n        /* \"#utility.yul\":22731:22733   */\n    tag_470:\n        /* \"#utility.yul\":22790:22791   */\n      dup3\n        /* \"#utility.yul\":22787:22788   */\n      dup3\n        /* \"#utility.yul\":22783:22792   */\n      sub\n        /* \"#utility.yul\":22775:22792   */\n      swap1\n      pop\n        /* \"#utility.yul\":22652:22798   */\n      swap3\n      swap2\n      pop\n      pop\n      jump\t// out\n        /* \"#utility.yul\":22804:22900   */\n    tag_302:\n      0x00\n        /* \"#utility.yul\":22870:22894   */\n      tag_474\n        /* \"#utility.yul\":22888:22893   */\n      dup3\n        /* \"#utility.yul\":22870:22894   */\n      tag_475\n      jump\t// in\n    tag_474:\n        /* \"#utility.yul\":22859:22894   */\n      swap1\n      pop\n        /* \"#utility.yul\":22849:22900   */\n      swap2\n      swap1\n      pop\n      jump\t// out\n        /* \"#utility.yul\":22906:23032   */\n    tag_475:\n      0x00\n        /* \"#utility.yul\":22983:23025   */\n      0xffffffffffffffffffffffffffffffffffffffff\n        /* \"#utility.yul\":22976:22981   */\n      dup3\n        /* \"#utility.yul\":22972:23026   */\n      and\n        /* \"#utility.yul\":22961:23026   */\n      swap1\n      pop\n        /* \"#utility.yul\":22951:23032   */\n      swap2\n      swap1\n      pop\n      jump\t// out\n        /* \"#utility.yul\":23038:23115   */\n    tag_397:\n      0x00\n        /* \"#utility.yul\":23104:23109   */\n      dup2\n        /* \"#utility.yul\":23093:23109   */\n      swap1\n      pop\n        /* \"#utility.yul\":23083:23115   */\n      swap2\n      swap1\n      pop\n      jump\t// out\n        /* \"#utility.yul\":23121:23207   */\n    tag_403:\n      0x00\n        /* \"#utility.yul\":23196:23200   */\n      0xff\n        /* \"#utility.yul\":23189:23194   */\n      dup3\n        /* \"#utility.yul\":23185:23201   */\n      and\n        /* \"#utility.yul\":23174:23201   */\n      swap1\n      pop\n        /* \"#utility.yul\":23164:23207   */\n      swap2\n      swap1\n      pop\n      jump\t// out\n        /* \"#utility.yul\":23213:23330   */\n    tag_351:\n      0x00\n        /* \"#utility.yul\":23302:23324   */\n      tag_480\n        /* \"#utility.yul\":23318:23323   */\n      dup3\n        /* \"#utility.yul\":23302:23324   */\n      tag_403\n      jump\t// in\n    tag_480:\n        /* \"#utility.yul\":23289:23324   */\n      swap1\n      pop\n        /* \"#utility.yul\":23279:23330   */\n      swap2\n      swap1\n      pop\n      jump\t// out\n        /* \"#utility.yul\":23336:23490   */\n    tag_245:\n        /* \"#utility.yul\":23420:23426   */\n      dup3\n        /* \"#utility.yul\":23415:23418   */\n      dup2\n        /* \"#utility.yul\":23410:23413   */\n      dup4\n        /* \"#utility.yul\":23397:23427   */\n      calldatacopy\n        /* \"#utility.yul\":23482:23483   */\n      0x00\n        /* \"#utility.yul\":23473:23479   */\n      dup4\n        /* \"#utility.yul\":23468:23471   */\n      dup4\n        /* \"#utility.yul\":23464:23480   */\n      add\n        /* \"#utility.yul\":23457:23484   */\n      mstore\n        /* \"#utility.yul\":23387:23490   */\n      pop\n      pop\n      pop\n      jump\t// out\n        /* \"#utility.yul\":23496:23803   */\n    tag_358:\n        /* \"#utility.yul\":23564:23565   */\n      0x00\n        /* \"#utility.yul\":23574:23687   */\n    tag_483:\n        /* \"#utility.yul\":23588:23594   */\n      dup4\n        /* \"#utility.yul\":23585:23586   */\n      dup2\n        /* \"#utility.yul\":23582:23595   */\n      lt\n        /* \"#utility.yul\":23574:23687   */\n      iszero\n      tag_485\n      jumpi\n        /* \"#utility.yul\":23673:23674   */\n      dup1\n        /* \"#utility.yul\":23668:23671   */\n      dup3\n        /* \"#utility.yul\":23664:23675   */\n      add\n        /* \"#utility.yul\":23658:23676   */\n      mload\n        /* \"#utility.yul\":23654:23655   */\n      dup2\n        /* \"#utility.yul\":23649:23652   */\n      dup5\n        /* \"#utility.yul\":23645:23656   */\n      add\n        /* \"#utility.yul\":23638:23677   */\n      mstore\n        /* \"#utility.yul\":23610:23612   */\n      0x20\n        /* \"#utility.yul\":23607:23608   */\n      dup2\n        /* \"#utility.yul\":23603:23613   */\n      add\n        /* \"#utility.yul\":23598:23613   */\n      swap1\n      pop\n        /* \"#utility.yul\":23574:23687   */\n      jump(tag_483)\n    tag_485:\n        /* \"#utility.yul\":23705:23711   */\n      dup4\n        /* \"#utility.yul\":23702:23703   */\n      dup2\n        /* \"#utility.yul\":23699:23712   */\n      gt\n        /* \"#utility.yul\":23696:23698   */\n      iszero\n      tag_486\n      jumpi\n        /* \"#utility.yul\":23785:23786   */\n      0x00\n        /* \"#utility.yul\":23776:23782   */\n      dup5\n        /* \"#utility.yul\":23771:23774   */\n      dup5\n        /* \"#utility.yul\":23767:23783   */\n      add\n        /* \"#utility.yul\":23760:23787   */\n      mstore\n        /* \"#utility.yul\":23696:23698   */\n    tag_486:\n        /* \"#utility.yul\":23545:23803   */\n      pop\n      pop\n      pop\n      pop\n      jump\t// out\n        /* \"#utility.yul\":23809:24129   */\n    tag_94:\n      0x00\n        /* \"#utility.yul\":23890:23891   */\n      0x02\n        /* \"#utility.yul\":23884:23888   */\n      dup3\n        /* \"#utility.yul\":23880:23892   */\n      div\n        /* \"#utility.yul\":23870:23892   */\n      swap1\n      pop\n        /* \"#utility.yul\":23937:23938   */\n      0x01\n        /* \"#utility.yul\":23931:23935   */\n      dup3\n        /* \"#utility.yul\":23927:23939   */\n      and\n        /* \"#utility.yul\":23958:23976   */\n      dup1\n        /* \"#utility.yul\":23948:23950   */\n      tag_488\n      jumpi\n        /* \"#utility.yul\":24014:24018   */\n      0x7f\n        /* \"#utility.yul\":24006:24012   */\n      dup3\n        /* \"#utility.yul\":24002:24019   */\n      and\n        /* \"#utility.yul\":23992:24019   */\n      swap2\n      pop\n        /* \"#utility.yul\":23948:23950   */\n    tag_488:\n        /* \"#utility.yul\":24076:24078   */\n      0x20\n        /* \"#utility.yul\":24068:24074   */\n      dup3\n        /* \"#utility.yul\":24065:24079   */\n      lt\n        /* \"#utility.yul\":24045:24063   */\n      dup2\n        /* \"#utility.yul\":24042:24080   */\n      eq\n        /* \"#utility.yul\":24039:24041   */\n      iszero\n      tag_489\n      jumpi\n        /* \"#utility.yul\":24095:24113   */\n      tag_490\n      tag_491\n      jump\t// in\n    tag_490:\n        /* \"#utility.yul\":24039:24041   */\n    tag_489:\n        /* \"#utility.yul\":23860:24129   */\n      pop\n      swap2\n      swap1\n      pop\n      jump\t// out\n        /* \"#utility.yul\":24135:24368   */\n    tag_77:\n      0x00\n        /* \"#utility.yul\":24197:24221   */\n      tag_493\n        /* \"#utility.yul\":24215:24220   */\n      dup3\n        /* \"#utility.yul\":24197:24221   */\n      tag_397\n      jump\t// in\n    tag_493:\n        /* \"#utility.yul\":24188:24221   */\n      swap2\n      pop\n        /* \"#utility.yul\":24243:24309   */\n      0xffffffffffffffffffffffffffffffffffffffffffffffffffffffffffffffff\n        /* \"#utility.yul\":24236:24241   */\n      dup3\n        /* \"#utility.yul\":24233:24310   */\n      eq\n        /* \"#utility.yul\":24230:24232   */\n      iszero\n      tag_494\n      jumpi\n        /* \"#utility.yul\":24313:24331   */\n      tag_495\n      tag_472\n      jump\t// in\n    tag_495:\n        /* \"#utility.yul\":24230:24232   */\n    tag_494:\n        /* \"#utility.yul\":24360:24361   */\n      0x01\n        /* \"#utility.yul\":24353:24358   */\n      dup3\n        /* \"#utility.yul\":24349:24362   */\n      add\n        /* \"#utility.yul\":24342:24362   */\n      swap1\n      pop\n        /* \"#utility.yul\":24178:24368   */\n      swap2\n      swap1\n      pop\n      jump\t// out\n        /* \"#utility.yul\":24374:24554   */\n    tag_472:\n        /* \"#utility.yul\":24422:24499   */\n      0x4e487b7100000000000000000000000000000000000000000000000000000000\n        /* \"#utility.yul\":24419:24420   */\n      0x00\n        /* \"#utility.yul\":24412:24500   */\n      mstore\n        /* \"#utility.yul\":24519:24523   */\n      0x11\n        /* \"#utility.yul\":24516:24517   */\n      0x04\n        /* \"#utility.yul\":24509:24524   */\n      mstore\n        /* \"#utility.yul\":24543:24547   */\n      0x24\n        /* \"#utility.yul\":24540:24541   */\n      0x00\n        /* \"#utility.yul\":24533:24548   */\n      revert\n        /* \"#utility.yul\":24560:24740   */\n    tag_491:\n        /* \"#utility.yul\":24608:24685   */\n      0x4e487b7100000000000000000000000000000000000000000000000000000000\n        /* \"#utility.yul\":24605:24606   */\n      0x00\n        /* \"#utility.yul\":24598:24686   */\n      mstore\n        /* \"#utility.yul\":24705:24709   */\n      0x22\n        /* \"#utility.yul\":24702:24703   */\n      0x04\n        /* \"#utility.yul\":24695:24710   */\n      mstore\n        /* \"#utility.yul\":24729:24733   */\n      0x24\n        /* \"#utility.yul\":24726:24727   */\n      0x00\n        /* \"#utility.yul\":24719:24734   */\n      revert\n        /* \"#utility.yul\":24746:24926   */\n    tag_447:\n        /* \"#utility.yul\":24794:24871   */\n      0x4e487b7100000000000000000000000000000000000000000000000000000000\n        /* \"#utility.yul\":24791:24792   */\n      0x00\n        /* \"#utility.yul\":24784:24872   */\n      mstore\n        /* \"#utility.yul\":24891:24895   */\n      0x41\n        /* \"#utility.yul\":24888:24889   */\n      0x04\n        /* \"#utility.yul\":24881:24896   */\n      mstore\n        /* \"#utility.yul\":24915:24919   */\n      0x24\n        /* \"#utility.yul\":24912:24913   */\n      0x00\n        /* \"#utility.yul\":24905:24920   */\n      revert\n        /* \"#utility.yul\":24932:25034   */\n    tag_360:\n      0x00\n        /* \"#utility.yul\":25024:25026   */\n      0x1f\n        /* \"#utility.yul\":25020:25027   */\n      not\n        /* \"#utility.yul\":25015:25017   */\n      0x1f\n        /* \"#utility.yul\":25008:25013   */\n      dup4\n        /* \"#utility.yul\":25004:25018   */\n      add\n        /* \"#utility.yul\":25000:25028   */\n      and\n        /* \"#utility.yul\":24990:25028   */\n      swap1\n      pop\n        /* \"#utility.yul\":24980:25034   */\n      swap2\n      swap1\n      pop\n      jump\t// out\n        /* \"#utility.yul\":25040:25162   */\n    tag_253:\n        /* \"#utility.yul\":25113:25137   */\n      tag_501\n        /* \"#utility.yul\":25131:25136   */\n      dup2\n        /* \"#utility.yul\":25113:25137   */\n      tag_397\n      jump\t// in\n    tag_501:\n        /* \"#utility.yul\":25106:25111   */\n      dup2\n        /* \"#utility.yul\":25103:25138   */\n      eq\n        /* \"#utility.yul\":25093:25095   */\n      tag_502\n      jumpi\n        /* \"#utility.yul\":25152:25153   */\n      0x00\n        /* \"#utility.yul\":25149:25150   */\n      dup1\n        /* \"#utility.yul\":25142:25154   */\n      revert\n        /* \"#utility.yul\":25093:25095   */\n    tag_502:\n        /* \"#utility.yul\":25083:25162   */\n      pop\n      jump\t// out\n        /* \"#utility.yul\":25168:25286   */\n    tag_257:\n        /* \"#utility.yul\":25239:25261   */\n      tag_504\n        /* \"#utility.yul\":25255:25260   */\n      dup2\n        /* \"#utility.yul\":25239:25261   */\n      tag_403\n      jump\t// in\n    tag_504:\n        /* \"#utility.yul\":25232:25237   */\n      dup2\n        /* \"#utility.yul\":25229:25262   */\n      eq\n        /* \"#utility.yul\":25219:25221   */\n      tag_505\n      jumpi\n        /* \"#utility.yul\":25276:25277   */\n      0x00\n        /* \"#utility.yul\":25273:25274   */\n      dup1\n        /* \"#utility.yul\":25266:25278   */\n      revert\n        /* \"#utility.yul\":25219:25221   */\n    tag_505:\n        /* \"#utility.yul\":25209:25286   */\n      pop\n      jump\t// out\n\n    auxdata: 0xa264697066735822122045ee6d2b7ae465ae2561b99769a1f87ca1d0dda7367ffc466284ce205ee42c9964736f6c63430008000033\n}\n",
				"bytecode": {
					"linkReferences": {},
					"object": "608060405234801561001057600080fd5b50336000806101000a81548173ffffffffffffffffffffffffffffffffffffffff021916908373ffffffffffffffffffffffffffffffffffffffff1602179055506127bf806100606000396000f3fe6080604052600436106100915760003560e01c80638da5cb5b116100595780638da5cb5b14610186578063931d66da146101b1578063a51068c8146101df578063c36deb0c146101f6578063dd1482dc1461022157610091565b806306aab3e7146100965780632b6e7eb4146100b2578063377633cb146100dd5780634d4d2bf21461011a578063574ccbc614610143575b600080fd5b6100b060048036038101906100ab9190611cae565b61023d565b005b3480156100be57600080fd5b506100c7610560565b6040516100d4919061225a565b60405180910390f35b3480156100e957600080fd5b5061010460048036038101906100ff9190611b6c565b610940565b60405161011191906122fc565b60405180910390f35b34801561012657600080fd5b50610141600480360381019061013c9190611c03565b6109b4565b005b34801561014f57600080fd5b5061016a60048036038101906101659190611d59565b610aa3565b60405161017d97969594939291906123a2565b60405180910390f35b34801561019257600080fd5b5061019b610d32565b6040516101a891906121de565b60405180910390f35b3480156101bd57600080fd5b506101c6610d56565b6040516101d694939291906121f9565b60405180910390f35b3480156101eb57600080fd5b506101f4611617565b005b34801561020257600080fd5b5061020b61170e565b60405161021891906122fc565b60405180910390f35b61023b60048036038101906102369190611b6c565b611714565b005b60018260ff1610158015610255575060038260ff1611155b610294576040517f08c379a000000000000000000000000000000000000000000000000000000000815260040161028b906122dc565b60405180910390fd5b60006040518060400160405280600681526020017f4176756c736f0000000000000000000000000000000000000000000000000000815250905060006003826040516102e091906121c7565b9081526020016040518091039020866040516102fc91906121c7565b90815260200160405180910390208560405161031891906121c7565b90815260200160405180910390205490506000811161036c576040517f08c379a00000000000000000000000000000000000000000000000000000000081526004016103639061229c565b60405180910390fd5b803410156103af576040517f08c379a00000000000000000000000000000000000000000000000000000000081526004016103a6906122bc565b60405180910390fd5b600160008154809291906103c290612674565b91905055506040518060e0016040528060015481526020018381526020018781526020018681526020018560ff1681526020018481526020013373ffffffffffffffffffffffffffffffffffffffff168152506002600060015481526020019081526020016000206000820151816000015560208201518160010190805190602001906104509291906119e1565b50604082015181600201908051906020019061046d9291906119e1565b50606082015181600301908051906020019061048a9291906119e1565b5060808201518160040160006101000a81548160ff021916908360ff16021790555060a08201518160050190805190602001906104c89291906119e1565b5060c08201518160060160006101000a81548173ffffffffffffffffffffffffffffffffffffffff021916908373ffffffffffffffffffffffffffffffffffffffff1602179055509050507f914d99cf3a3bf4215d2087d4b5b910906192b4a6dfb364d3746a5a16f3868b7660015483888888883360405161055097969594939291906123a2565b60405180910390a1505050505050565b6060600060015467ffffffffffffffff8111156105a6577f4e487b7100000000000000000000000000000000000000000000000000000000600052604160045260246000fd5b6040519080825280602002602001820160405280156105df57816020015b6105cc611a67565b8152602001906001900390816105c45790505b5090506000600190505b600154811161093857600260008281526020019081526020016000206040518060e00160405290816000820154815260200160018201805461062a90612642565b80601f016020809104026020016040519081016040528092919081815260200182805461065690612642565b80156106a35780601f10610678576101008083540402835291602001916106a3565b820191906000526020600020905b81548152906001019060200180831161068657829003601f168201915b505050505081526020016002820180546106bc90612642565b80601f01602080910402602001604051908101604052809291908181526020018280546106e890612642565b80156107355780601f1061070a57610100808354040283529160200191610735565b820191906000526020600020905b81548152906001019060200180831161071857829003601f168201915b5050505050815260200160038201805461074e90612642565b80601f016020809104026020016040519081016040528092919081815260200182805461077a90612642565b80156107c75780601f1061079c576101008083540402835291602001916107c7565b820191906000526020600020905b8154815290600101906020018083116107aa57829003601f168201915b505050505081526020016004820160009054906101000a900460ff1660ff1660ff1681526020016005820180546107fd90612642565b80601f016020809104026020016040519081016040528092919081815260200182805461082990612642565b80156108765780601f1061084b57610100808354040283529160200191610876565b820191906000526020600020905b81548152906001019060200180831161085957829003601f168201915b505050505081526020016006820160009054906101000a900473ffffffffffffffffffffffffffffffffffffffff1673ffffffffffffffffffffffffffffffffffffffff1673ffffffffffffffffffffffffffffffffffffffff1681525050826001836108e39190612571565b8151811061091a577f4e487b7100000000000000000000000000000000000000000000000000000000600052603260045260246000fd5b6020026020010181905250808061093090612674565b9150506105e9565b508091505090565b600383805160208101820180518482526020830160208501208183528095505050505050828051602081018201805184825260208301602085012081835280955050505050508180516020810182018051848252602083016020850120818352809550505050505060009250925050505481565b60008054906101000a900473ffffffffffffffffffffffffffffffffffffffff1673ffffffffffffffffffffffffffffffffffffffff163373ffffffffffffffffffffffffffffffffffffffff1614610a42576040517f08c379a0000000000000000000000000000000000000000000000000000000008152600401610a399061227c565b60405180910390fd5b80600385604051610a5391906121c7565b908152602001604051809103902084604051610a6f91906121c7565b908152602001604051809103902083604051610a8b91906121c7565b90815260200160405180910390208190555050505050565b6002602052806000526040600020600091509050806000015490806001018054610acc90612642565b80601f0160208091040260200160405190810160405280929190818152602001828054610af890612642565b8015610b455780601f10610b1a57610100808354040283529160200191610b45565b820191906000526020600020905b815481529060010190602001808311610b2857829003601f168201915b505050505090806002018054610b5a90612642565b80601f0160208091040260200160405190810160405280929190818152602001828054610b8690612642565b8015610bd35780601f10610ba857610100808354040283529160200191610bd3565b820191906000526020600020905b815481529060010190602001808311610bb657829003601f168201915b505050505090806003018054610be890612642565b80601f0160208091040260200160405190810160405280929190818152602001828054610c1490612642565b8015610c615780601f10610c3657610100808354040283529160200191610c61565b820191906000526020600020905b815481529060010190602001808311610c4457829003601f168201915b5050505050908060040160009054906101000a900460ff1690806005018054610c8990612642565b80601f0160208091040260200160405190810160405280929190818152602001828054610cb590612642565b8015610d025780601f10610cd757610100808354040283529160200191610d02565b820191906000526020600020905b815481529060010190602001808311610ce557829003601f168201915b5050505050908060060160009054906101000a900473ffffffffffffffffffffffffffffffffffffffff16905087565b60008054906101000a900473ffffffffffffffffffffffffffffffffffffffff1681565b606080606080600060405180604001604052806040518060400160405280600a81526020017f5061737361706f7274650000000000000000000000000000000000000000000081525081526020016040518060400160405280600681526020017f4176756c736f00000000000000000000000000000000000000000000000000008152508152509050600060405180608001604052806040518060400160405280601481526020017f417271756962616e636164612043656e7472616c00000000000000000000000081525081526020016040518060400160405280601581526020017f417271756962616e6361646120457370656369616c000000000000000000000081525081526020016040518060400160405280600f81526020017f43616465697261205469706f203031000000000000000000000000000000000081525081526020016040518060400160405280600f81526020017f43616465697261205469706f20303200000000000000000000000000000000008152508152509050600060405180604001604052806040518060400160405280600781526020017f496e74656972610000000000000000000000000000000000000000000000000081525081526020016040518060400160405280600481526020017f4d6569610000000000000000000000000000000000000000000000000000000081525081525090506000805b60028110156110e05760005b60048110156110cc5760005b60028110156110b85760006003888560028110610fbd577f4e487b7100000000000000000000000000000000000000000000000000000000600052603260045260246000fd5b6020020151604051610fcf91906121c7565b9081526020016040518091039020878460048110611016577f4e487b7100000000000000000000000000000000000000000000000000000000600052603260045260246000fd5b602002015160405161102891906121c7565b908152602001604051809103902086836002811061106f577f4e487b7100000000000000000000000000000000000000000000000000000000600052603260045260246000fd5b602002015160405161108191906121c7565b90815260200160405180910390205411156110a55783806110a190612674565b9450505b80806110b090612674565b915050610f77565b5080806110c490612674565b915050610f6b565b5080806110d890612674565b915050610f5f565b508067ffffffffffffffff811115611121577f4e487b7100000000000000000000000000000000000000000000000000000000600052604160045260246000fd5b60405190808252806020026020018201604052801561115457816020015b606081526020019060019003908161113f5790505b5097508067ffffffffffffffff811115611197577f4e487b7100000000000000000000000000000000000000000000000000000000600052604160045260246000fd5b6040519080825280602002602001820160405280156111ca57816020015b60608152602001906001900390816111b55790505b5096508067ffffffffffffffff81111561120d577f4e487b7100000000000000000000000000000000000000000000000000000000600052604160045260246000fd5b60405190808252806020026020018201604052801561124057816020015b606081526020019060019003908161122b5790505b5095508067ffffffffffffffff811115611283577f4e487b7100000000000000000000000000000000000000000000000000000000600052604160045260246000fd5b6040519080825280602002602001820160405280156112b15781602001602082028036833780820191505090505b5094506000805b600281101561160b5760005b60048110156115f75760005b60028110156115e35760006003898560028110611316577f4e487b7100000000000000000000000000000000000000000000000000000000600052603260045260246000fd5b602002015160405161132891906121c7565b908152602001604051809103902088846004811061136f577f4e487b7100000000000000000000000000000000000000000000000000000000600052603260045260246000fd5b602002015160405161138191906121c7565b90815260200160405180910390208783600281106113c8577f4e487b7100000000000000000000000000000000000000000000000000000000600052603260045260246000fd5b60200201516040516113da91906121c7565b908152602001604051809103902054905060008111156115cf5788846002811061142d577f4e487b7100000000000000000000000000000000000000000000000000000000600052603260045260246000fd5b60200201518d868151811061146b577f4e487b7100000000000000000000000000000000000000000000000000000000600052603260045260246000fd5b60200260200101819052508783600481106114af577f4e487b7100000000000000000000000000000000000000000000000000000000600052603260045260246000fd5b60200201518c86815181106114ed577f4e487b7100000000000000000000000000000000000000000000000000000000600052603260045260246000fd5b6020026020010181905250868260028110611531577f4e487b7100000000000000000000000000000000000000000000000000000000600052603260045260246000fd5b60200201518b868151811061156f577f4e487b7100000000000000000000000000000000000000000000000000000000600052603260045260246000fd5b6020026020010181905250808a86815181106115b4577f4e487b7100000000000000000000000000000000000000000000000000000000600052603260045260246000fd5b60200260200101818152505084806115cb90612674565b9550505b5080806115db90612674565b9150506112d0565b5080806115ef90612674565b9150506112c4565b50808061160390612674565b9150506112b8565b50505050505090919293565b60008054906101000a900473ffffffffffffffffffffffffffffffffffffffff1673ffffffffffffffffffffffffffffffffffffffff163373ffffffffffffffffffffffffffffffffffffffff16146116a5576040517f08c379a000000000000000000000000000000000000000000000000000000000815260040161169c9061227c565b60405180910390fd5b60008054906101000a900473ffffffffffffffffffffffffffffffffffffffff1673ffffffffffffffffffffffffffffffffffffffff166108fc479081150290604051600060405180830381858888f1935050505015801561170b573d6000803e3d6000fd5b50565b60015481565b60006040518060400160405280600a81526020017f5061737361706f727465000000000000000000000000000000000000000000008152509050600060038260405161176091906121c7565b90815260200160405180910390208560405161177c91906121c7565b90815260200160405180910390208460405161179891906121c7565b9081526020016040518091039020549050600081116117ec576040517f08c379a00000000000000000000000000000000000000000000000000000000081526004016117e39061229c565b60405180910390fd5b8034101561182f576040517f08c379a0000000000000000000000000000000000000000000000000000000008152600401611826906122bc565b60405180910390fd5b6001600081548092919061184290612674565b91905055506040518060e001604052806001548152602001838152602001868152602001858152602001600060ff1681526020018481526020013373ffffffffffffffffffffffffffffffffffffffff168152506002600060015481526020019081526020016000206000820151816000015560208201518160010190805190602001906118d19291906119e1565b5060408201518160020190805190602001906118ee9291906119e1565b50606082015181600301908051906020019061190b9291906119e1565b5060808201518160040160006101000a81548160ff021916908360ff16021790555060a08201518160050190805190602001906119499291906119e1565b5060c08201518160060160006101000a81548173ffffffffffffffffffffffffffffffffffffffff021916908373ffffffffffffffffffffffffffffffffffffffff1602179055509050507f914d99cf3a3bf4215d2087d4b5b910906192b4a6dfb364d3746a5a16f3868b76600154838787600088336040516119d29796959493929190612317565b60405180910390a15050505050565b8280546119ed90612642565b90600052602060002090601f016020900481019282611a0f5760008555611a56565b82601f10611a2857805160ff1916838001178555611a56565b82800160010185558215611a56579182015b82811115611a55578251825591602001919060010190611a3a565b5b509050611a639190611abd565b5090565b6040518060e0016040528060008152602001606081526020016060815260200160608152602001600060ff16815260200160608152602001600073ffffffffffffffffffffffffffffffffffffffff1681525090565b5b80821115611ad6576000816000905550600101611abe565b5090565b6000611aed611ae88461245e565b61242d565b905082815260208101848484011115611b0557600080fd5b611b10848285612600565b509392505050565b600082601f830112611b2957600080fd5b8135611b39848260208601611ada565b91505092915050565b600081359050611b518161275b565b92915050565b600081359050611b6681612772565b92915050565b600080600060608486031215611b8157600080fd5b600084013567ffffffffffffffff811115611b9b57600080fd5b611ba786828701611b18565b935050602084013567ffffffffffffffff811115611bc457600080fd5b611bd086828701611b18565b925050604084013567ffffffffffffffff811115611bed57600080fd5b611bf986828701611b18565b9150509250925092565b60008060008060808587031215611c1957600080fd5b600085013567ffffffffffffffff811115611c3357600080fd5b611c3f87828801611b18565b945050602085013567ffffffffffffffff811115611c5c57600080fd5b611c6887828801611b18565b935050604085013567ffffffffffffffff811115611c8557600080fd5b611c9187828801611b18565b9250506060611ca287828801611b42565b91505092959194509250565b60008060008060808587031215611cc457600080fd5b600085013567ffffffffffffffff811115611cde57600080fd5b611cea87828801611b18565b945050602085013567ffffffffffffffff811115611d0757600080fd5b611d1387828801611b18565b9350506040611d2487828801611b57565b925050606085013567ffffffffffffffff811115611d4157600080fd5b611d4d87828801611b18565b91505092959194509250565b600060208284031215611d6b57600080fd5b6000611d7984828501611b42565b91505092915050565b6000611d8e8383611f37565b905092915050565b6000611da283836120da565b905092915050565b6000611db6838361218b565b60208301905092915050565b611dcb816125a5565b82525050565b611dda816125a5565b82525050565b6000611deb826124be565b611df58185612511565b935083602082028501611e078561248e565b8060005b85811015611e435784840389528151611e248582611d82565b9450611e2f836124ea565b925060208a01995050600181019050611e0b565b50829750879550505050505092915050565b6000611e60826124c9565b611e6a8185612522565b935083602082028501611e7c8561249e565b8060005b85811015611eb85784840389528151611e998582611d96565b9450611ea4836124f7565b925060208a01995050600181019050611e80565b50829750879550505050505092915050565b6000611ed5826124d4565b611edf8185612533565b9350611eea836124ae565b8060005b83811015611f1b578151611f028882611daa565b9750611f0d83612504565b925050600181019050611eee565b5085935050505092915050565b611f31816125ee565b82525050565b6000611f42826124df565b611f4c8185612544565b9350611f5c81856020860161260f565b611f658161274a565b840191505092915050565b6000611f7b826124df565b611f858185612555565b9350611f9581856020860161260f565b611f9e8161274a565b840191505092915050565b6000611fb4826124df565b611fbe8185612566565b9350611fce81856020860161260f565b80840191505092915050565b6000611fe7601c83612555565b91507f536f6d656e7465206f20646f6e6f20706f6465206578656375746172000000006000830152602082019050919050565b6000612027601583612555565b91507f507265636f206e616f20636f6e666967757261646f00000000000000000000006000830152602082019050919050565b6000612067601283612555565b91507f56616c6f7220696e737566696369656e746500000000000000000000000000006000830152602082019050919050565b60006120a7600e83612555565b91507f4e6f69746520696e76616c6964610000000000000000000000000000000000006000830152602082019050919050565b600060e0830160008301516120f2600086018261218b565b506020830151848203602086015261210a8282611f37565b915050604083015184820360408601526121248282611f37565b9150506060830151848203606086015261213e8282611f37565b915050608083015161215360808601826121a9565b5060a083015184820360a086015261216b8282611f37565b91505060c083015161218060c0860182611dc2565b508091505092915050565b612194816125d7565b82525050565b6121a3816125d7565b82525050565b6121b2816125e1565b82525050565b6121c1816125e1565b82525050565b60006121d38284611fa9565b915081905092915050565b60006020820190506121f36000830184611dd1565b92915050565b600060808201905081810360008301526122138187611de0565b905081810360208301526122278186611de0565b9050818103604083015261223b8185611de0565b9050818103606083015261224f8184611eca565b905095945050505050565b600060208201905081810360008301526122748184611e55565b905092915050565b6000602082019050818103600083015261229581611fda565b9050919050565b600060208201905081810360008301526122b58161201a565b9050919050565b600060208201905081810360008301526122d58161205a565b9050919050565b600060208201905081810360008301526122f58161209a565b9050919050565b6000602082019050612311600083018461219a565b92915050565b600060e08201905061232c600083018a61219a565b818103602083015261233e8189611f70565b905081810360408301526123528188611f70565b905081810360608301526123668187611f70565b90506123756080830186611f28565b81810360a08301526123878185611f70565b905061239660c0830184611dd1565b98975050505050505050565b600060e0820190506123b7600083018a61219a565b81810360208301526123c98189611f70565b905081810360408301526123dd8188611f70565b905081810360608301526123f18187611f70565b905061240060808301866121b8565b81810360a08301526124128185611f70565b905061242160c0830184611dd1565b98975050505050505050565b6000604051905081810181811067ffffffffffffffff821117156124545761245361271b565b5b8060405250919050565b600067ffffffffffffffff8211156124795761247861271b565b5b601f19601f8301169050602081019050919050565b6000819050602082019050919050565b6000819050602082019050919050565b6000819050602082019050919050565b600081519050919050565b600081519050919050565b600081519050919050565b600081519050919050565b6000602082019050919050565b6000602082019050919050565b6000602082019050919050565b600082825260208201905092915050565b600082825260208201905092915050565b600082825260208201905092915050565b600082825260208201905092915050565b600082825260208201905092915050565b600081905092915050565b600061257c826125d7565b9150612587836125d7565b92508282101561259a576125996126bd565b5b828203905092915050565b60006125b0826125b7565b9050919050565b600073ffffffffffffffffffffffffffffffffffffffff82169050919050565b6000819050919050565b600060ff82169050919050565b60006125f9826125e1565b9050919050565b82818337600083830152505050565b60005b8381101561262d578082015181840152602081019050612612565b8381111561263c576000848401525b50505050565b6000600282049050600182168061265a57607f821691505b6020821081141561266e5761266d6126ec565b5b50919050565b600061267f826125d7565b91507fffffffffffffffffffffffffffffffffffffffffffffffffffffffffffffffff8214156126b2576126b16126bd565b5b600182019050919050565b7f4e487b7100000000000000000000000000000000000000000000000000000000600052601160045260246000fd5b7f4e487b7100000000000000000000000000000000000000000000000000000000600052602260045260246000fd5b7f4e487b7100000000000000000000000000000000000000000000000000000000600052604160045260246000fd5b6000601f19601f8301169050919050565b612764816125d7565b811461276f57600080fd5b50565b61277b816125e1565b811461278657600080fd5b5056fea264697066735822122045ee6d2b7ae465ae2561b99769a1f87ca1d0dda7367ffc466284ce205ee42c9964736f6c63430008000033",
					"opcodes": "PUSH1 0x80 PUSH1 0x40 MSTORE CALLVALUE DUP1 ISZERO PUSH2 0x10 JUMPI PUSH1 0x0 DUP1 REVERT JUMPDEST POP CALLER PUSH1 0x0 DUP1 PUSH2 0x100 EXP DUP2 SLOAD DUP2 PUSH20 0xFFFFFFFFFFFFFFFFFFFFFFFFFFFFFFFFFFFFFFFF MUL NOT AND SWAP1 DUP4 PUSH20 0xFFFFFFFFFFFFFFFFFFFFFFFFFFFFFFFFFFFFFFFF AND MUL OR SWAP1 SSTORE POP PUSH2 0x27BF DUP1 PUSH2 0x60 PUSH1 0x0 CODECOPY PUSH1 0x0 RETURN INVALID PUSH1 0x80 PUSH1 0x40 MSTORE PUSH1 0x4 CALLDATASIZE LT PUSH2 0x91 JUMPI PUSH1 0x0 CALLDATALOAD PUSH1 0xE0 SHR DUP1 PUSH4 0x8DA5CB5B GT PUSH2 0x59 JUMPI DUP1 PUSH4 0x8DA5CB5B EQ PUSH2 0x186 JUMPI DUP1 PUSH4 0x931D66DA EQ PUSH2 0x1B1 JUMPI DUP1 PUSH4 0xA51068C8 EQ PUSH2 0x1DF JUMPI DUP1 PUSH4 0xC36DEB0C EQ PUSH2 0x1F6 JUMPI DUP1 PUSH4 0xDD1482DC EQ PUSH2 0x221 JUMPI PUSH2 0x91 JUMP JUMPDEST DUP1 PUSH4 0x6AAB3E7 EQ PUSH2 0x96 JUMPI DUP1 PUSH4 0x2B6E7EB4 EQ PUSH2 0xB2 JUMPI DUP1 PUSH4 0x377633CB EQ PUSH2 0xDD JUMPI DUP1 PUSH4 0x4D4D2BF2 EQ PUSH2 0x11A JUMPI DUP1 PUSH4 0x574CCBC6 EQ PUSH2 0x143 JUMPI JUMPDEST PUSH1 0x0 DUP1 REVERT JUMPDEST PUSH2 0xB0 PUSH1 0x4 DUP1 CALLDATASIZE SUB DUP2 ADD SWAP1 PUSH2 0xAB SWAP2 SWAP1 PUSH2 0x1CAE JUMP JUMPDEST PUSH2 0x23D JUMP JUMPDEST STOP JUMPDEST CALLVALUE DUP1 ISZERO PUSH2 0xBE JUMPI PUSH1 0x0 DUP1 REVERT JUMPDEST POP PUSH2 0xC7 PUSH2 0x560 JUMP JUMPDEST PUSH1 0x40 MLOAD PUSH2 0xD4 SWAP2 SWAP1 PUSH2 0x225A JUMP JUMPDEST PUSH1 0x40 MLOAD DUP1 SWAP2 SUB SWAP1 RETURN JUMPDEST CALLVALUE DUP1 ISZERO PUSH2 0xE9 JUMPI PUSH1 0x0 DUP1 REVERT JUMPDEST POP PUSH2 0x104 PUSH1 0x4 DUP1 CALLDATASIZE SUB DUP2 ADD SWAP1 PUSH2 0xFF SWAP2 SWAP1 PUSH2 0x1B6C JUMP JUMPDEST PUSH2 0x940 JUMP JUMPDEST PUSH1 0x40 MLOAD PUSH2 0x111 SWAP2 SWAP1 PUSH2 0x22FC JUMP JUMPDEST PUSH1 0x40 MLOAD DUP1 SWAP2 SUB SWAP1 RETURN JUMPDEST CALLVALUE DUP1 ISZERO PUSH2 0x126 JUMPI PUSH1 0x0 DUP1 REVERT JUMPDEST POP PUSH2 0x141 PUSH1 0x4 DUP1 CALLDATASIZE SUB DUP2 ADD SWAP1 PUSH2 0x13C SWAP2 SWAP1 PUSH2 0x1C03 JUMP JUMPDEST PUSH2 0x9B4 JUMP JUMPDEST STOP JUMPDEST CALLVALUE DUP1 ISZERO PUSH2 0x14F JUMPI PUSH1 0x0 DUP1 REVERT JUMPDEST POP PUSH2 0x16A PUSH1 0x4 DUP1 CALLDATASIZE SUB DUP2 ADD SWAP1 PUSH2 0x165 SWAP2 SWAP1 PUSH2 0x1D59 JUMP JUMPDEST PUSH2 0xAA3 JUMP JUMPDEST PUSH1 0x40 MLOAD PUSH2 0x17D SWAP8 SWAP7 SWAP6 SWAP5 SWAP4 SWAP3 SWAP2 SWAP1 PUSH2 0x23A2 JUMP JUMPDEST PUSH1 0x40 MLOAD DUP1 SWAP2 SUB SWAP1 RETURN JUMPDEST CALLVALUE DUP1 ISZERO PUSH2 0x192 JUMPI PUSH1 0x0 DUP1 REVERT JUMPDEST POP PUSH2 0x19B PUSH2 0xD32 JUMP JUMPDEST PUSH1 0x40 MLOAD PUSH2 0x1A8 SWAP2 SWAP1 PUSH2 0x21DE JUMP JUMPDEST PUSH1 0x40 MLOAD DUP1 SWAP2 SUB SWAP1 RETURN JUMPDEST CALLVALUE DUP1 ISZERO PUSH2 0x1BD JUMPI PUSH1 0x0 DUP1 REVERT JUMPDEST POP PUSH2 0x1C6 PUSH2 0xD56 JUMP JUMPDEST PUSH1 0x40 MLOAD PUSH2 0x1D6 SWAP5 SWAP4 SWAP3 SWAP2 SWAP1 PUSH2 0x21F9 JUMP JUMPDEST PUSH1 0x40 MLOAD DUP1 SWAP2 SUB SWAP1 RETURN JUMPDEST CALLVALUE DUP1 ISZERO PUSH2 0x1EB JUMPI PUSH1 0x0 DUP1 REVERT JUMPDEST POP PUSH2 0x1F4 PUSH2 0x1617 JUMP JUMPDEST STOP JUMPDEST CALLVALUE DUP1 ISZERO PUSH2 0x202 JUMPI PUSH1 0x0 DUP1 REVERT JUMPDEST POP PUSH2 0x20B PUSH2 0x170E JUMP JUMPDEST PUSH1 0x40 MLOAD PUSH2 0x218 SWAP2 SWAP1 PUSH2 0x22FC JUMP JUMPDEST PUSH1 0x40 MLOAD DUP1 SWAP2 SUB SWAP1 RETURN JUMPDEST PUSH2 0x23B PUSH1 0x4 DUP1 CALLDATASIZE SUB DUP2 ADD SWAP1 PUSH2 0x236 SWAP2 SWAP1 PUSH2 0x1B6C JUMP JUMPDEST PUSH2 0x1714 JUMP JUMPDEST STOP JUMPDEST PUSH1 0x1 DUP3 PUSH1 0xFF AND LT ISZERO DUP1 ISZERO PUSH2 0x255 JUMPI POP PUSH1 0x3 DUP3 PUSH1 0xFF AND GT ISZERO JUMPDEST PUSH2 0x294 JUMPI PUSH1 0x40 MLOAD PUSH32 0x8C379A000000000000000000000000000000000000000000000000000000000 DUP2 MSTORE PUSH1 0x4 ADD PUSH2 0x28B SWAP1 PUSH2 0x22DC JUMP JUMPDEST PUSH1 0x40 MLOAD DUP1 SWAP2 SUB SWAP1 REVERT JUMPDEST PUSH1 0x0 PUSH1 0x40 MLOAD DUP1 PUSH1 0x40 ADD PUSH1 0x40 MSTORE DUP1 PUSH1 0x6 DUP2 MSTORE PUSH1 0x20 ADD PUSH32 0x4176756C736F0000000000000000000000000000000000000000000000000000 DUP2 MSTORE POP SWAP1 POP PUSH1 0x0 PUSH1 0x3 DUP3 PUSH1 0x40 MLOAD PUSH2 0x2E0 SWAP2 SWAP1 PUSH2 0x21C7 JUMP JUMPDEST SWAP1 DUP2 MSTORE PUSH1 0x20 ADD PUSH1 0x40 MLOAD DUP1 SWAP2 SUB SWAP1 KECCAK256 DUP7 PUSH1 0x40 MLOAD PUSH2 0x2FC SWAP2 SWAP1 PUSH2 0x21C7 JUMP JUMPDEST SWAP1 DUP2 MSTORE PUSH1 0x20 ADD PUSH1 0x40 MLOAD DUP1 SWAP2 SUB SWAP1 KECCAK256 DUP6 PUSH1 0x40 MLOAD PUSH2 0x318 SWAP2 SWAP1 PUSH2 0x21C7 JUMP JUMPDEST SWAP1 DUP2 MSTORE PUSH1 0x20 ADD PUSH1 0x40 MLOAD DUP1 SWAP2 SUB SWAP1 KECCAK256 SLOAD SWAP1 POP PUSH1 0x0 DUP2 GT PUSH2 0x36C JUMPI PUSH1 0x40 MLOAD PUSH32 0x8C379A000000000000000000000000000000000000000000000000000000000 DUP2 MSTORE PUSH1 0x4 ADD PUSH2 0x363 SWAP1 PUSH2 0x229C JUMP JUMPDEST PUSH1 0x40 MLOAD DUP1 SWAP2 SUB SWAP1 REVERT JUMPDEST DUP1 CALLVALUE LT ISZERO PUSH2 0x3AF JUMPI PUSH1 0x40 MLOAD PUSH32 0x8C379A000000000000000000000000000000000000000000000000000000000 DUP2 MSTORE PUSH1 0x4 ADD PUSH2 0x3A6 SWAP1 PUSH2 0x22BC JUMP JUMPDEST PUSH1 0x40 MLOAD DUP1 SWAP2 SUB SWAP1 REVERT JUMPDEST PUSH1 0x1 PUSH1 0x0 DUP2 SLOAD DUP1 SWAP3 SWAP2 SWAP1 PUSH2 0x3C2 SWAP1 PUSH2 0x2674 JUMP JUMPDEST SWAP2 SWAP1 POP SSTORE POP PUSH1 0x40 MLOAD DUP1 PUSH1 0xE0 ADD PUSH1 0x40 MSTORE DUP1 PUSH1 0x1 SLOAD DUP2 MSTORE PUSH1 0x20 ADD DUP4 DUP2 MSTORE PUSH1 0x20 ADD DUP8 DUP2 MSTORE PUSH1 0x20 ADD DUP7 DUP2 MSTORE PUSH1 0x20 ADD DUP6 PUSH1 0xFF AND DUP2 MSTORE PUSH1 0x20 ADD DUP5 DUP2 MSTORE PUSH1 0x20 ADD CALLER PUSH20 0xFFFFFFFFFFFFFFFFFFFFFFFFFFFFFFFFFFFFFFFF AND DUP2 MSTORE POP PUSH1 0x2 PUSH1 0x0 PUSH1 0x1 SLOAD DUP2 MSTORE PUSH1 0x20 ADD SWAP1 DUP2 MSTORE PUSH1 0x20 ADD PUSH1 0x0 KECCAK256 PUSH1 0x0 DUP3 ADD MLOAD DUP2 PUSH1 0x0 ADD SSTORE PUSH1 0x20 DUP3 ADD MLOAD DUP2 PUSH1 0x1 ADD SWAP1 DUP1 MLOAD SWAP1 PUSH1 0x20 ADD SWAP1 PUSH2 0x450 SWAP3 SWAP2 SWAP1 PUSH2 0x19E1 JUMP JUMPDEST POP PUSH1 0x40 DUP3 ADD MLOAD DUP2 PUSH1 0x2 ADD SWAP1 DUP1 MLOAD SWAP1 PUSH1 0x20 ADD SWAP1 PUSH2 0x46D SWAP3 SWAP2 SWAP1 PUSH2 0x19E1 JUMP JUMPDEST POP PUSH1 0x60 DUP3 ADD MLOAD DUP2 PUSH1 0x3 ADD SWAP1 DUP1 MLOAD SWAP1 PUSH1 0x20 ADD SWAP1 PUSH2 0x48A SWAP3 SWAP2 SWAP1 PUSH2 0x19E1 JUMP JUMPDEST POP PUSH1 0x80 DUP3 ADD MLOAD DUP2 PUSH1 0x4 ADD PUSH1 0x0 PUSH2 0x100 EXP DUP2 SLOAD DUP2 PUSH1 0xFF MUL NOT AND SWAP1 DUP4 PUSH1 0xFF AND MUL OR SWAP1 SSTORE POP PUSH1 0xA0 DUP3 ADD MLOAD DUP2 PUSH1 0x5 ADD SWAP1 DUP1 MLOAD SWAP1 PUSH1 0x20 ADD SWAP1 PUSH2 0x4C8 SWAP3 SWAP2 SWAP1 PUSH2 0x19E1 JUMP JUMPDEST POP PUSH1 0xC0 DUP3 ADD MLOAD DUP2 PUSH1 0x6 ADD PUSH1 0x0 PUSH2 0x100 EXP DUP2 SLOAD DUP2 PUSH20 0xFFFFFFFFFFFFFFFFFFFFFFFFFFFFFFFFFFFFFFFF MUL NOT AND SWAP1 DUP4 PUSH20 0xFFFFFFFFFFFFFFFFFFFFFFFFFFFFFFFFFFFFFFFF AND MUL OR SWAP1 SSTORE POP SWAP1 POP POP PUSH32 0x914D99CF3A3BF4215D2087D4B5B910906192B4A6DFB364D3746A5A16F3868B76 PUSH1 0x1 SLOAD DUP4 DUP9 DUP9 DUP9 DUP9 CALLER PUSH1 0x40 MLOAD PUSH2 0x550 SWAP8 SWAP7 SWAP6 SWAP5 SWAP4 SWAP3 SWAP2 SWAP1 PUSH2 0x23A2 JUMP JUMPDEST PUSH1 0x40 MLOAD DUP1 SWAP2 SUB SWAP1 LOG1 POP POP POP POP POP POP JUMP JUMPDEST PUSH1 0x60 PUSH1 0x0 PUSH1 0x1 SLOAD PUSH8 0xFFFFFFFFFFFFFFFF DUP2 GT ISZERO PUSH2 0x5A6 JUMPI PUSH32 0x4E487B7100000000000000000000000000000000000000000000000000000000 PUSH1 0x0 MSTORE PUSH1 0x41 PUSH1 0x4 MSTORE PUSH1 0x24 PUSH1 0x0 REVERT JUMPDEST PUSH1 0x40 MLOAD SWAP1 DUP1 DUP3 MSTORE DUP1 PUSH1 0x20 MUL PUSH1 0x20 ADD DUP3 ADD PUSH1 0x40 MSTORE DUP1 ISZERO PUSH2 0x5DF JUMPI DUP2 PUSH1 0x20 ADD JUMPDEST PUSH2 0x5CC PUSH2 0x1A67 JUMP JUMPDEST DUP2 MSTORE PUSH1 0x20 ADD SWAP1 PUSH1 0x1 SWAP1 SUB SWAP1 DUP2 PUSH2 0x5C4 JUMPI SWAP1 POP JUMPDEST POP SWAP1 POP PUSH1 0x0 PUSH1 0x1 SWAP1 POP JUMPDEST PUSH1 0x1 SLOAD DUP2 GT PUSH2 0x938 JUMPI PUSH1 0x2 PUSH1 0x0 DUP3 DUP2 MSTORE PUSH1 0x20 ADD SWAP1 DUP2 MSTORE PUSH1 0x20 ADD PUSH1 0x0 KECCAK256 PUSH1 0x40 MLOAD DUP1 PUSH1 0xE0 ADD PUSH1 0x40 MSTORE SWAP1 DUP2 PUSH1 0x0 DUP3 ADD SLOAD DUP2 MSTORE PUSH1 0x20 ADD PUSH1 0x1 DUP3 ADD DUP1 SLOAD PUSH2 0x62A SWAP1 PUSH2 0x2642 JUMP JUMPDEST DUP1 PUSH1 0x1F ADD PUSH1 0x20 DUP1 SWAP2 DIV MUL PUSH1 0x20 ADD PUSH1 0x40 MLOAD SWAP1 DUP2 ADD PUSH1 0x40 MSTORE DUP1 SWAP3 SWAP2 SWAP1 DUP2 DUP2 MSTORE PUSH1 0x20 ADD DUP3 DUP1 SLOAD PUSH2 0x656 SWAP1 PUSH2 0x2642 JUMP JUMPDEST DUP1 ISZERO PUSH2 0x6A3 JUMPI DUP1 PUSH1 0x1F LT PUSH2 0x678 JUMPI PUSH2 0x100 DUP1 DUP4 SLOAD DIV MUL DUP4 MSTORE SWAP2 PUSH1 0x20 ADD SWAP2 PUSH2 0x6A3 JUMP JUMPDEST DUP3 ADD SWAP2 SWAP1 PUSH1 0x0 MSTORE PUSH1 0x20 PUSH1 0x0 KECCAK256 SWAP1 JUMPDEST DUP2 SLOAD DUP2 MSTORE SWAP1 PUSH1 0x1 ADD SWAP1 PUSH1 0x20 ADD DUP1 DUP4 GT PUSH2 0x686 JUMPI DUP3 SWAP1 SUB PUSH1 0x1F AND DUP3 ADD SWAP2 JUMPDEST POP POP POP POP POP DUP2 MSTORE PUSH1 0x20 ADD PUSH1 0x2 DUP3 ADD DUP1 SLOAD PUSH2 0x6BC SWAP1 PUSH2 0x2642 JUMP JUMPDEST DUP1 PUSH1 0x1F ADD PUSH1 0x20 DUP1 SWAP2 DIV MUL PUSH1 0x20 ADD PUSH1 0x40 MLOAD SWAP1 DUP2 ADD PUSH1 0x40 MSTORE DUP1 SWAP3 SWAP2 SWAP1 DUP2 DUP2 MSTORE PUSH1 0x20 ADD DUP3 DUP1 SLOAD PUSH2 0x6E8 SWAP1 PUSH2 0x2642 JUMP JUMPDEST DUP1 ISZERO PUSH2 0x735 JUMPI DUP1 PUSH1 0x1F LT PUSH2 0x70A JUMPI PUSH2 0x100 DUP1 DUP4 SLOAD DIV MUL DUP4 MSTORE SWAP2 PUSH1 0x20 ADD SWAP2 PUSH2 0x735 JUMP JUMPDEST DUP3 ADD SWAP2 SWAP1 PUSH1 0x0 MSTORE PUSH1 0x20 PUSH1 0x0 KECCAK256 SWAP1 JUMPDEST DUP2 SLOAD DUP2 MSTORE SWAP1 PUSH1 0x1 ADD SWAP1 PUSH1 0x20 ADD DUP1 DUP4 GT PUSH2 0x718 JUMPI DUP3 SWAP1 SUB PUSH1 0x1F AND DUP3 ADD SWAP2 JUMPDEST POP POP POP POP POP DUP2 MSTORE PUSH1 0x20 ADD PUSH1 0x3 DUP3 ADD DUP1 SLOAD PUSH2 0x74E SWAP1 PUSH2 0x2642 JUMP JUMPDEST DUP1 PUSH1 0x1F ADD PUSH1 0x20 DUP1 SWAP2 DIV MUL PUSH1 0x20 ADD PUSH1 0x40 MLOAD SWAP1 DUP2 ADD PUSH1 0x40 MSTORE DUP1 SWAP3 SWAP2 SWAP1 DUP2 DUP2 MSTORE PUSH1 0x20 ADD DUP3 DUP1 SLOAD PUSH2 0x77A SWAP1 PUSH2 0x2642 JUMP JUMPDEST DUP1 ISZERO PUSH2 0x7C7 JUMPI DUP1 PUSH1 0x1F LT PUSH2 0x79C JUMPI PUSH2 0x100 DUP1 DUP4 SLOAD DIV MUL DUP4 MSTORE SWAP2 PUSH1 0x20 ADD SWAP2 PUSH2 0x7C7 JUMP JUMPDEST DUP3 ADD SWAP2 SWAP1 PUSH1 0x0 MSTORE PUSH1 0x20 PUSH1 0x0 KECCAK256 SWAP1 JUMPDEST DUP2 SLOAD DUP2 MSTORE SWAP1 PUSH1 0x1 ADD SWAP1 PUSH1 0x20 ADD DUP1 DUP4 GT PUSH2 0x7AA JUMPI DUP3 SWAP1 SUB PUSH1 0x1F AND DUP3 ADD SWAP2 JUMPDEST POP POP POP POP POP DUP2 MSTORE PUSH1 0x20 ADD PUSH1 0x4 DUP3 ADD PUSH1 0x0 SWAP1 SLOAD SWAP1 PUSH2 0x100 EXP SWAP1 DIV PUSH1 0xFF AND PUSH1 0xFF AND PUSH1 0xFF AND DUP2 MSTORE PUSH1 0x20 ADD PUSH1 0x5 DUP3 ADD DUP1 SLOAD PUSH2 0x7FD SWAP1 PUSH2 0x2642 JUMP JUMPDEST DUP1 PUSH1 0x1F ADD PUSH1 0x20 DUP1 SWAP2 DIV MUL PUSH1 0x20 ADD PUSH1 0x40 MLOAD SWAP1 DUP2 ADD PUSH1 0x40 MSTORE DUP1 SWAP3 SWAP2 SWAP1 DUP2 DUP2 MSTORE PUSH1 0x20 ADD DUP3 DUP1 SLOAD PUSH2 0x829 SWAP1 PUSH2 0x2642 JUMP JUMPDEST DUP1 ISZERO PUSH2 0x876 JUMPI DUP1 PUSH1 0x1F LT PUSH2 0x84B JUMPI PUSH2 0x100 DUP1 DUP4 SLOAD DIV MUL DUP4 MSTORE SWAP2 PUSH1 0x20 ADD SWAP2 PUSH2 0x876 JUMP JUMPDEST DUP3 ADD SWAP2 SWAP1 PUSH1 0x0 MSTORE PUSH1 0x20 PUSH1 0x0 KECCAK256 SWAP1 JUMPDEST DUP2 SLOAD DUP2 MSTORE SWAP1 PUSH1 0x1 ADD SWAP1 PUSH1 0x20 ADD DUP1 DUP4 GT PUSH2 0x859 JUMPI DUP3 SWAP1 SUB PUSH1 0x1F AND DUP3 ADD SWAP2 JUMPDEST POP POP POP POP POP DUP2 MSTORE PUSH1 0x20 ADD PUSH1 0x6 DUP3 ADD PUSH1 0x0 SWAP1 SLOAD SWAP1 PUSH2 0x100 EXP SWAP1 DIV PUSH20 0xFFFFFFFFFFFFFFFFFFFFFFFFFFFFFFFFFFFFFFFF AND PUSH20 0xFFFFFFFFFFFFFFFFFFFFFFFFFFFFFFFFFFFFFFFF AND PUSH20 0xFFFFFFFFFFFFFFFFFFFFFFFFFFFFFFFFFFFFFFFF AND DUP2 MSTORE POP POP DUP3 PUSH1 0x1 DUP4 PUSH2 0x8E3 SWAP2 SWAP1 PUSH2 0x2571 JUMP JUMPDEST DUP2 MLOAD DUP2 LT PUSH2 0x91A JUMPI PUSH32 0x4E487B7100000000000000000000000000000000000000000000000000000000 PUSH1 0x0 MSTORE PUSH1 0x32 PUSH1 0x4 MSTORE PUSH1 0x24 PUSH1 0x0 REVERT JUMPDEST PUSH1 0x20 MUL PUSH1 0x20 ADD ADD DUP2 SWAP1 MSTORE POP DUP1 DUP1 PUSH2 0x930 SWAP1 PUSH2 0x2674 JUMP JUMPDEST SWAP2 POP POP PUSH2 0x5E9 JUMP JUMPDEST POP DUP1 SWAP2 POP POP SWAP1 JUMP JUMPDEST PUSH1 0x3 DUP4 DUP1 MLOAD PUSH1 0x20 DUP2 ADD DUP3 ADD DUP1 MLOAD DUP5 DUP3 MSTORE PUSH1 0x20 DUP4 ADD PUSH1 0x20 DUP6 ADD KECCAK256 DUP2 DUP4 MSTORE DUP1 SWAP6 POP POP POP POP POP POP DUP3 DUP1 MLOAD PUSH1 0x20 DUP2 ADD DUP3 ADD DUP1 MLOAD DUP5 DUP3 MSTORE PUSH1 0x20 DUP4 ADD PUSH1 0x20 DUP6 ADD KECCAK256 DUP2 DUP4 MSTORE DUP1 SWAP6 POP POP POP POP POP POP DUP2 DUP1 MLOAD PUSH1 0x20 DUP2 ADD DUP3 ADD DUP1 MLOAD DUP5 DUP3 MSTORE PUSH1 0x20 DUP4 ADD PUSH1 0x20 DUP6 ADD KECCAK256 DUP2 DUP4 MSTORE DUP1 SWAP6 POP POP POP POP POP POP PUSH1 0x0 SWAP3 POP SWAP3 POP POP POP SLOAD DUP2 JUMP JUMPDEST PUSH1 0x0 DUP1 SLOAD SWAP1 PUSH2 0x100 EXP SWAP1 DIV PUSH20 0xFFFFFFFFFFFFFFFFFFFFFFFFFFFFFFFFFFFFFFFF AND PUSH20 0xFFFFFFFFFFFFFFFFFFFFFFFFFFFFFFFFFFFFFFFF AND CALLER PUSH20 0xFFFFFFFFFFFFFFFFFFFFFFFFFFFFFFFFFFFFFFFF AND EQ PUSH2 0xA42 JUMPI PUSH1 0x40 MLOAD PUSH32 0x8C379A000000000000000000000000000000000000000000000000000000000 DUP2 MSTORE PUSH1 0x4 ADD PUSH2 0xA39 SWAP1 PUSH2 0x227C JUMP JUMPDEST PUSH1 0x40 MLOAD DUP1 SWAP2 SUB SWAP1 REVERT JUMPDEST DUP1 PUSH1 0x3 DUP6 PUSH1 0x40 MLOAD PUSH2 0xA53 SWAP2 SWAP1 PUSH2 0x21C7 JUMP JUMPDEST SWAP1 DUP2 MSTORE PUSH1 0x20 ADD PUSH1 0x40 MLOAD DUP1 SWAP2 SUB SWAP1 KECCAK256 DUP5 PUSH1 0x40 MLOAD PUSH2 0xA6F SWAP2 SWAP1 PUSH2 0x21C7 JUMP JUMPDEST SWAP1 DUP2 MSTORE PUSH1 0x20 ADD PUSH1 0x40 MLOAD DUP1 SWAP2 SUB SWAP1 KECCAK256 DUP4 PUSH1 0x40 MLOAD PUSH2 0xA8B SWAP2 SWAP1 PUSH2 0x21C7 JUMP JUMPDEST SWAP1 DUP2 MSTORE PUSH1 0x20 ADD PUSH1 0x40 MLOAD DUP1 SWAP2 SUB SWAP1 KECCAK256 DUP2 SWAP1 SSTORE POP POP POP POP POP JUMP JUMPDEST PUSH1 0x2 PUSH1 0x20 MSTORE DUP1 PUSH1 0x0 MSTORE PUSH1 0x40 PUSH1 0x0 KECCAK256 PUSH1 0x0 SWAP2 POP SWAP1 POP DUP1 PUSH1 0x0 ADD SLOAD SWAP1 DUP1 PUSH1 0x1 ADD DUP1 SLOAD PUSH2 0xACC SWAP1 PUSH2 0x2642 JUMP JUMPDEST DUP1 PUSH1 0x1F ADD PUSH1 0x20 DUP1 SWAP2 DIV MUL PUSH1 0x20 ADD PUSH1 0x40 MLOAD SWAP1 DUP2 ADD PUSH1 0x40 MSTORE DUP1 SWAP3 SWAP2 SWAP1 DUP2 DUP2 MSTORE PUSH1 0x20 ADD DUP3 DUP1 SLOAD PUSH2 0xAF8 SWAP1 PUSH2 0x2642 JUMP JUMPDEST DUP1 ISZERO PUSH2 0xB45 JUMPI DUP1 PUSH1 0x1F LT PUSH2 0xB1A JUMPI PUSH2 0x100 DUP1 DUP4 SLOAD DIV MUL DUP4 MSTORE SWAP2 PUSH1 0x20 ADD SWAP2 PUSH2 0xB45 JUMP JUMPDEST DUP3 ADD SWAP2 SWAP1 PUSH1 0x0 MSTORE PUSH1 0x20 PUSH1 0x0 KECCAK256 SWAP1 JUMPDEST DUP2 SLOAD DUP2 MSTORE SWAP1 PUSH1 0x1 ADD SWAP1 PUSH1 0x20 ADD DUP1 DUP4 GT PUSH2 0xB28 JUMPI DUP3 SWAP1 SUB PUSH1 0x1F AND DUP3 ADD SWAP2 JUMPDEST POP POP POP POP POP SWAP1 DUP1 PUSH1 0x2 ADD DUP1 SLOAD PUSH2 0xB5A SWAP1 PUSH2 0x2642 JUMP JUMPDEST DUP1 PUSH1 0x1F ADD PUSH1 0x20 DUP1 SWAP2 DIV MUL PUSH1 0x20 ADD PUSH1 0x40 MLOAD SWAP1 DUP2 ADD PUSH1 0x40 MSTORE DUP1 SWAP3 SWAP2 SWAP1 DUP2 DUP2 MSTORE PUSH1 0x20 ADD DUP3 DUP1 SLOAD PUSH2 0xB86 SWAP1 PUSH2 0x2642 JUMP JUMPDEST DUP1 ISZERO PUSH2 0xBD3 JUMPI DUP1 PUSH1 0x1F LT PUSH2 0xBA8 JUMPI PUSH2 0x100 DUP1 DUP4 SLOAD DIV MUL DUP4 MSTORE SWAP2 PUSH1 0x20 ADD SWAP2 PUSH2 0xBD3 JUMP JUMPDEST DUP3 ADD SWAP2 SWAP1 PUSH1 0x0 MSTORE PUSH1 0x20 PUSH1 0x0 KECCAK256 SWAP1 JUMPDEST DUP2 SLOAD DUP2 MSTORE SWAP1 PUSH1 0x1 ADD SWAP1 PUSH1 0x20 ADD DUP1 DUP4 GT PUSH2 0xBB6 JUMPI DUP3 SWAP1 SUB PUSH1 0x1F AND DUP3 ADD SWAP2 JUMPDEST POP POP POP POP POP SWAP1 DUP1 PUSH1 0x3 ADD DUP1 SLOAD PUSH2 0xBE8 SWAP1 PUSH2 0x2642 JUMP JUMPDEST DUP1 PUSH1 0x1F ADD PUSH1 0x20 DUP1 SWAP2 DIV MUL PUSH1 0x20 ADD PUSH1 0x40 MLOAD SWAP1 DUP2 ADD PUSH1 0x40 MSTORE DUP1 SWAP3 SWAP2 SWAP1 DUP2 DUP2 MSTORE PUSH1 0x20 ADD DUP3 DUP1 SLOAD PUSH2 0xC14 SWAP1 PUSH2 0x2642 JUMP JUMPDEST DUP1 ISZERO PUSH2 0xC61 JUMPI DUP1 PUSH1 0x1F LT PUSH2 0xC36 JUMPI PUSH2 0x100 DUP1 DUP4 SLOAD DIV MUL DUP4 MSTORE SWAP2 PUSH1 0x20 ADD SWAP2 PUSH2 0xC61 JUMP JUMPDEST DUP3 ADD SWAP2 SWAP1 PUSH1 0x0 MSTORE PUSH1 0x20 PUSH1 0x0 KECCAK256 SWAP1 JUMPDEST DUP2 SLOAD DUP2 MSTORE SWAP1 PUSH1 0x1 ADD SWAP1 PUSH1 0x20 ADD DUP1 DUP4 GT PUSH2 0xC44 JUMPI DUP3 SWAP1 SUB PUSH1 0x1F AND DUP3 ADD SWAP2 JUMPDEST POP POP POP POP POP SWAP1 DUP1 PUSH1 0x4 ADD PUSH1 0x0 SWAP1 SLOAD SWAP1 PUSH2 0x100 EXP SWAP1 DIV PUSH1 0xFF AND SWAP1 DUP1 PUSH1 0x5 ADD DUP1 SLOAD PUSH2 0xC89 SWAP1 PUSH2 0x2642 JUMP JUMPDEST DUP1 PUSH1 0x1F ADD PUSH1 0x20 DUP1 SWAP2 DIV MUL PUSH1 0x20 ADD PUSH1 0x40 MLOAD SWAP1 DUP2 ADD PUSH1 0x40 MSTORE DUP1 SWAP3 SWAP2 SWAP1 DUP2 DUP2 MSTORE PUSH1 0x20 ADD DUP3 DUP1 SLOAD PUSH2 0xCB5 SWAP1 PUSH2 0x2642 JUMP JUMPDEST DUP1 ISZERO PUSH2 0xD02 JUMPI DUP1 PUSH1 0x1F LT PUSH2 0xCD7 JUMPI PUSH2 0x100 DUP1 DUP4 SLOAD DIV MUL DUP4 MSTORE SWAP2 PUSH1 0x20 ADD SWAP2 PUSH2 0xD02 JUMP JUMPDEST DUP3 ADD SWAP2 SWAP1 PUSH1 0x0 MSTORE PUSH1 0x20 PUSH1 0x0 KECCAK256 SWAP1 JUMPDEST DUP2 SLOAD DUP2 MSTORE SWAP1 PUSH1 0x1 ADD SWAP1 PUSH1 0x20 ADD DUP1 DUP4 GT PUSH2 0xCE5 JUMPI DUP3 SWAP1 SUB PUSH1 0x1F AND DUP3 ADD SWAP2 JUMPDEST POP POP POP POP POP SWAP1 DUP1 PUSH1 0x6 ADD PUSH1 0x0 SWAP1 SLOAD SWAP1 PUSH2 0x100 EXP SWAP1 DIV PUSH20 0xFFFFFFFFFFFFFFFFFFFFFFFFFFFFFFFFFFFFFFFF AND SWAP1 POP DUP8 JUMP JUMPDEST PUSH1 0x0 DUP1 SLOAD SWAP1 PUSH2 0x100 EXP SWAP1 DIV PUSH20 0xFFFFFFFFFFFFFFFFFFFFFFFFFFFFFFFFFFFFFFFF AND DUP2 JUMP JUMPDEST PUSH1 0x60 DUP1 PUSH1 0x60 DUP1 PUSH1 0x0 PUSH1 0x40 MLOAD DUP1 PUSH1 0x40 ADD PUSH1 0x40 MSTORE DUP1 PUSH1 0x40 MLOAD DUP1 PUSH1 0x40 ADD PUSH1 0x40 MSTORE DUP1 PUSH1 0xA DUP2 MSTORE PUSH1 0x20 ADD PUSH32 0x5061737361706F72746500000000000000000000000000000000000000000000 DUP2 MSTORE POP DUP2 MSTORE PUSH1 0x20 ADD PUSH1 0x40 MLOAD DUP1 PUSH1 0x40 ADD PUSH1 0x40 MSTORE DUP1 PUSH1 0x6 DUP2 MSTORE PUSH1 0x20 ADD PUSH32 0x4176756C736F0000000000000000000000000000000000000000000000000000 DUP2 MSTORE POP DUP2 MSTORE POP SWAP1 POP PUSH1 0x0 PUSH1 0x40 MLOAD DUP1 PUSH1 0x80 ADD PUSH1 0x40 MSTORE DUP1 PUSH1 0x40 MLOAD DUP1 PUSH1 0x40 ADD PUSH1 0x40 MSTORE DUP1 PUSH1 0x14 DUP2 MSTORE PUSH1 0x20 ADD PUSH32 0x417271756962616E636164612043656E7472616C000000000000000000000000 DUP2 MSTORE POP DUP2 MSTORE PUSH1 0x20 ADD PUSH1 0x40 MLOAD DUP1 PUSH1 0x40 ADD PUSH1 0x40 MSTORE DUP1 PUSH1 0x15 DUP2 MSTORE PUSH1 0x20 ADD PUSH32 0x417271756962616E6361646120457370656369616C0000000000000000000000 DUP2 MSTORE POP DUP2 MSTORE PUSH1 0x20 ADD PUSH1 0x40 MLOAD DUP1 PUSH1 0x40 ADD PUSH1 0x40 MSTORE DUP1 PUSH1 0xF DUP2 MSTORE PUSH1 0x20 ADD PUSH32 0x43616465697261205469706F2030310000000000000000000000000000000000 DUP2 MSTORE POP DUP2 MSTORE PUSH1 0x20 ADD PUSH1 0x40 MLOAD DUP1 PUSH1 0x40 ADD PUSH1 0x40 MSTORE DUP1 PUSH1 0xF DUP2 MSTORE PUSH1 0x20 ADD PUSH32 0x43616465697261205469706F2030320000000000000000000000000000000000 DUP2 MSTORE POP DUP2 MSTORE POP SWAP1 POP PUSH1 0x0 PUSH1 0x40 MLOAD DUP1 PUSH1 0x40 ADD PUSH1 0x40 MSTORE DUP1 PUSH1 0x40 MLOAD DUP1 PUSH1 0x40 ADD PUSH1 0x40 MSTORE DUP1 PUSH1 0x7 DUP2 MSTORE PUSH1 0x20 ADD PUSH32 0x496E746569726100000000000000000000000000000000000000000000000000 DUP2 MSTORE POP DUP2 MSTORE PUSH1 0x20 ADD PUSH1 0x40 MLOAD DUP1 PUSH1 0x40 ADD PUSH1 0x40 MSTORE DUP1 PUSH1 0x4 DUP2 MSTORE PUSH1 0x20 ADD PUSH32 0x4D65696100000000000000000000000000000000000000000000000000000000 DUP2 MSTORE POP DUP2 MSTORE POP SWAP1 POP PUSH1 0x0 DUP1 JUMPDEST PUSH1 0x2 DUP2 LT ISZERO PUSH2 0x10E0 JUMPI PUSH1 0x0 JUMPDEST PUSH1 0x4 DUP2 LT ISZERO PUSH2 0x10CC JUMPI PUSH1 0x0 JUMPDEST PUSH1 0x2 DUP2 LT ISZERO PUSH2 0x10B8 JUMPI PUSH1 0x0 PUSH1 0x3 DUP9 DUP6 PUSH1 0x2 DUP2 LT PUSH2 0xFBD JUMPI PUSH32 0x4E487B7100000000000000000000000000000000000000000000000000000000 PUSH1 0x0 MSTORE PUSH1 0x32 PUSH1 0x4 MSTORE PUSH1 0x24 PUSH1 0x0 REVERT JUMPDEST PUSH1 0x20 MUL ADD MLOAD PUSH1 0x40 MLOAD PUSH2 0xFCF SWAP2 SWAP1 PUSH2 0x21C7 JUMP JUMPDEST SWAP1 DUP2 MSTORE PUSH1 0x20 ADD PUSH1 0x40 MLOAD DUP1 SWAP2 SUB SWAP1 KECCAK256 DUP8 DUP5 PUSH1 0x4 DUP2 LT PUSH2 0x1016 JUMPI PUSH32 0x4E487B7100000000000000000000000000000000000000000000000000000000 PUSH1 0x0 MSTORE PUSH1 0x32 PUSH1 0x4 MSTORE PUSH1 0x24 PUSH1 0x0 REVERT JUMPDEST PUSH1 0x20 MUL ADD MLOAD PUSH1 0x40 MLOAD PUSH2 0x1028 SWAP2 SWAP1 PUSH2 0x21C7 JUMP JUMPDEST SWAP1 DUP2 MSTORE PUSH1 0x20 ADD PUSH1 0x40 MLOAD DUP1 SWAP2 SUB SWAP1 KECCAK256 DUP7 DUP4 PUSH1 0x2 DUP2 LT PUSH2 0x106F JUMPI PUSH32 0x4E487B7100000000000000000000000000000000000000000000000000000000 PUSH1 0x0 MSTORE PUSH1 0x32 PUSH1 0x4 MSTORE PUSH1 0x24 PUSH1 0x0 REVERT JUMPDEST PUSH1 0x20 MUL ADD MLOAD PUSH1 0x40 MLOAD PUSH2 0x1081 SWAP2 SWAP1 PUSH2 0x21C7 JUMP JUMPDEST SWAP1 DUP2 MSTORE PUSH1 0x20 ADD PUSH1 0x40 MLOAD DUP1 SWAP2 SUB SWAP1 KECCAK256 SLOAD GT ISZERO PUSH2 0x10A5 JUMPI DUP4 DUP1 PUSH2 0x10A1 SWAP1 PUSH2 0x2674 JUMP JUMPDEST SWAP5 POP POP JUMPDEST DUP1 DUP1 PUSH2 0x10B0 SWAP1 PUSH2 0x2674 JUMP JUMPDEST SWAP2 POP POP PUSH2 0xF77 JUMP JUMPDEST POP DUP1 DUP1 PUSH2 0x10C4 SWAP1 PUSH2 0x2674 JUMP JUMPDEST SWAP2 POP POP PUSH2 0xF6B JUMP JUMPDEST POP DUP1 DUP1 PUSH2 0x10D8 SWAP1 PUSH2 0x2674 JUMP JUMPDEST SWAP2 POP POP PUSH2 0xF5F JUMP JUMPDEST POP DUP1 PUSH8 0xFFFFFFFFFFFFFFFF DUP2 GT ISZERO PUSH2 0x1121 JUMPI PUSH32 0x4E487B7100000000000000000000000000000000000000000000000000000000 PUSH1 0x0 MSTORE PUSH1 0x41 PUSH1 0x4 MSTORE PUSH1 0x24 PUSH1 0x0 REVERT JUMPDEST PUSH1 0x40 MLOAD SWAP1 DUP1 DUP3 MSTORE DUP1 PUSH1 0x20 MUL PUSH1 0x20 ADD DUP3 ADD PUSH1 0x40 MSTORE DUP1 ISZERO PUSH2 0x1154 JUMPI DUP2 PUSH1 0x20 ADD JUMPDEST PUSH1 0x60 DUP2 MSTORE PUSH1 0x20 ADD SWAP1 PUSH1 0x1 SWAP1 SUB SWAP1 DUP2 PUSH2 0x113F JUMPI SWAP1 POP JUMPDEST POP SWAP8 POP DUP1 PUSH8 0xFFFFFFFFFFFFFFFF DUP2 GT ISZERO PUSH2 0x1197 JUMPI PUSH32 0x4E487B7100000000000000000000000000000000000000000000000000000000 PUSH1 0x0 MSTORE PUSH1 0x41 PUSH1 0x4 MSTORE PUSH1 0x24 PUSH1 0x0 REVERT JUMPDEST PUSH1 0x40 MLOAD SWAP1 DUP1 DUP3 MSTORE DUP1 PUSH1 0x20 MUL PUSH1 0x20 ADD DUP3 ADD PUSH1 0x40 MSTORE DUP1 ISZERO PUSH2 0x11CA JUMPI DUP2 PUSH1 0x20 ADD JUMPDEST PUSH1 0x60 DUP2 MSTORE PUSH1 0x20 ADD SWAP1 PUSH1 0x1 SWAP1 SUB SWAP1 DUP2 PUSH2 0x11B5 JUMPI SWAP1 POP JUMPDEST POP SWAP7 POP DUP1 PUSH8 0xFFFFFFFFFFFFFFFF DUP2 GT ISZERO PUSH2 0x120D JUMPI PUSH32 0x4E487B7100000000000000000000000000000000000000000000000000000000 PUSH1 0x0 MSTORE PUSH1 0x41 PUSH1 0x4 MSTORE PUSH1 0x24 PUSH1 0x0 REVERT JUMPDEST PUSH1 0x40 MLOAD SWAP1 DUP1 DUP3 MSTORE DUP1 PUSH1 0x20 MUL PUSH1 0x20 ADD DUP3 ADD PUSH1 0x40 MSTORE DUP1 ISZERO PUSH2 0x1240 JUMPI DUP2 PUSH1 0x20 ADD JUMPDEST PUSH1 0x60 DUP2 MSTORE PUSH1 0x20 ADD SWAP1 PUSH1 0x1 SWAP1 SUB SWAP1 DUP2 PUSH2 0x122B JUMPI SWAP1 POP JUMPDEST POP SWAP6 POP DUP1 PUSH8 0xFFFFFFFFFFFFFFFF DUP2 GT ISZERO PUSH2 0x1283 JUMPI PUSH32 0x4E487B7100000000000000000000000000000000000000000000000000000000 PUSH1 0x0 MSTORE PUSH1 0x41 PUSH1 0x4 MSTORE PUSH1 0x24 PUSH1 0x0 REVERT JUMPDEST PUSH1 0x40 MLOAD SWAP1 DUP1 DUP3 MSTORE DUP1 PUSH1 0x20 MUL PUSH1 0x20 ADD DUP3 ADD PUSH1 0x40 MSTORE DUP1 ISZERO PUSH2 0x12B1 JUMPI DUP2 PUSH1 0x20 ADD PUSH1 0x20 DUP3 MUL DUP1 CALLDATASIZE DUP4 CALLDATACOPY DUP1 DUP3 ADD SWAP2 POP POP SWAP1 POP JUMPDEST POP SWAP5 POP PUSH1 0x0 DUP1 JUMPDEST PUSH1 0x2 DUP2 LT ISZERO PUSH2 0x160B JUMPI PUSH1 0x0 JUMPDEST PUSH1 0x4 DUP2 LT ISZERO PUSH2 0x15F7 JUMPI PUSH1 0x0 JUMPDEST PUSH1 0x2 DUP2 LT ISZERO PUSH2 0x15E3 JUMPI PUSH1 0x0 PUSH1 0x3 DUP10 DUP6 PUSH1 0x2 DUP2 LT PUSH2 0x1316 JUMPI PUSH32 0x4E487B7100000000000000000000000000000000000000000000000000000000 PUSH1 0x0 MSTORE PUSH1 0x32 PUSH1 0x4 MSTORE PUSH1 0x24 PUSH1 0x0 REVERT JUMPDEST PUSH1 0x20 MUL ADD MLOAD PUSH1 0x40 MLOAD PUSH2 0x1328 SWAP2 SWAP1 PUSH2 0x21C7 JUMP JUMPDEST SWAP1 DUP2 MSTORE PUSH1 0x20 ADD PUSH1 0x40 MLOAD DUP1 SWAP2 SUB SWAP1 KECCAK256 DUP9 DUP5 PUSH1 0x4 DUP2 LT PUSH2 0x136F JUMPI PUSH32 0x4E487B7100000000000000000000000000000000000000000000000000000000 PUSH1 0x0 MSTORE PUSH1 0x32 PUSH1 0x4 MSTORE PUSH1 0x24 PUSH1 0x0 REVERT JUMPDEST PUSH1 0x20 MUL ADD MLOAD PUSH1 0x40 MLOAD PUSH2 0x1381 SWAP2 SWAP1 PUSH2 0x21C7 JUMP JUMPDEST SWAP1 DUP2 MSTORE PUSH1 0x20 ADD PUSH1 0x40 MLOAD DUP1 SWAP2 SUB SWAP1 KECCAK256 DUP8 DUP4 PUSH1 0x2 DUP2 LT PUSH2 0x13C8 JUMPI PUSH32 0x4E487B7100000000000000000000000000000000000000000000000000000000 PUSH1 0x0 MSTORE PUSH1 0x32 PUSH1 0x4 MSTORE PUSH1 0x24 PUSH1 0x0 REVERT JUMPDEST PUSH1 0x20 MUL ADD MLOAD PUSH1 0x40 MLOAD PUSH2 0x13DA SWAP2 SWAP1 PUSH2 0x21C7 JUMP JUMPDEST SWAP1 DUP2 MSTORE PUSH1 0x20 ADD PUSH1 0x40 MLOAD DUP1 SWAP2 SUB SWAP1 KECCAK256 SLOAD SWAP1 POP PUSH1 0x0 DUP2 GT ISZERO PUSH2 0x15CF JUMPI DUP9 DUP5 PUSH1 0x2 DUP2 LT PUSH2 0x142D JUMPI PUSH32 0x4E487B7100000000000000000000000000000000000000000000000000000000 PUSH1 0x0 MSTORE PUSH1 0x32 PUSH1 0x4 MSTORE PUSH1 0x24 PUSH1 0x0 REVERT JUMPDEST PUSH1 0x20 MUL ADD MLOAD DUP14 DUP7 DUP2 MLOAD DUP2 LT PUSH2 0x146B JUMPI PUSH32 0x4E487B7100000000000000000000000000000000000000000000000000000000 PUSH1 0x0 MSTORE PUSH1 0x32 PUSH1 0x4 MSTORE PUSH1 0x24 PUSH1 0x0 REVERT JUMPDEST PUSH1 0x20 MUL PUSH1 0x20 ADD ADD DUP2 SWAP1 MSTORE POP DUP8 DUP4 PUSH1 0x4 DUP2 LT PUSH2 0x14AF JUMPI PUSH32 0x4E487B7100000000000000000000000000000000000000000000000000000000 PUSH1 0x0 MSTORE PUSH1 0x32 PUSH1 0x4 MSTORE PUSH1 0x24 PUSH1 0x0 REVERT JUMPDEST PUSH1 0x20 MUL ADD MLOAD DUP13 DUP7 DUP2 MLOAD DUP2 LT PUSH2 0x14ED JUMPI PUSH32 0x4E487B7100000000000000000000000000000000000000000000000000000000 PUSH1 0x0 MSTORE PUSH1 0x32 PUSH1 0x4 MSTORE PUSH1 0x24 PUSH1 0x0 REVERT JUMPDEST PUSH1 0x20 MUL PUSH1 0x20 ADD ADD DUP2 SWAP1 MSTORE POP DUP7 DUP3 PUSH1 0x2 DUP2 LT PUSH2 0x1531 JUMPI PUSH32 0x4E487B7100000000000000000000000000000000000000000000000000000000 PUSH1 0x0 MSTORE PUSH1 0x32 PUSH1 0x4 MSTORE PUSH1 0x24 PUSH1 0x0 REVERT JUMPDEST PUSH1 0x20 MUL ADD MLOAD DUP12 DUP7 DUP2 MLOAD DUP2 LT PUSH2 0x156F JUMPI PUSH32 0x4E487B7100000000000000000000000000000000000000000000000000000000 PUSH1 0x0 MSTORE PUSH1 0x32 PUSH1 0x4 MSTORE PUSH1 0x24 PUSH1 0x0 REVERT JUMPDEST PUSH1 0x20 MUL PUSH1 0x20 ADD ADD DUP2 SWAP1 MSTORE POP DUP1 DUP11 DUP7 DUP2 MLOAD DUP2 LT PUSH2 0x15B4 JUMPI PUSH32 0x4E487B7100000000000000000000000000000000000000000000000000000000 PUSH1 0x0 MSTORE PUSH1 0x32 PUSH1 0x4 MSTORE PUSH1 0x24 PUSH1 0x0 REVERT JUMPDEST PUSH1 0x20 MUL PUSH1 0x20 ADD ADD DUP2 DUP2 MSTORE POP POP DUP5 DUP1 PUSH2 0x15CB SWAP1 PUSH2 0x2674 JUMP JUMPDEST SWAP6 POP POP JUMPDEST POP DUP1 DUP1 PUSH2 0x15DB SWAP1 PUSH2 0x2674 JUMP JUMPDEST SWAP2 POP POP PUSH2 0x12D0 JUMP JUMPDEST POP DUP1 DUP1 PUSH2 0x15EF SWAP1 PUSH2 0x2674 JUMP JUMPDEST SWAP2 POP POP PUSH2 0x12C4 JUMP JUMPDEST POP DUP1 DUP1 PUSH2 0x1603 SWAP1 PUSH2 0x2674 JUMP JUMPDEST SWAP2 POP POP PUSH2 0x12B8 JUMP JUMPDEST POP POP POP POP POP POP SWAP1 SWAP2 SWAP3 SWAP4 JUMP JUMPDEST PUSH1 0x0 DUP1 SLOAD SWAP1 PUSH2 0x100 EXP SWAP1 DIV PUSH20 0xFFFFFFFFFFFFFFFFFFFFFFFFFFFFFFFFFFFFFFFF AND PUSH20 0xFFFFFFFFFFFFFFFFFFFFFFFFFFFFFFFFFFFFFFFF AND CALLER PUSH20 0xFFFFFFFFFFFFFFFFFFFFFFFFFFFFFFFFFFFFFFFF AND EQ PUSH2 0x16A5 JUMPI PUSH1 0x40 MLOAD PUSH32 0x8C379A000000000000000000000000000000000000000000000000000000000 DUP2 MSTORE PUSH1 0x4 ADD PUSH2 0x169C SWAP1 PUSH2 0x227C JUMP JUMPDEST PUSH1 0x40 MLOAD DUP1 SWAP2 SUB SWAP1 REVERT JUMPDEST PUSH1 0x0 DUP1 SLOAD SWAP1 PUSH2 0x100 EXP SWAP1 DIV PUSH20 0xFFFFFFFFFFFFFFFFFFFFFFFFFFFFFFFFFFFFFFFF AND PUSH20 0xFFFFFFFFFFFFFFFFFFFFFFFFFFFFFFFFFFFFFFFF AND PUSH2 0x8FC SELFBALANCE SWAP1 DUP2 ISZERO MUL SWAP1 PUSH1 0x40 MLOAD PUSH1 0x0 PUSH1 0x40 MLOAD DUP1 DUP4 SUB DUP2 DUP6 DUP9 DUP9 CALL SWAP4 POP POP POP POP ISZERO DUP1 ISZERO PUSH2 0x170B JUMPI RETURNDATASIZE PUSH1 0x0 DUP1 RETURNDATACOPY RETURNDATASIZE PUSH1 0x0 REVERT JUMPDEST POP JUMP JUMPDEST PUSH1 0x1 SLOAD DUP2 JUMP JUMPDEST PUSH1 0x0 PUSH1 0x40 MLOAD DUP1 PUSH1 0x40 ADD PUSH1 0x40 MSTORE DUP1 PUSH1 0xA DUP2 MSTORE PUSH1 0x20 ADD PUSH32 0x5061737361706F72746500000000000000000000000000000000000000000000 DUP2 MSTORE POP SWAP1 POP PUSH1 0x0 PUSH1 0x3 DUP3 PUSH1 0x40 MLOAD PUSH2 0x1760 SWAP2 SWAP1 PUSH2 0x21C7 JUMP JUMPDEST SWAP1 DUP2 MSTORE PUSH1 0x20 ADD PUSH1 0x40 MLOAD DUP1 SWAP2 SUB SWAP1 KECCAK256 DUP6 PUSH1 0x40 MLOAD PUSH2 0x177C SWAP2 SWAP1 PUSH2 0x21C7 JUMP JUMPDEST SWAP1 DUP2 MSTORE PUSH1 0x20 ADD PUSH1 0x40 MLOAD DUP1 SWAP2 SUB SWAP1 KECCAK256 DUP5 PUSH1 0x40 MLOAD PUSH2 0x1798 SWAP2 SWAP1 PUSH2 0x21C7 JUMP JUMPDEST SWAP1 DUP2 MSTORE PUSH1 0x20 ADD PUSH1 0x40 MLOAD DUP1 SWAP2 SUB SWAP1 KECCAK256 SLOAD SWAP1 POP PUSH1 0x0 DUP2 GT PUSH2 0x17EC JUMPI PUSH1 0x40 MLOAD PUSH32 0x8C379A000000000000000000000000000000000000000000000000000000000 DUP2 MSTORE PUSH1 0x4 ADD PUSH2 0x17E3 SWAP1 PUSH2 0x229C JUMP JUMPDEST PUSH1 0x40 MLOAD DUP1 SWAP2 SUB SWAP1 REVERT JUMPDEST DUP1 CALLVALUE LT ISZERO PUSH2 0x182F JUMPI PUSH1 0x40 MLOAD PUSH32 0x8C379A000000000000000000000000000000000000000000000000000000000 DUP2 MSTORE PUSH1 0x4 ADD PUSH2 0x1826 SWAP1 PUSH2 0x22BC JUMP JUMPDEST PUSH1 0x40 MLOAD DUP1 SWAP2 SUB SWAP1 REVERT JUMPDEST PUSH1 0x1 PUSH1 0x0 DUP2 SLOAD DUP1 SWAP3 SWAP2 SWAP1 PUSH2 0x1842 SWAP1 PUSH2 0x2674 JUMP JUMPDEST SWAP2 SWAP1 POP SSTORE POP PUSH1 0x40 MLOAD DUP1 PUSH1 0xE0 ADD PUSH1 0x40 MSTORE DUP1 PUSH1 0x1 SLOAD DUP2 MSTORE PUSH1 0x20 ADD DUP4 DUP2 MSTORE PUSH1 0x20 ADD DUP7 DUP2 MSTORE PUSH1 0x20 ADD DUP6 DUP2 MSTORE PUSH1 0x20 ADD PUSH1 0x0 PUSH1 0xFF AND DUP2 MSTORE PUSH1 0x20 ADD DUP5 DUP2 MSTORE PUSH1 0x20 ADD CALLER PUSH20 0xFFFFFFFFFFFFFFFFFFFFFFFFFFFFFFFFFFFFFFFF AND DUP2 MSTORE POP PUSH1 0x2 PUSH1 0x0 PUSH1 0x1 SLOAD DUP2 MSTORE PUSH1 0x20 ADD SWAP1 DUP2 MSTORE PUSH1 0x20 ADD PUSH1 0x0 KECCAK256 PUSH1 0x0 DUP3 ADD MLOAD DUP2 PUSH1 0x0 ADD SSTORE PUSH1 0x20 DUP3 ADD MLOAD DUP2 PUSH1 0x1 ADD SWAP1 DUP1 MLOAD SWAP1 PUSH1 0x20 ADD SWAP1 PUSH2 0x18D1 SWAP3 SWAP2 SWAP1 PUSH2 0x19E1 JUMP JUMPDEST POP PUSH1 0x40 DUP3 ADD MLOAD DUP2 PUSH1 0x2 ADD SWAP1 DUP1 MLOAD SWAP1 PUSH1 0x20 ADD SWAP1 PUSH2 0x18EE SWAP3 SWAP2 SWAP1 PUSH2 0x19E1 JUMP JUMPDEST POP PUSH1 0x60 DUP3 ADD MLOAD DUP2 PUSH1 0x3 ADD SWAP1 DUP1 MLOAD SWAP1 PUSH1 0x20 ADD SWAP1 PUSH2 0x190B SWAP3 SWAP2 SWAP1 PUSH2 0x19E1 JUMP JUMPDEST POP PUSH1 0x80 DUP3 ADD MLOAD DUP2 PUSH1 0x4 ADD PUSH1 0x0 PUSH2 0x100 EXP DUP2 SLOAD DUP2 PUSH1 0xFF MUL NOT AND SWAP1 DUP4 PUSH1 0xFF AND MUL OR SWAP1 SSTORE POP PUSH1 0xA0 DUP3 ADD MLOAD DUP2 PUSH1 0x5 ADD SWAP1 DUP1 MLOAD SWAP1 PUSH1 0x20 ADD SWAP1 PUSH2 0x1949 SWAP3 SWAP2 SWAP1 PUSH2 0x19E1 JUMP JUMPDEST POP PUSH1 0xC0 DUP3 ADD MLOAD DUP2 PUSH1 0x6 ADD PUSH1 0x0 PUSH2 0x100 EXP DUP2 SLOAD DUP2 PUSH20 0xFFFFFFFFFFFFFFFFFFFFFFFFFFFFFFFFFFFFFFFF MUL NOT AND SWAP1 DUP4 PUSH20 0xFFFFFFFFFFFFFFFFFFFFFFFFFFFFFFFFFFFFFFFF AND MUL OR SWAP1 SSTORE POP SWAP1 POP POP PUSH32 0x914D99CF3A3BF4215D2087D4B5B910906192B4A6DFB364D3746A5A16F3868B76 PUSH1 0x1 SLOAD DUP4 DUP8 DUP8 PUSH1 0x0 DUP9 CALLER PUSH1 0x40 MLOAD PUSH2 0x19D2 SWAP8 SWAP7 SWAP6 SWAP5 SWAP4 SWAP3 SWAP2 SWAP1 PUSH2 0x2317 JUMP JUMPDEST PUSH1 0x40 MLOAD DUP1 SWAP2 SUB SWAP1 LOG1 POP POP POP POP POP JUMP JUMPDEST DUP3 DUP1 SLOAD PUSH2 0x19ED SWAP1 PUSH2 0x2642 JUMP JUMPDEST SWAP1 PUSH1 0x0 MSTORE PUSH1 0x20 PUSH1 0x0 KECCAK256 SWAP1 PUSH1 0x1F ADD PUSH1 0x20 SWAP1 DIV DUP2 ADD SWAP3 DUP3 PUSH2 0x1A0F JUMPI PUSH1 0x0 DUP6 SSTORE PUSH2 0x1A56 JUMP JUMPDEST DUP3 PUSH1 0x1F LT PUSH2 0x1A28 JUMPI DUP1 MLOAD PUSH1 0xFF NOT AND DUP4 DUP1 ADD OR DUP6 SSTORE PUSH2 0x1A56 JUMP JUMPDEST DUP3 DUP1 ADD PUSH1 0x1 ADD DUP6 SSTORE DUP3 ISZERO PUSH2 0x1A56 JUMPI SWAP2 DUP3 ADD JUMPDEST DUP3 DUP2 GT ISZERO PUSH2 0x1A55 JUMPI DUP3 MLOAD DUP3 SSTORE SWAP2 PUSH1 0x20 ADD SWAP2 SWAP1 PUSH1 0x1 ADD SWAP1 PUSH2 0x1A3A JUMP JUMPDEST JUMPDEST POP SWAP1 POP PUSH2 0x1A63 SWAP2 SWAP1 PUSH2 0x1ABD JUMP JUMPDEST POP SWAP1 JUMP JUMPDEST PUSH1 0x40 MLOAD DUP1 PUSH1 0xE0 ADD PUSH1 0x40 MSTORE DUP1 PUSH1 0x0 DUP2 MSTORE PUSH1 0x20 ADD PUSH1 0x60 DUP2 MSTORE PUSH1 0x20 ADD PUSH1 0x60 DUP2 MSTORE PUSH1 0x20 ADD PUSH1 0x60 DUP2 MSTORE PUSH1 0x20 ADD PUSH1 0x0 PUSH1 0xFF AND DUP2 MSTORE PUSH1 0x20 ADD PUSH1 0x60 DUP2 MSTORE PUSH1 0x20 ADD PUSH1 0x0 PUSH20 0xFFFFFFFFFFFFFFFFFFFFFFFFFFFFFFFFFFFFFFFF AND DUP2 MSTORE POP SWAP1 JUMP JUMPDEST JUMPDEST DUP1 DUP3 GT ISZERO PUSH2 0x1AD6 JUMPI PUSH1 0x0 DUP2 PUSH1 0x0 SWAP1 SSTORE POP PUSH1 0x1 ADD PUSH2 0x1ABE JUMP JUMPDEST POP SWAP1 JUMP JUMPDEST PUSH1 0x0 PUSH2 0x1AED PUSH2 0x1AE8 DUP5 PUSH2 0x245E JUMP JUMPDEST PUSH2 0x242D JUMP JUMPDEST SWAP1 POP DUP3 DUP2 MSTORE PUSH1 0x20 DUP2 ADD DUP5 DUP5 DUP5 ADD GT ISZERO PUSH2 0x1B05 JUMPI PUSH1 0x0 DUP1 REVERT JUMPDEST PUSH2 0x1B10 DUP5 DUP3 DUP6 PUSH2 0x2600 JUMP JUMPDEST POP SWAP4 SWAP3 POP POP POP JUMP JUMPDEST PUSH1 0x0 DUP3 PUSH1 0x1F DUP4 ADD SLT PUSH2 0x1B29 JUMPI PUSH1 0x0 DUP1 REVERT JUMPDEST DUP2 CALLDATALOAD PUSH2 0x1B39 DUP5 DUP3 PUSH1 0x20 DUP7 ADD PUSH2 0x1ADA JUMP JUMPDEST SWAP2 POP POP SWAP3 SWAP2 POP POP JUMP JUMPDEST PUSH1 0x0 DUP2 CALLDATALOAD SWAP1 POP PUSH2 0x1B51 DUP2 PUSH2 0x275B JUMP JUMPDEST SWAP3 SWAP2 POP POP JUMP JUMPDEST PUSH1 0x0 DUP2 CALLDATALOAD SWAP1 POP PUSH2 0x1B66 DUP2 PUSH2 0x2772 JUMP JUMPDEST SWAP3 SWAP2 POP POP JUMP JUMPDEST PUSH1 0x0 DUP1 PUSH1 0x0 PUSH1 0x60 DUP5 DUP7 SUB SLT ISZERO PUSH2 0x1B81 JUMPI PUSH1 0x0 DUP1 REVERT JUMPDEST PUSH1 0x0 DUP5 ADD CALLDATALOAD PUSH8 0xFFFFFFFFFFFFFFFF DUP2 GT ISZERO PUSH2 0x1B9B JUMPI PUSH1 0x0 DUP1 REVERT JUMPDEST PUSH2 0x1BA7 DUP7 DUP3 DUP8 ADD PUSH2 0x1B18 JUMP JUMPDEST SWAP4 POP POP PUSH1 0x20 DUP5 ADD CALLDATALOAD PUSH8 0xFFFFFFFFFFFFFFFF DUP2 GT ISZERO PUSH2 0x1BC4 JUMPI PUSH1 0x0 DUP1 REVERT JUMPDEST PUSH2 0x1BD0 DUP7 DUP3 DUP8 ADD PUSH2 0x1B18 JUMP JUMPDEST SWAP3 POP POP PUSH1 0x40 DUP5 ADD CALLDATALOAD PUSH8 0xFFFFFFFFFFFFFFFF DUP2 GT ISZERO PUSH2 0x1BED JUMPI PUSH1 0x0 DUP1 REVERT JUMPDEST PUSH2 0x1BF9 DUP7 DUP3 DUP8 ADD PUSH2 0x1B18 JUMP JUMPDEST SWAP2 POP POP SWAP3 POP SWAP3 POP SWAP3 JUMP JUMPDEST PUSH1 0x0 DUP1 PUSH1 0x0 DUP1 PUSH1 0x80 DUP6 DUP8 SUB SLT ISZERO PUSH2 0x1C19 JUMPI PUSH1 0x0 DUP1 REVERT JUMPDEST PUSH1 0x0 DUP6 ADD CALLDATALOAD PUSH8 0xFFFFFFFFFFFFFFFF DUP2 GT ISZERO PUSH2 0x1C33 JUMPI PUSH1 0x0 DUP1 REVERT JUMPDEST PUSH2 0x1C3F DUP8 DUP3 DUP9 ADD PUSH2 0x1B18 JUMP JUMPDEST SWAP5 POP POP PUSH1 0x20 DUP6 ADD CALLDATALOAD PUSH8 0xFFFFFFFFFFFFFFFF DUP2 GT ISZERO PUSH2 0x1C5C JUMPI PUSH1 0x0 DUP1 REVERT JUMPDEST PUSH2 0x1C68 DUP8 DUP3 DUP9 ADD PUSH2 0x1B18 JUMP JUMPDEST SWAP4 POP POP PUSH1 0x40 DUP6 ADD CALLDATALOAD PUSH8 0xFFFFFFFFFFFFFFFF DUP2 GT ISZERO PUSH2 0x1C85 JUMPI PUSH1 0x0 DUP1 REVERT JUMPDEST PUSH2 0x1C91 DUP8 DUP3 DUP9 ADD PUSH2 0x1B18 JUMP JUMPDEST SWAP3 POP POP PUSH1 0x60 PUSH2 0x1CA2 DUP8 DUP3 DUP9 ADD PUSH2 0x1B42 JUMP JUMPDEST SWAP2 POP POP SWAP3 SWAP6 SWAP2 SWAP5 POP SWAP3 POP JUMP JUMPDEST PUSH1 0x0 DUP1 PUSH1 0x0 DUP1 PUSH1 0x80 DUP6 DUP8 SUB SLT ISZERO PUSH2 0x1CC4 JUMPI PUSH1 0x0 DUP1 REVERT JUMPDEST PUSH1 0x0 DUP6 ADD CALLDATALOAD PUSH8 0xFFFFFFFFFFFFFFFF DUP2 GT ISZERO PUSH2 0x1CDE JUMPI PUSH1 0x0 DUP1 REVERT JUMPDEST PUSH2 0x1CEA DUP8 DUP3 DUP9 ADD PUSH2 0x1B18 JUMP JUMPDEST SWAP5 POP POP PUSH1 0x20 DUP6 ADD CALLDATALOAD PUSH8 0xFFFFFFFFFFFFFFFF DUP2 GT ISZERO PUSH2 0x1D07 JUMPI PUSH1 0x0 DUP1 REVERT JUMPDEST PUSH2 0x1D13 DUP8 DUP3 DUP9 ADD PUSH2 0x1B18 JUMP JUMPDEST SWAP4 POP POP PUSH1 0x40 PUSH2 0x1D24 DUP8 DUP3 DUP9 ADD PUSH2 0x1B57 JUMP JUMPDEST SWAP3 POP POP PUSH1 0x60 DUP6 ADD CALLDATALOAD PUSH8 0xFFFFFFFFFFFFFFFF DUP2 GT ISZERO PUSH2 0x1D41 JUMPI PUSH1 0x0 DUP1 REVERT JUMPDEST PUSH2 0x1D4D DUP8 DUP3 DUP9 ADD PUSH2 0x1B18 JUMP JUMPDEST SWAP2 POP POP SWAP3 SWAP6 SWAP2 SWAP5 POP SWAP3 POP JUMP JUMPDEST PUSH1 0x0 PUSH1 0x20 DUP3 DUP5 SUB SLT ISZERO PUSH2 0x1D6B JUMPI PUSH1 0x0 DUP1 REVERT JUMPDEST PUSH1 0x0 PUSH2 0x1D79 DUP5 DUP3 DUP6 ADD PUSH2 0x1B42 JUMP JUMPDEST SWAP2 POP POP SWAP3 SWAP2 POP POP JUMP JUMPDEST PUSH1 0x0 PUSH2 0x1D8E DUP4 DUP4 PUSH2 0x1F37 JUMP JUMPDEST SWAP1 POP SWAP3 SWAP2 POP POP JUMP JUMPDEST PUSH1 0x0 PUSH2 0x1DA2 DUP4 DUP4 PUSH2 0x20DA JUMP JUMPDEST SWAP1 POP SWAP3 SWAP2 POP POP JUMP JUMPDEST PUSH1 0x0 PUSH2 0x1DB6 DUP4 DUP4 PUSH2 0x218B JUMP JUMPDEST PUSH1 0x20 DUP4 ADD SWAP1 POP SWAP3 SWAP2 POP POP JUMP JUMPDEST PUSH2 0x1DCB DUP2 PUSH2 0x25A5 JUMP JUMPDEST DUP3 MSTORE POP POP JUMP JUMPDEST PUSH2 0x1DDA DUP2 PUSH2 0x25A5 JUMP JUMPDEST DUP3 MSTORE POP POP JUMP JUMPDEST PUSH1 0x0 PUSH2 0x1DEB DUP3 PUSH2 0x24BE JUMP JUMPDEST PUSH2 0x1DF5 DUP2 DUP6 PUSH2 0x2511 JUMP JUMPDEST SWAP4 POP DUP4 PUSH1 0x20 DUP3 MUL DUP6 ADD PUSH2 0x1E07 DUP6 PUSH2 0x248E JUMP JUMPDEST DUP1 PUSH1 0x0 JUMPDEST DUP6 DUP2 LT ISZERO PUSH2 0x1E43 JUMPI DUP5 DUP5 SUB DUP10 MSTORE DUP2 MLOAD PUSH2 0x1E24 DUP6 DUP3 PUSH2 0x1D82 JUMP JUMPDEST SWAP5 POP PUSH2 0x1E2F DUP4 PUSH2 0x24EA JUMP JUMPDEST SWAP3 POP PUSH1 0x20 DUP11 ADD SWAP10 POP POP PUSH1 0x1 DUP2 ADD SWAP1 POP PUSH2 0x1E0B JUMP JUMPDEST POP DUP3 SWAP8 POP DUP8 SWAP6 POP POP POP POP POP POP SWAP3 SWAP2 POP POP JUMP JUMPDEST PUSH1 0x0 PUSH2 0x1E60 DUP3 PUSH2 0x24C9 JUMP JUMPDEST PUSH2 0x1E6A DUP2 DUP6 PUSH2 0x2522 JUMP JUMPDEST SWAP4 POP DUP4 PUSH1 0x20 DUP3 MUL DUP6 ADD PUSH2 0x1E7C DUP6 PUSH2 0x249E JUMP JUMPDEST DUP1 PUSH1 0x0 JUMPDEST DUP6 DUP2 LT ISZERO PUSH2 0x1EB8 JUMPI DUP5 DUP5 SUB DUP10 MSTORE DUP2 MLOAD PUSH2 0x1E99 DUP6 DUP3 PUSH2 0x1D96 JUMP JUMPDEST SWAP5 POP PUSH2 0x1EA4 DUP4 PUSH2 0x24F7 JUMP JUMPDEST SWAP3 POP PUSH1 0x20 DUP11 ADD SWAP10 POP POP PUSH1 0x1 DUP2 ADD SWAP1 POP PUSH2 0x1E80 JUMP JUMPDEST POP DUP3 SWAP8 POP DUP8 SWAP6 POP POP POP POP POP POP SWAP3 SWAP2 POP POP JUMP JUMPDEST PUSH1 0x0 PUSH2 0x1ED5 DUP3 PUSH2 0x24D4 JUMP JUMPDEST PUSH2 0x1EDF DUP2 DUP6 PUSH2 0x2533 JUMP JUMPDEST SWAP4 POP PUSH2 0x1EEA DUP4 PUSH2 0x24AE JUMP JUMPDEST DUP1 PUSH1 0x0 JUMPDEST DUP4 DUP2 LT ISZERO PUSH2 0x1F1B JUMPI DUP2 MLOAD PUSH2 0x1F02 DUP9 DUP3 PUSH2 0x1DAA JUMP JUMPDEST SWAP8 POP PUSH2 0x1F0D DUP4 PUSH2 0x2504 JUMP JUMPDEST SWAP3 POP POP PUSH1 0x1 DUP2 ADD SWAP1 POP PUSH2 0x1EEE JUMP JUMPDEST POP DUP6 SWAP4 POP POP POP POP SWAP3 SWAP2 POP POP JUMP JUMPDEST PUSH2 0x1F31 DUP2 PUSH2 0x25EE JUMP JUMPDEST DUP3 MSTORE POP POP JUMP JUMPDEST PUSH1 0x0 PUSH2 0x1F42 DUP3 PUSH2 0x24DF JUMP JUMPDEST PUSH2 0x1F4C DUP2 DUP6 PUSH2 0x2544 JUMP JUMPDEST SWAP4 POP PUSH2 0x1F5C DUP2 DUP6 PUSH1 0x20 DUP7 ADD PUSH2 0x260F JUMP JUMPDEST PUSH2 0x1F65 DUP2 PUSH2 0x274A JUMP JUMPDEST DUP5 ADD SWAP2 POP POP SWAP3 SWAP2 POP POP JUMP JUMPDEST PUSH1 0x0 PUSH2 0x1F7B DUP3 PUSH2 0x24DF JUMP JUMPDEST PUSH2 0x1F85 DUP2 DUP6 PUSH2 0x2555 JUMP JUMPDEST SWAP4 POP PUSH2 0x1F95 DUP2 DUP6 PUSH1 0x20 DUP7 ADD PUSH2 0x260F JUMP JUMPDEST PUSH2 0x1F9E DUP2 PUSH2 0x274A JUMP JUMPDEST DUP5 ADD SWAP2 POP POP SWAP3 SWAP2 POP POP JUMP JUMPDEST PUSH1 0x0 PUSH2 0x1FB4 DUP3 PUSH2 0x24DF JUMP JUMPDEST PUSH2 0x1FBE DUP2 DUP6 PUSH2 0x2566 JUMP JUMPDEST SWAP4 POP PUSH2 0x1FCE DUP2 DUP6 PUSH1 0x20 DUP7 ADD PUSH2 0x260F JUMP JUMPDEST DUP1 DUP5 ADD SWAP2 POP POP SWAP3 SWAP2 POP POP JUMP JUMPDEST PUSH1 0x0 PUSH2 0x1FE7 PUSH1 0x1C DUP4 PUSH2 0x2555 JUMP JUMPDEST SWAP2 POP PUSH32 0x536F6D656E7465206F20646F6E6F20706F646520657865637574617200000000 PUSH1 0x0 DUP4 ADD MSTORE PUSH1 0x20 DUP3 ADD SWAP1 POP SWAP2 SWAP1 POP JUMP JUMPDEST PUSH1 0x0 PUSH2 0x2027 PUSH1 0x15 DUP4 PUSH2 0x2555 JUMP JUMPDEST SWAP2 POP PUSH32 0x507265636F206E616F20636F6E666967757261646F0000000000000000000000 PUSH1 0x0 DUP4 ADD MSTORE PUSH1 0x20 DUP3 ADD SWAP1 POP SWAP2 SWAP1 POP JUMP JUMPDEST PUSH1 0x0 PUSH2 0x2067 PUSH1 0x12 DUP4 PUSH2 0x2555 JUMP JUMPDEST SWAP2 POP PUSH32 0x56616C6F7220696E737566696369656E74650000000000000000000000000000 PUSH1 0x0 DUP4 ADD MSTORE PUSH1 0x20 DUP3 ADD SWAP1 POP SWAP2 SWAP1 POP JUMP JUMPDEST PUSH1 0x0 PUSH2 0x20A7 PUSH1 0xE DUP4 PUSH2 0x2555 JUMP JUMPDEST SWAP2 POP PUSH32 0x4E6F69746520696E76616C696461000000000000000000000000000000000000 PUSH1 0x0 DUP4 ADD MSTORE PUSH1 0x20 DUP3 ADD SWAP1 POP SWAP2 SWAP1 POP JUMP JUMPDEST PUSH1 0x0 PUSH1 0xE0 DUP4 ADD PUSH1 0x0 DUP4 ADD MLOAD PUSH2 0x20F2 PUSH1 0x0 DUP7 ADD DUP3 PUSH2 0x218B JUMP JUMPDEST POP PUSH1 0x20 DUP4 ADD MLOAD DUP5 DUP3 SUB PUSH1 0x20 DUP7 ADD MSTORE PUSH2 0x210A DUP3 DUP3 PUSH2 0x1F37 JUMP JUMPDEST SWAP2 POP POP PUSH1 0x40 DUP4 ADD MLOAD DUP5 DUP3 SUB PUSH1 0x40 DUP7 ADD MSTORE PUSH2 0x2124 DUP3 DUP3 PUSH2 0x1F37 JUMP JUMPDEST SWAP2 POP POP PUSH1 0x60 DUP4 ADD MLOAD DUP5 DUP3 SUB PUSH1 0x60 DUP7 ADD MSTORE PUSH2 0x213E DUP3 DUP3 PUSH2 0x1F37 JUMP JUMPDEST SWAP2 POP POP PUSH1 0x80 DUP4 ADD MLOAD PUSH2 0x2153 PUSH1 0x80 DUP7 ADD DUP3 PUSH2 0x21A9 JUMP JUMPDEST POP PUSH1 0xA0 DUP4 ADD MLOAD DUP5 DUP3 SUB PUSH1 0xA0 DUP7 ADD MSTORE PUSH2 0x216B DUP3 DUP3 PUSH2 0x1F37 JUMP JUMPDEST SWAP2 POP POP PUSH1 0xC0 DUP4 ADD MLOAD PUSH2 0x2180 PUSH1 0xC0 DUP7 ADD DUP3 PUSH2 0x1DC2 JUMP JUMPDEST POP DUP1 SWAP2 POP POP SWAP3 SWAP2 POP POP JUMP JUMPDEST PUSH2 0x2194 DUP2 PUSH2 0x25D7 JUMP JUMPDEST DUP3 MSTORE POP POP JUMP JUMPDEST PUSH2 0x21A3 DUP2 PUSH2 0x25D7 JUMP JUMPDEST DUP3 MSTORE POP POP JUMP JUMPDEST PUSH2 0x21B2 DUP2 PUSH2 0x25E1 JUMP JUMPDEST DUP3 MSTORE POP POP JUMP JUMPDEST PUSH2 0x21C1 DUP2 PUSH2 0x25E1 JUMP JUMPDEST DUP3 MSTORE POP POP JUMP JUMPDEST PUSH1 0x0 PUSH2 0x21D3 DUP3 DUP5 PUSH2 0x1FA9 JUMP JUMPDEST SWAP2 POP DUP2 SWAP1 POP SWAP3 SWAP2 POP POP JUMP JUMPDEST PUSH1 0x0 PUSH1 0x20 DUP3 ADD SWAP1 POP PUSH2 0x21F3 PUSH1 0x0 DUP4 ADD DUP5 PUSH2 0x1DD1 JUMP JUMPDEST SWAP3 SWAP2 POP POP JUMP JUMPDEST PUSH1 0x0 PUSH1 0x80 DUP3 ADD SWAP1 POP DUP2 DUP2 SUB PUSH1 0x0 DUP4 ADD MSTORE PUSH2 0x2213 DUP2 DUP8 PUSH2 0x1DE0 JUMP JUMPDEST SWAP1 POP DUP2 DUP2 SUB PUSH1 0x20 DUP4 ADD MSTORE PUSH2 0x2227 DUP2 DUP7 PUSH2 0x1DE0 JUMP JUMPDEST SWAP1 POP DUP2 DUP2 SUB PUSH1 0x40 DUP4 ADD MSTORE PUSH2 0x223B DUP2 DUP6 PUSH2 0x1DE0 JUMP JUMPDEST SWAP1 POP DUP2 DUP2 SUB PUSH1 0x60 DUP4 ADD MSTORE PUSH2 0x224F DUP2 DUP5 PUSH2 0x1ECA JUMP JUMPDEST SWAP1 POP SWAP6 SWAP5 POP POP POP POP POP JUMP JUMPDEST PUSH1 0x0 PUSH1 0x20 DUP3 ADD SWAP1 POP DUP2 DUP2 SUB PUSH1 0x0 DUP4 ADD MSTORE PUSH2 0x2274 DUP2 DUP5 PUSH2 0x1E55 JUMP JUMPDEST SWAP1 POP SWAP3 SWAP2 POP POP JUMP JUMPDEST PUSH1 0x0 PUSH1 0x20 DUP3 ADD SWAP1 POP DUP2 DUP2 SUB PUSH1 0x0 DUP4 ADD MSTORE PUSH2 0x2295 DUP2 PUSH2 0x1FDA JUMP JUMPDEST SWAP1 POP SWAP2 SWAP1 POP JUMP JUMPDEST PUSH1 0x0 PUSH1 0x20 DUP3 ADD SWAP1 POP DUP2 DUP2 SUB PUSH1 0x0 DUP4 ADD MSTORE PUSH2 0x22B5 DUP2 PUSH2 0x201A JUMP JUMPDEST SWAP1 POP SWAP2 SWAP1 POP JUMP JUMPDEST PUSH1 0x0 PUSH1 0x20 DUP3 ADD SWAP1 POP DUP2 DUP2 SUB PUSH1 0x0 DUP4 ADD MSTORE PUSH2 0x22D5 DUP2 PUSH2 0x205A JUMP JUMPDEST SWAP1 POP SWAP2 SWAP1 POP JUMP JUMPDEST PUSH1 0x0 PUSH1 0x20 DUP3 ADD SWAP1 POP DUP2 DUP2 SUB PUSH1 0x0 DUP4 ADD MSTORE PUSH2 0x22F5 DUP2 PUSH2 0x209A JUMP JUMPDEST SWAP1 POP SWAP2 SWAP1 POP JUMP JUMPDEST PUSH1 0x0 PUSH1 0x20 DUP3 ADD SWAP1 POP PUSH2 0x2311 PUSH1 0x0 DUP4 ADD DUP5 PUSH2 0x219A JUMP JUMPDEST SWAP3 SWAP2 POP POP JUMP JUMPDEST PUSH1 0x0 PUSH1 0xE0 DUP3 ADD SWAP1 POP PUSH2 0x232C PUSH1 0x0 DUP4 ADD DUP11 PUSH2 0x219A JUMP JUMPDEST DUP2 DUP2 SUB PUSH1 0x20 DUP4 ADD MSTORE PUSH2 0x233E DUP2 DUP10 PUSH2 0x1F70 JUMP JUMPDEST SWAP1 POP DUP2 DUP2 SUB PUSH1 0x40 DUP4 ADD MSTORE PUSH2 0x2352 DUP2 DUP9 PUSH2 0x1F70 JUMP JUMPDEST SWAP1 POP DUP2 DUP2 SUB PUSH1 0x60 DUP4 ADD MSTORE PUSH2 0x2366 DUP2 DUP8 PUSH2 0x1F70 JUMP JUMPDEST SWAP1 POP PUSH2 0x2375 PUSH1 0x80 DUP4 ADD DUP7 PUSH2 0x1F28 JUMP JUMPDEST DUP2 DUP2 SUB PUSH1 0xA0 DUP4 ADD MSTORE PUSH2 0x2387 DUP2 DUP6 PUSH2 0x1F70 JUMP JUMPDEST SWAP1 POP PUSH2 0x2396 PUSH1 0xC0 DUP4 ADD DUP5 PUSH2 0x1DD1 JUMP JUMPDEST SWAP9 SWAP8 POP POP POP POP POP POP POP POP JUMP JUMPDEST PUSH1 0x0 PUSH1 0xE0 DUP3 ADD SWAP1 POP PUSH2 0x23B7 PUSH1 0x0 DUP4 ADD DUP11 PUSH2 0x219A JUMP JUMPDEST DUP2 DUP2 SUB PUSH1 0x20 DUP4 ADD MSTORE PUSH2 0x23C9 DUP2 DUP10 PUSH2 0x1F70 JUMP JUMPDEST SWAP1 POP DUP2 DUP2 SUB PUSH1 0x40 DUP4 ADD MSTORE PUSH2 0x23DD DUP2 DUP9 PUSH2 0x1F70 JUMP JUMPDEST SWAP1 POP DUP2 DUP2 SUB PUSH1 0x60 DUP4 ADD MSTORE PUSH2 0x23F1 DUP2 DUP8 PUSH2 0x1F70 JUMP JUMPDEST SWAP1 POP PUSH2 0x2400 PUSH1 0x80 DUP4 ADD DUP7 PUSH2 0x21B8 JUMP JUMPDEST DUP2 DUP2 SUB PUSH1 0xA0 DUP4 ADD MSTORE PUSH2 0x2412 DUP2 DUP6 PUSH2 0x1F70 JUMP JUMPDEST SWAP1 POP PUSH2 0x2421 PUSH1 0xC0 DUP4 ADD DUP5 PUSH2 0x1DD1 JUMP JUMPDEST SWAP9 SWAP8 POP POP POP POP POP POP POP POP JUMP JUMPDEST PUSH1 0x0 PUSH1 0x40 MLOAD SWAP1 POP DUP2 DUP2 ADD DUP2 DUP2 LT PUSH8 0xFFFFFFFFFFFFFFFF DUP3 GT OR ISZERO PUSH2 0x2454 JUMPI PUSH2 0x2453 PUSH2 0x271B JUMP JUMPDEST JUMPDEST DUP1 PUSH1 0x40 MSTORE POP SWAP2 SWAP1 POP JUMP JUMPDEST PUSH1 0x0 PUSH8 0xFFFFFFFFFFFFFFFF DUP3 GT ISZERO PUSH2 0x2479 JUMPI PUSH2 0x2478 PUSH2 0x271B JUMP JUMPDEST JUMPDEST PUSH1 0x1F NOT PUSH1 0x1F DUP4 ADD AND SWAP1 POP PUSH1 0x20 DUP2 ADD SWAP1 POP SWAP2 SWAP1 POP JUMP JUMPDEST PUSH1 0x0 DUP2 SWAP1 POP PUSH1 0x20 DUP3 ADD SWAP1 POP SWAP2 SWAP1 POP JUMP JUMPDEST PUSH1 0x0 DUP2 SWAP1 POP PUSH1 0x20 DUP3 ADD SWAP1 POP SWAP2 SWAP1 POP JUMP JUMPDEST PUSH1 0x0 DUP2 SWAP1 POP PUSH1 0x20 DUP3 ADD SWAP1 POP SWAP2 SWAP1 POP JUMP JUMPDEST PUSH1 0x0 DUP2 MLOAD SWAP1 POP SWAP2 SWAP1 POP JUMP JUMPDEST PUSH1 0x0 DUP2 MLOAD SWAP1 POP SWAP2 SWAP1 POP JUMP JUMPDEST PUSH1 0x0 DUP2 MLOAD SWAP1 POP SWAP2 SWAP1 POP JUMP JUMPDEST PUSH1 0x0 DUP2 MLOAD SWAP1 POP SWAP2 SWAP1 POP JUMP JUMPDEST PUSH1 0x0 PUSH1 0x20 DUP3 ADD SWAP1 POP SWAP2 SWAP1 POP JUMP JUMPDEST PUSH1 0x0 PUSH1 0x20 DUP3 ADD SWAP1 POP SWAP2 SWAP1 POP JUMP JUMPDEST PUSH1 0x0 PUSH1 0x20 DUP3 ADD SWAP1 POP SWAP2 SWAP1 POP JUMP JUMPDEST PUSH1 0x0 DUP3 DUP3 MSTORE PUSH1 0x20 DUP3 ADD SWAP1 POP SWAP3 SWAP2 POP POP JUMP JUMPDEST PUSH1 0x0 DUP3 DUP3 MSTORE PUSH1 0x20 DUP3 ADD SWAP1 POP SWAP3 SWAP2 POP POP JUMP JUMPDEST PUSH1 0x0 DUP3 DUP3 MSTORE PUSH1 0x20 DUP3 ADD SWAP1 POP SWAP3 SWAP2 POP POP JUMP JUMPDEST PUSH1 0x0 DUP3 DUP3 MSTORE PUSH1 0x20 DUP3 ADD SWAP1 POP SWAP3 SWAP2 POP POP JUMP JUMPDEST PUSH1 0x0 DUP3 DUP3 MSTORE PUSH1 0x20 DUP3 ADD SWAP1 POP SWAP3 SWAP2 POP POP JUMP JUMPDEST PUSH1 0x0 DUP2 SWAP1 POP SWAP3 SWAP2 POP POP JUMP JUMPDEST PUSH1 0x0 PUSH2 0x257C DUP3 PUSH2 0x25D7 JUMP JUMPDEST SWAP2 POP PUSH2 0x2587 DUP4 PUSH2 0x25D7 JUMP JUMPDEST SWAP3 POP DUP3 DUP3 LT ISZERO PUSH2 0x259A JUMPI PUSH2 0x2599 PUSH2 0x26BD JUMP JUMPDEST JUMPDEST DUP3 DUP3 SUB SWAP1 POP SWAP3 SWAP2 POP POP JUMP JUMPDEST PUSH1 0x0 PUSH2 0x25B0 DUP3 PUSH2 0x25B7 JUMP JUMPDEST SWAP1 POP SWAP2 SWAP1 POP JUMP JUMPDEST PUSH1 0x0 PUSH20 0xFFFFFFFFFFFFFFFFFFFFFFFFFFFFFFFFFFFFFFFF DUP3 AND SWAP1 POP SWAP2 SWAP1 POP JUMP JUMPDEST PUSH1 0x0 DUP2 SWAP1 POP SWAP2 SWAP1 POP JUMP JUMPDEST PUSH1 0x0 PUSH1 0xFF DUP3 AND SWAP1 POP SWAP2 SWAP1 POP JUMP JUMPDEST PUSH1 0x0 PUSH2 0x25F9 DUP3 PUSH2 0x25E1 JUMP JUMPDEST SWAP1 POP SWAP2 SWAP1 POP JUMP JUMPDEST DUP3 DUP2 DUP4 CALLDATACOPY PUSH1 0x0 DUP4 DUP4 ADD MSTORE POP POP POP JUMP JUMPDEST PUSH1 0x0 JUMPDEST DUP4 DUP2 LT ISZERO PUSH2 0x262D JUMPI DUP1 DUP3 ADD MLOAD DUP2 DUP5 ADD MSTORE PUSH1 0x20 DUP2 ADD SWAP1 POP PUSH2 0x2612 JUMP JUMPDEST DUP4 DUP2 GT ISZERO PUSH2 0x263C JUMPI PUSH1 0x0 DUP5 DUP5 ADD MSTORE JUMPDEST POP POP POP POP JUMP JUMPDEST PUSH1 0x0 PUSH1 0x2 DUP3 DIV SWAP1 POP PUSH1 0x1 DUP3 AND DUP1 PUSH2 0x265A JUMPI PUSH1 0x7F DUP3 AND SWAP2 POP JUMPDEST PUSH1 0x20 DUP3 LT DUP2 EQ ISZERO PUSH2 0x266E JUMPI PUSH2 0x266D PUSH2 0x26EC JUMP JUMPDEST JUMPDEST POP SWAP2 SWAP1 POP JUMP JUMPDEST PUSH1 0x0 PUSH2 0x267F DUP3 PUSH2 0x25D7 JUMP JUMPDEST SWAP2 POP PUSH32 0xFFFFFFFFFFFFFFFFFFFFFFFFFFFFFFFFFFFFFFFFFFFFFFFFFFFFFFFFFFFFFFFF DUP3 EQ ISZERO PUSH2 0x26B2 JUMPI PUSH2 0x26B1 PUSH2 0x26BD JUMP JUMPDEST JUMPDEST PUSH1 0x1 DUP3 ADD SWAP1 POP SWAP2 SWAP1 POP JUMP JUMPDEST PUSH32 0x4E487B7100000000000000000000000000000000000000000000000000000000 PUSH1 0x0 MSTORE PUSH1 0x11 PUSH1 0x4 MSTORE PUSH1 0x24 PUSH1 0x0 REVERT JUMPDEST PUSH32 0x4E487B7100000000000000000000000000000000000000000000000000000000 PUSH1 0x0 MSTORE PUSH1 0x22 PUSH1 0x4 MSTORE PUSH1 0x24 PUSH1 0x0 REVERT JUMPDEST PUSH32 0x4E487B7100000000000000000000000000000000000000000000000000000000 PUSH1 0x0 MSTORE PUSH1 0x41 PUSH1 0x4 MSTORE PUSH1 0x24 PUSH1 0x0 REVERT JUMPDEST PUSH1 0x0 PUSH1 0x1F NOT PUSH1 0x1F DUP4 ADD AND SWAP1 POP SWAP2 SWAP1 POP JUMP JUMPDEST PUSH2 0x2764 DUP2 PUSH2 0x25D7 JUMP JUMPDEST DUP2 EQ PUSH2 0x276F JUMPI PUSH1 0x0 DUP1 REVERT JUMPDEST POP JUMP JUMPDEST PUSH2 0x277B DUP2 PUSH2 0x25E1 JUMP JUMPDEST DUP2 EQ PUSH2 0x2786 JUMPI PUSH1 0x0 DUP1 REVERT JUMPDEST POP JUMP INVALID LOG2 PUSH5 0x6970667358 0x22 SLT KECCAK256 GASLIMIT 0xEE PUSH14 0x2B7AE465AE2561B99769A1F87CA1 0xD0 0xDD 0xA7 CALLDATASIZE PUSH32 0xFC466284CE205EE42C9964736F6C634300080000330000000000000000000000 "
				},
				"gasEstimates": {
					"creation": {
						"codeDepositCost": "2035000",
						"executionCost": "23022",
						"totalCost": "2058022"
					},
					"external": {
						"comprarAvulso(string,string,uint8,string)": "infinite",
						"comprarPassaporte(string,string,string)": "infinite",
						"ingressoCount()": "1195",
						"ingressos(uint256)": "infinite",
						"listarIngressos()": "infinite",
						"listarIngressosDisponiveis()": "infinite",
						"owner()": "1211",
						"precos(string,string,string)": "infinite",
						"sacar()": "infinite",
						"setPreco(string,string,string,uint256)": "infinite"
					}
				},
				"methodIdentifiers": {
					"comprarAvulso(string,string,uint8,string)": "06aab3e7",
					"comprarPassaporte(string,string,string)": "dd1482dc",
					"ingressoCount()": "c36deb0c",
					"ingressos(uint256)": "574ccbc6",
					"listarIngressos()": "2b6e7eb4",
					"listarIngressosDisponiveis()": "931d66da",
					"owner()": "8da5cb5b",
					"precos(string,string,string)": "377633cb",
					"sacar()": "a51068c8",
					"setPreco(string,string,string,uint256)": "4d4d2bf2"
				}
			},
			"storageLayout": {
				"storage": [
					{
						"astId": 3,
						"contract": "TesteParintinsIngressos.sol:ParintinsIngressos",
						"label": "owner",
						"offset": 0,
						"slot": "0",
						"type": "t_address"
					},
					{
						"astId": 20,
						"contract": "TesteParintinsIngressos.sol:ParintinsIngressos",
						"label": "ingressoCount",
						"offset": 0,
						"slot": "1",
						"type": "t_uint256"
					},
					{
						"astId": 25,
						"contract": "TesteParintinsIngressos.sol:ParintinsIngressos",
						"label": "ingressos",
						"offset": 0,
						"slot": "2",
						"type": "t_mapping(t_uint256,t_struct(Ingresso)18_storage)"
					},
					{
						"astId": 33,
						"contract": "TesteParintinsIngressos.sol:ParintinsIngressos",
						"label": "precos",
						"offset": 0,
						"slot": "3",
						"type": "t_mapping(t_string_memory_ptr,t_mapping(t_string_memory_ptr,t_mapping(t_string_memory_ptr,t_uint256)))"
					}
				],
				"types": {
					"t_address": {
						"encoding": "inplace",
						"label": "address",
						"numberOfBytes": "20"
					},
					"t_mapping(t_string_memory_ptr,t_mapping(t_string_memory_ptr,t_mapping(t_string_memory_ptr,t_uint256)))": {
						"encoding": "mapping",
						"key": "t_string_memory_ptr",
						"label": "mapping(string => mapping(string => mapping(string => uint256)))",
						"numberOfBytes": "32",
						"value": "t_mapping(t_string_memory_ptr,t_mapping(t_string_memory_ptr,t_uint256))"
					},
					"t_mapping(t_string_memory_ptr,t_mapping(t_string_memory_ptr,t_uint256))": {
						"encoding": "mapping",
						"key": "t_string_memory_ptr",
						"label": "mapping(string => mapping(string => uint256))",
						"numberOfBytes": "32",
						"value": "t_mapping(t_string_memory_ptr,t_uint256)"
					},
					"t_mapping(t_string_memory_ptr,t_uint256)": {
						"encoding": "mapping",
						"key": "t_string_memory_ptr",
						"label": "mapping(string => uint256)",
						"numberOfBytes": "32",
						"value": "t_uint256"
					},
					"t_mapping(t_uint256,t_struct(Ingresso)18_storage)": {
						"encoding": "mapping",
						"key": "t_uint256",
						"label": "mapping(uint256 => struct ParintinsIngressos.Ingresso)",
						"numberOfBytes": "32",
						"value": "t_struct(Ingresso)18_storage"
					},
					"t_string_memory_ptr": {
						"encoding": "bytes",
						"label": "string",
						"numberOfBytes": "32"
					},
					"t_string_storage": {
						"encoding": "bytes",
						"label": "string",
						"numberOfBytes": "32"
					},
					"t_struct(Ingresso)18_storage": {
						"encoding": "inplace",
						"label": "struct ParintinsIngressos.Ingresso",
						"members": [
							{
								"astId": 5,
								"contract": "TesteParintinsIngressos.sol:ParintinsIngressos",
								"label": "id",
								"offset": 0,
								"slot": "0",
								"type": "t_uint256"
							},
							{
								"astId": 7,
								"contract": "TesteParintinsIngressos.sol:ParintinsIngressos",
								"label": "tipo",
								"offset": 0,
								"slot": "1",
								"type": "t_string_storage"
							},
							{
								"astId": 9,
								"contract": "TesteParintinsIngressos.sol:ParintinsIngressos",
								"label": "area",
								"offset": 0,
								"slot": "2",
								"type": "t_string_storage"
							},
							{
								"astId": 11,
								"contract": "TesteParintinsIngressos.sol:ParintinsIngressos",
								"label": "tipoPreco",
								"offset": 0,
								"slot": "3",
								"type": "t_string_storage"
							},
							{
								"astId": 13,
								"contract": "TesteParintinsIngressos.sol:ParintinsIngressos",
								"label": "noite",
								"offset": 0,
								"slot": "4",
								"type": "t_uint8"
							},
							{
								"astId": 15,
								"contract": "TesteParintinsIngressos.sol:ParintinsIngressos",
								"label": "lado",
								"offset": 0,
								"slot": "5",
								"type": "t_string_storage"
							},
							{
								"astId": 17,
								"contract": "TesteParintinsIngressos.sol:ParintinsIngressos",
								"label": "comprador",
								"offset": 0,
								"slot": "6",
								"type": "t_address"
							}
						],
						"numberOfBytes": "224"
					},
					"t_uint256": {
						"encoding": "inplace",
						"label": "uint256",
						"numberOfBytes": "32"
					},
					"t_uint8": {
						"encoding": "inplace",
						"label": "uint8",
						"numberOfBytes": "1"
					}
				}
			},
			"userdoc": {
				"kind": "user",
				"methods": {},
				"version": 1
			}
		}
	}
}