{
	"data": {
		"bytecode": {
			"linkReferences": {},
			"object": "6080604052348015600e575f5ffd5b50335f5f6101000a81548173ffffffffffffffffffffffffffffffffffffffff021916908373ffffffffffffffffffffffffffffffffffffffff160217905550612a1e8061005b5f395ff3fe60806040526004361061009b575f3560e01c8063574ccbc611610063578063574ccbc6146101855780638da5cb5b146101c8578063931d66da146101f2578063a51068c81461021f578063ab879f7e14610235578063c36deb0c146102515761009b565b80632b6e7eb41461009f578063377633cb146100c957806338224aa714610105578063451a7f1e146101215780634d4d2bf21461015d575b5f5ffd5b3480156100aa575f5ffd5b506100b361027b565b6040516100c09190611ad9565b60405180910390f35b3480156100d4575f5ffd5b506100ef60048036038101906100ea9190611c36565b61060b565b6040516100fc9190611ce9565b60405180910390f35b61011f600480360381019061011a9190611d56565b61067e565b005b34801561012c575f5ffd5b5061014760048036038101906101429190611e21565b610a09565b6040516101549190611ce9565b60405180910390f35b348015610168575f5ffd5b50610183600480360381019061017e9190611e76565b610a1e565b005b348015610190575f5ffd5b506101ab60048036038101906101a69190611f2e565b610b0d565b6040516101bf989796959493929190611fce565b60405180910390f35b3480156101d3575f5ffd5b506101dc610d94565b6040516101e99190612066565b60405180910390f35b3480156101fd575f5ffd5b50610206610db8565b60405161021694939291906121e2565b60405180910390f35b34801561022a575f5ffd5b506102336113db565b005b61024f600480360381019061024a9190612241565b6114cf565b005b34801561025c575f5ffd5b50610265611802565b6040516102729190611ce9565b60405180910390f35b60605f60015467ffffffffffffffff81111561029a57610299611b12565b5b6040519080825280602002602001820160405280156102d357816020015b6102c0611808565b8152602001906001900390816102b85790505b5090505f600190505b60015481116106035760025f8281526020019081526020015f20604051806101000160405290815f820154815260200160018201805461031b90612326565b80601f016020809104026020016040519081016040528092919081815260200182805461034790612326565b80156103925780601f1061036957610100808354040283529160200191610392565b820191905f5260205f20905b81548152906001019060200180831161037557829003601f168201915b505050505081526020016002820180546103ab90612326565b80601f01602080910402602001604051908101604052809291908181526020018280546103d790612326565b80156104225780601f106103f957610100808354040283529160200191610422565b820191905f5260205f20905b81548152906001019060200180831161040557829003601f168201915b5050505050815260200160038201805461043b90612326565b80601f016020809104026020016040519081016040528092919081815260200182805461046790612326565b80156104b25780601f10610489576101008083540402835291602001916104b2565b820191905f5260205f20905b81548152906001019060200180831161049557829003601f168201915b50505050508152602001600482015f9054906101000a900460ff1660ff1660ff1681526020016005820180546104e790612326565b80601f016020809104026020016040519081016040528092919081815260200182805461051390612326565b801561055e5780601f106105355761010080835404028352916020019161055e565b820191905f5260205f20905b81548152906001019060200180831161054157829003601f168201915b50505050508152602001600682015f9054906101000a900473ffffffffffffffffffffffffffffffffffffffff1673ffffffffffffffffffffffffffffffffffffffff1673ffffffffffffffffffffffffffffffffffffffff168152602001600782015481525050826001836105d49190612383565b815181106105e5576105e46123b6565b5b602002602001018190525080806105fb906123e3565b9150506102dc565b508091505090565b60038380516020810182018051848252602083016020850120818352809550505050505082805160208101820180518482526020830160208501208183528095505050505050818051602081018201805184825260208301602085012081835280955050505050505f9250925050505481565b60018360ff1610158015610696575060038360ff1611155b6106d5576040517f08c379a00000000000000000000000000000000000000000000000000000000081526004016106cc90612474565b60405180910390fd5b5f6040518060400160405280600681526020017f4176756c736f000000000000000000000000000000000000000000000000000081525090505f60038260405161071f91906124cc565b90815260200160405180910390208760405161073b91906124cc565b90815260200160405180910390208660405161075791906124cc565b90815260200160405180910390205490505f81116107aa576040517f08c379a00000000000000000000000000000000000000000000000000000000081526004016107a19061252c565b60405180910390fd5b803410156107ed576040517f08c379a00000000000000000000000000000000000000000000000000000000081526004016107e490612594565b60405180910390fd5b600260045f8581526020019081526020015f205410610841576040517f08c379a000000000000000000000000000000000000000000000000000000000815260040161083890612622565b60405180910390fd5b60015f815480929190610853906123e3565b919050555060405180610100016040528060015481526020018381526020018881526020018781526020018660ff1681526020018581526020013373ffffffffffffffffffffffffffffffffffffffff1681526020018481525060025f60015481526020019081526020015f205f820151815f015560208201518160010190816108dd91906127e0565b5060408201518160020190816108f391906127e0565b50606082015181600301908161090991906127e0565b506080820151816004015f6101000a81548160ff021916908360ff16021790555060a082015181600501908161093f91906127e0565b5060c0820151816006015f6101000a81548173ffffffffffffffffffffffffffffffffffffffff021916908373ffffffffffffffffffffffffffffffffffffffff16021790555060e0820151816007015590505060045f8481526020019081526020015f205f8154809291906109b4906123e3565b91905055507f50a2d2c5907c0982300d5de2585b6f5bb69b85cf6a926336ca938b641aae14e86001548389898989338a6040516109f8989796959493929190611fce565b60405180910390a150505050505050565b6004602052805f5260405f205f915090505481565b5f5f9054906101000a900473ffffffffffffffffffffffffffffffffffffffff1673ffffffffffffffffffffffffffffffffffffffff163373ffffffffffffffffffffffffffffffffffffffff1614610aac576040517f08c379a0000000000000000000000000000000000000000000000000000000008152600401610aa3906128f9565b60405180910390fd5b80600385604051610abd91906124cc565b908152602001604051809103902084604051610ad991906124cc565b908152602001604051809103902083604051610af591906124cc565b90815260200160405180910390208190555050505050565b6002602052805f5260405f205f91509050805f015490806001018054610b3290612326565b80601f0160208091040260200160405190810160405280929190818152602001828054610b5e90612326565b8015610ba95780601f10610b8057610100808354040283529160200191610ba9565b820191905f5260205f20905b815481529060010190602001808311610b8c57829003601f168201915b505050505090806002018054610bbe90612326565b80601f0160208091040260200160405190810160405280929190818152602001828054610bea90612326565b8015610c355780601f10610c0c57610100808354040283529160200191610c35565b820191905f5260205f20905b815481529060010190602001808311610c1857829003601f168201915b505050505090806003018054610c4a90612326565b80601f0160208091040260200160405190810160405280929190818152602001828054610c7690612326565b8015610cc15780601f10610c9857610100808354040283529160200191610cc1565b820191905f5260205f20905b815481529060010190602001808311610ca457829003601f168201915b505050505090806004015f9054906101000a900460ff1690806005018054610ce890612326565b80601f0160208091040260200160405190810160405280929190818152602001828054610d1490612326565b8015610d5f5780601f10610d3657610100808354040283529160200191610d5f565b820191905f5260205f20905b815481529060010190602001808311610d4257829003601f168201915b505050505090806006015f9054906101000a900473ffffffffffffffffffffffffffffffffffffffff16908060070154905088565b5f5f9054906101000a900473ffffffffffffffffffffffffffffffffffffffff1681565b6060806060805f60405180604001604052806040518060400160405280600a81526020017f5061737361706f7274650000000000000000000000000000000000000000000081525081526020016040518060400160405280600681526020017f4176756c736f000000000000000000000000000000000000000000000000000081525081525090505f60405180608001604052806040518060400160405280601481526020017f417271756962616e636164612043656e7472616c00000000000000000000000081525081526020016040518060400160405280601581526020017f417271756962616e6361646120457370656369616c000000000000000000000081525081526020016040518060400160405280600f81526020017f43616465697261205469706f203031000000000000000000000000000000000081525081526020016040518060400160405280600f81526020017f43616465697261205469706f203032000000000000000000000000000000000081525081525090505f60405180604001604052806040518060400160405280600781526020017f496e74656972610000000000000000000000000000000000000000000000000081525081526020016040518060400160405280600481526020017f4d6569610000000000000000000000000000000000000000000000000000000081525081525090505f5f90505f5f90505b60028110156110c3575f5f90505b60048110156110b5575f5f90505b60028110156110a7575f6003888560028110610ffe57610ffd6123b6565b5b602002015160405161101091906124cc565b9081526020016040518091039020878460048110611031576110306123b6565b5b602002015160405161104391906124cc565b9081526020016040518091039020868360028110611064576110636123b6565b5b602002015160405161107691906124cc565b908152602001604051809103902054111561109a578380611096906123e3565b9450505b8080600101915050610fdf565b508080600101915050610fd1565b508080600101915050610fc3565b508067ffffffffffffffff8111156110de576110dd611b12565b5b60405190808252806020026020018201604052801561111157816020015b60608152602001906001900390816110fc5790505b5097508067ffffffffffffffff81111561112e5761112d611b12565b5b60405190808252806020026020018201604052801561116157816020015b606081526020019060019003908161114c5790505b5096508067ffffffffffffffff81111561117e5761117d611b12565b5b6040519080825280602002602001820160405280156111b157816020015b606081526020019060019003908161119c5790505b5095508067ffffffffffffffff8111156111ce576111cd611b12565b5b6040519080825280602002602001820160405280156111fc5781602001602082028036833780820191505090505b5094505f5f90505f5f90505b60028110156113cf575f5f90505b60048110156113c1575f5f90505b60028110156113b3575f6003898560028110611243576112426123b6565b5b602002015160405161125591906124cc565b9081526020016040518091039020888460048110611276576112756123b6565b5b602002015160405161128891906124cc565b90815260200160405180910390208783600281106112a9576112a86123b6565b5b60200201516040516112bb91906124cc565b90815260200160405180910390205490505f8111156113a5578884600281106112e7576112e66123b6565b5b60200201518d86815181106112ff576112fe6123b6565b5b602002602001018190525087836004811061131d5761131c6123b6565b5b60200201518c8681518110611335576113346123b6565b5b6020026020010181905250868260028110611353576113526123b6565b5b60200201518b868151811061136b5761136a6123b6565b5b6020026020010181905250808a868151811061138a576113896123b6565b5b60200260200101818152505084806113a1906123e3565b9550505b508080600101915050611224565b508080600101915050611216565b508080600101915050611208565b50505050505090919293565b5f5f9054906101000a900473ffffffffffffffffffffffffffffffffffffffff1673ffffffffffffffffffffffffffffffffffffffff163373ffffffffffffffffffffffffffffffffffffffff1614611469576040517f08c379a0000000000000000000000000000000000000000000000000000000008152600401611460906128f9565b60405180910390fd5b5f5f9054906101000a900473ffffffffffffffffffffffffffffffffffffffff1673ffffffffffffffffffffffffffffffffffffffff166108fc4790811502906040515f60405180830381858888f193505050501580156114cc573d5f5f3e3d5ffd5b50565b5f6040518060400160405280600a81526020017f5061737361706f7274650000000000000000000000000000000000000000000081525090505f60038260405161151991906124cc565b90815260200160405180910390208660405161153591906124cc565b90815260200160405180910390208560405161155191906124cc565b90815260200160405180910390205490505f81116115a4576040517f08c379a000000000000000000000000000000000000000000000000000000000815260040161159b9061252c565b60405180910390fd5b803410156115e7576040517f08c379a00000000000000000000000000000000000000000000000000000000081526004016115de90612594565b60405180910390fd5b600260045f8581526020019081526020015f20541061163b576040517f08c379a000000000000000000000000000000000000000000000000000000000815260040161163290612622565b60405180910390fd5b60015f81548092919061164d906123e3565b919050555060405180610100016040528060015481526020018381526020018781526020018681526020015f60ff1681526020018581526020013373ffffffffffffffffffffffffffffffffffffffff1681526020018481525060025f60015481526020019081526020015f205f820151815f015560208201518160010190816116d791906127e0565b5060408201518160020190816116ed91906127e0565b50606082015181600301908161170391906127e0565b506080820151816004015f6101000a81548160ff021916908360ff16021790555060a082015181600501908161173991906127e0565b5060c0820151816006015f6101000a81548173ffffffffffffffffffffffffffffffffffffffff021916908373ffffffffffffffffffffffffffffffffffffffff16021790555060e0820151816007015590505060045f8481526020019081526020015f205f8154809291906117ae906123e3565b91905055507f50a2d2c5907c0982300d5de2585b6f5bb69b85cf6a926336ca938b641aae14e86001548388885f89338a6040516117f2989796959493929190612950565b60405180910390a1505050505050565b60015481565b6040518061010001604052805f81526020016060815260200160608152602001606081526020015f60ff168152602001606081526020015f73ffffffffffffffffffffffffffffffffffffffff1681526020015f81525090565b5f81519050919050565b5f82825260208201905092915050565b5f819050602082019050919050565b5f819050919050565b61189d8161188b565b82525050565b5f81519050919050565b5f82825260208201905092915050565b8281835e5f83830152505050565b5f601f19601f8301169050919050565b5f6118e5826118a3565b6118ef81856118ad565b93506118ff8185602086016118bd565b611908816118cb565b840191505092915050565b5f60ff82169050919050565b61192881611913565b82525050565b5f73ffffffffffffffffffffffffffffffffffffffff82169050919050565b5f6119578261192e565b9050919050565b6119678161194d565b82525050565b5f819050919050565b61197f8161196d565b82525050565b5f61010083015f83015161199b5f860182611894565b50602083015184820360208601526119b382826118db565b915050604083015184820360408601526119cd82826118db565b915050606083015184820360608601526119e782826118db565b91505060808301516119fc608086018261191f565b5060a083015184820360a0860152611a1482826118db565b91505060c0830151611a2960c086018261195e565b5060e0830151611a3c60e0860182611976565b508091505092915050565b5f611a528383611985565b905092915050565b5f602082019050919050565b5f611a7082611862565b611a7a818561186c565b935083602082028501611a8c8561187c565b805f5b85811015611ac75784840389528151611aa88582611a47565b9450611ab383611a5a565b925060208a01995050600181019050611a8f565b50829750879550505050505092915050565b5f6020820190508181035f830152611af18184611a66565b905092915050565b5f604051905090565b5f5ffd5b5f5ffd5b5f5ffd5b5f5ffd5b7f4e487b71000000000000000000000000000000000000000000000000000000005f52604160045260245ffd5b611b48826118cb565b810181811067ffffffffffffffff82111715611b6757611b66611b12565b5b80604052505050565b5f611b79611af9565b9050611b858282611b3f565b919050565b5f67ffffffffffffffff821115611ba457611ba3611b12565b5b611bad826118cb565b9050602081019050919050565b828183375f83830152505050565b5f611bda611bd584611b8a565b611b70565b905082815260208101848484011115611bf657611bf5611b0e565b5b611c01848285611bba565b509392505050565b5f82601f830112611c1d57611c1c611b0a565b5b8135611c2d848260208601611bc8565b91505092915050565b5f5f5f60608486031215611c4d57611c4c611b02565b5b5f84013567ffffffffffffffff811115611c6a57611c69611b06565b5b611c7686828701611c09565b935050602084013567ffffffffffffffff811115611c9757611c96611b06565b5b611ca386828701611c09565b925050604084013567ffffffffffffffff811115611cc457611cc3611b06565b5b611cd086828701611c09565b9150509250925092565b611ce38161188b565b82525050565b5f602082019050611cfc5f830184611cda565b92915050565b611d0b81611913565b8114611d15575f5ffd5b50565b5f81359050611d2681611d02565b92915050565b611d358161196d565b8114611d3f575f5ffd5b50565b5f81359050611d5081611d2c565b92915050565b5f5f5f5f5f60a08688031215611d6f57611d6e611b02565b5b5f86013567ffffffffffffffff811115611d8c57611d8b611b06565b5b611d9888828901611c09565b955050602086013567ffffffffffffffff811115611db957611db8611b06565b5b611dc588828901611c09565b9450506040611dd688828901611d18565b935050606086013567ffffffffffffffff811115611df757611df6611b06565b5b611e0388828901611c09565b9250506080611e1488828901611d42565b9150509295509295909350565b5f60208284031215611e3657611e35611b02565b5b5f611e4384828501611d42565b91505092915050565b611e558161188b565b8114611e5f575f5ffd5b50565b5f81359050611e7081611e4c565b92915050565b5f5f5f5f60808587031215611e8e57611e8d611b02565b5b5f85013567ffffffffffffffff811115611eab57611eaa611b06565b5b611eb787828801611c09565b945050602085013567ffffffffffffffff811115611ed857611ed7611b06565b5b611ee487828801611c09565b935050604085013567ffffffffffffffff811115611f0557611f04611b06565b5b611f1187828801611c09565b9250506060611f2287828801611e62565b91505092959194509250565b5f60208284031215611f4357611f42611b02565b5b5f611f5084828501611e62565b91505092915050565b5f82825260208201905092915050565b5f611f73826118a3565b611f7d8185611f59565b9350611f8d8185602086016118bd565b611f96816118cb565b840191505092915050565b611faa81611913565b82525050565b611fb98161194d565b82525050565b611fc88161196d565b82525050565b5f61010082019050611fe25f83018b611cda565b8181036020830152611ff4818a611f69565b905081810360408301526120088189611f69565b9050818103606083015261201c8188611f69565b905061202b6080830187611fa1565b81810360a083015261203d8186611f69565b905061204c60c0830185611fb0565b61205960e0830184611fbf565b9998505050505050505050565b5f6020820190506120795f830184611fb0565b92915050565b5f81519050919050565b5f82825260208201905092915050565b5f819050602082019050919050565b5f6120b383836118db565b905092915050565b5f602082019050919050565b5f6120d18261207f565b6120db8185612089565b9350836020820285016120ed85612099565b805f5b85811015612128578484038952815161210985826120a8565b9450612114836120bb565b925060208a019950506001810190506120f0565b50829750879550505050505092915050565b5f81519050919050565b5f82825260208201905092915050565b5f819050602082019050919050565b5f61216e8383611894565b60208301905092915050565b5f602082019050919050565b5f6121908261213a565b61219a8185612144565b93506121a583612154565b805f5b838110156121d55781516121bc8882612163565b97506121c78361217a565b9250506001810190506121a8565b5085935050505092915050565b5f6080820190508181035f8301526121fa81876120c7565b9050818103602083015261220e81866120c7565b9050818103604083015261222281856120c7565b905081810360608301526122368184612186565b905095945050505050565b5f5f5f5f6080858703121561225957612258611b02565b5b5f85013567ffffffffffffffff81111561227657612275611b06565b5b61228287828801611c09565b945050602085013567ffffffffffffffff8111156122a3576122a2611b06565b5b6122af87828801611c09565b935050604085013567ffffffffffffffff8111156122d0576122cf611b06565b5b6122dc87828801611c09565b92505060606122ed87828801611d42565b91505092959194509250565b7f4e487b71000000000000000000000000000000000000000000000000000000005f52602260045260245ffd5b5f600282049050600182168061233d57607f821691505b6020821081036123505761234f6122f9565b5b50919050565b7f4e487b71000000000000000000000000000000000000000000000000000000005f52601160045260245ffd5b5f61238d8261188b565b91506123988361188b565b92508282039050818111156123b0576123af612356565b5b92915050565b7f4e487b71000000000000000000000000000000000000000000000000000000005f52603260045260245ffd5b5f6123ed8261188b565b91507fffffffffffffffffffffffffffffffffffffffffffffffffffffffffffffffff820361241f5761241e612356565b5b600182019050919050565b7f4e6f69746520696e76616c6964610000000000000000000000000000000000005f82015250565b5f61245e600e83611f59565b91506124698261242a565b602082019050919050565b5f6020820190508181035f83015261248b81612452565b9050919050565b5f81905092915050565b5f6124a6826118a3565b6124b08185612492565b93506124c08185602086016118bd565b80840191505092915050565b5f6124d7828461249c565b915081905092915050565b7f507265636f206e616f20636f6e666967757261646f00000000000000000000005f82015250565b5f612516601583611f59565b9150612521826124e2565b602082019050919050565b5f6020820190508181035f8301526125438161250a565b9050919050565b7f56616c6f7220696e737566696369656e746500000000000000000000000000005f82015250565b5f61257e601283611f59565b91506125898261254a565b602082019050919050565b5f6020820190508181035f8301526125ab81612572565b9050919050565b7f4c696d697465206465203220696e67726573736f7320706f72204350462061745f8201527f696e6769646f0000000000000000000000000000000000000000000000000000602082015250565b5f61260c602683611f59565b9150612617826125b2565b604082019050919050565b5f6020820190508181035f83015261263981612600565b9050919050565b5f819050815f5260205f209050919050565b5f6020601f8301049050919050565b5f82821b905092915050565b5f6008830261269c7fffffffffffffffffffffffffffffffffffffffffffffffffffffffffffffffff82612661565b6126a68683612661565b95508019841693508086168417925050509392505050565b5f819050919050565b5f6126e16126dc6126d78461188b565b6126be565b61188b565b9050919050565b5f819050919050565b6126fa836126c7565b61270e612706826126e8565b84845461266d565b825550505050565b5f5f905090565b612725612716565b6127308184846126f1565b505050565b5b81811015612753576127485f8261271d565b600181019050612736565b5050565b601f8211156127985761276981612640565b61277284612652565b81016020851015612781578190505b61279561278d85612652565b830182612735565b50505b505050565b5f82821c905092915050565b5f6127b85f198460080261279d565b1980831691505092915050565b5f6127d083836127a9565b9150826002028217905092915050565b6127e9826118a3565b67ffffffffffffffff81111561280257612801611b12565b5b61280c8254612326565b612817828285612757565b5f60209050601f831160018114612848575f8415612836578287015190505b61284085826127c5565b8655506128a7565b601f19841661285686612640565b5f5b8281101561287d57848901518255600182019150602085019450602081019050612858565b8683101561289a5784890151612896601f8916826127a9565b8355505b6001600288020188555050505b505050505050565b7f536f6d656e7465206f20646f6e6f20706f6465206578656375746172000000005f82015250565b5f6128e3601c83611f59565b91506128ee826128af565b602082019050919050565b5f6020820190508181035f830152612910816128d7565b9050919050565b5f819050919050565b5f61293a61293561293084612917565b6126be565b611913565b9050919050565b61294a81612920565b82525050565b5f610100820190506129645f83018b611cda565b8181036020830152612976818a611f69565b9050818103604083015261298a8189611f69565b9050818103606083015261299e8188611f69565b90506129ad6080830187612941565b81810360a08301526129bf8186611f69565b90506129ce60c0830185611fb0565b6129db60e0830184611fbf565b999850505050505050505056fea26469706673582212208382c2dfd05571fd17174bd85210312c194e64caba6fc3c3450178ac709569a364736f6c634300081e0033",
			"opcodes": "PUSH1 0x80 PUSH1 0x40 MSTORE CALLVALUE DUP1 ISZERO PUSH1 0xE JUMPI PUSH0 PUSH0 REVERT JUMPDEST POP CALLER PUSH0 PUSH0 PUSH2 0x100 EXP DUP2 SLOAD DUP2 PUSH20 0xFFFFFFFFFFFFFFFFFFFFFFFFFFFFFFFFFFFFFFFF MUL NOT AND SWAP1 DUP4 PUSH20 0xFFFFFFFFFFFFFFFFFFFFFFFFFFFFFFFFFFFFFFFF AND MUL OR SWAP1 SSTORE POP PUSH2 0x2A1E DUP1 PUSH2 0x5B PUSH0 CODECOPY PUSH0 RETURN INVALID PUSH1 0x80 PUSH1 0x40 MSTORE PUSH1 0x4 CALLDATASIZE LT PUSH2 0x9B JUMPI PUSH0 CALLDATALOAD PUSH1 0xE0 SHR DUP1 PUSH4 0x574CCBC6 GT PUSH2 0x63 JUMPI DUP1 PUSH4 0x574CCBC6 EQ PUSH2 0x185 JUMPI DUP1 PUSH4 0x8DA5CB5B EQ PUSH2 0x1C8 JUMPI DUP1 PUSH4 0x931D66DA EQ PUSH2 0x1F2 JUMPI DUP1 PUSH4 0xA51068C8 EQ PUSH2 0x21F JUMPI DUP1 PUSH4 0xAB879F7E EQ PUSH2 0x235 JUMPI DUP1 PUSH4 0xC36DEB0C EQ PUSH2 0x251 JUMPI PUSH2 0x9B JUMP JUMPDEST DUP1 PUSH4 0x2B6E7EB4 EQ PUSH2 0x9F JUMPI DUP1 PUSH4 0x377633CB EQ PUSH2 0xC9 JUMPI DUP1 PUSH4 0x38224AA7 EQ PUSH2 0x105 JUMPI DUP1 PUSH4 0x451A7F1E EQ PUSH2 0x121 JUMPI DUP1 PUSH4 0x4D4D2BF2 EQ PUSH2 0x15D JUMPI JUMPDEST PUSH0 PUSH0 REVERT JUMPDEST CALLVALUE DUP1 ISZERO PUSH2 0xAA JUMPI PUSH0 PUSH0 REVERT JUMPDEST POP PUSH2 0xB3 PUSH2 0x27B JUMP JUMPDEST PUSH1 0x40 MLOAD PUSH2 0xC0 SWAP2 SWAP1 PUSH2 0x1AD9 JUMP JUMPDEST PUSH1 0x40 MLOAD DUP1 SWAP2 SUB SWAP1 RETURN JUMPDEST CALLVALUE DUP1 ISZERO PUSH2 0xD4 JUMPI PUSH0 PUSH0 REVERT JUMPDEST POP PUSH2 0xEF PUSH1 0x4 DUP1 CALLDATASIZE SUB DUP2 ADD SWAP1 PUSH2 0xEA SWAP2 SWAP1 PUSH2 0x1C36 JUMP JUMPDEST PUSH2 0x60B JUMP JUMPDEST PUSH1 0x40 MLOAD PUSH2 0xFC SWAP2 SWAP1 PUSH2 0x1CE9 JUMP JUMPDEST PUSH1 0x40 MLOAD DUP1 SWAP2 SUB SWAP1 RETURN JUMPDEST PUSH2 0x11F PUSH1 0x4 DUP1 CALLDATASIZE SUB DUP2 ADD SWAP1 PUSH2 0x11A SWAP2 SWAP1 PUSH2 0x1D56 JUMP JUMPDEST PUSH2 0x67E JUMP JUMPDEST STOP JUMPDEST CALLVALUE DUP1 ISZERO PUSH2 0x12C JUMPI PUSH0 PUSH0 REVERT JUMPDEST POP PUSH2 0x147 PUSH1 0x4 DUP1 CALLDATASIZE SUB DUP2 ADD SWAP1 PUSH2 0x142 SWAP2 SWAP1 PUSH2 0x1E21 JUMP JUMPDEST PUSH2 0xA09 JUMP JUMPDEST PUSH1 0x40 MLOAD PUSH2 0x154 SWAP2 SWAP1 PUSH2 0x1CE9 JUMP JUMPDEST PUSH1 0x40 MLOAD DUP1 SWAP2 SUB SWAP1 RETURN JUMPDEST CALLVALUE DUP1 ISZERO PUSH2 0x168 JUMPI PUSH0 PUSH0 REVERT JUMPDEST POP PUSH2 0x183 PUSH1 0x4 DUP1 CALLDATASIZE SUB DUP2 ADD SWAP1 PUSH2 0x17E SWAP2 SWAP1 PUSH2 0x1E76 JUMP JUMPDEST PUSH2 0xA1E JUMP JUMPDEST STOP JUMPDEST CALLVALUE DUP1 ISZERO PUSH2 0x190 JUMPI PUSH0 PUSH0 REVERT JUMPDEST POP PUSH2 0x1AB PUSH1 0x4 DUP1 CALLDATASIZE SUB DUP2 ADD SWAP1 PUSH2 0x1A6 SWAP2 SWAP1 PUSH2 0x1F2E JUMP JUMPDEST PUSH2 0xB0D JUMP JUMPDEST PUSH1 0x40 MLOAD PUSH2 0x1BF SWAP9 SWAP8 SWAP7 SWAP6 SWAP5 SWAP4 SWAP3 SWAP2 SWAP1 PUSH2 0x1FCE JUMP JUMPDEST PUSH1 0x40 MLOAD DUP1 SWAP2 SUB SWAP1 RETURN JUMPDEST CALLVALUE DUP1 ISZERO PUSH2 0x1D3 JUMPI PUSH0 PUSH0 REVERT JUMPDEST POP PUSH2 0x1DC PUSH2 0xD94 JUMP JUMPDEST PUSH1 0x40 MLOAD PUSH2 0x1E9 SWAP2 SWAP1 PUSH2 0x2066 JUMP JUMPDEST PUSH1 0x40 MLOAD DUP1 SWAP2 SUB SWAP1 RETURN JUMPDEST CALLVALUE DUP1 ISZERO PUSH2 0x1FD JUMPI PUSH0 PUSH0 REVERT JUMPDEST POP PUSH2 0x206 PUSH2 0xDB8 JUMP JUMPDEST PUSH1 0x40 MLOAD PUSH2 0x216 SWAP5 SWAP4 SWAP3 SWAP2 SWAP1 PUSH2 0x21E2 JUMP JUMPDEST PUSH1 0x40 MLOAD DUP1 SWAP2 SUB SWAP1 RETURN JUMPDEST CALLVALUE DUP1 ISZERO PUSH2 0x22A JUMPI PUSH0 PUSH0 REVERT JUMPDEST POP PUSH2 0x233 PUSH2 0x13DB JUMP JUMPDEST STOP JUMPDEST PUSH2 0x24F PUSH1 0x4 DUP1 CALLDATASIZE SUB DUP2 ADD SWAP1 PUSH2 0x24A SWAP2 SWAP1 PUSH2 0x2241 JUMP JUMPDEST PUSH2 0x14CF JUMP JUMPDEST STOP JUMPDEST CALLVALUE DUP1 ISZERO PUSH2 0x25C JUMPI PUSH0 PUSH0 REVERT JUMPDEST POP PUSH2 0x265 PUSH2 0x1802 JUMP JUMPDEST PUSH1 0x40 MLOAD PUSH2 0x272 SWAP2 SWAP1 PUSH2 0x1CE9 JUMP JUMPDEST PUSH1 0x40 MLOAD DUP1 SWAP2 SUB SWAP1 RETURN JUMPDEST PUSH1 0x60 PUSH0 PUSH1 0x1 SLOAD PUSH8 0xFFFFFFFFFFFFFFFF DUP2 GT ISZERO PUSH2 0x29A JUMPI PUSH2 0x299 PUSH2 0x1B12 JUMP JUMPDEST JUMPDEST PUSH1 0x40 MLOAD SWAP1 DUP1 DUP3 MSTORE DUP1 PUSH1 0x20 MUL PUSH1 0x20 ADD DUP3 ADD PUSH1 0x40 MSTORE DUP1 ISZERO PUSH2 0x2D3 JUMPI DUP2 PUSH1 0x20 ADD JUMPDEST PUSH2 0x2C0 PUSH2 0x1808 JUMP JUMPDEST DUP2 MSTORE PUSH1 0x20 ADD SWAP1 PUSH1 0x1 SWAP1 SUB SWAP1 DUP2 PUSH2 0x2B8 JUMPI SWAP1 POP JUMPDEST POP SWAP1 POP PUSH0 PUSH1 0x1 SWAP1 POP JUMPDEST PUSH1 0x1 SLOAD DUP2 GT PUSH2 0x603 JUMPI PUSH1 0x2 PUSH0 DUP3 DUP2 MSTORE PUSH1 0x20 ADD SWAP1 DUP2 MSTORE PUSH1 0x20 ADD PUSH0 KECCAK256 PUSH1 0x40 MLOAD DUP1 PUSH2 0x100 ADD PUSH1 0x40 MSTORE SWAP1 DUP2 PUSH0 DUP3 ADD SLOAD DUP2 MSTORE PUSH1 0x20 ADD PUSH1 0x1 DUP3 ADD DUP1 SLOAD PUSH2 0x31B SWAP1 PUSH2 0x2326 JUMP JUMPDEST DUP1 PUSH1 0x1F ADD PUSH1 0x20 DUP1 SWAP2 DIV MUL PUSH1 0x20 ADD PUSH1 0x40 MLOAD SWAP1 DUP2 ADD PUSH1 0x40 MSTORE DUP1 SWAP3 SWAP2 SWAP1 DUP2 DUP2 MSTORE PUSH1 0x20 ADD DUP3 DUP1 SLOAD PUSH2 0x347 SWAP1 PUSH2 0x2326 JUMP JUMPDEST DUP1 ISZERO PUSH2 0x392 JUMPI DUP1 PUSH1 0x1F LT PUSH2 0x369 JUMPI PUSH2 0x100 DUP1 DUP4 SLOAD DIV MUL DUP4 MSTORE SWAP2 PUSH1 0x20 ADD SWAP2 PUSH2 0x392 JUMP JUMPDEST DUP3 ADD SWAP2 SWAP1 PUSH0 MSTORE PUSH1 0x20 PUSH0 KECCAK256 SWAP1 JUMPDEST DUP2 SLOAD DUP2 MSTORE SWAP1 PUSH1 0x1 ADD SWAP1 PUSH1 0x20 ADD DUP1 DUP4 GT PUSH2 0x375 JUMPI DUP3 SWAP1 SUB PUSH1 0x1F AND DUP3 ADD SWAP2 JUMPDEST POP POP POP POP POP DUP2 MSTORE PUSH1 0x20 ADD PUSH1 0x2 DUP3 ADD DUP1 SLOAD PUSH2 0x3AB SWAP1 PUSH2 0x2326 JUMP JUMPDEST DUP1 PUSH1 0x1F ADD PUSH1 0x20 DUP1 SWAP2 DIV MUL PUSH1 0x20 ADD PUSH1 0x40 MLOAD SWAP1 DUP2 ADD PUSH1 0x40 MSTORE DUP1 SWAP3 SWAP2 SWAP1 DUP2 DUP2 MSTORE PUSH1 0x20 ADD DUP3 DUP1 SLOAD PUSH2 0x3D7 SWAP1 PUSH2 0x2326 JUMP JUMPDEST DUP1 ISZERO PUSH2 0x422 JUMPI DUP1 PUSH1 0x1F LT PUSH2 0x3F9 JUMPI PUSH2 0x100 DUP1 DUP4 SLOAD DIV MUL DUP4 MSTORE SWAP2 PUSH1 0x20 ADD SWAP2 PUSH2 0x422 JUMP JUMPDEST DUP3 ADD SWAP2 SWAP1 PUSH0 MSTORE PUSH1 0x20 PUSH0 KECCAK256 SWAP1 JUMPDEST DUP2 SLOAD DUP2 MSTORE SWAP1 PUSH1 0x1 ADD SWAP1 PUSH1 0x20 ADD DUP1 DUP4 GT PUSH2 0x405 JUMPI DUP3 SWAP1 SUB PUSH1 0x1F AND DUP3 ADD SWAP2 JUMPDEST POP POP POP POP POP DUP2 MSTORE PUSH1 0x20 ADD PUSH1 0x3 DUP3 ADD DUP1 SLOAD PUSH2 0x43B SWAP1 PUSH2 0x2326 JUMP JUMPDEST DUP1 PUSH1 0x1F ADD PUSH1 0x20 DUP1 SWAP2 DIV MUL PUSH1 0x20 ADD PUSH1 0x40 MLOAD SWAP1 DUP2 ADD PUSH1 0x40 MSTORE DUP1 SWAP3 SWAP2 SWAP1 DUP2 DUP2 MSTORE PUSH1 0x20 ADD DUP3 DUP1 SLOAD PUSH2 0x467 SWAP1 PUSH2 0x2326 JUMP JUMPDEST DUP1 ISZERO PUSH2 0x4B2 JUMPI DUP1 PUSH1 0x1F LT PUSH2 0x489 JUMPI PUSH2 0x100 DUP1 DUP4 SLOAD DIV MUL DUP4 MSTORE SWAP2 PUSH1 0x20 ADD SWAP2 PUSH2 0x4B2 JUMP JUMPDEST DUP3 ADD SWAP2 SWAP1 PUSH0 MSTORE PUSH1 0x20 PUSH0 KECCAK256 SWAP1 JUMPDEST DUP2 SLOAD DUP2 MSTORE SWAP1 PUSH1 0x1 ADD SWAP1 PUSH1 0x20 ADD DUP1 DUP4 GT PUSH2 0x495 JUMPI DUP3 SWAP1 SUB PUSH1 0x1F AND DUP3 ADD SWAP2 JUMPDEST POP POP POP POP POP DUP2 MSTORE PUSH1 0x20 ADD PUSH1 0x4 DUP3 ADD PUSH0 SWAP1 SLOAD SWAP1 PUSH2 0x100 EXP SWAP1 DIV PUSH1 0xFF AND PUSH1 0xFF AND PUSH1 0xFF AND DUP2 MSTORE PUSH1 0x20 ADD PUSH1 0x5 DUP3 ADD DUP1 SLOAD PUSH2 0x4E7 SWAP1 PUSH2 0x2326 JUMP JUMPDEST DUP1 PUSH1 0x1F ADD PUSH1 0x20 DUP1 SWAP2 DIV MUL PUSH1 0x20 ADD PUSH1 0x40 MLOAD SWAP1 DUP2 ADD PUSH1 0x40 MSTORE DUP1 SWAP3 SWAP2 SWAP1 DUP2 DUP2 MSTORE PUSH1 0x20 ADD DUP3 DUP1 SLOAD PUSH2 0x513 SWAP1 PUSH2 0x2326 JUMP JUMPDEST DUP1 ISZERO PUSH2 0x55E JUMPI DUP1 PUSH1 0x1F LT PUSH2 0x535 JUMPI PUSH2 0x100 DUP1 DUP4 SLOAD DIV MUL DUP4 MSTORE SWAP2 PUSH1 0x20 ADD SWAP2 PUSH2 0x55E JUMP JUMPDEST DUP3 ADD SWAP2 SWAP1 PUSH0 MSTORE PUSH1 0x20 PUSH0 KECCAK256 SWAP1 JUMPDEST DUP2 SLOAD DUP2 MSTORE SWAP1 PUSH1 0x1 ADD SWAP1 PUSH1 0x20 ADD DUP1 DUP4 GT PUSH2 0x541 JUMPI DUP3 SWAP1 SUB PUSH1 0x1F AND DUP3 ADD SWAP2 JUMPDEST POP POP POP POP POP DUP2 MSTORE PUSH1 0x20 ADD PUSH1 0x6 DUP3 ADD PUSH0 SWAP1 SLOAD SWAP1 PUSH2 0x100 EXP SWAP1 DIV PUSH20 0xFFFFFFFFFFFFFFFFFFFFFFFFFFFFFFFFFFFFFFFF AND PUSH20 0xFFFFFFFFFFFFFFFFFFFFFFFFFFFFFFFFFFFFFFFF AND PUSH20 0xFFFFFFFFFFFFFFFFFFFFFFFFFFFFFFFFFFFFFFFF AND DUP2 MSTORE PUSH1 0x20 ADD PUSH1 0x7 DUP3 ADD SLOAD DUP2 MSTORE POP POP DUP3 PUSH1 0x1 DUP4 PUSH2 0x5D4 SWAP2 SWAP1 PUSH2 0x2383 JUMP JUMPDEST DUP2 MLOAD DUP2 LT PUSH2 0x5E5 JUMPI PUSH2 0x5E4 PUSH2 0x23B6 JUMP JUMPDEST JUMPDEST PUSH1 0x20 MUL PUSH1 0x20 ADD ADD DUP2 SWAP1 MSTORE POP DUP1 DUP1 PUSH2 0x5FB SWAP1 PUSH2 0x23E3 JUMP JUMPDEST SWAP2 POP POP PUSH2 0x2DC JUMP JUMPDEST POP DUP1 SWAP2 POP POP SWAP1 JUMP JUMPDEST PUSH1 0x3 DUP4 DUP1 MLOAD PUSH1 0x20 DUP2 ADD DUP3 ADD DUP1 MLOAD DUP5 DUP3 MSTORE PUSH1 0x20 DUP4 ADD PUSH1 0x20 DUP6 ADD KECCAK256 DUP2 DUP4 MSTORE DUP1 SWAP6 POP POP POP POP POP POP DUP3 DUP1 MLOAD PUSH1 0x20 DUP2 ADD DUP3 ADD DUP1 MLOAD DUP5 DUP3 MSTORE PUSH1 0x20 DUP4 ADD PUSH1 0x20 DUP6 ADD KECCAK256 DUP2 DUP4 MSTORE DUP1 SWAP6 POP POP POP POP POP POP DUP2 DUP1 MLOAD PUSH1 0x20 DUP2 ADD DUP3 ADD DUP1 MLOAD DUP5 DUP3 MSTORE PUSH1 0x20 DUP4 ADD PUSH1 0x20 DUP6 ADD KECCAK256 DUP2 DUP4 MSTORE DUP1 SWAP6 POP POP POP POP POP POP PUSH0 SWAP3 POP SWAP3 POP POP POP SLOAD DUP2 JUMP JUMPDEST PUSH1 0x1 DUP4 PUSH1 0xFF AND LT ISZERO DUP1 ISZERO PUSH2 0x696 JUMPI POP PUSH1 0x3 DUP4 PUSH1 0xFF AND GT ISZERO JUMPDEST PUSH2 0x6D5 JUMPI PUSH1 0x40 MLOAD PUSH32 0x8C379A000000000000000000000000000000000000000000000000000000000 DUP2 MSTORE PUSH1 0x4 ADD PUSH2 0x6CC SWAP1 PUSH2 0x2474 JUMP JUMPDEST PUSH1 0x40 MLOAD DUP1 SWAP2 SUB SWAP1 REVERT JUMPDEST PUSH0 PUSH1 0x40 MLOAD DUP1 PUSH1 0x40 ADD PUSH1 0x40 MSTORE DUP1 PUSH1 0x6 DUP2 MSTORE PUSH1 0x20 ADD PUSH32 0x4176756C736F0000000000000000000000000000000000000000000000000000 DUP2 MSTORE POP SWAP1 POP PUSH0 PUSH1 0x3 DUP3 PUSH1 0x40 MLOAD PUSH2 0x71F SWAP2 SWAP1 PUSH2 0x24CC JUMP JUMPDEST SWAP1 DUP2 MSTORE PUSH1 0x20 ADD PUSH1 0x40 MLOAD DUP1 SWAP2 SUB SWAP1 KECCAK256 DUP8 PUSH1 0x40 MLOAD PUSH2 0x73B SWAP2 SWAP1 PUSH2 0x24CC JUMP JUMPDEST SWAP1 DUP2 MSTORE PUSH1 0x20 ADD PUSH1 0x40 MLOAD DUP1 SWAP2 SUB SWAP1 KECCAK256 DUP7 PUSH1 0x40 MLOAD PUSH2 0x757 SWAP2 SWAP1 PUSH2 0x24CC JUMP JUMPDEST SWAP1 DUP2 MSTORE PUSH1 0x20 ADD PUSH1 0x40 MLOAD DUP1 SWAP2 SUB SWAP1 KECCAK256 SLOAD SWAP1 POP PUSH0 DUP2 GT PUSH2 0x7AA JUMPI PUSH1 0x40 MLOAD PUSH32 0x8C379A000000000000000000000000000000000000000000000000000000000 DUP2 MSTORE PUSH1 0x4 ADD PUSH2 0x7A1 SWAP1 PUSH2 0x252C JUMP JUMPDEST PUSH1 0x40 MLOAD DUP1 SWAP2 SUB SWAP1 REVERT JUMPDEST DUP1 CALLVALUE LT ISZERO PUSH2 0x7ED JUMPI PUSH1 0x40 MLOAD PUSH32 0x8C379A000000000000000000000000000000000000000000000000000000000 DUP2 MSTORE PUSH1 0x4 ADD PUSH2 0x7E4 SWAP1 PUSH2 0x2594 JUMP JUMPDEST PUSH1 0x40 MLOAD DUP1 SWAP2 SUB SWAP1 REVERT JUMPDEST PUSH1 0x2 PUSH1 0x4 PUSH0 DUP6 DUP2 MSTORE PUSH1 0x20 ADD SWAP1 DUP2 MSTORE PUSH1 0x20 ADD PUSH0 KECCAK256 SLOAD LT PUSH2 0x841 JUMPI PUSH1 0x40 MLOAD PUSH32 0x8C379A000000000000000000000000000000000000000000000000000000000 DUP2 MSTORE PUSH1 0x4 ADD PUSH2 0x838 SWAP1 PUSH2 0x2622 JUMP JUMPDEST PUSH1 0x40 MLOAD DUP1 SWAP2 SUB SWAP1 REVERT JUMPDEST PUSH1 0x1 PUSH0 DUP2 SLOAD DUP1 SWAP3 SWAP2 SWAP1 PUSH2 0x853 SWAP1 PUSH2 0x23E3 JUMP JUMPDEST SWAP2 SWAP1 POP SSTORE POP PUSH1 0x40 MLOAD DUP1 PUSH2 0x100 ADD PUSH1 0x40 MSTORE DUP1 PUSH1 0x1 SLOAD DUP2 MSTORE PUSH1 0x20 ADD DUP4 DUP2 MSTORE PUSH1 0x20 ADD DUP9 DUP2 MSTORE PUSH1 0x20 ADD DUP8 DUP2 MSTORE PUSH1 0x20 ADD DUP7 PUSH1 0xFF AND DUP2 MSTORE PUSH1 0x20 ADD DUP6 DUP2 MSTORE PUSH1 0x20 ADD CALLER PUSH20 0xFFFFFFFFFFFFFFFFFFFFFFFFFFFFFFFFFFFFFFFF AND DUP2 MSTORE PUSH1 0x20 ADD DUP5 DUP2 MSTORE POP PUSH1 0x2 PUSH0 PUSH1 0x1 SLOAD DUP2 MSTORE PUSH1 0x20 ADD SWAP1 DUP2 MSTORE PUSH1 0x20 ADD PUSH0 KECCAK256 PUSH0 DUP3 ADD MLOAD DUP2 PUSH0 ADD SSTORE PUSH1 0x20 DUP3 ADD MLOAD DUP2 PUSH1 0x1 ADD SWAP1 DUP2 PUSH2 0x8DD SWAP2 SWAP1 PUSH2 0x27E0 JUMP JUMPDEST POP PUSH1 0x40 DUP3 ADD MLOAD DUP2 PUSH1 0x2 ADD SWAP1 DUP2 PUSH2 0x8F3 SWAP2 SWAP1 PUSH2 0x27E0 JUMP JUMPDEST POP PUSH1 0x60 DUP3 ADD MLOAD DUP2 PUSH1 0x3 ADD SWAP1 DUP2 PUSH2 0x909 SWAP2 SWAP1 PUSH2 0x27E0 JUMP JUMPDEST POP PUSH1 0x80 DUP3 ADD MLOAD DUP2 PUSH1 0x4 ADD PUSH0 PUSH2 0x100 EXP DUP2 SLOAD DUP2 PUSH1 0xFF MUL NOT AND SWAP1 DUP4 PUSH1 0xFF AND MUL OR SWAP1 SSTORE POP PUSH1 0xA0 DUP3 ADD MLOAD DUP2 PUSH1 0x5 ADD SWAP1 DUP2 PUSH2 0x93F SWAP2 SWAP1 PUSH2 0x27E0 JUMP JUMPDEST POP PUSH1 0xC0 DUP3 ADD MLOAD DUP2 PUSH1 0x6 ADD PUSH0 PUSH2 0x100 EXP DUP2 SLOAD DUP2 PUSH20 0xFFFFFFFFFFFFFFFFFFFFFFFFFFFFFFFFFFFFFFFF MUL NOT AND SWAP1 DUP4 PUSH20 0xFFFFFFFFFFFFFFFFFFFFFFFFFFFFFFFFFFFFFFFF AND MUL OR SWAP1 SSTORE POP PUSH1 0xE0 DUP3 ADD MLOAD DUP2 PUSH1 0x7 ADD SSTORE SWAP1 POP POP PUSH1 0x4 PUSH0 DUP5 DUP2 MSTORE PUSH1 0x20 ADD SWAP1 DUP2 MSTORE PUSH1 0x20 ADD PUSH0 KECCAK256 PUSH0 DUP2 SLOAD DUP1 SWAP3 SWAP2 SWAP1 PUSH2 0x9B4 SWAP1 PUSH2 0x23E3 JUMP JUMPDEST SWAP2 SWAP1 POP SSTORE POP PUSH32 0x50A2D2C5907C0982300D5DE2585B6F5BB69B85CF6A926336CA938B641AAE14E8 PUSH1 0x1 SLOAD DUP4 DUP10 DUP10 DUP10 DUP10 CALLER DUP11 PUSH1 0x40 MLOAD PUSH2 0x9F8 SWAP9 SWAP8 SWAP7 SWAP6 SWAP5 SWAP4 SWAP3 SWAP2 SWAP1 PUSH2 0x1FCE JUMP JUMPDEST PUSH1 0x40 MLOAD DUP1 SWAP2 SUB SWAP1 LOG1 POP POP POP POP POP POP POP JUMP JUMPDEST PUSH1 0x4 PUSH1 0x20 MSTORE DUP1 PUSH0 MSTORE PUSH1 0x40 PUSH0 KECCAK256 PUSH0 SWAP2 POP SWAP1 POP SLOAD DUP2 JUMP JUMPDEST PUSH0 PUSH0 SWAP1 SLOAD SWAP1 PUSH2 0x100 EXP SWAP1 DIV PUSH20 0xFFFFFFFFFFFFFFFFFFFFFFFFFFFFFFFFFFFFFFFF AND PUSH20 0xFFFFFFFFFFFFFFFFFFFFFFFFFFFFFFFFFFFFFFFF AND CALLER PUSH20 0xFFFFFFFFFFFFFFFFFFFFFFFFFFFFFFFFFFFFFFFF AND EQ PUSH2 0xAAC JUMPI PUSH1 0x40 MLOAD PUSH32 0x8C379A000000000000000000000000000000000000000000000000000000000 DUP2 MSTORE PUSH1 0x4 ADD PUSH2 0xAA3 SWAP1 PUSH2 0x28F9 JUMP JUMPDEST PUSH1 0x40 MLOAD DUP1 SWAP2 SUB SWAP1 REVERT JUMPDEST DUP1 PUSH1 0x3 DUP6 PUSH1 0x40 MLOAD PUSH2 0xABD SWAP2 SWAP1 PUSH2 0x24CC JUMP JUMPDEST SWAP1 DUP2 MSTORE PUSH1 0x20 ADD PUSH1 0x40 MLOAD DUP1 SWAP2 SUB SWAP1 KECCAK256 DUP5 PUSH1 0x40 MLOAD PUSH2 0xAD9 SWAP2 SWAP1 PUSH2 0x24CC JUMP JUMPDEST SWAP1 DUP2 MSTORE PUSH1 0x20 ADD PUSH1 0x40 MLOAD DUP1 SWAP2 SUB SWAP1 KECCAK256 DUP4 PUSH1 0x40 MLOAD PUSH2 0xAF5 SWAP2 SWAP1 PUSH2 0x24CC JUMP JUMPDEST SWAP1 DUP2 MSTORE PUSH1 0x20 ADD PUSH1 0x40 MLOAD DUP1 SWAP2 SUB SWAP1 KECCAK256 DUP2 SWAP1 SSTORE POP POP POP POP POP JUMP JUMPDEST PUSH1 0x2 PUSH1 0x20 MSTORE DUP1 PUSH0 MSTORE PUSH1 0x40 PUSH0 KECCAK256 PUSH0 SWAP2 POP SWAP1 POP DUP1 PUSH0 ADD SLOAD SWAP1 DUP1 PUSH1 0x1 ADD DUP1 SLOAD PUSH2 0xB32 SWAP1 PUSH2 0x2326 JUMP JUMPDEST DUP1 PUSH1 0x1F ADD PUSH1 0x20 DUP1 SWAP2 DIV MUL PUSH1 0x20 ADD PUSH1 0x40 MLOAD SWAP1 DUP2 ADD PUSH1 0x40 MSTORE DUP1 SWAP3 SWAP2 SWAP1 DUP2 DUP2 MSTORE PUSH1 0x20 ADD DUP3 DUP1 SLOAD PUSH2 0xB5E SWAP1 PUSH2 0x2326 JUMP JUMPDEST DUP1 ISZERO PUSH2 0xBA9 JUMPI DUP1 PUSH1 0x1F LT PUSH2 0xB80 JUMPI PUSH2 0x100 DUP1 DUP4 SLOAD DIV MUL DUP4 MSTORE SWAP2 PUSH1 0x20 ADD SWAP2 PUSH2 0xBA9 JUMP JUMPDEST DUP3 ADD SWAP2 SWAP1 PUSH0 MSTORE PUSH1 0x20 PUSH0 KECCAK256 SWAP1 JUMPDEST DUP2 SLOAD DUP2 MSTORE SWAP1 PUSH1 0x1 ADD SWAP1 PUSH1 0x20 ADD DUP1 DUP4 GT PUSH2 0xB8C JUMPI DUP3 SWAP1 SUB PUSH1 0x1F AND DUP3 ADD SWAP2 JUMPDEST POP POP POP POP POP SWAP1 DUP1 PUSH1 0x2 ADD DUP1 SLOAD PUSH2 0xBBE SWAP1 PUSH2 0x2326 JUMP JUMPDEST DUP1 PUSH1 0x1F ADD PUSH1 0x20 DUP1 SWAP2 DIV MUL PUSH1 0x20 ADD PUSH1 0x40 MLOAD SWAP1 DUP2 ADD PUSH1 0x40 MSTORE DUP1 SWAP3 SWAP2 SWAP1 DUP2 DUP2 MSTORE PUSH1 0x20 ADD DUP3 DUP1 SLOAD PUSH2 0xBEA SWAP1 PUSH2 0x2326 JUMP JUMPDEST DUP1 ISZERO PUSH2 0xC35 JUMPI DUP1 PUSH1 0x1F LT PUSH2 0xC0C JUMPI PUSH2 0x100 DUP1 DUP4 SLOAD DIV MUL DUP4 MSTORE SWAP2 PUSH1 0x20 ADD SWAP2 PUSH2 0xC35 JUMP JUMPDEST DUP3 ADD SWAP2 SWAP1 PUSH0 MSTORE PUSH1 0x20 PUSH0 KECCAK256 SWAP1 JUMPDEST DUP2 SLOAD DUP2 MSTORE SWAP1 PUSH1 0x1 ADD SWAP1 PUSH1 0x20 ADD DUP1 DUP4 GT PUSH2 0xC18 JUMPI DUP3 SWAP1 SUB PUSH1 0x1F AND DUP3 ADD SWAP2 JUMPDEST POP POP POP POP POP SWAP1 DUP1 PUSH1 0x3 ADD DUP1 SLOAD PUSH2 0xC4A SWAP1 PUSH2 0x2326 JUMP JUMPDEST DUP1 PUSH1 0x1F ADD PUSH1 0x20 DUP1 SWAP2 DIV MUL PUSH1 0x20 ADD PUSH1 0x40 MLOAD SWAP1 DUP2 ADD PUSH1 0x40 MSTORE DUP1 SWAP3 SWAP2 SWAP1 DUP2 DUP2 MSTORE PUSH1 0x20 ADD DUP3 DUP1 SLOAD PUSH2 0xC76 SWAP1 PUSH2 0x2326 JUMP JUMPDEST DUP1 ISZERO PUSH2 0xCC1 JUMPI DUP1 PUSH1 0x1F LT PUSH2 0xC98 JUMPI PUSH2 0x100 DUP1 DUP4 SLOAD DIV MUL DUP4 MSTORE SWAP2 PUSH1 0x20 ADD SWAP2 PUSH2 0xCC1 JUMP JUMPDEST DUP3 ADD SWAP2 SWAP1 PUSH0 MSTORE PUSH1 0x20 PUSH0 KECCAK256 SWAP1 JUMPDEST DUP2 SLOAD DUP2 MSTORE SWAP1 PUSH1 0x1 ADD SWAP1 PUSH1 0x20 ADD DUP1 DUP4 GT PUSH2 0xCA4 JUMPI DUP3 SWAP1 SUB PUSH1 0x1F AND DUP3 ADD SWAP2 JUMPDEST POP POP POP POP POP SWAP1 DUP1 PUSH1 0x4 ADD PUSH0 SWAP1 SLOAD SWAP1 PUSH2 0x100 EXP SWAP1 DIV PUSH1 0xFF AND SWAP1 DUP1 PUSH1 0x5 ADD DUP1 SLOAD PUSH2 0xCE8 SWAP1 PUSH2 0x2326 JUMP JUMPDEST DUP1 PUSH1 0x1F ADD PUSH1 0x20 DUP1 SWAP2 DIV MUL PUSH1 0x20 ADD PUSH1 0x40 MLOAD SWAP1 DUP2 ADD PUSH1 0x40 MSTORE DUP1 SWAP3 SWAP2 SWAP1 DUP2 DUP2 MSTORE PUSH1 0x20 ADD DUP3 DUP1 SLOAD PUSH2 0xD14 SWAP1 PUSH2 0x2326 JUMP JUMPDEST DUP1 ISZERO PUSH2 0xD5F JUMPI DUP1 PUSH1 0x1F LT PUSH2 0xD36 JUMPI PUSH2 0x100 DUP1 DUP4 SLOAD DIV MUL DUP4 MSTORE SWAP2 PUSH1 0x20 ADD SWAP2 PUSH2 0xD5F JUMP JUMPDEST DUP3 ADD SWAP2 SWAP1 PUSH0 MSTORE PUSH1 0x20 PUSH0 KECCAK256 SWAP1 JUMPDEST DUP2 SLOAD DUP2 MSTORE SWAP1 PUSH1 0x1 ADD SWAP1 PUSH1 0x20 ADD DUP1 DUP4 GT PUSH2 0xD42 JUMPI DUP3 SWAP1 SUB PUSH1 0x1F AND DUP3 ADD SWAP2 JUMPDEST POP POP POP POP POP SWAP1 DUP1 PUSH1 0x6 ADD PUSH0 SWAP1 SLOAD SWAP1 PUSH2 0x100 EXP SWAP1 DIV PUSH20 0xFFFFFFFFFFFFFFFFFFFFFFFFFFFFFFFFFFFFFFFF AND SWAP1 DUP1 PUSH1 0x7 ADD SLOAD SWAP1 POP DUP9 JUMP JUMPDEST PUSH0 PUSH0 SWAP1 SLOAD SWAP1 PUSH2 0x100 EXP SWAP1 DIV PUSH20 0xFFFFFFFFFFFFFFFFFFFFFFFFFFFFFFFFFFFFFFFF AND DUP2 JUMP JUMPDEST PUSH1 0x60 DUP1 PUSH1 0x60 DUP1 PUSH0 PUSH1 0x40 MLOAD DUP1 PUSH1 0x40 ADD PUSH1 0x40 MSTORE DUP1 PUSH1 0x40 MLOAD DUP1 PUSH1 0x40 ADD PUSH1 0x40 MSTORE DUP1 PUSH1 0xA DUP2 MSTORE PUSH1 0x20 ADD PUSH32 0x5061737361706F72746500000000000000000000000000000000000000000000 DUP2 MSTORE POP DUP2 MSTORE PUSH1 0x20 ADD PUSH1 0x40 MLOAD DUP1 PUSH1 0x40 ADD PUSH1 0x40 MSTORE DUP1 PUSH1 0x6 DUP2 MSTORE PUSH1 0x20 ADD PUSH32 0x4176756C736F0000000000000000000000000000000000000000000000000000 DUP2 MSTORE POP DUP2 MSTORE POP SWAP1 POP PUSH0 PUSH1 0x40 MLOAD DUP1 PUSH1 0x80 ADD PUSH1 0x40 MSTORE DUP1 PUSH1 0x40 MLOAD DUP1 PUSH1 0x40 ADD PUSH1 0x40 MSTORE DUP1 PUSH1 0x14 DUP2 MSTORE PUSH1 0x20 ADD PUSH32 0x417271756962616E636164612043656E7472616C000000000000000000000000 DUP2 MSTORE POP DUP2 MSTORE PUSH1 0x20 ADD PUSH1 0x40 MLOAD DUP1 PUSH1 0x40 ADD PUSH1 0x40 MSTORE DUP1 PUSH1 0x15 DUP2 MSTORE PUSH1 0x20 ADD PUSH32 0x417271756962616E6361646120457370656369616C0000000000000000000000 DUP2 MSTORE POP DUP2 MSTORE PUSH1 0x20 ADD PUSH1 0x40 MLOAD DUP1 PUSH1 0x40 ADD PUSH1 0x40 MSTORE DUP1 PUSH1 0xF DUP2 MSTORE PUSH1 0x20 ADD PUSH32 0x43616465697261205469706F2030310000000000000000000000000000000000 DUP2 MSTORE POP DUP2 MSTORE PUSH1 0x20 ADD PUSH1 0x40 MLOAD DUP1 PUSH1 0x40 ADD PUSH1 0x40 MSTORE DUP1 PUSH1 0xF DUP2 MSTORE PUSH1 0x20 ADD PUSH32 0x43616465697261205469706F2030320000000000000000000000000000000000 DUP2 MSTORE POP DUP2 MSTORE POP SWAP1 POP PUSH0 PUSH1 0x40 MLOAD DUP1 PUSH1 0x40 ADD PUSH1 0x40 MSTORE DUP1 PUSH1 0x40 MLOAD DUP1 PUSH1 0x40 ADD PUSH1 0x40 MSTORE DUP1 PUSH1 0x7 DUP2 MSTORE PUSH1 0x20 ADD PUSH32 0x496E746569726100000000000000000000000000000000000000000000000000 DUP2 MSTORE POP DUP2 MSTORE PUSH1 0x20 ADD PUSH1 0x40 MLOAD DUP1 PUSH1 0x40 ADD PUSH1 0x40 MSTORE DUP1 PUSH1 0x4 DUP2 MSTORE PUSH1 0x20 ADD PUSH32 0x4D65696100000000000000000000000000000000000000000000000000000000 DUP2 MSTORE POP DUP2 MSTORE POP SWAP1 POP PUSH0 PUSH0 SWAP1 POP PUSH0 PUSH0 SWAP1 POP JUMPDEST PUSH1 0x2 DUP2 LT ISZERO PUSH2 0x10C3 JUMPI PUSH0 PUSH0 SWAP1 POP JUMPDEST PUSH1 0x4 DUP2 LT ISZERO PUSH2 0x10B5 JUMPI PUSH0 PUSH0 SWAP1 POP JUMPDEST PUSH1 0x2 DUP2 LT ISZERO PUSH2 0x10A7 JUMPI PUSH0 PUSH1 0x3 DUP9 DUP6 PUSH1 0x2 DUP2 LT PUSH2 0xFFE JUMPI PUSH2 0xFFD PUSH2 0x23B6 JUMP JUMPDEST JUMPDEST PUSH1 0x20 MUL ADD MLOAD PUSH1 0x40 MLOAD PUSH2 0x1010 SWAP2 SWAP1 PUSH2 0x24CC JUMP JUMPDEST SWAP1 DUP2 MSTORE PUSH1 0x20 ADD PUSH1 0x40 MLOAD DUP1 SWAP2 SUB SWAP1 KECCAK256 DUP8 DUP5 PUSH1 0x4 DUP2 LT PUSH2 0x1031 JUMPI PUSH2 0x1030 PUSH2 0x23B6 JUMP JUMPDEST JUMPDEST PUSH1 0x20 MUL ADD MLOAD PUSH1 0x40 MLOAD PUSH2 0x1043 SWAP2 SWAP1 PUSH2 0x24CC JUMP JUMPDEST SWAP1 DUP2 MSTORE PUSH1 0x20 ADD PUSH1 0x40 MLOAD DUP1 SWAP2 SUB SWAP1 KECCAK256 DUP7 DUP4 PUSH1 0x2 DUP2 LT PUSH2 0x1064 JUMPI PUSH2 0x1063 PUSH2 0x23B6 JUMP JUMPDEST JUMPDEST PUSH1 0x20 MUL ADD MLOAD PUSH1 0x40 MLOAD PUSH2 0x1076 SWAP2 SWAP1 PUSH2 0x24CC JUMP JUMPDEST SWAP1 DUP2 MSTORE PUSH1 0x20 ADD PUSH1 0x40 MLOAD DUP1 SWAP2 SUB SWAP1 KECCAK256 SLOAD GT ISZERO PUSH2 0x109A JUMPI DUP4 DUP1 PUSH2 0x1096 SWAP1 PUSH2 0x23E3 JUMP JUMPDEST SWAP5 POP POP JUMPDEST DUP1 DUP1 PUSH1 0x1 ADD SWAP2 POP POP PUSH2 0xFDF JUMP JUMPDEST POP DUP1 DUP1 PUSH1 0x1 ADD SWAP2 POP POP PUSH2 0xFD1 JUMP JUMPDEST POP DUP1 DUP1 PUSH1 0x1 ADD SWAP2 POP POP PUSH2 0xFC3 JUMP JUMPDEST POP DUP1 PUSH8 0xFFFFFFFFFFFFFFFF DUP2 GT ISZERO PUSH2 0x10DE JUMPI PUSH2 0x10DD PUSH2 0x1B12 JUMP JUMPDEST JUMPDEST PUSH1 0x40 MLOAD SWAP1 DUP1 DUP3 MSTORE DUP1 PUSH1 0x20 MUL PUSH1 0x20 ADD DUP3 ADD PUSH1 0x40 MSTORE DUP1 ISZERO PUSH2 0x1111 JUMPI DUP2 PUSH1 0x20 ADD JUMPDEST PUSH1 0x60 DUP2 MSTORE PUSH1 0x20 ADD SWAP1 PUSH1 0x1 SWAP1 SUB SWAP1 DUP2 PUSH2 0x10FC JUMPI SWAP1 POP JUMPDEST POP SWAP8 POP DUP1 PUSH8 0xFFFFFFFFFFFFFFFF DUP2 GT ISZERO PUSH2 0x112E JUMPI PUSH2 0x112D PUSH2 0x1B12 JUMP JUMPDEST JUMPDEST PUSH1 0x40 MLOAD SWAP1 DUP1 DUP3 MSTORE DUP1 PUSH1 0x20 MUL PUSH1 0x20 ADD DUP3 ADD PUSH1 0x40 MSTORE DUP1 ISZERO PUSH2 0x1161 JUMPI DUP2 PUSH1 0x20 ADD JUMPDEST PUSH1 0x60 DUP2 MSTORE PUSH1 0x20 ADD SWAP1 PUSH1 0x1 SWAP1 SUB SWAP1 DUP2 PUSH2 0x114C JUMPI SWAP1 POP JUMPDEST POP SWAP7 POP DUP1 PUSH8 0xFFFFFFFFFFFFFFFF DUP2 GT ISZERO PUSH2 0x117E JUMPI PUSH2 0x117D PUSH2 0x1B12 JUMP JUMPDEST JUMPDEST PUSH1 0x40 MLOAD SWAP1 DUP1 DUP3 MSTORE DUP1 PUSH1 0x20 MUL PUSH1 0x20 ADD DUP3 ADD PUSH1 0x40 MSTORE DUP1 ISZERO PUSH2 0x11B1 JUMPI DUP2 PUSH1 0x20 ADD JUMPDEST PUSH1 0x60 DUP2 MSTORE PUSH1 0x20 ADD SWAP1 PUSH1 0x1 SWAP1 SUB SWAP1 DUP2 PUSH2 0x119C JUMPI SWAP1 POP JUMPDEST POP SWAP6 POP DUP1 PUSH8 0xFFFFFFFFFFFFFFFF DUP2 GT ISZERO PUSH2 0x11CE JUMPI PUSH2 0x11CD PUSH2 0x1B12 JUMP JUMPDEST JUMPDEST PUSH1 0x40 MLOAD SWAP1 DUP1 DUP3 MSTORE DUP1 PUSH1 0x20 MUL PUSH1 0x20 ADD DUP3 ADD PUSH1 0x40 MSTORE DUP1 ISZERO PUSH2 0x11FC JUMPI DUP2 PUSH1 0x20 ADD PUSH1 0x20 DUP3 MUL DUP1 CALLDATASIZE DUP4 CALLDATACOPY DUP1 DUP3 ADD SWAP2 POP POP SWAP1 POP JUMPDEST POP SWAP5 POP PUSH0 PUSH0 SWAP1 POP PUSH0 PUSH0 SWAP1 POP JUMPDEST PUSH1 0x2 DUP2 LT ISZERO PUSH2 0x13CF JUMPI PUSH0 PUSH0 SWAP1 POP JUMPDEST PUSH1 0x4 DUP2 LT ISZERO PUSH2 0x13C1 JUMPI PUSH0 PUSH0 SWAP1 POP JUMPDEST PUSH1 0x2 DUP2 LT ISZERO PUSH2 0x13B3 JUMPI PUSH0 PUSH1 0x3 DUP10 DUP6 PUSH1 0x2 DUP2 LT PUSH2 0x1243 JUMPI PUSH2 0x1242 PUSH2 0x23B6 JUMP JUMPDEST JUMPDEST PUSH1 0x20 MUL ADD MLOAD PUSH1 0x40 MLOAD PUSH2 0x1255 SWAP2 SWAP1 PUSH2 0x24CC JUMP JUMPDEST SWAP1 DUP2 MSTORE PUSH1 0x20 ADD PUSH1 0x40 MLOAD DUP1 SWAP2 SUB SWAP1 KECCAK256 DUP9 DUP5 PUSH1 0x4 DUP2 LT PUSH2 0x1276 JUMPI PUSH2 0x1275 PUSH2 0x23B6 JUMP JUMPDEST JUMPDEST PUSH1 0x20 MUL ADD MLOAD PUSH1 0x40 MLOAD PUSH2 0x1288 SWAP2 SWAP1 PUSH2 0x24CC JUMP JUMPDEST SWAP1 DUP2 MSTORE PUSH1 0x20 ADD PUSH1 0x40 MLOAD DUP1 SWAP2 SUB SWAP1 KECCAK256 DUP8 DUP4 PUSH1 0x2 DUP2 LT PUSH2 0x12A9 JUMPI PUSH2 0x12A8 PUSH2 0x23B6 JUMP JUMPDEST JUMPDEST PUSH1 0x20 MUL ADD MLOAD PUSH1 0x40 MLOAD PUSH2 0x12BB SWAP2 SWAP1 PUSH2 0x24CC JUMP JUMPDEST SWAP1 DUP2 MSTORE PUSH1 0x20 ADD PUSH1 0x40 MLOAD DUP1 SWAP2 SUB SWAP1 KECCAK256 SLOAD SWAP1 POP PUSH0 DUP2 GT ISZERO PUSH2 0x13A5 JUMPI DUP9 DUP5 PUSH1 0x2 DUP2 LT PUSH2 0x12E7 JUMPI PUSH2 0x12E6 PUSH2 0x23B6 JUMP JUMPDEST JUMPDEST PUSH1 0x20 MUL ADD MLOAD DUP14 DUP7 DUP2 MLOAD DUP2 LT PUSH2 0x12FF JUMPI PUSH2 0x12FE PUSH2 0x23B6 JUMP JUMPDEST JUMPDEST PUSH1 0x20 MUL PUSH1 0x20 ADD ADD DUP2 SWAP1 MSTORE POP DUP8 DUP4 PUSH1 0x4 DUP2 LT PUSH2 0x131D JUMPI PUSH2 0x131C PUSH2 0x23B6 JUMP JUMPDEST JUMPDEST PUSH1 0x20 MUL ADD MLOAD DUP13 DUP7 DUP2 MLOAD DUP2 LT PUSH2 0x1335 JUMPI PUSH2 0x1334 PUSH2 0x23B6 JUMP JUMPDEST JUMPDEST PUSH1 0x20 MUL PUSH1 0x20 ADD ADD DUP2 SWAP1 MSTORE POP DUP7 DUP3 PUSH1 0x2 DUP2 LT PUSH2 0x1353 JUMPI PUSH2 0x1352 PUSH2 0x23B6 JUMP JUMPDEST JUMPDEST PUSH1 0x20 MUL ADD MLOAD DUP12 DUP7 DUP2 MLOAD DUP2 LT PUSH2 0x136B JUMPI PUSH2 0x136A PUSH2 0x23B6 JUMP JUMPDEST JUMPDEST PUSH1 0x20 MUL PUSH1 0x20 ADD ADD DUP2 SWAP1 MSTORE POP DUP1 DUP11 DUP7 DUP2 MLOAD DUP2 LT PUSH2 0x138A JUMPI PUSH2 0x1389 PUSH2 0x23B6 JUMP JUMPDEST JUMPDEST PUSH1 0x20 MUL PUSH1 0x20 ADD ADD DUP2 DUP2 MSTORE POP POP DUP5 DUP1 PUSH2 0x13A1 SWAP1 PUSH2 0x23E3 JUMP JUMPDEST SWAP6 POP POP JUMPDEST POP DUP1 DUP1 PUSH1 0x1 ADD SWAP2 POP POP PUSH2 0x1224 JUMP JUMPDEST POP DUP1 DUP1 PUSH1 0x1 ADD SWAP2 POP POP PUSH2 0x1216 JUMP JUMPDEST POP DUP1 DUP1 PUSH1 0x1 ADD SWAP2 POP POP PUSH2 0x1208 JUMP JUMPDEST POP POP POP POP POP POP SWAP1 SWAP2 SWAP3 SWAP4 JUMP JUMPDEST PUSH0 PUSH0 SWAP1 SLOAD SWAP1 PUSH2 0x100 EXP SWAP1 DIV PUSH20 0xFFFFFFFFFFFFFFFFFFFFFFFFFFFFFFFFFFFFFFFF AND PUSH20 0xFFFFFFFFFFFFFFFFFFFFFFFFFFFFFFFFFFFFFFFF AND CALLER PUSH20 0xFFFFFFFFFFFFFFFFFFFFFFFFFFFFFFFFFFFFFFFF AND EQ PUSH2 0x1469 JUMPI PUSH1 0x40 MLOAD PUSH32 0x8C379A000000000000000000000000000000000000000000000000000000000 DUP2 MSTORE PUSH1 0x4 ADD PUSH2 0x1460 SWAP1 PUSH2 0x28F9 JUMP JUMPDEST PUSH1 0x40 MLOAD DUP1 SWAP2 SUB SWAP1 REVERT JUMPDEST PUSH0 PUSH0 SWAP1 SLOAD SWAP1 PUSH2 0x100 EXP SWAP1 DIV PUSH20 0xFFFFFFFFFFFFFFFFFFFFFFFFFFFFFFFFFFFFFFFF AND PUSH20 0xFFFFFFFFFFFFFFFFFFFFFFFFFFFFFFFFFFFFFFFF AND PUSH2 0x8FC SELFBALANCE SWAP1 DUP2 ISZERO MUL SWAP1 PUSH1 0x40 MLOAD PUSH0 PUSH1 0x40 MLOAD DUP1 DUP4 SUB DUP2 DUP6 DUP9 DUP9 CALL SWAP4 POP POP POP POP ISZERO DUP1 ISZERO PUSH2 0x14CC JUMPI RETURNDATASIZE PUSH0 PUSH0 RETURNDATACOPY RETURNDATASIZE PUSH0 REVERT JUMPDEST POP JUMP JUMPDEST PUSH0 PUSH1 0x40 MLOAD DUP1 PUSH1 0x40 ADD PUSH1 0x40 MSTORE DUP1 PUSH1 0xA DUP2 MSTORE PUSH1 0x20 ADD PUSH32 0x5061737361706F72746500000000000000000000000000000000000000000000 DUP2 MSTORE POP SWAP1 POP PUSH0 PUSH1 0x3 DUP3 PUSH1 0x40 MLOAD PUSH2 0x1519 SWAP2 SWAP1 PUSH2 0x24CC JUMP JUMPDEST SWAP1 DUP2 MSTORE PUSH1 0x20 ADD PUSH1 0x40 MLOAD DUP1 SWAP2 SUB SWAP1 KECCAK256 DUP7 PUSH1 0x40 MLOAD PUSH2 0x1535 SWAP2 SWAP1 PUSH2 0x24CC JUMP JUMPDEST SWAP1 DUP2 MSTORE PUSH1 0x20 ADD PUSH1 0x40 MLOAD DUP1 SWAP2 SUB SWAP1 KECCAK256 DUP6 PUSH1 0x40 MLOAD PUSH2 0x1551 SWAP2 SWAP1 PUSH2 0x24CC JUMP JUMPDEST SWAP1 DUP2 MSTORE PUSH1 0x20 ADD PUSH1 0x40 MLOAD DUP1 SWAP2 SUB SWAP1 KECCAK256 SLOAD SWAP1 POP PUSH0 DUP2 GT PUSH2 0x15A4 JUMPI PUSH1 0x40 MLOAD PUSH32 0x8C379A000000000000000000000000000000000000000000000000000000000 DUP2 MSTORE PUSH1 0x4 ADD PUSH2 0x159B SWAP1 PUSH2 0x252C JUMP JUMPDEST PUSH1 0x40 MLOAD DUP1 SWAP2 SUB SWAP1 REVERT JUMPDEST DUP1 CALLVALUE LT ISZERO PUSH2 0x15E7 JUMPI PUSH1 0x40 MLOAD PUSH32 0x8C379A000000000000000000000000000000000000000000000000000000000 DUP2 MSTORE PUSH1 0x4 ADD PUSH2 0x15DE SWAP1 PUSH2 0x2594 JUMP JUMPDEST PUSH1 0x40 MLOAD DUP1 SWAP2 SUB SWAP1 REVERT JUMPDEST PUSH1 0x2 PUSH1 0x4 PUSH0 DUP6 DUP2 MSTORE PUSH1 0x20 ADD SWAP1 DUP2 MSTORE PUSH1 0x20 ADD PUSH0 KECCAK256 SLOAD LT PUSH2 0x163B JUMPI PUSH1 0x40 MLOAD PUSH32 0x8C379A000000000000000000000000000000000000000000000000000000000 DUP2 MSTORE PUSH1 0x4 ADD PUSH2 0x1632 SWAP1 PUSH2 0x2622 JUMP JUMPDEST PUSH1 0x40 MLOAD DUP1 SWAP2 SUB SWAP1 REVERT JUMPDEST PUSH1 0x1 PUSH0 DUP2 SLOAD DUP1 SWAP3 SWAP2 SWAP1 PUSH2 0x164D SWAP1 PUSH2 0x23E3 JUMP JUMPDEST SWAP2 SWAP1 POP SSTORE POP PUSH1 0x40 MLOAD DUP1 PUSH2 0x100 ADD PUSH1 0x40 MSTORE DUP1 PUSH1 0x1 SLOAD DUP2 MSTORE PUSH1 0x20 ADD DUP4 DUP2 MSTORE PUSH1 0x20 ADD DUP8 DUP2 MSTORE PUSH1 0x20 ADD DUP7 DUP2 MSTORE PUSH1 0x20 ADD PUSH0 PUSH1 0xFF AND DUP2 MSTORE PUSH1 0x20 ADD DUP6 DUP2 MSTORE PUSH1 0x20 ADD CALLER PUSH20 0xFFFFFFFFFFFFFFFFFFFFFFFFFFFFFFFFFFFFFFFF AND DUP2 MSTORE PUSH1 0x20 ADD DUP5 DUP2 MSTORE POP PUSH1 0x2 PUSH0 PUSH1 0x1 SLOAD DUP2 MSTORE PUSH1 0x20 ADD SWAP1 DUP2 MSTORE PUSH1 0x20 ADD PUSH0 KECCAK256 PUSH0 DUP3 ADD MLOAD DUP2 PUSH0 ADD SSTORE PUSH1 0x20 DUP3 ADD MLOAD DUP2 PUSH1 0x1 ADD SWAP1 DUP2 PUSH2 0x16D7 SWAP2 SWAP1 PUSH2 0x27E0 JUMP JUMPDEST POP PUSH1 0x40 DUP3 ADD MLOAD DUP2 PUSH1 0x2 ADD SWAP1 DUP2 PUSH2 0x16ED SWAP2 SWAP1 PUSH2 0x27E0 JUMP JUMPDEST POP PUSH1 0x60 DUP3 ADD MLOAD DUP2 PUSH1 0x3 ADD SWAP1 DUP2 PUSH2 0x1703 SWAP2 SWAP1 PUSH2 0x27E0 JUMP JUMPDEST POP PUSH1 0x80 DUP3 ADD MLOAD DUP2 PUSH1 0x4 ADD PUSH0 PUSH2 0x100 EXP DUP2 SLOAD DUP2 PUSH1 0xFF MUL NOT AND SWAP1 DUP4 PUSH1 0xFF AND MUL OR SWAP1 SSTORE POP PUSH1 0xA0 DUP3 ADD MLOAD DUP2 PUSH1 0x5 ADD SWAP1 DUP2 PUSH2 0x1739 SWAP2 SWAP1 PUSH2 0x27E0 JUMP JUMPDEST POP PUSH1 0xC0 DUP3 ADD MLOAD DUP2 PUSH1 0x6 ADD PUSH0 PUSH2 0x100 EXP DUP2 SLOAD DUP2 PUSH20 0xFFFFFFFFFFFFFFFFFFFFFFFFFFFFFFFFFFFFFFFF MUL NOT AND SWAP1 DUP4 PUSH20 0xFFFFFFFFFFFFFFFFFFFFFFFFFFFFFFFFFFFFFFFF AND MUL OR SWAP1 SSTORE POP PUSH1 0xE0 DUP3 ADD MLOAD DUP2 PUSH1 0x7 ADD SSTORE SWAP1 POP POP PUSH1 0x4 PUSH0 DUP5 DUP2 MSTORE PUSH1 0x20 ADD SWAP1 DUP2 MSTORE PUSH1 0x20 ADD PUSH0 KECCAK256 PUSH0 DUP2 SLOAD DUP1 SWAP3 SWAP2 SWAP1 PUSH2 0x17AE SWAP1 PUSH2 0x23E3 JUMP JUMPDEST SWAP2 SWAP1 POP SSTORE POP PUSH32 0x50A2D2C5907C0982300D5DE2585B6F5BB69B85CF6A926336CA938B641AAE14E8 PUSH1 0x1 SLOAD DUP4 DUP9 DUP9 PUSH0 DUP10 CALLER DUP11 PUSH1 0x40 MLOAD PUSH2 0x17F2 SWAP9 SWAP8 SWAP7 SWAP6 SWAP5 SWAP4 SWAP3 SWAP2 SWAP1 PUSH2 0x2950 JUMP JUMPDEST PUSH1 0x40 MLOAD DUP1 SWAP2 SUB SWAP1 LOG1 POP POP POP POP POP POP JUMP JUMPDEST PUSH1 0x1 SLOAD DUP2 JUMP JUMPDEST PUSH1 0x40 MLOAD DUP1 PUSH2 0x100 ADD PUSH1 0x40 MSTORE DUP1 PUSH0 DUP2 MSTORE PUSH1 0x20 ADD PUSH1 0x60 DUP2 MSTORE PUSH1 0x20 ADD PUSH1 0x60 DUP2 MSTORE PUSH1 0x20 ADD PUSH1 0x60 DUP2 MSTORE PUSH1 0x20 ADD PUSH0 PUSH1 0xFF AND DUP2 MSTORE PUSH1 0x20 ADD PUSH1 0x60 DUP2 MSTORE PUSH1 0x20 ADD PUSH0 PUSH20 0xFFFFFFFFFFFFFFFFFFFFFFFFFFFFFFFFFFFFFFFF AND DUP2 MSTORE PUSH1 0x20 ADD PUSH0 DUP2 MSTORE POP SWAP1 JUMP JUMPDEST PUSH0 DUP2 MLOAD SWAP1 POP SWAP2 SWAP1 POP JUMP JUMPDEST PUSH0 DUP3 DUP3 MSTORE PUSH1 0x20 DUP3 ADD SWAP1 POP SWAP3 SWAP2 POP POP JUMP JUMPDEST PUSH0 DUP2 SWAP1 POP PUSH1 0x20 DUP3 ADD SWAP1 POP SWAP2 SWAP1 POP JUMP JUMPDEST PUSH0 DUP2 SWAP1 POP SWAP2 SWAP1 POP JUMP JUMPDEST PUSH2 0x189D DUP2 PUSH2 0x188B JUMP JUMPDEST DUP3 MSTORE POP POP JUMP JUMPDEST PUSH0 DUP2 MLOAD SWAP1 POP SWAP2 SWAP1 POP JUMP JUMPDEST PUSH0 DUP3 DUP3 MSTORE PUSH1 0x20 DUP3 ADD SWAP1 POP SWAP3 SWAP2 POP POP JUMP JUMPDEST DUP3 DUP2 DUP4 MCOPY PUSH0 DUP4 DUP4 ADD MSTORE POP POP POP JUMP JUMPDEST PUSH0 PUSH1 0x1F NOT PUSH1 0x1F DUP4 ADD AND SWAP1 POP SWAP2 SWAP1 POP JUMP JUMPDEST PUSH0 PUSH2 0x18E5 DUP3 PUSH2 0x18A3 JUMP JUMPDEST PUSH2 0x18EF DUP2 DUP6 PUSH2 0x18AD JUMP JUMPDEST SWAP4 POP PUSH2 0x18FF DUP2 DUP6 PUSH1 0x20 DUP7 ADD PUSH2 0x18BD JUMP JUMPDEST PUSH2 0x1908 DUP2 PUSH2 0x18CB JUMP JUMPDEST DUP5 ADD SWAP2 POP POP SWAP3 SWAP2 POP POP JUMP JUMPDEST PUSH0 PUSH1 0xFF DUP3 AND SWAP1 POP SWAP2 SWAP1 POP JUMP JUMPDEST PUSH2 0x1928 DUP2 PUSH2 0x1913 JUMP JUMPDEST DUP3 MSTORE POP POP JUMP JUMPDEST PUSH0 PUSH20 0xFFFFFFFFFFFFFFFFFFFFFFFFFFFFFFFFFFFFFFFF DUP3 AND SWAP1 POP SWAP2 SWAP1 POP JUMP JUMPDEST PUSH0 PUSH2 0x1957 DUP3 PUSH2 0x192E JUMP JUMPDEST SWAP1 POP SWAP2 SWAP1 POP JUMP JUMPDEST PUSH2 0x1967 DUP2 PUSH2 0x194D JUMP JUMPDEST DUP3 MSTORE POP POP JUMP JUMPDEST PUSH0 DUP2 SWAP1 POP SWAP2 SWAP1 POP JUMP JUMPDEST PUSH2 0x197F DUP2 PUSH2 0x196D JUMP JUMPDEST DUP3 MSTORE POP POP JUMP JUMPDEST PUSH0 PUSH2 0x100 DUP4 ADD PUSH0 DUP4 ADD MLOAD PUSH2 0x199B PUSH0 DUP7 ADD DUP3 PUSH2 0x1894 JUMP JUMPDEST POP PUSH1 0x20 DUP4 ADD MLOAD DUP5 DUP3 SUB PUSH1 0x20 DUP7 ADD MSTORE PUSH2 0x19B3 DUP3 DUP3 PUSH2 0x18DB JUMP JUMPDEST SWAP2 POP POP PUSH1 0x40 DUP4 ADD MLOAD DUP5 DUP3 SUB PUSH1 0x40 DUP7 ADD MSTORE PUSH2 0x19CD DUP3 DUP3 PUSH2 0x18DB JUMP JUMPDEST SWAP2 POP POP PUSH1 0x60 DUP4 ADD MLOAD DUP5 DUP3 SUB PUSH1 0x60 DUP7 ADD MSTORE PUSH2 0x19E7 DUP3 DUP3 PUSH2 0x18DB JUMP JUMPDEST SWAP2 POP POP PUSH1 0x80 DUP4 ADD MLOAD PUSH2 0x19FC PUSH1 0x80 DUP7 ADD DUP3 PUSH2 0x191F JUMP JUMPDEST POP PUSH1 0xA0 DUP4 ADD MLOAD DUP5 DUP3 SUB PUSH1 0xA0 DUP7 ADD MSTORE PUSH2 0x1A14 DUP3 DUP3 PUSH2 0x18DB JUMP JUMPDEST SWAP2 POP POP PUSH1 0xC0 DUP4 ADD MLOAD PUSH2 0x1A29 PUSH1 0xC0 DUP7 ADD DUP3 PUSH2 0x195E JUMP JUMPDEST POP PUSH1 0xE0 DUP4 ADD MLOAD PUSH2 0x1A3C PUSH1 0xE0 DUP7 ADD DUP3 PUSH2 0x1976 JUMP JUMPDEST POP DUP1 SWAP2 POP POP SWAP3 SWAP2 POP POP JUMP JUMPDEST PUSH0 PUSH2 0x1A52 DUP4 DUP4 PUSH2 0x1985 JUMP JUMPDEST SWAP1 POP SWAP3 SWAP2 POP POP JUMP JUMPDEST PUSH0 PUSH1 0x20 DUP3 ADD SWAP1 POP SWAP2 SWAP1 POP JUMP JUMPDEST PUSH0 PUSH2 0x1A70 DUP3 PUSH2 0x1862 JUMP JUMPDEST PUSH2 0x1A7A DUP2 DUP6 PUSH2 0x186C JUMP JUMPDEST SWAP4 POP DUP4 PUSH1 0x20 DUP3 MUL DUP6 ADD PUSH2 0x1A8C DUP6 PUSH2 0x187C JUMP JUMPDEST DUP1 PUSH0 JUMPDEST DUP6 DUP2 LT ISZERO PUSH2 0x1AC7 JUMPI DUP5 DUP5 SUB DUP10 MSTORE DUP2 MLOAD PUSH2 0x1AA8 DUP6 DUP3 PUSH2 0x1A47 JUMP JUMPDEST SWAP5 POP PUSH2 0x1AB3 DUP4 PUSH2 0x1A5A JUMP JUMPDEST SWAP3 POP PUSH1 0x20 DUP11 ADD SWAP10 POP POP PUSH1 0x1 DUP2 ADD SWAP1 POP PUSH2 0x1A8F JUMP JUMPDEST POP DUP3 SWAP8 POP DUP8 SWAP6 POP POP POP POP POP POP SWAP3 SWAP2 POP POP JUMP JUMPDEST PUSH0 PUSH1 0x20 DUP3 ADD SWAP1 POP DUP2 DUP2 SUB PUSH0 DUP4 ADD MSTORE PUSH2 0x1AF1 DUP2 DUP5 PUSH2 0x1A66 JUMP JUMPDEST SWAP1 POP SWAP3 SWAP2 POP POP JUMP JUMPDEST PUSH0 PUSH1 0x40 MLOAD SWAP1 POP SWAP1 JUMP JUMPDEST PUSH0 PUSH0 REVERT JUMPDEST PUSH0 PUSH0 REVERT JUMPDEST PUSH0 PUSH0 REVERT JUMPDEST PUSH0 PUSH0 REVERT JUMPDEST PUSH32 0x4E487B7100000000000000000000000000000000000000000000000000000000 PUSH0 MSTORE PUSH1 0x41 PUSH1 0x4 MSTORE PUSH1 0x24 PUSH0 REVERT JUMPDEST PUSH2 0x1B48 DUP3 PUSH2 0x18CB JUMP JUMPDEST DUP2 ADD DUP2 DUP2 LT PUSH8 0xFFFFFFFFFFFFFFFF DUP3 GT OR ISZERO PUSH2 0x1B67 JUMPI PUSH2 0x1B66 PUSH2 0x1B12 JUMP JUMPDEST JUMPDEST DUP1 PUSH1 0x40 MSTORE POP POP POP JUMP JUMPDEST PUSH0 PUSH2 0x1B79 PUSH2 0x1AF9 JUMP JUMPDEST SWAP1 POP PUSH2 0x1B85 DUP3 DUP3 PUSH2 0x1B3F JUMP JUMPDEST SWAP2 SWAP1 POP JUMP JUMPDEST PUSH0 PUSH8 0xFFFFFFFFFFFFFFFF DUP3 GT ISZERO PUSH2 0x1BA4 JUMPI PUSH2 0x1BA3 PUSH2 0x1B12 JUMP JUMPDEST JUMPDEST PUSH2 0x1BAD DUP3 PUSH2 0x18CB JUMP JUMPDEST SWAP1 POP PUSH1 0x20 DUP2 ADD SWAP1 POP SWAP2 SWAP1 POP JUMP JUMPDEST DUP3 DUP2 DUP4 CALLDATACOPY PUSH0 DUP4 DUP4 ADD MSTORE POP POP POP JUMP JUMPDEST PUSH0 PUSH2 0x1BDA PUSH2 0x1BD5 DUP5 PUSH2 0x1B8A JUMP JUMPDEST PUSH2 0x1B70 JUMP JUMPDEST SWAP1 POP DUP3 DUP2 MSTORE PUSH1 0x20 DUP2 ADD DUP5 DUP5 DUP5 ADD GT ISZERO PUSH2 0x1BF6 JUMPI PUSH2 0x1BF5 PUSH2 0x1B0E JUMP JUMPDEST JUMPDEST PUSH2 0x1C01 DUP5 DUP3 DUP6 PUSH2 0x1BBA JUMP JUMPDEST POP SWAP4 SWAP3 POP POP POP JUMP JUMPDEST PUSH0 DUP3 PUSH1 0x1F DUP4 ADD SLT PUSH2 0x1C1D JUMPI PUSH2 0x1C1C PUSH2 0x1B0A JUMP JUMPDEST JUMPDEST DUP2 CALLDATALOAD PUSH2 0x1C2D DUP5 DUP3 PUSH1 0x20 DUP7 ADD PUSH2 0x1BC8 JUMP JUMPDEST SWAP2 POP POP SWAP3 SWAP2 POP POP JUMP JUMPDEST PUSH0 PUSH0 PUSH0 PUSH1 0x60 DUP5 DUP7 SUB SLT ISZERO PUSH2 0x1C4D JUMPI PUSH2 0x1C4C PUSH2 0x1B02 JUMP JUMPDEST JUMPDEST PUSH0 DUP5 ADD CALLDATALOAD PUSH8 0xFFFFFFFFFFFFFFFF DUP2 GT ISZERO PUSH2 0x1C6A JUMPI PUSH2 0x1C69 PUSH2 0x1B06 JUMP JUMPDEST JUMPDEST PUSH2 0x1C76 DUP7 DUP3 DUP8 ADD PUSH2 0x1C09 JUMP JUMPDEST SWAP4 POP POP PUSH1 0x20 DUP5 ADD CALLDATALOAD PUSH8 0xFFFFFFFFFFFFFFFF DUP2 GT ISZERO PUSH2 0x1C97 JUMPI PUSH2 0x1C96 PUSH2 0x1B06 JUMP JUMPDEST JUMPDEST PUSH2 0x1CA3 DUP7 DUP3 DUP8 ADD PUSH2 0x1C09 JUMP JUMPDEST SWAP3 POP POP PUSH1 0x40 DUP5 ADD CALLDATALOAD PUSH8 0xFFFFFFFFFFFFFFFF DUP2 GT ISZERO PUSH2 0x1CC4 JUMPI PUSH2 0x1CC3 PUSH2 0x1B06 JUMP JUMPDEST JUMPDEST PUSH2 0x1CD0 DUP7 DUP3 DUP8 ADD PUSH2 0x1C09 JUMP JUMPDEST SWAP2 POP POP SWAP3 POP SWAP3 POP SWAP3 JUMP JUMPDEST PUSH2 0x1CE3 DUP2 PUSH2 0x188B JUMP JUMPDEST DUP3 MSTORE POP POP JUMP JUMPDEST PUSH0 PUSH1 0x20 DUP3 ADD SWAP1 POP PUSH2 0x1CFC PUSH0 DUP4 ADD DUP5 PUSH2 0x1CDA JUMP JUMPDEST SWAP3 SWAP2 POP POP JUMP JUMPDEST PUSH2 0x1D0B DUP2 PUSH2 0x1913 JUMP JUMPDEST DUP2 EQ PUSH2 0x1D15 JUMPI PUSH0 PUSH0 REVERT JUMPDEST POP JUMP JUMPDEST PUSH0 DUP2 CALLDATALOAD SWAP1 POP PUSH2 0x1D26 DUP2 PUSH2 0x1D02 JUMP JUMPDEST SWAP3 SWAP2 POP POP JUMP JUMPDEST PUSH2 0x1D35 DUP2 PUSH2 0x196D JUMP JUMPDEST DUP2 EQ PUSH2 0x1D3F JUMPI PUSH0 PUSH0 REVERT JUMPDEST POP JUMP JUMPDEST PUSH0 DUP2 CALLDATALOAD SWAP1 POP PUSH2 0x1D50 DUP2 PUSH2 0x1D2C JUMP JUMPDEST SWAP3 SWAP2 POP POP JUMP JUMPDEST PUSH0 PUSH0 PUSH0 PUSH0 PUSH0 PUSH1 0xA0 DUP7 DUP9 SUB SLT ISZERO PUSH2 0x1D6F JUMPI PUSH2 0x1D6E PUSH2 0x1B02 JUMP JUMPDEST JUMPDEST PUSH0 DUP7 ADD CALLDATALOAD PUSH8 0xFFFFFFFFFFFFFFFF DUP2 GT ISZERO PUSH2 0x1D8C JUMPI PUSH2 0x1D8B PUSH2 0x1B06 JUMP JUMPDEST JUMPDEST PUSH2 0x1D98 DUP9 DUP3 DUP10 ADD PUSH2 0x1C09 JUMP JUMPDEST SWAP6 POP POP PUSH1 0x20 DUP7 ADD CALLDATALOAD PUSH8 0xFFFFFFFFFFFFFFFF DUP2 GT ISZERO PUSH2 0x1DB9 JUMPI PUSH2 0x1DB8 PUSH2 0x1B06 JUMP JUMPDEST JUMPDEST PUSH2 0x1DC5 DUP9 DUP3 DUP10 ADD PUSH2 0x1C09 JUMP JUMPDEST SWAP5 POP POP PUSH1 0x40 PUSH2 0x1DD6 DUP9 DUP3 DUP10 ADD PUSH2 0x1D18 JUMP JUMPDEST SWAP4 POP POP PUSH1 0x60 DUP7 ADD CALLDATALOAD PUSH8 0xFFFFFFFFFFFFFFFF DUP2 GT ISZERO PUSH2 0x1DF7 JUMPI PUSH2 0x1DF6 PUSH2 0x1B06 JUMP JUMPDEST JUMPDEST PUSH2 0x1E03 DUP9 DUP3 DUP10 ADD PUSH2 0x1C09 JUMP JUMPDEST SWAP3 POP POP PUSH1 0x80 PUSH2 0x1E14 DUP9 DUP3 DUP10 ADD PUSH2 0x1D42 JUMP JUMPDEST SWAP2 POP POP SWAP3 SWAP6 POP SWAP3 SWAP6 SWAP1 SWAP4 POP JUMP JUMPDEST PUSH0 PUSH1 0x20 DUP3 DUP5 SUB SLT ISZERO PUSH2 0x1E36 JUMPI PUSH2 0x1E35 PUSH2 0x1B02 JUMP JUMPDEST JUMPDEST PUSH0 PUSH2 0x1E43 DUP5 DUP3 DUP6 ADD PUSH2 0x1D42 JUMP JUMPDEST SWAP2 POP POP SWAP3 SWAP2 POP POP JUMP JUMPDEST PUSH2 0x1E55 DUP2 PUSH2 0x188B JUMP JUMPDEST DUP2 EQ PUSH2 0x1E5F JUMPI PUSH0 PUSH0 REVERT JUMPDEST POP JUMP JUMPDEST PUSH0 DUP2 CALLDATALOAD SWAP1 POP PUSH2 0x1E70 DUP2 PUSH2 0x1E4C JUMP JUMPDEST SWAP3 SWAP2 POP POP JUMP JUMPDEST PUSH0 PUSH0 PUSH0 PUSH0 PUSH1 0x80 DUP6 DUP8 SUB SLT ISZERO PUSH2 0x1E8E JUMPI PUSH2 0x1E8D PUSH2 0x1B02 JUMP JUMPDEST JUMPDEST PUSH0 DUP6 ADD CALLDATALOAD PUSH8 0xFFFFFFFFFFFFFFFF DUP2 GT ISZERO PUSH2 0x1EAB JUMPI PUSH2 0x1EAA PUSH2 0x1B06 JUMP JUMPDEST JUMPDEST PUSH2 0x1EB7 DUP8 DUP3 DUP9 ADD PUSH2 0x1C09 JUMP JUMPDEST SWAP5 POP POP PUSH1 0x20 DUP6 ADD CALLDATALOAD PUSH8 0xFFFFFFFFFFFFFFFF DUP2 GT ISZERO PUSH2 0x1ED8 JUMPI PUSH2 0x1ED7 PUSH2 0x1B06 JUMP JUMPDEST JUMPDEST PUSH2 0x1EE4 DUP8 DUP3 DUP9 ADD PUSH2 0x1C09 JUMP JUMPDEST SWAP4 POP POP PUSH1 0x40 DUP6 ADD CALLDATALOAD PUSH8 0xFFFFFFFFFFFFFFFF DUP2 GT ISZERO PUSH2 0x1F05 JUMPI PUSH2 0x1F04 PUSH2 0x1B06 JUMP JUMPDEST JUMPDEST PUSH2 0x1F11 DUP8 DUP3 DUP9 ADD PUSH2 0x1C09 JUMP JUMPDEST SWAP3 POP POP PUSH1 0x60 PUSH2 0x1F22 DUP8 DUP3 DUP9 ADD PUSH2 0x1E62 JUMP JUMPDEST SWAP2 POP POP SWAP3 SWAP6 SWAP2 SWAP5 POP SWAP3 POP JUMP JUMPDEST PUSH0 PUSH1 0x20 DUP3 DUP5 SUB SLT ISZERO PUSH2 0x1F43 JUMPI PUSH2 0x1F42 PUSH2 0x1B02 JUMP JUMPDEST JUMPDEST PUSH0 PUSH2 0x1F50 DUP5 DUP3 DUP6 ADD PUSH2 0x1E62 JUMP JUMPDEST SWAP2 POP POP SWAP3 SWAP2 POP POP JUMP JUMPDEST PUSH0 DUP3 DUP3 MSTORE PUSH1 0x20 DUP3 ADD SWAP1 POP SWAP3 SWAP2 POP POP JUMP JUMPDEST PUSH0 PUSH2 0x1F73 DUP3 PUSH2 0x18A3 JUMP JUMPDEST PUSH2 0x1F7D DUP2 DUP6 PUSH2 0x1F59 JUMP JUMPDEST SWAP4 POP PUSH2 0x1F8D DUP2 DUP6 PUSH1 0x20 DUP7 ADD PUSH2 0x18BD JUMP JUMPDEST PUSH2 0x1F96 DUP2 PUSH2 0x18CB JUMP JUMPDEST DUP5 ADD SWAP2 POP POP SWAP3 SWAP2 POP POP JUMP JUMPDEST PUSH2 0x1FAA DUP2 PUSH2 0x1913 JUMP JUMPDEST DUP3 MSTORE POP POP JUMP JUMPDEST PUSH2 0x1FB9 DUP2 PUSH2 0x194D JUMP JUMPDEST DUP3 MSTORE POP POP JUMP JUMPDEST PUSH2 0x1FC8 DUP2 PUSH2 0x196D JUMP JUMPDEST DUP3 MSTORE POP POP JUMP JUMPDEST PUSH0 PUSH2 0x100 DUP3 ADD SWAP1 POP PUSH2 0x1FE2 PUSH0 DUP4 ADD DUP12 PUSH2 0x1CDA JUMP JUMPDEST DUP2 DUP2 SUB PUSH1 0x20 DUP4 ADD MSTORE PUSH2 0x1FF4 DUP2 DUP11 PUSH2 0x1F69 JUMP JUMPDEST SWAP1 POP DUP2 DUP2 SUB PUSH1 0x40 DUP4 ADD MSTORE PUSH2 0x2008 DUP2 DUP10 PUSH2 0x1F69 JUMP JUMPDEST SWAP1 POP DUP2 DUP2 SUB PUSH1 0x60 DUP4 ADD MSTORE PUSH2 0x201C DUP2 DUP9 PUSH2 0x1F69 JUMP JUMPDEST SWAP1 POP PUSH2 0x202B PUSH1 0x80 DUP4 ADD DUP8 PUSH2 0x1FA1 JUMP JUMPDEST DUP2 DUP2 SUB PUSH1 0xA0 DUP4 ADD MSTORE PUSH2 0x203D DUP2 DUP7 PUSH2 0x1F69 JUMP JUMPDEST SWAP1 POP PUSH2 0x204C PUSH1 0xC0 DUP4 ADD DUP6 PUSH2 0x1FB0 JUMP JUMPDEST PUSH2 0x2059 PUSH1 0xE0 DUP4 ADD DUP5 PUSH2 0x1FBF JUMP JUMPDEST SWAP10 SWAP9 POP POP POP POP POP POP POP POP POP JUMP JUMPDEST PUSH0 PUSH1 0x20 DUP3 ADD SWAP1 POP PUSH2 0x2079 PUSH0 DUP4 ADD DUP5 PUSH2 0x1FB0 JUMP JUMPDEST SWAP3 SWAP2 POP POP JUMP JUMPDEST PUSH0 DUP2 MLOAD SWAP1 POP SWAP2 SWAP1 POP JUMP JUMPDEST PUSH0 DUP3 DUP3 MSTORE PUSH1 0x20 DUP3 ADD SWAP1 POP SWAP3 SWAP2 POP POP JUMP JUMPDEST PUSH0 DUP2 SWAP1 POP PUSH1 0x20 DUP3 ADD SWAP1 POP SWAP2 SWAP1 POP JUMP JUMPDEST PUSH0 PUSH2 0x20B3 DUP4 DUP4 PUSH2 0x18DB JUMP JUMPDEST SWAP1 POP SWAP3 SWAP2 POP POP JUMP JUMPDEST PUSH0 PUSH1 0x20 DUP3 ADD SWAP1 POP SWAP2 SWAP1 POP JUMP JUMPDEST PUSH0 PUSH2 0x20D1 DUP3 PUSH2 0x207F JUMP JUMPDEST PUSH2 0x20DB DUP2 DUP6 PUSH2 0x2089 JUMP JUMPDEST SWAP4 POP DUP4 PUSH1 0x20 DUP3 MUL DUP6 ADD PUSH2 0x20ED DUP6 PUSH2 0x2099 JUMP JUMPDEST DUP1 PUSH0 JUMPDEST DUP6 DUP2 LT ISZERO PUSH2 0x2128 JUMPI DUP5 DUP5 SUB DUP10 MSTORE DUP2 MLOAD PUSH2 0x2109 DUP6 DUP3 PUSH2 0x20A8 JUMP JUMPDEST SWAP5 POP PUSH2 0x2114 DUP4 PUSH2 0x20BB JUMP JUMPDEST SWAP3 POP PUSH1 0x20 DUP11 ADD SWAP10 POP POP PUSH1 0x1 DUP2 ADD SWAP1 POP PUSH2 0x20F0 JUMP JUMPDEST POP DUP3 SWAP8 POP DUP8 SWAP6 POP POP POP POP POP POP SWAP3 SWAP2 POP POP JUMP JUMPDEST PUSH0 DUP2 MLOAD SWAP1 POP SWAP2 SWAP1 POP JUMP JUMPDEST PUSH0 DUP3 DUP3 MSTORE PUSH1 0x20 DUP3 ADD SWAP1 POP SWAP3 SWAP2 POP POP JUMP JUMPDEST PUSH0 DUP2 SWAP1 POP PUSH1 0x20 DUP3 ADD SWAP1 POP SWAP2 SWAP1 POP JUMP JUMPDEST PUSH0 PUSH2 0x216E DUP4 DUP4 PUSH2 0x1894 JUMP JUMPDEST PUSH1 0x20 DUP4 ADD SWAP1 POP SWAP3 SWAP2 POP POP JUMP JUMPDEST PUSH0 PUSH1 0x20 DUP3 ADD SWAP1 POP SWAP2 SWAP1 POP JUMP JUMPDEST PUSH0 PUSH2 0x2190 DUP3 PUSH2 0x213A JUMP JUMPDEST PUSH2 0x219A DUP2 DUP6 PUSH2 0x2144 JUMP JUMPDEST SWAP4 POP PUSH2 0x21A5 DUP4 PUSH2 0x2154 JUMP JUMPDEST DUP1 PUSH0 JUMPDEST DUP4 DUP2 LT ISZERO PUSH2 0x21D5 JUMPI DUP2 MLOAD PUSH2 0x21BC DUP9 DUP3 PUSH2 0x2163 JUMP JUMPDEST SWAP8 POP PUSH2 0x21C7 DUP4 PUSH2 0x217A JUMP JUMPDEST SWAP3 POP POP PUSH1 0x1 DUP2 ADD SWAP1 POP PUSH2 0x21A8 JUMP JUMPDEST POP DUP6 SWAP4 POP POP POP POP SWAP3 SWAP2 POP POP JUMP JUMPDEST PUSH0 PUSH1 0x80 DUP3 ADD SWAP1 POP DUP2 DUP2 SUB PUSH0 DUP4 ADD MSTORE PUSH2 0x21FA DUP2 DUP8 PUSH2 0x20C7 JUMP JUMPDEST SWAP1 POP DUP2 DUP2 SUB PUSH1 0x20 DUP4 ADD MSTORE PUSH2 0x220E DUP2 DUP7 PUSH2 0x20C7 JUMP JUMPDEST SWAP1 POP DUP2 DUP2 SUB PUSH1 0x40 DUP4 ADD MSTORE PUSH2 0x2222 DUP2 DUP6 PUSH2 0x20C7 JUMP JUMPDEST SWAP1 POP DUP2 DUP2 SUB PUSH1 0x60 DUP4 ADD MSTORE PUSH2 0x2236 DUP2 DUP5 PUSH2 0x2186 JUMP JUMPDEST SWAP1 POP SWAP6 SWAP5 POP POP POP POP POP JUMP JUMPDEST PUSH0 PUSH0 PUSH0 PUSH0 PUSH1 0x80 DUP6 DUP8 SUB SLT ISZERO PUSH2 0x2259 JUMPI PUSH2 0x2258 PUSH2 0x1B02 JUMP JUMPDEST JUMPDEST PUSH0 DUP6 ADD CALLDATALOAD PUSH8 0xFFFFFFFFFFFFFFFF DUP2 GT ISZERO PUSH2 0x2276 JUMPI PUSH2 0x2275 PUSH2 0x1B06 JUMP JUMPDEST JUMPDEST PUSH2 0x2282 DUP8 DUP3 DUP9 ADD PUSH2 0x1C09 JUMP JUMPDEST SWAP5 POP POP PUSH1 0x20 DUP6 ADD CALLDATALOAD PUSH8 0xFFFFFFFFFFFFFFFF DUP2 GT ISZERO PUSH2 0x22A3 JUMPI PUSH2 0x22A2 PUSH2 0x1B06 JUMP JUMPDEST JUMPDEST PUSH2 0x22AF DUP8 DUP3 DUP9 ADD PUSH2 0x1C09 JUMP JUMPDEST SWAP4 POP POP PUSH1 0x40 DUP6 ADD CALLDATALOAD PUSH8 0xFFFFFFFFFFFFFFFF DUP2 GT ISZERO PUSH2 0x22D0 JUMPI PUSH2 0x22CF PUSH2 0x1B06 JUMP JUMPDEST JUMPDEST PUSH2 0x22DC DUP8 DUP3 DUP9 ADD PUSH2 0x1C09 JUMP JUMPDEST SWAP3 POP POP PUSH1 0x60 PUSH2 0x22ED DUP8 DUP3 DUP9 ADD PUSH2 0x1D42 JUMP JUMPDEST SWAP2 POP POP SWAP3 SWAP6 SWAP2 SWAP5 POP SWAP3 POP JUMP JUMPDEST PUSH32 0x4E487B7100000000000000000000000000000000000000000000000000000000 PUSH0 MSTORE PUSH1 0x22 PUSH1 0x4 MSTORE PUSH1 0x24 PUSH0 REVERT JUMPDEST PUSH0 PUSH1 0x2 DUP3 DIV SWAP1 POP PUSH1 0x1 DUP3 AND DUP1 PUSH2 0x233D JUMPI PUSH1 0x7F DUP3 AND SWAP2 POP JUMPDEST PUSH1 0x20 DUP3 LT DUP2 SUB PUSH2 0x2350 JUMPI PUSH2 0x234F PUSH2 0x22F9 JUMP JUMPDEST JUMPDEST POP SWAP2 SWAP1 POP JUMP JUMPDEST PUSH32 0x4E487B7100000000000000000000000000000000000000000000000000000000 PUSH0 MSTORE PUSH1 0x11 PUSH1 0x4 MSTORE PUSH1 0x24 PUSH0 REVERT JUMPDEST PUSH0 PUSH2 0x238D DUP3 PUSH2 0x188B JUMP JUMPDEST SWAP2 POP PUSH2 0x2398 DUP4 PUSH2 0x188B JUMP JUMPDEST SWAP3 POP DUP3 DUP3 SUB SWAP1 POP DUP2 DUP2 GT ISZERO PUSH2 0x23B0 JUMPI PUSH2 0x23AF PUSH2 0x2356 JUMP JUMPDEST JUMPDEST SWAP3 SWAP2 POP POP JUMP JUMPDEST PUSH32 0x4E487B7100000000000000000000000000000000000000000000000000000000 PUSH0 MSTORE PUSH1 0x32 PUSH1 0x4 MSTORE PUSH1 0x24 PUSH0 REVERT JUMPDEST PUSH0 PUSH2 0x23ED DUP3 PUSH2 0x188B JUMP JUMPDEST SWAP2 POP PUSH32 0xFFFFFFFFFFFFFFFFFFFFFFFFFFFFFFFFFFFFFFFFFFFFFFFFFFFFFFFFFFFFFFFF DUP3 SUB PUSH2 0x241F JUMPI PUSH2 0x241E PUSH2 0x2356 JUMP JUMPDEST JUMPDEST PUSH1 0x1 DUP3 ADD SWAP1 POP SWAP2 SWAP1 POP JUMP JUMPDEST PUSH32 0x4E6F69746520696E76616C696461000000000000000000000000000000000000 PUSH0 DUP3 ADD MSTORE POP JUMP JUMPDEST PUSH0 PUSH2 0x245E PUSH1 0xE DUP4 PUSH2 0x1F59 JUMP JUMPDEST SWAP2 POP PUSH2 0x2469 DUP3 PUSH2 0x242A JUMP JUMPDEST PUSH1 0x20 DUP3 ADD SWAP1 POP SWAP2 SWAP1 POP JUMP JUMPDEST PUSH0 PUSH1 0x20 DUP3 ADD SWAP1 POP DUP2 DUP2 SUB PUSH0 DUP4 ADD MSTORE PUSH2 0x248B DUP2 PUSH2 0x2452 JUMP JUMPDEST SWAP1 POP SWAP2 SWAP1 POP JUMP JUMPDEST PUSH0 DUP2 SWAP1 POP SWAP3 SWAP2 POP POP JUMP JUMPDEST PUSH0 PUSH2 0x24A6 DUP3 PUSH2 0x18A3 JUMP JUMPDEST PUSH2 0x24B0 DUP2 DUP6 PUSH2 0x2492 JUMP JUMPDEST SWAP4 POP PUSH2 0x24C0 DUP2 DUP6 PUSH1 0x20 DUP7 ADD PUSH2 0x18BD JUMP JUMPDEST DUP1 DUP5 ADD SWAP2 POP POP SWAP3 SWAP2 POP POP JUMP JUMPDEST PUSH0 PUSH2 0x24D7 DUP3 DUP5 PUSH2 0x249C JUMP JUMPDEST SWAP2 POP DUP2 SWAP1 POP SWAP3 SWAP2 POP POP JUMP JUMPDEST PUSH32 0x507265636F206E616F20636F6E666967757261646F0000000000000000000000 PUSH0 DUP3 ADD MSTORE POP JUMP JUMPDEST PUSH0 PUSH2 0x2516 PUSH1 0x15 DUP4 PUSH2 0x1F59 JUMP JUMPDEST SWAP2 POP PUSH2 0x2521 DUP3 PUSH2 0x24E2 JUMP JUMPDEST PUSH1 0x20 DUP3 ADD SWAP1 POP SWAP2 SWAP1 POP JUMP JUMPDEST PUSH0 PUSH1 0x20 DUP3 ADD SWAP1 POP DUP2 DUP2 SUB PUSH0 DUP4 ADD MSTORE PUSH2 0x2543 DUP2 PUSH2 0x250A JUMP JUMPDEST SWAP1 POP SWAP2 SWAP1 POP JUMP JUMPDEST PUSH32 0x56616C6F7220696E737566696369656E74650000000000000000000000000000 PUSH0 DUP3 ADD MSTORE POP JUMP JUMPDEST PUSH0 PUSH2 0x257E PUSH1 0x12 DUP4 PUSH2 0x1F59 JUMP JUMPDEST SWAP2 POP PUSH2 0x2589 DUP3 PUSH2 0x254A JUMP JUMPDEST PUSH1 0x20 DUP3 ADD SWAP1 POP SWAP2 SWAP1 POP JUMP JUMPDEST PUSH0 PUSH1 0x20 DUP3 ADD SWAP1 POP DUP2 DUP2 SUB PUSH0 DUP4 ADD MSTORE PUSH2 0x25AB DUP2 PUSH2 0x2572 JUMP JUMPDEST SWAP1 POP SWAP2 SWAP1 POP JUMP JUMPDEST PUSH32 0x4C696D697465206465203220696E67726573736F7320706F7220435046206174 PUSH0 DUP3 ADD MSTORE PUSH32 0x696E6769646F0000000000000000000000000000000000000000000000000000 PUSH1 0x20 DUP3 ADD MSTORE POP JUMP JUMPDEST PUSH0 PUSH2 0x260C PUSH1 0x26 DUP4 PUSH2 0x1F59 JUMP JUMPDEST SWAP2 POP PUSH2 0x2617 DUP3 PUSH2 0x25B2 JUMP JUMPDEST PUSH1 0x40 DUP3 ADD SWAP1 POP SWAP2 SWAP1 POP JUMP JUMPDEST PUSH0 PUSH1 0x20 DUP3 ADD SWAP1 POP DUP2 DUP2 SUB PUSH0 DUP4 ADD MSTORE PUSH2 0x2639 DUP2 PUSH2 0x2600 JUMP JUMPDEST SWAP1 POP SWAP2 SWAP1 POP JUMP JUMPDEST PUSH0 DUP2 SWAP1 POP DUP2 PUSH0 MSTORE PUSH1 0x20 PUSH0 KECCAK256 SWAP1 POP SWAP2 SWAP1 POP JUMP JUMPDEST PUSH0 PUSH1 0x20 PUSH1 0x1F DUP4 ADD DIV SWAP1 POP SWAP2 SWAP1 POP JUMP JUMPDEST PUSH0 DUP3 DUP3 SHL SWAP1 POP SWAP3 SWAP2 POP POP JUMP JUMPDEST PUSH0 PUSH1 0x8 DUP4 MUL PUSH2 0x269C PUSH32 0xFFFFFFFFFFFFFFFFFFFFFFFFFFFFFFFFFFFFFFFFFFFFFFFFFFFFFFFFFFFFFFFF DUP3 PUSH2 0x2661 JUMP JUMPDEST PUSH2 0x26A6 DUP7 DUP4 PUSH2 0x2661 JUMP JUMPDEST SWAP6 POP DUP1 NOT DUP5 AND SWAP4 POP DUP1 DUP7 AND DUP5 OR SWAP3 POP POP POP SWAP4 SWAP3 POP POP POP JUMP JUMPDEST PUSH0 DUP2 SWAP1 POP SWAP2 SWAP1 POP JUMP JUMPDEST PUSH0 PUSH2 0x26E1 PUSH2 0x26DC PUSH2 0x26D7 DUP5 PUSH2 0x188B JUMP JUMPDEST PUSH2 0x26BE JUMP JUMPDEST PUSH2 0x188B JUMP JUMPDEST SWAP1 POP SWAP2 SWAP1 POP JUMP JUMPDEST PUSH0 DUP2 SWAP1 POP SWAP2 SWAP1 POP JUMP JUMPDEST PUSH2 0x26FA DUP4 PUSH2 0x26C7 JUMP JUMPDEST PUSH2 0x270E PUSH2 0x2706 DUP3 PUSH2 0x26E8 JUMP JUMPDEST DUP5 DUP5 SLOAD PUSH2 0x266D JUMP JUMPDEST DUP3 SSTORE POP POP POP POP JUMP JUMPDEST PUSH0 PUSH0 SWAP1 POP SWAP1 JUMP JUMPDEST PUSH2 0x2725 PUSH2 0x2716 JUMP JUMPDEST PUSH2 0x2730 DUP2 DUP5 DUP5 PUSH2 0x26F1 JUMP JUMPDEST POP POP POP JUMP JUMPDEST JUMPDEST DUP2 DUP2 LT ISZERO PUSH2 0x2753 JUMPI PUSH2 0x2748 PUSH0 DUP3 PUSH2 0x271D JUMP JUMPDEST PUSH1 0x1 DUP2 ADD SWAP1 POP PUSH2 0x2736 JUMP JUMPDEST POP POP JUMP JUMPDEST PUSH1 0x1F DUP3 GT ISZERO PUSH2 0x2798 JUMPI PUSH2 0x2769 DUP2 PUSH2 0x2640 JUMP JUMPDEST PUSH2 0x2772 DUP5 PUSH2 0x2652 JUMP JUMPDEST DUP2 ADD PUSH1 0x20 DUP6 LT ISZERO PUSH2 0x2781 JUMPI DUP2 SWAP1 POP JUMPDEST PUSH2 0x2795 PUSH2 0x278D DUP6 PUSH2 0x2652 JUMP JUMPDEST DUP4 ADD DUP3 PUSH2 0x2735 JUMP JUMPDEST POP POP JUMPDEST POP POP POP JUMP JUMPDEST PUSH0 DUP3 DUP3 SHR SWAP1 POP SWAP3 SWAP2 POP POP JUMP JUMPDEST PUSH0 PUSH2 0x27B8 PUSH0 NOT DUP5 PUSH1 0x8 MUL PUSH2 0x279D JUMP JUMPDEST NOT DUP1 DUP4 AND SWAP2 POP POP SWAP3 SWAP2 POP POP JUMP JUMPDEST PUSH0 PUSH2 0x27D0 DUP4 DUP4 PUSH2 0x27A9 JUMP JUMPDEST SWAP2 POP DUP3 PUSH1 0x2 MUL DUP3 OR SWAP1 POP SWAP3 SWAP2 POP POP JUMP JUMPDEST PUSH2 0x27E9 DUP3 PUSH2 0x18A3 JUMP JUMPDEST PUSH8 0xFFFFFFFFFFFFFFFF DUP2 GT ISZERO PUSH2 0x2802 JUMPI PUSH2 0x2801 PUSH2 0x1B12 JUMP JUMPDEST JUMPDEST PUSH2 0x280C DUP3 SLOAD PUSH2 0x2326 JUMP JUMPDEST PUSH2 0x2817 DUP3 DUP3 DUP6 PUSH2 0x2757 JUMP JUMPDEST PUSH0 PUSH1 0x20 SWAP1 POP PUSH1 0x1F DUP4 GT PUSH1 0x1 DUP2 EQ PUSH2 0x2848 JUMPI PUSH0 DUP5 ISZERO PUSH2 0x2836 JUMPI DUP3 DUP8 ADD MLOAD SWAP1 POP JUMPDEST PUSH2 0x2840 DUP6 DUP3 PUSH2 0x27C5 JUMP JUMPDEST DUP7 SSTORE POP PUSH2 0x28A7 JUMP JUMPDEST PUSH1 0x1F NOT DUP5 AND PUSH2 0x2856 DUP7 PUSH2 0x2640 JUMP JUMPDEST PUSH0 JUMPDEST DUP3 DUP2 LT ISZERO PUSH2 0x287D JUMPI DUP5 DUP10 ADD MLOAD DUP3 SSTORE PUSH1 0x1 DUP3 ADD SWAP2 POP PUSH1 0x20 DUP6 ADD SWAP5 POP PUSH1 0x20 DUP2 ADD SWAP1 POP PUSH2 0x2858 JUMP JUMPDEST DUP7 DUP4 LT ISZERO PUSH2 0x289A JUMPI DUP5 DUP10 ADD MLOAD PUSH2 0x2896 PUSH1 0x1F DUP10 AND DUP3 PUSH2 0x27A9 JUMP JUMPDEST DUP4 SSTORE POP JUMPDEST PUSH1 0x1 PUSH1 0x2 DUP9 MUL ADD DUP9 SSTORE POP POP POP JUMPDEST POP POP POP POP POP POP JUMP JUMPDEST PUSH32 0x536F6D656E7465206F20646F6E6F20706F646520657865637574617200000000 PUSH0 DUP3 ADD MSTORE POP JUMP JUMPDEST PUSH0 PUSH2 0x28E3 PUSH1 0x1C DUP4 PUSH2 0x1F59 JUMP JUMPDEST SWAP2 POP PUSH2 0x28EE DUP3 PUSH2 0x28AF JUMP JUMPDEST PUSH1 0x20 DUP3 ADD SWAP1 POP SWAP2 SWAP1 POP JUMP JUMPDEST PUSH0 PUSH1 0x20 DUP3 ADD SWAP1 POP DUP2 DUP2 SUB PUSH0 DUP4 ADD MSTORE PUSH2 0x2910 DUP2 PUSH2 0x28D7 JUMP JUMPDEST SWAP1 POP SWAP2 SWAP1 POP JUMP JUMPDEST PUSH0 DUP2 SWAP1 POP SWAP2 SWAP1 POP JUMP JUMPDEST PUSH0 PUSH2 0x293A PUSH2 0x2935 PUSH2 0x2930 DUP5 PUSH2 0x2917 JUMP JUMPDEST PUSH2 0x26BE JUMP JUMPDEST PUSH2 0x1913 JUMP JUMPDEST SWAP1 POP SWAP2 SWAP1 POP JUMP JUMPDEST PUSH2 0x294A DUP2 PUSH2 0x2920 JUMP JUMPDEST DUP3 MSTORE POP POP JUMP JUMPDEST PUSH0 PUSH2 0x100 DUP3 ADD SWAP1 POP PUSH2 0x2964 PUSH0 DUP4 ADD DUP12 PUSH2 0x1CDA JUMP JUMPDEST DUP2 DUP2 SUB PUSH1 0x20 DUP4 ADD MSTORE PUSH2 0x2976 DUP2 DUP11 PUSH2 0x1F69 JUMP JUMPDEST SWAP1 POP DUP2 DUP2 SUB PUSH1 0x40 DUP4 ADD MSTORE PUSH2 0x298A DUP2 DUP10 PUSH2 0x1F69 JUMP JUMPDEST SWAP1 POP DUP2 DUP2 SUB PUSH1 0x60 DUP4 ADD MSTORE PUSH2 0x299E DUP2 DUP9 PUSH2 0x1F69 JUMP JUMPDEST SWAP1 POP PUSH2 0x29AD PUSH1 0x80 DUP4 ADD DUP8 PUSH2 0x2941 JUMP JUMPDEST DUP2 DUP2 SUB PUSH1 0xA0 DUP4 ADD MSTORE PUSH2 0x29BF DUP2 DUP7 PUSH2 0x1F69 JUMP JUMPDEST SWAP1 POP PUSH2 0x29CE PUSH1 0xC0 DUP4 ADD DUP6 PUSH2 0x1FB0 JUMP JUMPDEST PUSH2 0x29DB PUSH1 0xE0 DUP4 ADD DUP5 PUSH2 0x1FBF JUMP JUMPDEST SWAP10 SWAP9 POP POP POP POP POP POP POP POP POP JUMP INVALID LOG2 PUSH5 0x6970667358 0x22 SLT KECCAK256 DUP4 DUP3 0xC2 0xDF 0xD0 SSTORE PUSH18 0xFD17174BD85210312C194E64CABA6FC3C345 ADD PUSH25 0xAC709569A364736F6C634300081E0033000000000000000000 "
		},
		"gasEstimates": {
			"creation": {
				"codeDepositCost": "2156400",
				"executionCost": "26556",
				"totalCost": "2182956"
			},
			"external": {
				"comprarAvulso(string,string,uint8,string,bytes32)": "infinite",
				"comprarPassaporte(string,string,string,bytes32)": "infinite",
				"ingressoCount()": "2535",
				"ingressos(uint256)": "infinite",
				"ingressosPorCpf(bytes32)": "2821",
				"listarIngressos()": "infinite",
				"listarIngressosDisponiveis()": "infinite",
				"owner()": "2529",
				"precos(string,string,string)": "infinite",
				"sacar()": "infinite",
				"setPreco(string,string,string,uint256)": "infinite"
			}
		},
		"methodIdentifiers": {
			"comprarAvulso(string,string,uint8,string,bytes32)": "38224aa7",
			"comprarPassaporte(string,string,string,bytes32)": "ab879f7e",
			"ingressoCount()": "c36deb0c",
			"ingressos(uint256)": "574ccbc6",
			"ingressosPorCpf(bytes32)": "451a7f1e",
			"listarIngressos()": "2b6e7eb4",
			"listarIngressosDisponiveis()": "931d66da",
			"owner()": "8da5cb5b",
			"precos(string,string,string)": "377633cb",
			"sacar()": "a51068c8",
			"setPreco(string,string,string,uint256)": "4d4d2bf2"
		}
	},
	"abi": [
		{
			"inputs": [],
			"stateMutability": "nonpayable",
			"type": "constructor"
		},
		{
			"anonymous": false,
			"inputs": [
				{
					"indexed": false,
					"internalType": "uint256",
					"name": "id",
					"type": "uint256"
				},
				{
					"indexed": false,
					"internalType": "string",
					"name": "tipo",
					"type": "string"
				},
				{
					"indexed": false,
					"internalType": "string",
					"name": "area",
					"type": "string"
				},
				{
					"indexed": false,
					"internalType": "string",
					"name": "tipoPreco",
					"type": "string"
				},
				{
					"indexed": false,
					"internalType": "uint8",
					"name": "noite",
					"type": "uint8"
				},
				{
					"indexed": false,
					"internalType": "string",
					"name": "lado",
					"type": "string"
				},
				{
					"indexed": false,
					"internalType": "address",
					"name": "comprador",
					"type": "address"
				},
				{
					"indexed": false,
					"internalType": "bytes32",
					"name": "cpfComprador",
					"type": "bytes32"
				}
			],
			"name": "IngressoVendido",
			"type": "event"
		},
		{
			"inputs": [
				{
					"internalType": "string",
					"name": "_area",
					"type": "string"
				},
				{
					"internalType": "string",
					"name": "_tipoPreco",
					"type": "string"
				},
				{
					"internalType": "uint8",
					"name": "_noite",
					"type": "uint8"
				},
				{
					"internalType": "string",
					"name": "_lado",
					"type": "string"
				},
				{
					"internalType": "bytes32",
					"name": "_cpfComprador",
					"type": "bytes32"
				}
			],
			"name": "comprarAvulso",
			"outputs": [],
			"stateMutability": "payable",
			"type": "function"
		},
		{
			"inputs": [
				{
					"internalType": "string",
					"name": "_area",
					"type": "string"
				},
				{
					"internalType": "string",
					"name": "_tipoPreco",
					"type": "string"
				},
				{
					"internalType": "string",
					"name": "_lado",
					"type": "string"
				},
				{
					"internalType": "bytes32",
					"name": "_cpfComprador",
					"type": "bytes32"
				}
			],
			"name": "comprarPassaporte",
			"outputs": [],
			"stateMutability": "payable",
			"type": "function"
		},
		{
			"inputs": [],
			"name": "ingressoCount",
			"outputs": [
				{
					"internalType": "uint256",
					"name": "",
					"type": "uint256"
				}
			],
			"stateMutability": "view",
			"type": "function"
		},
		{
			"inputs": [
				{
					"internalType": "uint256",
					"name": "",
					"type": "uint256"
				}
			],
			"name": "ingressos",
			"outputs": [
				{
					"internalType": "uint256",
					"name": "id",
					"type": "uint256"
				},
				{
					"internalType": "string",
					"name": "tipo",
					"type": "string"
				},
				{
					"internalType": "string",
					"name": "area",
					"type": "string"
				},
				{
					"internalType": "string",
					"name": "tipoPreco",
					"type": "string"
				},
				{
					"internalType": "uint8",
					"name": "noite",
					"type": "uint8"
				},
				{
					"internalType": "string",
					"name": "lado",
					"type": "string"
				},
				{
					"internalType": "address",
					"name": "comprador",
					"type": "address"
				},
				{
					"internalType": "bytes32",
					"name": "cpfComprador",
					"type": "bytes32"
				}
			],
			"stateMutability": "view",
			"type": "function"
		},
		{
			"inputs": [
				{
					"internalType": "bytes32",
					"name": "",
					"type": "bytes32"
				}
			],
			"name": "ingressosPorCpf",
			"outputs": [
				{
					"internalType": "uint256",
					"name": "",
					"type": "uint256"
				}
			],
			"stateMutability": "view",
			"type": "function"
		},
		{
			"inputs": [],
			"name": "listarIngressos",
			"outputs": [
				{
					"components": [
						{
							"internalType": "uint256",
							"name": "id",
							"type": "uint256"
						},
						{
							"internalType": "string",
							"name": "tipo",
							"type": "string"
						},
						{
							"internalType": "string",
							"name": "area",
							"type": "string"
						},
						{
							"internalType": "string",
							"name": "tipoPreco",
							"type": "string"
						},
						{
							"internalType": "uint8",
							"name": "noite",
							"type": "uint8"
						},
						{
							"internalType": "string",
							"name": "lado",
							"type": "string"
						},
						{
							"internalType": "address",
							"name": "comprador",
							"type": "address"
						},
						{
							"internalType": "bytes32",
							"name": "cpfComprador",
							"type": "bytes32"
						}
					],
					"internalType": "struct ParintinsIngressos.Ingresso[]",
					"name": "",
					"type": "tuple[]"
				}
			],
			"stateMutability": "view",
			"type": "function"
		},
		{
			"inputs": [],
			"name": "listarIngressosDisponiveis",
			"outputs": [
				{
					"internalType": "string[]",
					"name": "tipos",
					"type": "string[]"
				},
				{
					"internalType": "string[]",
					"name": "areas",
					"type": "string[]"
				},
				{
					"internalType": "string[]",
					"name": "tiposPreco",
					"type": "string[]"
				},
				{
					"internalType": "uint256[]",
					"name": "valores",
					"type": "uint256[]"
				}
			],
			"stateMutability": "view",
			"type": "function"
		},
		{
			"inputs": [],
			"name": "owner",
			"outputs": [
				{
					"internalType": "address",
					"name": "",
					"type": "address"
				}
			],
			"stateMutability": "view",
			"type": "function"
		},
		{
			"inputs": [
				{
					"internalType": "string",
					"name": "",
					"type": "string"
				},
				{
					"internalType": "string",
					"name": "",
					"type": "string"
				},
				{
					"internalType": "string",
					"name": "",
					"type": "string"
				}
			],
			"name": "precos",
			"outputs": [
				{
					"internalType": "uint256",
					"name": "",
					"type": "uint256"
				}
			],
			"stateMutability": "view",
			"type": "function"
		},
		{
			"inputs": [],
			"name": "sacar",
			"outputs": [],
			"stateMutability": "nonpayable",
			"type": "function"
		},
		{
			"inputs": [
				{
					"internalType": "string",
					"name": "_tipo",
					"type": "string"
				},
				{
					"internalType": "string",
					"name": "_area",
					"type": "string"
				},
				{
					"internalType": "string",
					"name": "_tipoPreco",
					"type": "string"
				},
				{
					"internalType": "uint256",
					"name": "_valor",
					"type": "uint256"
				}
			],
			"name": "setPreco",
			"outputs": [],
			"stateMutability": "nonpayable",
			"type": "function"
		}
	]
}